S00B00006D61696E2E73333744
S3152000000000500020C90000200B0100200D01002017
S315200000100F01002011010020130100201D010020E6
S315200000201D0100201D0100201D01002015010020BA
S31520000030170100201D010020190100201B010020AE
S315200000401D0100201D0100201D0100201D01002092
S315200000501D0100201D0100201D0100201D01002082
S315200000601D0100201D0100201D0100201D01002072
S315200000701D0100201D0100201D0100201D01002062
S315200000801D0100201D0100201D0100201D01002052
S315200000901D0100201D0100201D0100201D01002042
S315200000A01D0100201D0100201D0100201D01002032
S315200000B01D0100201D0100201D0100201D01002022
S315200000C01D0100201D010020154B0022934208D05F
S315200000D01449154A914204D0187808700131013329
S315200000E0F8E71249124A0020914202D008700131E5
S315200000F0FAE71049084700000000BC0F0020BC0F9B
S315200001000020BC0F0020042800207047704770474D
S3152000011070477047704770477047704770470000B8
S3152000012000000000BC0F0020BC0F0020BC0F0020E8
S3152000013004280020B50E002048B1012807D0032846
S3152000014004D0052814BF0020032000E00220012946
S3152000015001D1054B06E0022901D1044B02E0042916
S3152000016001D1034B18607047002008400420084046
S3152000017008200840012801D10B4B06E0022801D1B6
S315200001800A4B02E004280BD1094B186858B1012804
S3152000019009D0022806D0032814BF00200520704766
S315200001A000207047032070470020084004200840A4
S315200001B008200840030744BF094B1960820644BF44
S315200001C0084B1960430744BF074B1960820744BF99
S315200001D0064B1960430644BF054B1960704700BFA4
S315200001E0B4200840B8200840BC200840C42008405D
S315200001F0CC200840082801D10A4B0EE0202801D146
S31520000200094B0AE0042801D1084B06E0022801D157
S31520000210074B02E0402802D1064B186870470020A1
S31520000220704700BFB4200840B8200840BC200840D2
S31520000230C4200840CC200840104B01391A680729F1
S3152000024022F0010230B51A6083BF002214461546FB
S315200002500B4A9FBF555C89180A7C0C7A094910F015
S31520000260060F08BF02F1FF320D604C608A601A68E3
S3152000027022F00E021043186030BD00BFD020084087
S315200002803C0F0020D4200840C20708D5124A136824
S3152000029043F001031360936D43F0010393658307D5
S315200002A041BF0E4A136843F001031360410741BF63
S315200002B00B4A136843F001031360C20641BF094A83
S315200002C0136843F001031360830641BF064A13688F
S315200002D043F0010313607047302108403421084061
S315200002E0382108408C21084084210840C20708D5BF
S315200002F0124A136823F001031360936D23F0010360
S315200003009365830741BF0E4A136823F001031360E8
S31520000310410741BF0B4A136823F001031360C2064D
S3152000032041BF094A136823F001031360830641BFC6
S31520000330064A136823F001031360704730210840F2
S3152000034034210840382108408C2108408421084067
S31520000350084BC0F3032203EB82039B6900F00F00D6
S3152000036003F1804303F502231968012282400A43E0
S315200003701A6070473C0F0020094BC0F3032203EBA1
S3152000038082039B6900F00F0003F1804303F50223EB
S3152000039019680122824021EA02021A60704700BFD2
S315200003A03C0F0020084BC0F3032203EB82035B6B58
S315200003B000F00F0003F1804303F5022319680122A0
S315200003C082400A431A6070473C0F0020094BC0F355
S315200003D0032203EB82035B6B00F00F0003F18043E3
S315200003E003F5022319680122824021EA02021A60DB
S315200003F0704700BF3C0F0020084BC0F3032203EBDD
S3152000040082031B6D00F00F0003F1804303F50223E6
S315200004101968012282400A431A6070473C0F002067
S31520000420094BC0F3032203EB82031B6D00F00F0080
S3152000043003F1804303F5022319680122824021EA51
S3152000044002021A60704700BF3C0F00200E4B19684D
S315200004505A6DC30704D5CB0702D4C2F3800300E04C
S315200004600123820704D50BB1C1F3400303F0010336
S31520000470420704D50BB1C1F3800303F00103002B1F
S3152000048014BF01200220704740210840044B1A68FF
S3152000049042F004021A601A6822F004021A607047B9
S315200004A010ED00E00B4A4107136848BF43F04003B4
S315200004B0810648BF43F002031360074AC107136849
S315200004C048BF43F00403C10648BF43F0030313604B
S315200004D0704700BF2C220840242208400B4A4107BF
S315200004E0136848BF23F04003810648BF23F0020368
S315200004F01360074AC107136848BF23F00403C106E7
S3152000050048BF23F003031360704700BF2C22084026
S3152000051024220840024B186800F00F008002704722
S3152000052030240340034B10B51C68FFF7F3FFE4B2F9
S31520000530604310BD2C000340054B05221A60054A76
S3152000054015211060C2F8A81002221A60704700BF59
S31520000550882203400C2203402DE9F04FC54D286820
S3152000056010F0010040F07881DFF868E30527C24BE0
S31520000570CEF800701B684FF44072C3F30323013397
S31520000580B2FBF3F3DFF850C3BC4EDCF80020316831
S3152000059092B25A43C2F38F140A0C120422433260D9
S315200005A0B74AB8491268B84E5A4392090C680A608D
S315200005B03268B64CC2F307425A432168C2F3871207
S315200005C021F0FF01DFF81483DFF814930A43226039
S315200005D0D9F80010D8F80020C1F3074122F0FF0215
S315200005E00A43C8F80020D9F80020D8F80410120EC3
S315200005F05A43920021F47F4102F47F420A43C8F80D
S315200006000420DFF8E082DFF8E0A2D8F80020DAF84C
S315200006100010120E5A43C2F38F1B0A0C12044BEA27
S315200006200202CAF80020D9F80020DFF8C092C2F3EF
S3152000063007225343D9F800109B0021F47F4103F48D
S315200006407F43934A0B439349C9F80030D1F8009071
S3152000065013684FEA196923F47F4343EA0923136099
S31520000660D1F800901368C9F3074923F0FF0349EA3C
S3152000067003031360D1F80090936809F47F4923F4AB
S315200006807F4349EA0303936009689368C9B223F05C
S31520000690FF030B438049936032680B6802F4704273
S315200006A023F4704313430B60D8F8002051F8083C1C
S315200006B002F4704223F47043134341F8083C326835
S315200006C02368120E23F47F4343EA02232360734BED
S315200006D0734E1B68CA6CC3F30B0422F47F6323F0AA
S315200006E00F0323436F4CCB642268CB6C02F4702239
S315200006F023F470231343CB646B490A683368C2F32F
S31520000700834223F4702343EA02433360DCF800304B
S315200007103268C3F30B4C22F47F6323F00F034CEAB9
S315200007200303DFF8CCC133600B68DCF80020DE0D54
S3152000073022F0FF7323F4803343EA0643CCF80030DB
S3152000074023685A4A0F3303F00F0313600C6853686B
S31520000750C4F3805423F4000343EAC453536053681C
S31520000760534E43F4804353600223CEF800304AF6BA
S31520000770AA23504CDFF87CE13360DEF80030226893
S3152000078003F00F0C22F47F0242EA0C42C3F3032348
S3152000079042EA0353DFF860C12360DCF800302268A8
S315200007A0C3F3034822F0FF0248EA0202C3F30363BD
S315200007B042EA03132360DEF80040DFF840E104F448
S315200007C07022DEF800300EF10C0E23F47F031A435C
S315200007D0C4F3036342EA0353374C4EF80C3C2268B9
S315200007E05EF8143CC2F3032223F00F0313434EF8A2
S315200007F0143CDCF800205EF8043C02F4F85223F4A2
S31520000800F85313434EF8043C2268DEF80030120BEE
S3152000081002F4704223F470431343CEF8003022686A
S31520000820264CC2F30442236823F01F03134323609C
S315200008300A682349C2F301420B6823F4401343EAB2
S3152000084002530B6045F2AA531E4A336017602B6889
S3152000085043F001032B6010601B4B1C481B681C4A8D
S3152000086013F0020F036843F0020303601368016864
S3152000087060D045E040000340002003404022034072
S315200008808C11005044220340741100502022034052
S3152000089010220340701100501C2203408411005086
S315200008A06C22034080110050B01200507822034081
S315200008B06420034084200340981100509820034070
S315200008C0A82003403C0003400000094024000340C8
S315200008D00813005088220340881100502422034028
S315200008E0781100507C1100502C2203403422034002
S315200008F0702203409011005094110050882003402C
S3152000090021F4E172C3F3C14422F001022243C3F36E
S31520000910C05142EA0122C3F3415142EA81120260E8
S315200009200268D40703D520490A685007FCD5C3F3CB
S31520000930024317E0C3F3C162DC0F42EA042421F428
S31520000940E17222F00102C3F34171224342EA81128D
S3152000095002600268D10703D513490A685207FCD5FD
S31520000960C3F302634AF6AA22104911480A600268B4
S315200009701B03B3F5E04F22F4E24218BF43F4807321
S315200009801343036045F2AA534FF6FF700B60094BE1
S31520000990002201211A6043F8201C0749086043F809
S315200009A0202CBDE8F08F00BF1C00034064200340CC
S315200009B0A82003405020034034200340012810B5CE
S315200009C00CD002D302281DD010BD1A4B1A681A600B
S315200009D0194A136843F00103136010BD1748090232
S315200009E0036889B223F47F431943154C01602068BC
S315200009F092B2010C090411430E4A2160136823F0B8
S31520000A00030311E00D480902036889B223F47F43EA
S31520000A1019430160016992B20B0C1B041343054A6A
S31520000A200361136823F002031360936823F0030322
S31520000A30936010BD40200340482003403C200340E3
S31520000A404C200340054B1B6813F0030304D0012BF5
S31520000A500CBF022000207047012070474020034031
S31520000A60012938B505460C461ED1FFF753FDB5FBC7
S31520000A70F0F00E4B05221F281A6006D80C49844038
S31520000A800A6822430A600B4A09E03F280AD80A4925
S31520000A9000F01F000A68844022430A60074A116852
S31520000AA00C43146002221A6038BD00BF882203401E
S31520000AB0E0220340F0220340E4220340F4220340D4
S31520000AC010B50446FFF726FDB4FBF0F01F2808D822
S31520000AD00E4B01221B68824012EA030014D00C4BF5
S31520000AE00BE03F280FD80B4B00F01F001B6801229C
S31520000AF0824012EA030007D0074B1B681A4214BF34
S31520000B000120002010BD002010BD00BFE0220340C0
S31520000B10F0220340E4220340F4220340174B30B571
S31520000B201A68174C22F020021A602268154D42F0EE
S31520000B305002226000220834226089B22A6002F123
S31520000B40804202F5443241F0806111601A462368E2
S31520000B509B06FCD50C4B1B6813F01F030BBF0B49E0
S31520000B6000230968036004BF01601846136818BF94
S31520000B70012043F02003136030BD00BF2400034052
S31520000B8034100340041003403C1003400C10034073
S31520000B90334B34481B68344A13F0020F036810B5F0
S31520000BA043F0020303601368016819D021F4E1724F
S31520000BB0C3F3C10422F001022243C3F3C01142EA67
S31520000BC00122C3F3411142EA811202600268D4076E
S31520000BD003D526490A685007FCD503F0070318E019
S31520000BE021F4E172C3F3C12422F00102C3F3C03120
S31520000BF0224342EA0122C3F3413142EA81120260D2
S31520000C000268D10703D519490A685207FCD5C3F3F0
S31520000C1002234AF6AA22164916480A6002681B03CE
S31520000C20B3F5E04F22F4E24218BF43F48073134336
S31520000C30036045F2AA530B600F4B104901221A603C
S31520000C4000220A601A600522C3F858224FF0FF32AC
S31520000C50C1F88C22C1F890220222C3F8582210BD76
S31520000C600000094024000340081300501C000340E4
S31520000C7064200340A8200340302003403420034052
S31520000C802DE9F84F8A4614460746FFF765FCFFF71D
S31520000C9049FC0AEB0405854204D9FFF779FF0320B6
S31520000CA0BDE8F88F1F4BDFF88C901E68C6F3C71679
S31520000CB03CB3751E0AEA0505C5EB060B5FFA8BFBEE
S31520000CC0A3454FF0100088BF5FFA84FBFFF734FC82
S31520000CD0154A0AF1FC5313602B466A1E0BEB0208D9
S31520000CE0434505D8114917F8010BC8540133F7E7D6
S31520000CF00220FFF721FCD9F800309A0706D5FAE73B
S31520000D000424FFF745FF2046BDE8F88F084B1B68F3
S31520000D10DB06F5D4C5F101055544CBEB040405EB00
S31520000D20080AC5E700240340102103402021034080
S31520000D30542003401C00034073B50446FFF7C0FE51
S31520000D40012806461CD1FFF7E5FBB4FBF0F4FFF7BC
S31520000D50E9FB0546FFF7DEFB61092B1A01F57F71DA
S31520000D6053F8212004F01F04A64022EA060602A812
S31520000D7040F8046D03EB81010422FFF781FF00E0B8
S31520000D80002002B070BD70B50546FFF7E5FBFFF702
S31520000D90C9FB0446FFF7BEFB201A854203D9FFF79D
S31520000DA0F7FE03243FE0FFF7B5FB01382842F6D1D2
S31520000DB01020FFF7C1FBFFF7ADFBB5FBF0F00123D9
S31520000DC000F01F029340DB43184A05211F281160BB
S31520000DD094BF1749174906200B6002231360164A51
S31520000DE005F1FC531360FFF7A7FB144B1A68920713
S31520000DF0FCD4134B1C6814F0100418BF0424FFF70E
S31520000E00C7FEFFF78FFB0646FFF784FB301A8542A5
S31520000E1009D10C4805F6D8711422FFF731FF10B11D
S31520000E20002C08BF0446204670BD00BF8822034020
S31520000E30C0220340C4220340102103401C0003406B
S31520000E4054200340A80F0020F8B5064614460F4646
S31520000E50FFF782FBFFF766FBA519854202D9FFF74C
S31520000E6097FE09E0104B1B6834B1C3F3C8135D1E0F
S31520000E7035402C449C4201D90320F8BD1020FFF7B1
S31520000E805BFB0A4B06F1FC561E60013CA54205D8C9
S31520000E90074B17F8012B5A550135F7E70220FFF7C4
S31520000EA04BFB0020F8BD00BF002403401021034067
S31520000EB0202103402DE9F0411B4C24202746A04643
S31520000EC0FFF7E2F94820FFF743FA184B184A0121A9
S31520000ED019601368174E43F0C003174D1360FF20A7
S31520000EE08021402284F8000831602A6094F8003876
S31520000EF0FF2BFBD02960326097F80038002BF1D108
S31520000F0098F8002898F8013898F8020802EB03238D
S31520000F1098F8031803EB004303EB01614FF40062DA
S31520000F200148FFF7ADFEDAE7002000202820086000
S31520000F30D020024090200240A02002400604000358
S31520000F40000000023C28001E000000141919001998
S31520000F500000001954000000780000006C0000001A
S31520000F60600000003C0000004800000084000000F3
S31520000F70580000007C0000007000000064000000A3
S31520000F80400000004C000000880000005C000000CB
S31520000F90800000007400000068000000440000008B
S31520000FA0500000008C000000FFFFFFC5FFFFFFFF81
S31520000FB0C5FFFFFFC5C5C5FFC5C5C5FF00000000AD
S31520000FC000000000000000000000000000000000FB
S31520000FD000000000000000000000000000000000EB
S31520000FE000000000000000000000000000000000DB
S31520000FF000000000000000000000000000000000CB
S3092000280000000000AE
S70520000000DA
