S00B00006D61696E2E73333744
S315080000000000022071C0000841C8000841C8000865
S3150800001041C8000841C8000841C8000841C800088E
S3150800002041C8000841C8000841C8000841C800087E
S3150800003041C8000841C8000841C8000821C800088E
S3150800004041C8000841C8000841C8000841C800085E
S3150800005041C8000841C8000881C7000891C70008C0
S3150800006041C8000841C8000841C80008A1C70008DF
S31508000070B1C70008C1C70008D1C70008E1C7000812
S31508000080F1C7000801C8000841C8000841C80008AF
S3150800009041C8000841C8000841C8000841C800080E
S315080000A041C8000841C8000841C8000841C80008FE
S315080000B041C8000841C8000841C8000841C80008EE
S315080000C041C8000841C8000841C8000841C80008DE
S315080000D041C8000841C8000841C8000841C80008CE
S315080000E041C8000841C8000841C8000841C80008BE
S315080000F041C8000841C8000841C8000811C80008DE
S3150800010041C8000841C8000841C8000841C800089D
S3150800011041C8000841C8000841C8000841C800088D
S3150800012041C8000841C8000841C8000841C800087D
S3150800013041C8000841C8000841C8000841C800086D
S3150800C070144B0022934208D01349144A914204D023
S3150800C0801878087001310133F8E71149114A002080
S3150800C090914202D008700131FAE70F4801680F4A49
S3150800C0A011430160BFF34F8FBFF36F8F0C490847E9
S3150800C0B010D8000800000020000000200000002022
S3150800C0C0EC80002010D800080000002000000020A6
S3150800C0D000000020EC80002088ED00E00000F00061
S3150800C0E071D50008000000000000000000000000F4
S3150800C0F010B504460548042101F07FF80028F9D157
S3150800C1002046BDE8104000F023BE00BF00000240F4
S3150800C11008B500F03DFE0028FBD0BDE8084000F059
S3150800C1202FBE00BFAFF30080AFF30080AFF30080EF
S3150800C13008B501E000F024FE00F02AFE0028F9D137
S3150800C14008BD00BFAFF30080AFF30080AFF30080F7
S3150800C150704700BFAFF30080AFF30080AFF30080F5
S3150800C16010B5054C0321204601F03EF82046022171
S3150800C170BDE8104001F03DB800000240AFF3008072
S3150800C18010B5064C03212046012201F02AF8204664
S3150800C19002210022BDE8104001F023B80000024049
S3150800C1A010B5054C0321204601F01EF82046022151
S3150800C1B0BDE8104001F018B800000240AFF3008057
S3150800C1C010B5054C0321204601F013F8204602213C
S3150800C1D0BDE8104001F00DB800000240AFF3008042
S3150800C1E010B5054C0321204600F0A1FE2046022189
S3150800C1F0BDE8104000F09BBE00000240AFF300808F
S3150800C200F8B5174B984205461DD0164B98421ED0D6
S3150800C210154B98421FD0154C671B04F50046A278AB
S3150800C2206378785DE178120442EA0323034343EA1C
S3150800C23001612846043400F047FEB44205F10405BE
S3150800C240EDD10020F8BD052000F00AFEE3E7062040
S3150800C25000F006FEDFE7072000F002FEDBE700BF7E
S3150800C260000002080000040800000608D0000020AC
S3150800C270F8B5324A324C137867683249324D334E34
S3150800C2809B0963F3114767604B6C43F480734B64F7
S3150800C290AB6843F00103AB6013780446184600F018
S3150800C2A0EFFBAB682A4A2B4943F40063AB60E960AD
S3150800C2B02A61E207347010D4A30714D4670718D488
S3150800C2C025071CD4E00620D4A10624D4620628D467
S3150800C2D023062CD401237370F8BD1F48042100F0EF
S3150800C2E072FFA307EAD51C48052100F06CFF670713
S3150800C2F0E6D51A48002100F066FF2507E2D517485B
S3150800C300012100F060FFE006DED50021124800F0AA
S3150800C3105AFFA106DAD51048012100F054FF62063B
S3150800C320D6D50D48022100F04EFF2306D2D50A487D
S3150800C330032100F048FF01237370F8BDE080002058
S3150800C340002301400038024000200140D880002028
S3150800C350244992242449FE000008024000040240B1
S3150800C36070B53A4E3A4A30703A49137804464868E6
S3150800C3709B0963F311402507486048D03649374D75
S3150800C3804B6C43F480734B64AB6843F00103AB60BA
S3150800C390107800F075FBAB683149324A43F4006304
S3150800C3A0E007AB60E9602A6149D4A1073AD462077D
S3150800C3B03ED4230731D4294B9A6B0E2161F304022C
S3150800C3C09A639A6B0F2161F349129A639A6B082153
S3150800C3D061F38E229A639A6B092161F3D3329A63C9
S3150800C3E09A6B42F440129A639A6842F002029A6083
S3150800C3F05A6842F480725A605A6842F480625A60F7
S3150800C4009A6842F080429A600223737070BD107871
S3150800C41000F036FB0223737070BD1348012100F04B
S3150800C420D2FEC8E71148052100F0CDFE6207C0D547
S3150800C4300D48002100F0C7FE2307BCD5EDE704210F
S3150800C4400A4800F0C0FEA107B1D5EBE7D880002066
S3150800C450E08000200023014000380240002001400F
S3150800C4602449FE00244992240004024000080240A0
S3150800C47010B5254B1C78E4B2E00716D4A1071AD4E8
S3150800C48062071ED4230722D4E00626D4A1062AD49E
S3150800C49062062ED4230632D41C4A1D4B0021916015
S3150800C4A05A6C61F308225A6410BD0421194800F039
S3150800C4B0D6FDA107E4D51748052100F0D0FD62078F
S3150800C4C0E0D51548002100F0CAFD2307DCD512483F
S3150800C4D0012100F0C4FDE006D8D500210D4800F082
S3150800C4E0BEFDA106D4D50B48012100F0B8FD6206B1
S3150800C4F0D0D50848022100F0B2FD2306CCD5054860
S3150800C500032100F0ACFDC7E7D880002000200140D9
S3150800C510003802400008024000040240AFF30080E1
S3150800C520394B5A78012A0AD05B78022B01D00020B1
S3150800C53070470328FBD8DFE800F016120E0A072812
S3150800C5405AD8DFE800F0282F363D444B52142F4BBB
S3150800C550986C80B270472D4B586C80B270472B4B45
S3150800C560186C80B27047294BD86B80B27047274B3E
S3150800C5705A6B0D2161F304025A63244A936843F007
S3150800C58080439360136821499B07FBD5CB6C4FF614
S3150800C590F070184070471D4B5A6B0E2161F3040268
S3150800C5A05A63EAE7194B5A6B0F2161F304025A637F
S3150800C5B0E3E7164B5A6B082161F304025A63DCE77A
S3150800C5C0124B5A6B092161F304025A63D5E70F4BE4
S3150800C5D05A6B0A2161F304025A63CEE70B4B5A6B76
S3150800C5E00B2161F304025A63C7E7084B5A6B0C2107
S3150800C5F061F304025A63C0E7044B5A6B102161F3D6
S3150800C60004025A63B9E700BFD88000200020014021
S3150800C610284B5A78022A44D0072844D8DFE800F085
S3150800C62010171E252C333A04234B5A6B0D2161F340
S3150800C63004025A63204A936843F0010393607047E3
S3150800C6401D4B5A6B0E2161F304025A63F2E71A4B2B
S3150800C6505A6B0F2161F304025A63EBE7164B5A6BC8
S3150800C660082161F304025A63E4E7134B5A6B092164
S3150800C67061F304025A63DDE70F4B5A6B0A2161F333
S3150800C68004025A63D6E70C4B5A6B0B2161F304027A
S3150800C6905A63CFE7084B5A6B0C2161F304025A63BD
S3150800C6A0C8E798707047044B5A6B102161F304026F
S3150800C6B05A63BFE7D880002000200140AFF300800E
S3150800C6C0064B5B78022B06D0054B1868C0F3400072
S3150800C6D080F0010070470020704700BFD880002016
S3150800C6E000200140AFF30080AFF30080AFF3008075
S3150800C6F0114B5A78022A05D0104BDB6C4FF6F070B6
S3150800C700184070479B78032B13D8DFE803F00E0A0E
S3150800C71006020A4B986C80B27047084B586C80B278
S3150800C7207047064B186C80B27047044BD86B80B2C2
S3150800C73070470020704700BFD880002000200140C5
S3150800C74070477047AFF30080AFF30080AFF3008007
S3150800C75070477047AFF30080AFF30080AFF30080F7
S3150800C76070477047AFF30080AFF30080AFF30080E7
S3150800C77070477047AFF30080AFF30080AFF30080D7
S3150800C78070477047AFF30080AFF30080AFF30080C7
S3150800C79070477047AFF30080AFF30080AFF30080B7
S3150800C7A070477047AFF30080AFF30080AFF30080A7
S3150800C7B070477047AFF30080AFF30080AFF3008097
S3150800C7C070477047AFF30080AFF30080AFF3008087
S3150800C7D070477047AFF30080AFF30080AFF3008077
S3150800C7E070477047AFF30080AFF30080AFF3008067
S3150800C7F070477047AFF30080AFF30080AFF3008057
S3150800C80070477047AFF30080AFF30080AFF3008046
S3150800C81070477047AFF30080AFF30080AFF3008036
S3150800C820034B1A6812B11A68013A1A60FFF790BCEE
S3150800C830DC800020AFF30080AFF30080AFF3008008
S3150800C84010B5094C0621204600F071FB2046072149
S3150800C85000F06DFB2046062100F0CBFC20460721A0
S3150800C860BDE8104000F0C5BC00080240AFF30080E8
S3150800C87020B9054A1368002BFCD1704772B6024AE4
S3150800C880106062B6F6E700BFDC800020AFF30080D8
S3150800C89072B6024B186062B6704700BFDC80002093
S3150800C8A072B6024B186862B6704700BFDC8000207B
S3150800C8B00F4B10491A6842F001021A601A6842F0D2
S3150800C8C004021A605A68013820F07F4060F31702A4
S3150800C8D05A609A6860F317029A601A6842F0020270
S3150800C8E01A600B6A802262F31F630B62704700BFEF
S3150800C8F010E000E000ED00E0AFF30080AFF3008049
S3150800C900044B1A686FF341021A601A686FF3000243
S3150800C9101A60704710E000E0AFF30080AFF30080C4
S3150800C92010B4504A504B1468052161F3030414608F
S3150800C9309A6861F38C229A609A68042161F34F32EF
S3150800C9409A6010F480611A686DD142F001021A608B
S3150800C9501C68454AA407FBD593686FF301039360E7
S3150800C9609368414CC3F38103002BF9D1226863F322
S3150800C97018622260626863F39652626004051FD5E6
S3150800C980394BC0F307425C68520062F38E145C6050
S3150800C9905C68C0F30312920062F305045C605A688F
S3150800C9A0C0F3013464F311425A605A6860F31B629B
S3150800C9B05A601A6842F080721A601A689201FCD5A9
S3150800C9C0294B9A68C0F3012464F301029A6029BBD3
S3150800C9D01A6861F310421A60244B000E18701A7810
S3150800C9E0532A09D8204A9168042060F38C21916063
S3150800C9F091686FF34F3191601A78292A04D81A4A38
S3150800CA0091686FF38C219160164A1B7811685B094F
S3150800CA1063F3030111605DF8044B70471A686FF3FE
S3150800CA2000021A60D8E76FF392421A601A6842F455
S3150800CA3080321A601C680C4AA403FBD5936801244B
S3150800CA4064F3010393609368074CC3F38103012BD6
S3150800CA50F9D123686FF318632360636843F480038E
S3150800CA6063608BE7003C024000380240E08000200B
S3150800CA70704700BFAFF30080AFF30080AFF30080CC
S3150800CA8010B100BF0138FCD1704700BFAFF300807A
S3150800CA9050B10649CA220B7803FB02F313B100BF53
S3150800CAA0013BFCD10138F6D1704700BFE080002079
S3150800CAB062B67047AFF30080AFF30080AFF3008033
S3150800CAC072B67047AFF30080AFF30080AFF3008013
S3150800CAD010B5FFF7F5FF0A4A0A480B4B0B4C0C49F1
S3150800CAE0846011601A6842F480721A601A6842F407
S3150800CAF000721A601A6842F480621A6010BD00BF9C
S3150800CB00E880002000ED00E0003C0240000000083C
S3150800CB1031CE0008AFF30080AFF30080AFF300809A
S3150800CB2008B5FFF7CDFF0349034B0448044A88605C
S3150800CB301A6008BD00ED00E0E8800020000000084B
S3150800CB4031CE0008AFF30080AFF30080AFF300806A
S3150800CB5000787047AFF30080AFF30080AFF3008032
S3150800CB6000887047AFF30080AFF30080AFF3008012
S3150800CB7038B5264D264A2B6B43F001032B636B6CA5
S3150800CB8043F0100304466B642248092100F022FA98
S3150800CB90214A20480A2100F01DFA09211D4800F003
S3150800CBA028FB1E4B00221A70AB68C3F34233032BD3
S3150800CBB0164B9B68C3F34233C8BF6408042B134B58
S3150800CBC09B68C3F34233C8BF6408052BC8BF640813
S3150800CBD0134BA4B29C609A69012161F307029A611A
S3150800CBE0DA686FF30C32DA60DA686FF38A22DA6091
S3150800CBF0DA6842F40052DA60DA6842F00802DA606B
S3150800CC00DA6842F00402DA6038BD00BF0038024034
S3150800CC10120007000000024012100700E180002001
S3150800CC2000100140AFF30080AFF30080AFF300803F
S3150800CC3038B5264D264A2B6B43F001032B636B6CE4
S3150800CC4043F0100304466B642248062100F0C2F93B
S3150800CC50214A2048072100F0BDF906211D4800F0A9
S3150800CC60C8FA1E4B01221A70AB68C3F34233032B72
S3150800CC70164B9B68C3F34233C8BFD440042B134BEF
S3150800CC809B68C3F34233C8BF6408052BC8BF640852
S3150800CC90134BA4B29C609A69012161F307029A6159
S3150800CCA0DA686FF30C32DA60DA686FF38A22DA60D0
S3150800CCB0DA6842F40052DA60DA6842F00802DA60AA
S3150800CCC0DA6842F00402DA6038BD00BF0038024074
S3150800CCD0120007000004024012100700E18000203D
S3150800CCE000100140AFF30080AFF30080AFF300807F
S3150800CCF008B50F4B1B7893B10E48062100F0AFF923
S3150800CD000C48072100F0ABF90B4A0C4BD1686FF3BE
S3150800CD104D31D1605A6C6FF304125A6408BD084845
S3150800CD20092100F09CF906480A2100F098F9EBE77A
S3150800CD30E180002000040240001001400038024053
S3150800CD4000000240AFF30080AFF30080AFF300802D
S3150800CD5004490B68034A1B06FBD5536860F30803AE
S3150800CD605360704700100140AFF30080AFF30080B6
S3150800CD70024B5A6860F308025A6070470010014077
S3150800CD80014B5868C0B2704700100140AFF30080ED
S3150800CD90024B1868C0F34010704700BF00100140EE
S3150800CDA0024B1868C0F3C010704700BF001001405E
S3150800CDB0704700BFAFF30080AFF30080AFF3008089
S3150800CDC0704700BFAFF30080AFF30080AFF3008079
S3150800CDD0704700BFAFF30080AFF30080AFF3008069
S3150800CDE0704700BFAFF30080AFF30080AFF3008059
S3150800CDF0044B1A68511C196010701B6800221A70BF
S3150800CE00704700BFE4800020AFF30080AFF30080D6
S3150800CE10014B5860704700BFE4800020AFF30080E4
S3150800CE20014B5B68184700BFE4800020AFF3008021
S3150800CE3000BF7047AFF30080AFF30080AFF3008008
S3150800CE40034B04491860002259600270704700BFFE
S3150800CE50E4800020F1CD0008AFF30080AFF3008036
S3150800CE603EB51423124C134925680D600431043469
S3150800CE70013BF9D14F39084772B60F4C236913F0B5
S3150800CE80004F03D00D4D0E4B656063604FEAC0003E
S3150800CE9050F0020050F4007020610A4B18432061DC
S3150800CEA0E5681D42FCD18023236162B63EBD0000C1
S3150800CEB078CE000800000020003C024023016745A8
S3150800CEC0AB89EFCD000001003CB51423114C124A82
S3150800CED02568156004320434013BF9D14F3A1047EE
S3150800CEE072B60E4C236913F0004F03D00C4D0D4B50
S3150800CEF0656063604FF4007343F0010323610160CA
S3150800CF00094BE5681D42FCD14FF00003236162B668
S3150800CF103CBD0000E0CE000800000020003C0240B6
S3150800CF2023016745AB89EFCD00000100704710B5B6
S3150800CF3000F014F8490003238B40DB4302681A40CB
S3150800CF4001248C402243026082681A4003248C40E4
S3150800CF5022438260C2681A40C26010BD830A0F224B
S3150800CF60134001229A40C74B1C6B14431C6370473D
S3150800CF7010B5FFF7F3FF0221014206D1C24901604D
S3150800CF80C2498160C249C16010BD0121014210D168
S3150800CF90C04A1040C04A03681340C0490B430360A7
S3150800CFA083681340BE490B438360C3681340C3605C
S3150800CFB010BDB84A1040BA4A03681340B9490B4332
S3150800CFC0036083681340B4490B438360C368134006
S3150800CFD0C36010BD70B51546FFF7C0FF01238B402F
S3150800CFE0DB4301262C0A34408C4042681A4022430F
S3150800CFF04260490003238B40DB4303262C4634401A
S3150800D0008C4002681A40224302602C0B34408C4044
S3150800D010C2681A402243C2602C0934408C40826898
S3150800D0201A402243826049000F26202319420AD15A
S3150800D0300F238B40DB432C0C34408C40026A1A4089
S3150800D0402243026270BDC91A0F238B40DB432C0CA6
S3150800D05034408C40426A1A402243426270BD10B581
S3150800D060FFF77CFF490003238B40DB4302681A4025
S3150800D0700260C2681A40C26010BD10B5FFF76EFFA5
S3150800D0800221014203D182490160C16010BD01211C
S3150800D090014209D17F4A10407F4A03681340036062
S3150800D0A0C3681340C36010BD7A4A10407C4A0368BF
S3150800D0B013400360C3681340C36010BD10B5FFF783
S3150800D0C04DFF490003238B40DB4302681A40026088
S3150800D0D0C2681A4001248C402243C26010BD10B5B4
S3150800D0E0FFF73CFF490003238B40DB4302681A40E5
S3150800D0F00260C2681A4002248C402243C26010BDF6
S3150800D10010B5FFF72BFF0221014204D160490160E7
S3150800D1105D49C16010BD012101420BD15D4A104035
S3150800D1205D4A036813400360C36813405B490B43B9
S3150800D130C36010BD574A1040594A0368134003603C
S3150800D140C368134057490B43C36010BD10B5FFF7BA
S3150800D15005FF0221014204D14D4901605249C160CF
S3150800D16010BD012101420BD14A4A10404A4A0368C0
S3150800D17013400360C36813404C490B43C36010BD9A
S3150800D180444A1040464A036813400360C368134084
S3150800D19047490B43C36010BD10B5FFF7DFFE4900D2
S3150800D1A003238B40DB4302681A4002248C40224347
S3150800D1B0026082681A4003248C4022438260C26857
S3150800D1C01A40C26010BD10B5FFF7C8FE4900032318
S3150800D1D08B4002681A430260C268DB431A40C26089
S3150800D1E010BD002A40F005805FF480328A408261D3
S3150800D1F0704701228A408261704702690123002034
S3150800D2008B401A4000D0012070470269244810401C
S3150800D2107047416170474FF00F03426901EA030105
S3150800D22022EA030241EA0201416170474FF0F00326
S3150800D23042694FEA011101EA030122EA030241EABF
S3150800D2400201416170474FF4706342694FEA012158
S3150800D25001EA030122EA030241EA02014161704739
S3150800D2604FF4704342694FEA013101EA030122EAA9
S3150800D270030241EA0201416170478161704709046E
S3150800D280816170470038024055555555FFFFFFFF2D
S3150800D29000000000FCFFFFFF0000FFFF55550000DF
S3150800D2A0FFFF000000005555AAAAAAAAAAAA0000CC
S3150800D2B00000AAAA0000000000000000000000000C
S3150800D2C038B502F50052013203EBC223DC000346EF
S3150800D2D00D4620461946FFF7F7FD201D2946BDE8ED
S3150800D2E03840FFF7F1BD00BFAFF30080AFF3008011
S3150800D2F000F50050C90008B5013001EB803000F098
S3150800D3002FF980B208BD00BFAFF30080AFF30080ED
S3150800D310C90001EB80310248084400F021B900BF7A
S3150800D32004400008AFF30080AFF30080AFF300803D
S3150800D3302DE9F04FC0B200F5005085B05FFA81FBC9
S3150800D340013080030BF5005B01F500510BF1010B71
S3150800D3500393A0F10803013100934FEA8B3300F5DC
S3150800D3607F560193CB029246383602930025304603
S3150800D37000F0F6F884B20746301D00F0F1F854457F
S3150800D380804612D0DDF804904FF0000B03E0AB4561
S3150800D3901DD00BF1010B484600F0E2F880B284423A
S3150800D3A009F10809F3D15D4511D0009B083E9E425C
S3150800D3B0DDD1029B2B44DC0051462046FFF784FD55
S3150800D3C00399201D05B0BDE8F04FFFF77DBD029B10
S3150800D3D0EC18E400F9B22046FFF776FD201D414619
S3150800D3E0FFF772FD0135E0E7AFF30080AFF3008089
S3150800D3F04FF40060704700BFAFF30080AFF30080C2
S3150800D400B0F5006F2DE9F84304D34FF0FF384046D6
S3150800D410BDE8F883114FDFF8489006464FF0FF380D
S3150800D420A7F5804405E0FF2D04F108040FD0BC429F
S3150800D4300DD0204600F094F885B2AE42F3D1201DF7
S3150800D44000F08EF8FF2D804604F10804EFD107F5A9
S3150800D45080474F45E4D14046BDE8F8830080000880
S3150800D46000000108AFF30080AFF30080AFF300803F
S3150800D47008B50120FFF7F4FC0220BDE80840FFF7D5
S3150800D480EFBC00BFAFF30080AFF30080AFF30080BE
S3150800D4902DE9F84F2E4C074620468A4600F060F8DC
S3150800D4A04FF6FF7680B22B4BB04205BF1C464FF0B5
S3150800D4B0010B4FF0000B4FF0000818BF4FF00108A2
S3150800D4C06FEA0A090025204600F04AF880B287422A
S3150800D4D032D0204600F044F880B2B04204F1080485
S3150800D4E011D00135B5F5006FEDD1D1452BD04046A9
S3150800D4F05946FAB25346FFF71BFF08F10100BDE88B
S3150800D500F84FFFF7ADBC40F2FF74A54219D0CA45E3
S3150800D5101BD008F5005808F1010805EBC8284FEAA2
S3150800D520C808F9B24046FFF7CFFC08F10400514697
S3150800D530BDE8F84FFFF7C8BC201D00F011F881467A
S3150800D540C7E7D145E5D1BDE8F88FBDE8F88F00BF3C
S3150800D5500080000800400008AFF30080AFF30080A9
S3150800D560006870470000000000000000000000008E
S3150800D5702DE9F04F83B0FFF7ABFA9D489D4F9E4EBD
S3150800D580DFF888A2FFF7CCF9FEF72AFE04219B48AC
S3150800D590FFF794FDD920FFF7EBFAFEF7C9FD0C203B
S3150800D5A0FEF766FEFEF7ECFD4FF47A70FFF770FAA9
S3150800D5B0FEF7F6FD07F1800907F58078FFF7E8FB27
S3150800D5C00028FBD0FFF7DCFB00F15603DBB2032B88
S3150800D5D0F4D80190FEF7C4FD0198A0F1AB0424022B
S3150800D5E0FFF7D6FB0028FBD0FFF7CAFB0443FFF77B
S3150800D5F0CFFB0028FBD0FFF7C3FBA6F8B809FFF757
S3150800D600C7FB0028FBD0FFF7BBFBB6F8B83943EADF
S3150800D6100020A6F8B809FFF7BBFB0028FBD0FFF7E8
S3150800D620AFFBA6F8BA09FFF7B3FB0028FBD0FFF754
S3150800D630A7FBB6F8BA3943EA0020A6F8BA09FFF7F5
S3150800D640A7FB0028FBD0FFF79BFB8346FFF7A0FB51
S3150800D6500028FBD0FFF794FB4BEA002BFFF798FB5B
S3150800D6600028FBD0FFF78CFB4BEA004BFFF790FB3B
S3150800D6700028FBD0FFF784FBB6F8B8394BEA006BF5
S3150800D6807BB10025FFF784FB0028FBD0FFF778FB6A
S3150800D6907A19B6F8B83982F880000135ADB2AB42CE
S3150800D6A0F0D8FFF775FB0028FBD0FFF769FBFEF7FC
S3150800D6B067FDA4F1C703372B00F29280DFE803F079
S3150800D6C08990909090909090909090909090909053
S3150800D6D09090909090909090908390909090909049
S3150800D6E09090909090909090907289898989898974
S3150800D6F08949908989661C89414A02F1840352F84E
S3150800D700041F43F8041B4345F9D14FF0000BFEF7FD
S3150800D71027FDB6F8BA3993B100243B1993F880501F
S3150800D72036480421FFF769FD0028F9D12846FFF796
S3150800D7300FFB0134B6F8BA39A4B2A342EDD82F4884
S3150800D7400421FFF75AFD0028F9D15846FFF700FBD8
S3150800D75034E70220FEF7E4FE2A4B80B2A3FB00233F
S3150800D7609B09032087F88030FEF7DAFE254B80B246
S3150800D770A3FB00239B094FF0000B87F8813087F83D
S3150800D78082B0FEF7EDFCB6F8BA39C4E71E4AA2F134
S3150800D7907C0352F8041F43F8041B4B45F9D14FF09C
S3150800D7A0000BB4E7412080219AF800209AF801304E
S3150800D7B087F8800087F8811087F8822087F88330F9
S3150800D7C04FF0000BDDE75846FEF71AFD5FFA80FBBF
S3150800D7D0D7E7FEF7C5FC4FF0000BB6F8BA399AE75B
S3150800D7E05946204612F00CFC5FFA80FBC9E700BFD9
S3150800D7F0250E6464500000201877002000000240BF
S3150800D8004C000020D34D6210CC00002000400208D6
S3150800D81000000000000000000000000000000000FA
S3150800D82000000000000000000000000000000000EA
S3150800D83000000000000000000000000000000000DA
S3150800D84000000000000000000000000000000000CA
S31508020000103808B5982800F2A280DFE800F05155AA
S3150802001059A05D64696E737AA0A0A0A0A0A0A0A052
S31508020020A0A0A0A0A0A0A0A0A0A0A0A0A0A0A0A0C0
S31508020030A0A0A0A0A0A0A0A0A0A0A0A0A0A0A0A0B0
S31508020040A0A0A0A0A0A0A0A0A0A0A0A0A0A0A0A0A0
S31508020050A0A0A0A0A0A0A0A0A0A0A0A0A0A0A0A090
S31508020060A0A0A0A0A0A0A0A0A0A0A0A0A0A0A0A080
S31508020070A0A0A0A0A0A0A0A0A0A0A0A0A0A0A0A070
S31508020080A0A0A0A0A0A0A0A0A0A0A0A0A0A0A0A060
S31508020090A0A0A0A0A0A0A0A0A0A0A0A0A0A07E8290
S315080200A0868A8E92969B4D0010F03AF8002008BD7B
S315080200B010F03EFC002008BD10F082FC002008BDAE
S315080200C010F0AEFC002008BD224B0846198810F035
S315080200D047FD002008BD084610F0CAFD002008BDED
S315080200E0084610F005FF002008BD0846BDE808408E
S315080200F010F0FEBF184B08461988BDE8084011F0F3
S3150802010007B911F045FA002008BD10F039F80020A9
S3150802011008BD10F075F8002008BD10F0A9F80020F7
S3150802012008BD10F0DDF8002008BD10F039F90020EE
S3150802013008BD10F04DFA002008BD084610F030FB45
S31508020140002008BD002010F0BBFB002008BD0120DE
S3150802015008BD00BFD2800020D0800020AFF3008007
S3090802400000020000AA
S3150802400800000000004000000080000000C0000018
S31508024018000001000000020000000300000004007E
S31508024028000005000000060000000700000008005E
S315080240380000090000000A0000000B0000000C003E
S3150802404800000D0000000E0000000F00000010001E
S3150802405800001100000012000000130000001400FE
S3150802406800001500000016000000170000001800DE
S315080240780000190000001A0000001B0000001C00BE
S3150802408800001D0000001E0000001F00000020009E
S31508024098000021000000220000002300000024007E
S315080240A8000025000000260000002700000028005E
S315080240B80000290000002A0000002B0000002C003E
S315080240C800002D0000002E0000002F00000030001E
S315080240D800003100000032000000330000003400FE
S315080240E800003500000036000000370000003800DE
S315080240F80000390000003A0000003B0000003C00BE
S3150802410800003D0000003E0000003F0000000000DD
S31508024118000001000000020000000300000004007D
S31508024128000005000000060000000700000008005D
S315080241380000090000000A0000000B0000000C003D
S3150802414800000D0000000E0000000F00000010001D
S3150802415800001100000012000000130000001400FD
S3150802416800001500000016000000170000001800DD
S315080241780000190000001A0000001B0000001C00BD
S3150802418800001D0000001E0000001F00000020009D
S31508024198000021000000220000002300000024007D
S315080241A8000025000000260000002700000028005D
S315080241B80000290000002A0000002B0000002C003D
S315080241C800002D0000002E0000002F00000030001D
S315080241D800003100000032000000330000003400FD
S315080241E800003500000036000000370000003800DD
S315080241F80000390000003A0000003B0000003C00BD
S3150802420800003D0000003E0000003F00000040009C
S31508024218000041000000420000004300000044007C
S31508024228000045000000460000004700000048005C
S315080242380000490000004A0000004B0000004C003C
S3150802424800004D0000004E0000004F00000050001C
S3150802425800005100000052000000530000005400FC
S3150802426800005500000056000000570000005800DC
S315080242780000590000005A0000005B0000005C00BC
S3150802428800005D0000005E0000005F00000060009C
S31508024298000061000000620000006300000064007C
S315080242A8000065000000660000006700000068005C
S315080242B80000690000006A0000006B0000006C003C
S315080242C800006D0000006E0000006F00000070001C
S315080242D800007100000072000000730000007400FC
S315080242E800007500000076000000770000007800DC
S315080242F80000790000007A0000007B0000007C00BC
S3150802430800007D0000007E0000007F0000407F005C
S3150802431800807F0000C07F00000000000040000007
S315080243280080000000C00000000001000000020032
S315080243380000030000000400000005000000060053
S3150802434800000700000008000000090000000A0033
S3150802435800000B0000000C0000000D0000000E0013
S3150802436800000F00000010000000110000001200F3
S3150802437800001300000014000000150000001600D3
S3150802438800001700000018000000190000001A00B3
S3150802439800001B0000001C0000001D0000001E0093
S315080243A800001F0000002000000021000000220073
S315080243B80000230000002400000025000000260053
S315080243C800002700000028000000290000002A0033
S315080243D800002B0000002C0000002D0000002E0013
S315080243E800002F00000030000000310000003200F3
S315080243F800003300000034000000350000003600D3
S3150802440800003700000038000000390000003A00B2
S3150802441800003B0000003C0000003D0000003E0092
S3150802442800003F0000004000000041000000420072
S315080244380000430000004400000045000000460052
S3150802444800004700000048000000490000004A0032
S3150802445800004B0000004C0000004D0000004E0012
S3150802446800004F00000050000000510000005200F2
S3150802447800005300000054000000550000005600D2
S3150802448800005700000058000000590000005A00B2
S3150802449800005B0000005C0000005D0000005E0092
S315080244A800005F0000006000000061000000620072
S315080244B80000630000006400000065000000660052
S315080244C800006700000068000000690000006A0032
S315080244D800006B0000006C0000006D0000006E0012
S315080244E800006F00000070000000710000007200F2
S315080244F800007300000074000000750000007600D2
S3150802450800007700000078000000790000007A00B1
S3150802451800007B0000007C0000007D0000007E0091
S3150802452800007F00000000000000010000000200F1
S315080245380000030000000400000005000000060051
S3150802454800000700000008000000090000000A0031
S3150802455800000B0000000C0000000D0000000E0011
S3150802456800000F00000010000000110000001200F1
S3150802457800001300000014000000150000001600D1
S3150802458800001700000018000000190000001A00B1
S3150802459800001B0000001C0000001D0000001E0091
S315080245A800001F0000002000000021000000220071
S315080245B80000230000002400000025000000260051
S315080245C800002700000028000000290000002A0031
S315080245D800002B0000002C0000002D0000002E0011
S315080245E800002F00000030000000310000003200F1
S315080245F800003300000034000000350000003600D1
S3150802460800003700000038000000390000003A00B0
S3150802461800003B0000003C0000003D0000003E0090
S3150802462800003F0000403F0000803F0000C03F00F6
S3150803000070B51F4C1F4E204D20460921DCF78FFF84
S3150803001009212046DDF7E8F83046DCF7A9FF28462C
S31508030020DCF7A6FF30460021DDF7F3F82846002162
S31508030030DDF7EFF81548DDF720F820460C21DCF745
S3150803004076FF20460C21DDF7D4F820460D21DCF790
S315080300506EFF20460D21DDF7CCF820460F21DCF78D
S3150803006066FF20460F21DDF7C4F820460E21DCF78C
S315080300705EFF20460E21BDE87040DDF7BAB800BF23
S3150803008000040240000C024000100240000802402F
S3150803009010B50446E2071B484FF0090123D5DCF7E0
S315080300A046FF18480921DDF79FF8A30715484FF0BF
S315080300B00C011FD4DDF702F81348DDF721F81348BE
S315080300C0DDF71EF81248DDF71BF80E480D21DCF79D
S315080300D0F5FF0C480F21DCF7F1FF0A480E21BDE8AE
S315080300E01040DCF7EBBFDCF7E9FFA30705484FF041
S315080300F00C01DFD5DCF71BFF02480C21DDF774F88A
S31508030100DAE700BF00040240000C02400010024078
S3150803011000080240AFF30080AFF30080AFF300801E
S3150803012010B51048104CDCF7A8FF1048DCF7A5FFFC
S315080301300F48DCF7A2FF20460C21DCF790FF204688
S315080301400D21DCF78CFF20460F21DCF788FF2046BC
S315080301500E21DCF784FF20460921BDE81040DCF7B1
S315080301607EBF00BF000C024000040240001002409C
S3150803017000080240AFF30080AFF30080AFF30080BE
S3150803018070B51B48DCF7F4FE002001F0D1FA012410
S3150803019004E01748DDF73DF80134A4B2DCF7F8FDAF
S315080301A0651EADB229460028F3D001F0D1FA0646FA
S315080301B0CC2E29460E4812D0DDF72BF8AB2EEBD101
S315080301C00B480021DDF725F80948DCF756FF0A2412
S315080301D0013CA4B201F0BCFA002CF9D170BD002091
S315080301E001F0A6FA29460248DDF713F8D4E700BF5B
S315080301F000080240AFF30080AFF30080AFF300803E
S3150803020070B51948DCF7B4FE002001F091FA012411
S3150803021004E01548DCF7FDFF0134A4B2DCF7B8FDAA
S31508030220651EADB229460028F3D001F091FA0646B9
S31508030230CC2E29460C480FD0DCF7EBFFAB2EEBD1BF
S3150803024009480021DCF7E5FF0A24013CA4B201F0C2
S315080302507FFA002CF9D170BD002001F069FA29460E
S315080302600148DCF7D6FFD7E7000C0240AFF300805E
S3150803027070B51948DCF77CFE002001F059FA012411
S3150803028004E01548DCF7C5FF0134A4B2DCF780FDAA
S31508030290651EADB229460028F3D001F059FA064681
S315080302A0CC2E29460C480FD0DCF7B3FFAB2EEBD187
S315080302B009480021DCF7ADFF0A24013CA4B201F08A
S315080302C047FA002CF9D170BD002001F031FA29460E
S315080302D00148DCF79EFFD7E700100240AFF3008022
S315080302E070B5002001F024FA002620E005462B48C5
S315080302F00C2104F00102DCF774FF28480D2104F0F1
S315080303000202DCF76EFF25480F2104F00402DCF72E
S3150803031068FF22480E2104F00802DCF762FF04F0A6
S3150803032010021E4809210136DCF75BFFADB9DCF77D
S315080303302FFDB4B20028D9D001F00AFACC28054615
S315080303404FF0000005D0A5F1AB05B5FA85F56D09A3
S31508030350CDE701F0EDF90025C9E710480C21002285
S31508030360DCF73FFF0D480D210122DCF73AFF0B4866
S315080303700F210122DCF735FF08480E210122DCF79D
S3150803038030FF064809210022DCF72BFF0A24013C2B
S31508030390A4B201F0DDF9002CF9D170BD00040240C6
S315080303A0F8B58548854DDCF768FE8548DCF765FEB4
S315080303B08448DCF762FE84480C21DCF750FE824849
S315080303C00D21DCF74CFE80480F21DCF748FE7E48FA
S315080303D00E21DCF744FE7C480921DCF740FE2F4654
S315080303E02E46002421467748DCF7A1FD0120DCF7D9
S315080303F04FFB0220DCF794F80346C0F3072207F8FD
S315080304001430214672706F48DCF729FE0134012047
S31508030410DCF73EFB102C06F10206E3D1674E0024F7
S3150803042021466548DCF783FD0120DCF731FB022012
S31508030430DCF776F80346C0F3072286F82030214610
S3150803044086F821205C48DCF70AFE01340120DCF734
S315080304501FFB102C06F10206E2D100242146584858
S31508030460DCF765FD0120DCF713FB0220DCF758F8FF
S315080304700346C0F3072285F84030214685F8412014
S315080304804F48DCF7ECFD01340120DCF701FB102CA7
S3150803049005F10205E2D14C480C21DCF748FD0C2195
S315080304A04948DCF7A1FE0120DCF7F2FA0220DCF763
S315080304B037F80C210346C0F30722434887F8603010
S315080304C087F86120DCF7CBFD0120DCF7E1FA3E482B
S315080304D00D21DCF72CFD0D213B48DCF785FE0120B9
S315080304E0DCF7D6FA0220DCF71BF80D210346C0F326
S315080304F00722354887F8623087F86320DCF7AFFDB3
S315080305000120DCF7C5FA30480E21DCF710FD0E2171
S315080305102D48DCF769FE0120DCF7BAFA0220DBF77F
S31508030520FFFF0E210346C0F30722274887F86430E6
S3150803053087F86520DCF793FD0120DCF7A9FA224842
S315080305400F21DCF7F4FC0F211F48DCF74DFE0120D1
S31508030550DCF79EFA0220DBF7E3FF0F210346C0F31D
S315080305600722194887F8663087F86720DCF777FD8E
S315080305700120DCF78DFA14480921DCF7D8FC092198
S315080305801148DCF731FE0120DCF782FA0220DBF79B
S31508030590C7FF09210346C0F307220B4887F86830CB
S315080305A087F86920DCF75BFD0120DCF771FA552330
S315080305B087F86A30F8BD00BF000C0240D00000205F
S315080305C0001002400008024000040240AFF3008016
S315080305D02DE9F0416D4E6E4CDFF8C0816D4F6E4DBF
S315080305E0FFF70EFD4FF4FA70DCF752FA3046DCF7E4
S315080305F0BFFC304645F25551DCF70BFE3046DCF7B7
S3150803060004FE4AF6AA210346C0F30722304662705F
S315080306102370DCF7FEFD3046DCF7F7FD0346C0F32F
S3150803062007223046A370E270DCF727FD45F25551E1
S315080306304046DCF7EEFD4046DCF7E7FD4AF6AA211D
S315080306400346C0F30722404623716271DCF7E1FDD6
S315080306504046DCF7DAFD45F255510346C0F3072257
S315080306603846A371E271DCF7D4FD3846DCF7CDFDD5
S315080306704AF6AA210346C0F3072238462372627252
S31508030680DCF7C7FD3846DCF7C0FD0C21C0F30722AB
S3150803069003462846E272A372DCF7A6FD2846DCF772
S315080306A0B4FD00F472400026030A0C21284663733E
S315080306B02673DCF79EFD2846DCF7A7FD00F4724097
S315080306C0030A0D212846E373A673DCF78DFD284636
S315080306D0DCF79BFD00F47240030A0D212846637478
S315080306E02674DCF786FD2846DCF78FFD00F4724096
S315080306F0030A0E212846E374A674DCF775FD28461B
S31508030700DCF783FD00F47240030A0E21284663755D
S315080307102675DCF76EFD2846DCF777FD00F4724094
S31508030720030A0F212846E375A675DCF75DFD2846FF
S31508030730DCF76BFD00F47240030A0F212846637643
S315080307402676DCF756FD2846DCF75FFD00F4724093
S31508030750030A09212846E376A676DCF745FD2846EB
S31508030760DCF753FD00F47240030A09212846637730
S315080307702677DCF73EFD2846DCF747FD00F4724092
S31508030780000AE077A677BDE8F08100BF00080240BB
S31508030790D00000200010024000040240000C024072
S315080307A038B50446E2073E484FF009016AD5DCF737
S315080307B0BEFB3B480921DCF717FDA30738484FF072
S315080307C00C0166D4DCF77AFC3648374CDCF798FC20
S315080307D03648DCF795FC3648DCF792FC30480D21A1
S315080307E0DCF76CFC2E480F21DCF768FC0E212C483D
S315080307F0DCF764FC6420DCF74BF92D48DCF705FDD0
S315080308000346C0F307222A4862702370DCF7FDFC0F
S315080308100346C0F307222648A370E270DCF72DFCD3
S315080308202048DCF7F2FC0346C0F307221D48237170
S315080308306271DCF7EAFC0346C0F307221B48A3717F
S31508030840E271DCF7E2FC0346C0F30722174823727A
S315080308506272DCF7DAFC0346C0F307221048A37278
S31508030860E272DCF7D2FC00F47240030A00250C4856
S3150803087063732573DCF7C9FC00F47240000AE0735E
S31508030880A57338BDDCF71AFCA30705484FF00C011E
S3150803089098D5DCF74CFB02480C21DCF7A5FC93E75B
S315080308A000040240000C0240D00000200010024061
S315080308B000080240AFF30080AFF30080AFF3008077
S315080308C010B504466420DCF7DBF81248DCF79DFC18
S315080308D0114A034613551444C3F307230F48637099
S315080308E0DCF793FC0346C0F307220D48A370E270B6
S315080308F0DCF78BFC0346C0F307220A4823716271AF
S31508030900DCF783FC00F47240000A0023E071A3714C
S3150803091010BD00BF00080240D0000020000C0240B2
S315080309200010024000040240AFF30080AFF30080DA
S3150803093070B51F4C1F4D204E20460921DCF7F7FAE8
S3150803094009212046DCF750FC2846DCF711FB304624
S31508030950DCF70EFB30460021DCF75BFC284600215A
S31508030960DCF757FC1548DCF788FB20460C21DCF737
S31508030970DEFA20460C21DCF73CFC20460D21DCF789
S31508030980D6FA20460D21DCF734FC20460F21DCF786
S31508030990CEFA20460F21DCF72CFC20460E21DCF785
S315080309A0C6FA20460E21BDE87040DCF722BC00BF1C
S315080309B000040240000C02400010024000080240F6
S315080309C010B51048104CDCF758FB1048DCF755FBFC
S315080309D00F48DCF752FB20460C21DCF740FB204688
S315080309E00D21DCF73CFB20460F21DCF738FB2046BC
S315080309F00E21DCF734FB20460921BDE81040DCF75D
S31508030A002EBB00BF000C0240000402400010024047
S31508030A1000080240AFF30080AFF30080AFF3008015
S31508030A20F8B5474F474D4848484C494E0021DCF72F
S31508030A30F0FB38460021DCF7ECFB2846DCF798FA8E
S31508030A4020460D21DCF7D0FB28460021DCF7E1FB25
S31508030A5020460F21DCF7C8FB0420FFF731FF2046A9
S31508030A600F21DCF7C6FB20460D21DCF7C2FB204627
S31508030A700D21DCF7B9FB28460021DCF7CAFB204623
S31508030A800F21DCF7B1FB0C20FFF71AFF20460F21D5
S31508030A90DCF7AFFB20460D21DCF7ABFB20460D2127
S31508030AA0DCF7A2FB2846DCF763FA28469021DCF735
S31508030AB0B0FB20460F21DCF797FB1420FFF700FF56
S31508030AC020460F21DCF795FB38460021DCF7A1FB0E
S31508030AD02846DCF7D2FA0E212046DCF785FB2846A2
S31508030AE0DCF793FB30702846DCF78FFB03121C20D8
S31508030AF07370FFF7E5FE20460E21DCF77AFB3846CE
S31508030B000121DCF786FB2846DCF7FAFA0E21204694
S31508030B10DCF76AFB2846DCF778FBB0702846DCF777
S31508030B2074FB03122420F370FFF7CAFE20460E2136
S31508030B30DCF75FFB20460D21BDE8F840DCF759BB1F
S31508030B40000C024000080240001002400004024064
S31508030B50D0000020AFF30080AFF30080AFF300802E
S31508030B602DE9F0410C46074600213C48DCF751FBCA
S31508030B7000213B48DCF74DFB3A48DCF7F9F93A48DC
S31508030B800D21DCF731FB37480021DCF742FB3648F9
S31508030B900F21DCF729FB34480F21DCF72AFB3248FF
S31508030BA00D21DCF726FB30480D21DCF71DFB2D480C
S31508030BB00021DCF72EFB2C480F21DCF715FB2A480E
S31508030BC00F21DCF716FB28480D21DCF712FB0D2154
S31508030BD02548DCF709FB2348DCF7CAF92148FF2136
S31508030BE0DCF717FB20480F21DCF7FEFA04EBD47475
S31508030BF01D480F21DCF7FDFA66101A48DCF780FA60
S31508030C00002E24DDDFF864803E4445463C46210C2D
S31508030C101248DCF7FEFAA1B21148DCF7FAFA0E21FC
S31508030C201148DCF7E1FA0F48DCF7EFFAE31B013466
S31508030C3008F813000B48DCF7E8FA03126B700E2169
S31508030C400948DCF7D6FAB44205F10205DFD10648AE
S31508030C500D21BDE8F041DCF7CCBA00BF0010024015
S31508030C60000C02400008024000040240D0000020A5
S31508030C70F8B5002105469548DCF7CBFA00219448D8
S31508030C80DCF7C7FA9348DCF773F993480D21DCF7C9
S31508030C90ABFA90480021DCF7BCFA8F480F21DCF742
S31508030CA0A3FA8D480F21DCF7A4FA8B480D21DCF74C
S31508030CB0A0FA89480D21DCF797FA86480021DCF764
S31508030CC0A8FA85480F21DCF78FFA83480F21DCF74A
S31508030CD090FA81480D21DCF78CFA0D217E48DCF762
S31508030CE083FA7C48DCF744F97A489021DCF791FAD1
S31508030CF079480F21DCF778FA77480F21DCF779FA78
S31508030D0075480D21ACB2DCF774FA7248C5F303458E
S31508030D10DCF7F6F9002C36D0012D04F180446CD0AB
S31508030D20022D36D0032D40F09C806C4E6C4F013C4F
S31508030D3006EB8405043E56F8044F64480234210C36
S31508030D40DCF767FAA1B26248DCF763FA62480D2159
S31508030D50DCF74AFA0E216048DCF746FA5D48DCF709
S31508030D6054FA07F8010C5B48DCF74FFA03120E2115
S31508030D70594807F8023BDCF73CFA57480D21DCF7DC
S31508030D8038FAAE42D7D154480D21BDE8F840DCF70E
S31508030D9030BA544E524F013C06EB8405043E56F8CE
S31508030DA0044F4A480234210CDCF733FAA1B2484807
S31508030DB0DCF72FFA48480D21DCF716FA0E214648C8
S31508030DC0DCF712FA4348DCF720FA07F8010C414826
S31508030DD0DCF71BFA03120E213F4807F8023BDCF740
S31508030DE008FA3D480D21DCF704FAAE42D7D13A4852
S31508030DF00D21BDE8F840DCF7FCB93B4E384F013C02
S31508030E0006EB8405043E56F8044F30480234210C99
S31508030E10DCF7FFF9A1B22E48DCF7FBF92E480D21C2
S31508030E20DCF7E2F90E212C48DCF7DEF92948DCF772
S31508030E30ECF907F8010C2748DCF7E7F903120E214A
S31508030E40254807F8023BDCF7D4F923480D21DCF7DC
S31508030E50D0F9AE42D7D120480D21BDE8F840DCF7DA
S31508030E60C8B9224E1E4F013C06EB8404043E56F8CD
S31508030E70045F16480235290CDCF7CBF9A9B21448E6
S31508030E80DCF7C7F914480D21DCF7AEF90E21124831
S31508030E90DCF7AAF90F48DCF7B8F907F8010C0D488F
S31508030EA0DCF7B3F903120E210B4807F8023BDCF70C
S31508030EB0A0F909480D21DCF79CF9A642D7D10648C3
S31508030EC00D21BDE8F840DCF794B900BF00100240D5
S31508030ED0000C0240000802400004024014410208C4
S31508030EE0D1000020204302082C45020808400208C6
S31508030EF02DE9F047002181467248DCF78AF900217B
S31508030F007148DCF786F97148DCF732F870480D2129
S31508030F10DCF76AF96D480021DCF77BF96C480F2189
S31508030F20DCF762F96A480F21DCF763F968480D2193
S31508030F30DCF75FF966480D21DCF756F963480021AB
S31508030F40DCF767F962480F21DCF74EF960480F2191
S31508030F50DCF74FF95E480D21DCF74BF90D215C48A8
S31508030F60DCF742F95948DCF703F858485021DCF70F
S31508030F7050F957480F21DCF737F955480F211FFA5F
S31508030F8089F8DCF736F952480D21C9F30349DCF72A
S31508030F9030F9B8F1000F00F08E804E4FDFF844A108
S31508030FA03E46002578E0B9F1020F7FD04A4BB9F1E6
S31508030FB0030F08BF53F8254002344248210CDCF7D7
S31508030FC028F9A1B24048DCF724F90D214048DCF79B
S31508030FD00BF93E48DBF7CCFF3C486021DCF719F9EF
S31508030FE03B480F21DCF700F939480F21DCF701F9F3
S31508030FF037480D21DCF7FDF80D213548DCF7F4F801
S315080310003248DBF7B5FF3148D021DCF702F930481F
S315080310100F21DCF7E9F82E480F21DCF7EAF82C480C
S315080310200D21DCF7E6F80D212948DCF7DDF827481A
S31508031030DBF79EFF25487021DCF7EBF824480F21E0
S31508031040DCF7D2F822480F21DCF7D3F80D21204824
S31508031050DCF7CFF81D48DCF753F81D480D21DCF7FC
S31508031060C3F80E211A48DCF7BFF81848DCF7CDF8A1
S3150803107007F815001548DCF7C8F8031273700E2134
S315080310801348DCF7B6F8013511480D21DCF7B1F83A
S31508031090454506F102060ED0B9F1010F5AF8044F79
S315080310A081D10E4B53F82540023486E70C4B53F88F
S315080310B02540023481E706480D21BDE8F047DCF7F1
S315080310C098B800BF00100240000C02400008024016
S315080310D000040240D0000020144102082C450208EF
S315080310E02043020804400208AFF30080AFF30080F0
S315080310F070B5814A13785578C0F303460E217F48A5
S3150803110003EB0525DCF775F87D480021DCF781F844
S3150803111000217C48DCF77DF87B48DBF729FF774815
S315080311200D21DCF761F878480021DCF772F80F2106
S315080311307248DCF759F80420FFF7C2FB6F480F2102
S31508031140DCF757F86D480D21DCF753F86B480D218A
S31508031150DCF74AF86C480021DCF75BF80F2167488F
S31508031160DCF742F80C20FFF7ABFB64480F21DCF7EA
S3150803117040F862480D21DCF73CF8644B012E53F81E
S31508031180254000F0AD80022E7CD0032E04D103EB5C
S315080311908505D5F80C410234210C5948DCF739F892
S315080311A0A1B25848DCF735F854480D21DCF71CF88A
S315080311B055482021DCF72DF80F215048DCF714F8A1
S315080311C01420FFF77DFB4D480F21DCF712F84B4837
S315080311D00D21DCF70EF849480D21DCF705F84A48D6
S315080311E0D021DCF716F80F214448DBF7FDFF1C2056
S315080311F0FFF766FB41480F21DBF7FBFF3F480D214D
S31508031200DBF7F7FF3D480D21DBF7EEFF3E4870217C
S31508031210DBF7FFFF0F213948DBF7E6FF2420FFF74B
S315080312204FFB36480F21DBF7E4FF0D213348DBF785
S31508031230E0FF3548DBF764FF0A20DBF729FC42F2B7
S3150803124010742E480D21DBF7CFFF2C480E21DBF750
S31508031250CBFF2D48DBF7D9FF10F0800F4FF02A009C
S3150803126015D1FFF72DFB25480E21DBF7C2FF2348CF
S315080312700D21DBF7BEFF0120DBF70AFC013CE0D1B9
S31508031280412070BD03EB8505D5F8184384E72A206A
S31508031290FFF716FB19480E21DBF7ABFF0D2117489D
S315080312A0DBF7A7FF0120DBF7F3FB14480D21DBF778
S315080312B09BFF0E211148DBF797FF3220FFF700FB50
S315080312C01148DBF7A2FF0E2104460C48DBF791FF12
S315080312D00A480D21DBF78DFF230707D5482070BD84
S315080312E003EB8505D5F82445023455E714F02000A9
S315080312F018BF492070BD00BFD0000020000402407B
S3150803130000100240000C0240000802400840020890
S315080313102DE9F04F0A1EB8BF02F2FF1283B000216F
S31508031320824696485412DBF774FF00219448DBF78C
S3150803133070FF9448DBF71CFE93480D21DBF754FF37
S3150803134090480021DBF765FF8F480F21DBF74CFF39
S315080313508D480F21DBF74DFF8B480D21DBF749FF3E
S3150803136089480D21DBF740FF86480021DBF751FF4B
S3150803137085480F21DBF738FF83480F21DBF739FF51
S3150803138081480D21DBF735FF002C40F3EA80A302E1
S31508031390CAEB8A7B0193DFF8F4914FEA8B03009338
S315080313A04FF000084FEA1A4B594674481FFA8AF554
S315080313B0DBF72FFF29467248DBF72BFF0D2172480F
S315080313C0DBF712FF6F48DBF7D3FD6E485021DBF7D7
S315080313D020FF6D480F21DBF707FF6B480F21DBF76B
S315080313E008FF0D216848DBF7FFFE6648DBF7C0FDFB
S315080313F06448E821DBF70DFF63480F21DBF7F4FEAA
S3150803140061480F21DBF7F5FE0D215F48DBF7ECFE9C
S315080314105C48DBF7ADFD5B48FF21DBF7FAFE5A486C
S315080314200F21DBF7E1FE58480F21DBF7E2FE009BAD
S3150803143009EB08040AF5807609EB030703E04FEA8C
S315080314401A4B1FFA8AF559464C48DBF7E2FE29463A
S315080314504B48DBF7DEFE17F82A206178494802EB8A
S31508031460012189B2DBF7D5FE0D214748DBF7BCFE20
S315080314704448DBF77DFD44480F21DBF7B5FE0AF147
S31508031480010A41480F21DBF7B4FEB24504F104040F
S31508031490D5D10D213C48DBF7A7FE3A48DBF768FDB3
S315080314A03848D021DBF7B5FE37480F21DBF79CFE1A
S315080314B035480F21DBF79DFE08F580684FF4FA746B
S315080314C031480D21DBF790FE2F480E21DBF78CFE02
S315080314D02C48DBF79AFE10F0800F4FF02A0012D142
S315080314E0FFF7EEF928480E21DBF783FE26480D2180
S315080314F0DBF77FFE0120DBF7CBFA013CE0D1412085
S3150803150003B0BDE8F08F2A20FFF7DAF91E480E214B
S31508031510DBF76FFE0D211C48DBF76BFE0120DBF7BB
S31508031520B7FA19480D21DBF75FFE0E211648DBF7DC
S315080315305BFE3220FFF7C4F91248DBF766FE0E217D
S3150803154004461148DBF755FE0F480D21DBF751FE1C
S3150803155023070AD4E2060CD4019B9845B2467FF4C6
S3150803156021AF002003B0BDE8F08F482003B0BDE8E3
S31508031570F08F4A2003B0BDE8F08F00BF0010024089
S31508031580000C02400008024000040240D00000207C
S3150803159070B55F485F4D0021DBF73BFE00215E48CF
S315080315A0DBF737FE5D48DBF7E3FC5D480D21DBF728
S315080315B01BFE5A480021DBF72CFE0F215848DBF7A0
S315080315C013FE0420FFF77CF955480F21DBF711FEBC
S315080315D053480D21DBF70DFE51480D21DBF704FEB9
S315080315E04E480021DBF715FE0F214D48DBF7FCFDBE
S315080315F00C20FFF765F94A480F21DBF7FAFD48483F
S315080316000D21DBF7F6FD0D214548DBF7EDFD4348D4
S31508031610DBF7AEFC41489021DBF7FBFD0F21404881
S31508031620DBF7E2FD1420FFF74BF93D480F21DBF703
S31508031630E0FD2E46812421463748DBF7EAFD374885
S31508031640DBF71BFD0E213648DBF7CEFD3348DBF708
S31508031650DCFD30703148DBF7D8FD031273701C20AC
S315080316600134FFF72DF9A4B22D480E21DBF7C1FD8E
S31508031670852C06F10206DED1264E27482146DBF7DE
S31508031680C8FD2648DBF7F9FC0E212548DBF7ACFD38
S315080316902248DBF7BAFD30722048DBF7B6FD0312A2
S315080316A073721C200134FFF70BF9A4B21C480E21F0
S315080316B0DBF79FFD892C06F10206DED18A24214633
S315080316C01548DBF7A6FD1548DBF7D7FC0E211448AA
S315080316D0DBF78AFD1148DBF798FD28740F48DBF71B
S315080316E094FD013403121C206B74A4B2FFF7E8F8C7
S315080316F00B480E21DBF77DFDB4F5857F05F1020561
S31508031700DDD107480D21BDE87040DBF772BD00BF88
S3150803171000100240D0000020000C024000080240DE
S3150803172000040240AFF30080AFF30080AFF30080FC
S3150803173010B5044605480421DBF75FFD0028F9D1F7
S315080317402046BDE81040DBF703BB00BF000002409C
S3150803175008B5DBF71DFB0028FBD0BDE80840DBF71F
S315080317600FBB00BFAFF30080AFF30080AFF3008079
S3150803177008B501E0DBF704FBDBF70AFB0028F9D120
S3150803178008BD00BFAFF30080AFF30080AFF300805E
S70508000000F2
