:020000020000FC
:100000000C94187C0C9439000C9439000C94390031
:100010000C9439000C9439000C9439000C9439007C
:100020000C9439000C9439000C9439000C9439006C
:100030000C9439000C9439000C9439000C9439005C
:100040000C9438000C9438000C9438000C9439004F
:100050000C943B000C9439000C9439000C9439003A
:100060000C9439000C9439000C9439000C9439002C
:1000700036B8789418950F900F90A8E1A093C1001E
:0A008000A091C60078940C945E7CF9
:1003C000000F00000000000000000000000000001E
:1003D000000000000000000000000000000000001D
:1003E000000000000000000000000000000000000D
:1003F00000000000000000000000000000000000FD
:100400000C9408080C94632B0C94602B0C947F2B99
:100410000C94B42B0C94C82B0C94142C0C942F2CEF
:100420000C946B2C0C947D2C0C94812C0C94852CAE
:100430000C94892C0C949B2C0C940E080C941A0888
:100440000C945E090C94B6090C941D280C94D628C3
:100450000C9478280C9437280C949A280C94ED2846
:100460000C94CA280C940B080C940B080C940B08E1
:100470000C940B080C940B080C9408080C94FD08C1
:100480000C94C3290C941E2A0C945D2A0C94002A07
:100490000C94B02A0C94E02A0C947F2A0C94D02A55
:1004A0000C94092B0C940B080C940B080C940E293B
:1004B0000C94701F0C94911F0C94B21F0C94D31FBA
:1004C0000C946C310C9440310C944F310C94A2314B
:1004D0000C94E3310C9470320C948C320C94AB324B
:1004E0000C94CD310C9416310C9422310C94FE32C4
:1004F0000C94E9320C940B080C940B080C940B0828
:100500000C945B330C9408080C9408080C948D33FD
:100510000C94B7330C94E3330C940C340C9408080B
:100520000C94DB330C9408080C9408080C94793470
:100530000C9497330C94A5330C94B44F0C946C4FDB
:100540000C947C390C94D0390C940F3A0C94F339F8
:100550000C944E3A0C94593A0C942E3A0C94080888
:100560000C941A4F0C941F4F0C9452490C949049C0
:100570000C949E490C9427470C9424080C94BE4775
:100580000C9411400C947C400C948E400C9493403D
:100590000C94B2400C9474400C940B080C940B080F
:1005A0000C94A4460C94F0460C94F8460C94A9477D
:1005B0000C94E2470C946C470C9485470C94B84714
:1005C0000C9453410C945E410C9483410C94A041D3
:1005D0000C94C1410C94D4410C94E7410C946442B6
:1005E0000C9486420C94D1420C94F6420C942D4308
:1005F0000C94B7410C94CA410C94DD410C944A42CE
:100600000C949E420C9411430C9419440C940808C9
:100610000C94B5490C94D5490C94084A0C94CF49D4
:100620000C94F2490C941E4A0C9436440C94764473
:100630000C94ED440C948F440C9484440C941E450B
:100640000C94D7450C94F0450C94FA450C946146F3
:100650000C946D460C947C460C9478460C9486461B
:100660000C947A460C948A460C94064F0C94402ABB
:100670000C94592A0C9408080C94E0070C94E40795
:100680000C94B8240C94CB240C94EF240C941325D4
:100690000C9445250C9408080C940B080C940B083A
:1006A0000C940B080C940B080C940B080C940B087E
:1006B0000C940B080C940B080C940B080C940B086E
:1006C0000C94AF440C94CD440C94B14E0C94E94E70
:1006D0000C94A64A0C94CA4A0C94DC4A0C94354BF0
:1006E0000C94B34B0C94134C0C94744C0C94A74C7A
:1006F0000C94614D0C94D74C0C94364E0C94D14E06
:100700000C94CF3A0C941B3B0C94273B0C948A3BE3
:100710000C947D3C0C946C4C0C94753B0C94023CFA
:100720000C94F63A0C94543D0C946B3D0C94853D1E
:100730000C94C93D0C94F33D0C94273E0C94563E0A
:100740000C9487370C9405360C94D1370C94F737FA
:100750000C941F380C94FA380C9480380C949C3804
:100760000C94E6350C9405360C940A360C94273616
:100770000C9442360C945C360C9479360C94013708
:100780000C940B080C940B080C940B080C940B089D
:100790000C940B080C940B080C940B080C940B088D
:1007A0000C940B080C940B080C940B080C940B087D
:1007B0000C940B080C940B080C9408080C94080873
:1007C0000000000000000000000000000000000029
:1007D0000000000000000000000000000000000019
:1007E0000000000000000000000000000000000009
:1007F00000000000000000000000000000000000F9
:100800000C94A7530C94B1530C94B5530C94755499
:100810000C940C550C9425550C9436550C941A5583
:100820000C943A5A0C947D5A0C94B05A0C94BA5ABF
:100830000C94E45A0C94F0590C942E5A0C94915444
:100840000C945A560C9464560C947A560C94D856C0
:100850000C944A570C946D570C9468560C94A456FB
:100860000C940D570C945E570C94F45A0C94025B44
:100870000C94335B0C9408080C9408080C94A12A7F
:100880000C94B1540C94DE540C9448540C94985528
:100890000C9414550C94CD530C94B7420C94E24232
:1008A0000C94FF4E0C949E4F0C946C4F0C94EE4E97
:1008B0000C9408080C9401540C9438270C94A72627
:1008C0000C94B2570C9408080C9404580C940B58D0
:1008D0000C9421580C9408080C9431580C944058EE
:1008E0000C944F580C9408080C9458580C94885841
:1008F0000C94B8580C9408080C94E4580C9408080C
:100900000C94E72C0C942C2D0C94352D0C94442D28
:100910000C94472D0C945A2D0C94B92D0C94C72D82
:100920000C94E42D0C94DA2D0C94AF2F0C942630FB
:100930000C94C82F0C9408080C94F72D0C94012EDD
:100940000C940B2E0C94312E0C946F2E0C94E32EE1
:100950000C94502F0C94672F0C948D2F0C94482ED0
:100960000C94E12E0C94FE2F0C940B080C940B08A5
:100970000C940D300C9408080C940B080C940B0884
:100980000C944A610C9483610C9489610C94B76156
:100990000C9498610C94D1610C9416620C94CF6203
:1009A0000C9408080C9489620C94AD620C942D622E
:1009B0000C94FC610C9476620C9408080C94080862
:1009C0000C94A9660C94DA660C94E0660C940068AA
:1009D0000C9448680C947C680C948A680C94A36806
:1009E0000C9415690C940D6B0C944D690C948869EA
:1009F0000C94866A0C943A6A0C94CE690C947269D1
:100A00000C940A690C943D680C94F8680C948D68F9
:100A10000C941A6B0C94ED680C94B1680C94146BE4
:100A20000C9447690C9450680C94256B0C94C06826
:100A30000C94CF6A0C94166A0C94006C0C946E693A
:100A40000C94B1260C943A260C943C270C9408087C
:100A50000C9408080C9408080C94C9550C94F7558C
:100A60000C94A8550C94B2550C94B6550C94DD55C5
:100A70000C9412560C9424560C9408080C940808F4
:100A80000C940B080C940B080C940B080C940B089A
:100A90000C940B080C9408080C9408080C940B0890
:100AA0000C9408080C9408080C9408080C94080886
:100AB0000C94EC2B0C944B2C0C94BC2B0C94080831
:100AC0000C940B080C940B080C9408080C94080860
:100AD0000C9408080C9408080C9408080C94080856
:100AE0000C9492410C9475420C94AA410C940E42C1
:100AF0000C9434420C9408080C9408080C940808D0
:100B00000C94096C0C946C6C0C94BC6C0C94206D63
:100B10000C94856D0C94506D0C94C16D0C94336DD8
:100B20000C94766D0C9408080C94706E0C94B76E4F
:100B30000C94BF6E0C94CD6E0C94FB6E0C94080854
:100B40000C94B0510C9411520C948C520C944F5242
:100B50000C94BD520C94B6710C94B06F0C947971D6
:100B60000C947D6F0C94F06F0C94F66F0C946F7076
:100B70000C948D700C94F8700C9415710C94377063
:100B80000C9448080C9456080C944B080C94590883
:100B90000C9450080C945E080C9408080C940808F7
:100BA0000C943A540C9408080C9408080C94080807
:100BB0000C9408080C9408080C9408080C94080875
:100BC0000000000000000000000000000000000025
:100BD0000000000000000000000000000000000015
:100BE0000000000000000000000000000000000005
:100BF00000000000000000000000000000000000F5
:100C00000C944B290C94ED280C9490290C94CA2830
:100C10000C945D290C9454290C9408080C94080831
:100C20000C9408080C9408080C9408080C94080804
:100C30000C94BB2E0C942D2F0C94952E0C94082FF5
:100C40000C9423730C94B0730C943C730C94477302
:100C50000C945F730C9473730C948B730C949F734C
:100C60000C9454750C9414760C94D6750C9456769A
:100C70000C9488760C9408080C9408080C940808C6
:100C80000C94CB730C941A740C942A740C944474C2
:100C90000C9460740C940D740C945E740C940309A1
:100CA0000C94FC730C94BC740C94C1740C94C674B6
:100CB0000C94C9740C94DE740C9408080C94080805
:100CC0000C9408080C9408080C9408080C94080864
:100CD0000C9408080C9408080C9408080C94080854
:100CE0000C9408080C9408080C9408080C94080844
:100CF0000C9408080C9408080C9408080C94080834
:100FB0000C9408080C9408080C94E8070C94F907A2
:100FC0004098389A0C944E7C409A38980C944E7CF9
:100FD00006E9009384100E940C7CE2E3F0E00E949A
:100FE000017C0E940E7CE8ECF0E00E94017C0C94F5
:100FF0004E7C0E940F7C0E94117CF5CF03E20A9583
:10100000F1F711970000D1F7089500270C944F7C59
:1010100001E00C944F7C02E00C944F7CA7B1A07CC3
:10102000A02BA7B9A8B1A07CA12BA8B90E94027CD3
:101030000C944E7C0E94037CA7B1A07CA7B9A8B1F8
:10104000A07CA8B90C944E7CE0E0F8ECAF93BF9381
:101050000E94CF7EBF91AF91E53040F4AAE0B0E0AE
:10106000CDDF119799F70EE70C944F7C0C944E7CD2
:101070000E942D7EC0E0D8ECE8940E94CF7EE5303F
:1010800030F4AAE0B0E0BADF2197B9F76894089588
:1010900038B90C944E7CA8B1A32BA8B90C944E7C03
:1010A000A8B13095A323A8B90C944E7C37B90C9401
:1010B0004E7CA7B1A32BA7B90C944E7CA7B1309559
:1010C000A323A7B90C944E7C28B827B80E94027CB1
:1010D000ADE3A8B9A7E3A7B9089528B827B80E9437
:1010E000027CA7E3A8B9A7B9089528B827B80E9439
:1010F000037C089540980895409A0895AA2762E0D5
:1011000058E0A7FD429AA7FF429866B9AA0F339903
:10111000A39566B95A95A9F7089562E05FEFA7FD18
:10112000429AA7FF429866B9AA0F3399A39566B968
:101130005A95A9F70895AA2762E058E066B9A7FD75
:10114000429AA7FF429866B9AA0F3399A3955A9578
:10115000A9F708955F9358B15D7F052E5260152E53
:101160005F9108954427319B1DC0000000000000DE
:101170000000000000000000000000000000319BA3
:1011800011C000000000000000000000000000008E
:101190000000000000004A9531F703E34F914F91A2
:1011A0000C944F7C4427319907C04A95E1F704E33A
:1011B0004F914F910C944F7C0C94F209442739982D
:1011C000319B0DC000000000000000004A95C1F7EF
:1011D00003E34F914F914F914F910C944F7C4427D3
:1011E000319909C04A95E1F704E34F914F914F912E
:1011F0004F910C944F7C0C94F5092AE0020F01BD2D
:101200002FD00C944F7C2AE0020F01BD0C944E7C31
:10121000419A399AE3E0FF270E943A7E4198F0E133
:1012200027D00C944E7C41984098399A389AE2E342
:10123000FF270E943A7E409A3898F0E0E0E030992B
:1012400006C03197E1F700E3089506E3089548ECFE
:10125000309BFBCFE1E0F0E00E943A7E4A95C1F777
:10126000419A399AE3E0FF270E943A7E4198F0E4E0
:10127000E3E1EA95F1F7FA95D9F7419ABB27AA2756
:101280003998319B06C0B395E1F701E30895319990
:101290000EC0A39500000000000000000000000048
:1012A000000000000000000091F703E308950E9491
:1012B000057C0E940B7C399A00270895419840983C
:1012C000399A389A0E94037CE2E3FF270E943A7E13
:1012D0000E94027CE8ECFF270E943A7E409A37FF8A
:1012E0003898F0E0E0E0309908C03197E1F700E38A
:1012F0000C944F7C06E30C944F7C48EC309BFACF67
:10130000E1E0F0E00E943A7E4A95C1F7419A399AAD
:10131000E3E0FF270E943A7E4198F0E4E3E1EA959A
:10132000F1F7FA95D9F7419ABB27AA273998319B4B
:1013300007C0B395E1F701E30C944F7C31990FC0DE
:10134000A395000000000000000000000000000065
:1013500000000000000091F702E30C944F7C0E9413
:10136000057C0E940B7C399A0C944E7CEAE0FF27A6
:101370000E943A7E399A389A41984098E4E1FF27D2
:101380000E94017C0E94047C399838980C944E7C11
:10139000E0E6F1B50994E0E8F1B50994E0E7F1B5CC
:1013A0000994E0E9F1B50994E0EAF1B50994E0EBBC
:1013B000F1B50994E0ECF1B50994E0EEF1B50994CA
:1013C000E0EDF1B50994E8EEF1B50994E0E0F1B58E
:1013D0000994E8E0F1B50994E8E2F1B50994E0E395
:1013E000F1B50994E0E5F1B50994E6E5F1B50994A4
:0C13F000E3EFF1B50994E8EFF1B50994C2
:0614000048E0BA2F06C00F
:1014100040E1399A08B85AE15A95F1F7B7FD18B882
:101420005BE35A95F1F70000000018B8399858E1CD
:101430005A95F1F70000AA0FBB1F4A9551F708957E
:0414500048E007C0A9
:1014600040E1399A08B85AE15A95F1F700003998E5
:1014700018B856E25A95F1F70000AA0FBB1F319930
:10148000A3955DE25A95F1F7000000004A9549F7EF
:021490000895BD
:0A14A0005EE65A95F1F7000008958A
:1014AC0048E05CE85A95F1F700004A95D1F70895A9
:1014C000A0EE9EDFDC01A4DF0E94DE08E9DFC0DFC2
:0814D0000E94097C01960895B9
:1014E000A0EC8EDFDC0194DF0E94067C89DF0E9485
:0814F000DE08D6DF0196089525
:10150000A0EE7EDFDB0184DF0E94DE08C9DFA0CF12
:10152000AF93A0EC6DDFDB0173DFAF9169DF0E9449
:04153000DE08B6CF4C
:10154000A0EE5EDFDB0164DFB1DF8ADF60FFAB2F7F
:021550000895FC
:10156000AF93A0EC4DDFDB0153DFAF91BA2F50DF1B
:041570009DDF08955E
:10158000A8EE3EDFDC0144DF91DF6ADF0E940A7CC7
:041590000296089522
:1015A000A8EC2EDFDC0134DF0E94077C31DF7EDF18
:0415B0000296089502
:0E15C000A8EE1EDFDB0124DF71DF4ADF089595
:1015D0009D01A8EC15DFDB011BDFD90119DF66CF08
:0815E600A4EE61E07FEFAACF43
:0A15F000AF93A4EC61E07FEFB5CFEC
:0616000048E0BA2F06C00D
:1016100040E1399A08B85CE05A95F1F70000000003
:10162000B7FD18B85DE15A95F1F70000000018B851
:1016300039985BE05A95F1F7AA0FBB1F4A9549F715
:0216400008950B
:0416500048E007C0A7
:1016600040E1399A08B85DE05A95F1F7399818B811
:1016700052E15A95F1F70000AA0FBB1F3199A395CB
:0E16800056E15A95F1F700004A9559F7089582
:1016A00055E35A95F1F700000000089548E055E42D
:0C16B0005A95F1F700004A95D1F7089513
:1016C000A0EE9EDFDC01A4DF0E94DE08E9DFC0DFC0
:0816D0000E94097C01960895B7
:1016E000A0EC8EDFDC0194DF0E94067C89DF0E9483
:0816F000DE08D6DF0196089523
:10170000A0EE7EDFDB0184DF0E94DE08C9DFA0CF10
:10172000AF93A0EC6DDFDB0173DFAF9169DF0E9447
:04173000DE08B6CF4A
:10174000A0EE5EDFDB0164DFB1DF8ADF60FFAB2F7D
:021750000895FA
:10176000AF93A0EC4DDFDB0153DFAF91BA2F50DF19
:041770009DDF08955C
:10178000A8EE3EDFDC0144DF91DF6ADF0E940A7CC5
:041790000296089520
:1017A000A8EC2EDFDC0134DF0E94077C31DF7EDF16
:0417B0000296089500
:0E17C000A8EE1EDFDB0124DF71DF4ADF089593
:1017D0009D01A8EC15DFDB011BDFD90119DF66CF06
:0817E600A4EE61E07FEFAACF41
:0A17F000AF93A4EC61E07FEFB5CFEA
:0618000048E0BA2F06C00B
:1018100040E1399A08B858E05A95F1F70000B7FD51
:1018200018B853E15A95F1F70000000018B839983C
:1018300056E05A95F1F700000000AA0FBB1F4A9529
:0418400041F70895CF
:0418500048E007C0A5
:1018600040E1399A08B858E05A95F1F700000000B5
:10187000399818B85BE05A95F1F700000000AA0FFC
:10188000BB1F3199A3955EE05A95F1F70000000067
:061890004A9539F70895A6
:1018A00052E25A95F1F700000000089548E05EE228
:0A18B0005A95F1F74A95D9F708950B
:1018C000A0EE9EDFDC01A4DF0E94DE08E9DFC0DFBE
:0818D0000E94097C01960895B5
:1018E000A0EC8EDFDC0194DF0E94067C89DF0E9481
:0818F000DE08D6DF0196089521
:10190000A0EE7EDFDB0184DF0E94DE08C9DFA0CF0E
:10192000AF93A0EC6DDFDB0173DFAF9169DF0E9445
:04193000DE08B6CF48
:10194000A0EE5EDFDB0164DFB1DF8ADF60FFAB2F7B
:021950000895F8
:10196000AF93A0EC4DDFDB0153DFAF91BA2F50DF17
:041970009DDF08955A
:10198000A8EE3EDFDC0144DF91DF6ADF0E940A7CC3
:04199000029608951E
:1019A000A8EC2EDFDC0134DF0E94077C31DF7EDF14
:0419B00002960895FE
:0E19C000A8EE1EDFDB0124DF71DF4ADF089591
:1019D0009D01A8EC15DFDB011BDFD90119DF66CF04
:0819E600A4EE61E07FEFAACF3F
:0A19F000AF93A4EC61E07FEFB5CFE8
:061A000048E0BA2F06C009
:101A100040E1399A08B856E05A95F1F7B7FD18B881
:101A20005EE05A95F1F70000000018B8399854E0CC
:101A30005A95F1F70000AA0FBB1F4A9551F7089578
:041A500048E007C0A3
:101A600040E1399A08B856E05A95F1F700003998E4
:101A700018B858E05A95F1F70000AA0FBB1F31992A
:101A8000A3955AE05A95F1F7000000004A9549F7EE
:021A90000895B7
:0A1AA00059E15A95F1F7000008958E
:0E1AAC0048E052E25A95F1F74A95D9F70895AD
:101AC000A0EE9EDFDC01A4DF0E94DE08E9DFC0DFBC
:081AD0000E94097C01960895B3
:101AE000A0EC8EDFDC0194DF0E94067C89DF0E947F
:081AF000DE08D6DF019608951F
:101B0000A0EE7EDFDB0184DF0E94DE08C9DFA0CF0C
:101B2000AF93A0EC6DDFDB0173DFAF9169DF0E9443
:041B3000DE08B6CF46
:101B4000A0EE5EDFDB0164DFB1DF8ADF60FFAB2F79
:021B50000895F6
:101B6000AF93A0EC4DDFDB0153DFAF91BA2F50DF15
:041B70009DDF089558
:101B8000A8EE3EDFDC0144DF91DF6ADF0E940A7CC1
:041B9000029608951C
:101BA000A8EC2EDFDC0134DF0E94077C31DF7EDF12
:041BB00002960895FC
:0E1BC000A8EE1EDFDB0124DF71DF4ADF08958F
:101BD0009D01A8EC15DFDB011BDFD90119DF66CF02
:081BE600A4EE61E07FEFAACF3D
:0A1BF000AF93A4EC61E07FEFB5CFE6
:061C000048E0BA2F06C007
:101C100040E1399A08B854E05A95F1F70000000005
:101C2000B7FD18B85BE05A95F1F70000000018B84E
:101C3000399853E05A95F1F7AA0FBB1F4A9549F717
:021C4000089505
:041C500048E007C0A1
:101C600040E1399A08B855E05A95F1F7399818B813
:101C700056E05A95F1F70000AA0FBB1F3199A395C2
:0E1C800058E05A95F1F700004A9559F708957B
:101CA00053E15A95F1F70000000008955FED5A9551
:081CB000F1F7000000000895A7
:101CC000A0EE9EDFDC01A4DF0E94DE08E9DFC0DFBA
:081CD0000E94097C01960895B1
:101CE000A0EC8EDFDC0194DF0E94067C89DF0E947D
:081CF000DE08D6DF019608951D
:101D0000A0EE7EDFDB0184DF0E94DE08C9DFA0CF0A
:101D2000AF93A0EC6DDFDB0173DFAF9169DF0E9441
:041D3000DE08B6CF44
:101D4000A0EE5EDFDB0164DFB1DF8ADF60FFAB2F77
:021D50000895F4
:101D6000AF93A0EC4DDFDB0153DFAF91BA2F50DF13
:041D70009DDF089556
:101D8000A8EE3EDFDC0144DF91DF6ADF0E940A7CBF
:041D9000029608951A
:101DA000A8EC2EDFDC0134DF0E94077C31DF7EDF10
:041DB00002960895FA
:0E1DC000A8EE1EDFDB0124DF71DF4ADF08958D
:101DD0009D01A8EC15DFDB011BDFD90119DF66CF00
:081DE600A4EE61E07FEFAACF3B
:0A1DF000AF93A4EC61E07FEFB5CFE4
:061E000048E0BA2F06C005
:101E100040E1399A08B853E05A95F1F70000000004
:101E2000B7FD18B859E05A95F1F70000000018B84E
:101E3000399852E05A95F1F70000AA0FBB1F4A9556
:041E400041F70895C9
:041E500048E007C09F
:101E600040E1399A08B854E05A95F1F7399818B812
:101E700055E05A95F1F7AA0FBB1F3199A39557E08A
:0A1E80005A95F1F74A9569F70895A5
:081EA00050E15A95F1F7089595
:081EAC005AEB5A95F1F7089575
:101EC000A0EE9EDFDC01A4DF0E94DE08E9DFC0DFB8
:081ED0000E94097C01960895AF
:101EE000A0EC8EDFDC0194DF0E94067C89DF0E947B
:081EF000DE08D6DF019608951B
:101F0000A0EE7EDFDB0184DF0E94DE08C9DFA0CF08
:101F2000AF93A0EC6DDFDB0173DFAF9169DF0E943F
:041F3000DE08B6CF42
:101F4000A0EE5EDFDB0164DFB1DF8ADF60FFAB2F75
:021F50000895F2
:101F6000AF93A0EC4DDFDB0153DFAF91BA2F50DF11
:041F70009DDF089554
:101F8000A8EE3EDFDC0144DF91DF6ADF0E940A7CBD
:041F90000296089518
:101FA000A8EC2EDFDC0134DF0E94077C31DF7EDF0E
:041FB00002960895F8
:0E1FC000A8EE1EDFDB0124DF71DF4ADF08958B
:101FD0009D01A8EC15DFDB011BDFD90119DF66CFFE
:081FE600A4EE61E07FEFAACF39
:0A1FF000AF93A4EC61E07FEFB5CFE2
:0620000048E0BA2F06C003
:1020100040E1399A08B853E05A95F1F7B7FD18B87E
:1020200058E05A95F1F7000018B8399851E05A95E0
:10203000F1F700000000AA0FBB1F4A9551F7089561
:0420500048E007C09D
:1020600040E1399A08B853E05A95F1F700003998E1
:1020700018B854E05A95F1F7AA0FBB1F3199A395F0
:1020800055E05A95F1F7000000004A9551F7089580
:0A20A0005DE05A95F1F70000089585
:0820AC005FE95A95F1F7089570
:1020C000A0EE9EDFDC01A4DF0E94DE08E9DFC0DFB6
:0820D0000E94097C01960895AD
:1020E000A0EC8EDFDC0194DF0E94067C89DF0E9479
:0820F000DE08D6DF0196089519
:10210000A0EE7EDFDB0184DF0E94DE08C9DFA0CF06
:10212000AF93A0EC6DDFDB0173DFAF9169DF0E943D
:04213000DE08B6CF40
:10214000A0EE5EDFDB0164DFB1DF8ADF60FFAB2F73
:022150000895F0
:10216000AF93A0EC4DDFDB0153DFAF91BA2F50DF0F
:042170009DDF089552
:10218000A8EE3EDFDC0144DF91DF6ADF0E940A7CBB
:042190000296089516
:1021A000A8EC2EDFDC0134DF0E94077C31DF7EDF0C
:0421B00002960895F6
:0E21C000A8EE1EDFDB0124DF71DF4ADF089589
:1021D0009D01A8EC15DFDB011BDFD90119DF66CFFC
:0821E600A4EE61E07FEFAACF37
:0A21F000AF93A4EC61E07FEFB5CFE0
:0622000048E0BA2F06C001
:1022100040E1399A08B852E05A95F1F70000000001
:10222000B7FD18B857E05A95F1F7000018B839987B
:1022300051E05A95F1F7AA0FBB1F4A9551F708953F
:0422500048E007C09B
:1022600040E1399A08B853E05A95F1F7399818B80F
:1022700053E05A95F1F70000AA0FBB1F3199A395BF
:0C22800055E05A95F1F74A9561F7089572
:0A22A0005BE05A95F1F70000089585
:0C22AC005AE85A95F1F700000000089570
:1022C000A0EE9EDFDC01A4DF0E94DE08E9DFC0DFB4
:0822D0000E94097C01960895AB
:1022E000A0EC8EDFDC0194DF0E94067C89DF0E9477
:0822F000DE08D6DF0196089517
:10230000A0EE7EDFDB0184DF0E94DE08C9DFA0CF04
:10232000AF93A0EC6DDFDB0173DFAF9169DF0E943B
:04233000DE08B6CF3E
:10234000A0EE5EDFDB0164DFB1DF8ADF60FFAB2F71
:022350000895EE
:10236000AF93A0EC4DDFDB0153DFAF91BA2F50DF0D
:042370009DDF089550
:10238000A8EE3EDFDC0144DF91DF6ADF0E940A7CB9
:042390000296089514
:1023A000A8EC2EDFDC0134DF0E94077C31DF7EDF0A
:0423B00002960895F4
:0E23C000A8EE1EDFDB0124DF71DF4ADF089587
:1023D0009D01A8EC15DFDB011BDFD90119DF66CFFA
:0823E600A4EE61E07FEFAACF35
:0A23F000AF93A4EC61E07FEFB5CFDE
:0624000048E0BA2F06C0FF
:1024100040E1399A08B852E05A95F1F70000B7FD4B
:1024200018B856E05A95F1F7000018B8399800002E
:0C2430000000AA0FBB1F4A9561F7089539
:0424500048E007C099
:1024600040E1399A08B852E05A95F1F700000000AF
:10247000399818B852E05A95F1F700000000AA0FF9
:10248000BB1F3199A39554E05A95F1F700004A9586
:0424900041F7089573
:1024A00059E05A95F1F70000000008955BE75A954E
:0424B000F1F70895A3
:1024C000A0EE9EDFDC01A4DF0E94DE08E9DFC0DFB2
:0824D0000E94097C01960895A9
:1024E000A0EC8EDFDC0194DF0E94067C89DF0E9475
:0824F000DE08D6DF0196089515
:10250000A0EE7EDFDB0184DF0E94DE08C9DFA0CF02
:10252000AF93A0EC6DDFDB0173DFAF9169DF0E9439
:04253000DE08B6CF3C
:10254000A0EE5EDFDB0164DFB1DF8ADF60FFAB2F6F
:022550000895EC
:10256000AF93A0EC4DDFDB0153DFAF91BA2F50DF0B
:042570009DDF08954E
:10258000A8EE3EDFDC0144DF91DF6ADF0E940A7CB7
:042590000296089512
:1025A000A8EC2EDFDC0134DF0E94077C31DF7EDF08
:0425B00002960895F2
:0E25C000A8EE1EDFDB0124DF71DF4ADF089585
:1025D0009D01A8EC15DFDB011BDFD90119DF66CFF8
:0825E600A4EE61E07FEFAACF33
:0A25F000AF93A4EC61E07FEFB5CFDC
:0626000048E0BA2F06C0FD
:1026100040E1399A08B852E05A95F1F7B7FD18B879
:1026200055E05A95F1F70000000018B839980000FD
:0A263000AA0FBB1F4A9569F7089531
:0426500048E007C097
:1026600040E1399A08B852E05A95F1F700003998DC
:1026700018B852E05A95F1F70000AA0FBB1F319924
:10268000A39553E05A95F1F7000000004A9549F7E9
:022690000895AB
:0A26A00058E05A95F1F70000089584
:0A26AC005EE65A95F1F7000008956C
:1026C000A0EE9EDFDC01A4DF0E94DE08E9DFC0DFB0
:0826D0000E94097C01960895A7
:1026E000A0EC8EDFDC0194DF0E94067C89DF0E9473
:0826F000DE08D6DF0196089513
:10270000A0EE7EDFDB0184DF0E94DE08C9DFA0CF00
:10272000AF93A0EC6DDFDB0173DFAF9169DF0E9437
:04273000DE08B6CF3A
:10274000A0EE5EDFDB0164DFB1DF8ADF60FFAB2F6D
:022750000895EA
:10276000AF93A0EC4DDFDB0153DFAF91BA2F50DF09
:042770009DDF08954C
:10278000A8EE3EDFDC0144DF91DF6ADF0E940A7CB5
:042790000296089510
:1027A000A8EC2EDFDC0134DF0E94077C31DF7EDF06
:0427B00002960895F0
:0E27C000A8EE1EDFDB0124DF71DF4ADF089583
:1027D0009D01A8EC15DFDB011BDFD90119DF66CFF6
:0827E600A4EE61E07FEFAACF31
:0A27F000AF93A4EC61E07FEFB5CFDA
:0628000048E0BA2F06C0FB
:1028100040E1399A08B851E05A95F1F700000000FC
:10282000B7FD18B855E05A95F1F718B83998000077
:0A283000AA0FBB1F4A9569F708952F
:0428500048E007C095
:1028600040E1399A08B852E05A95F1F7399818B80A
:1028700052E05A95F1F7AA0FBB1F3199A39553E087
:0C2880005A95F1F700004A9561F70895A1
:0A28A00057E05A95F1F70000089583
:0828AC0054E65A95F1F7089576
:1028C000A0EE9EDFDC01A4DF0E94DE08E9DFC0DFAE
:0828D0000E94097C01960895A5
:1028E000A0EC8EDFDC0194DF0E94067C89DF0E9471
:0828F000DE08D6DF0196089511
:10290000A0EE7EDFDB0184DF0E94DE08C9DFA0CFFE
:10292000AF93A0EC6DDFDB0173DFAF9169DF0E9435
:04293000DE08B6CF38
:10294000A0EE5EDFDB0164DFB1DF8ADF60FFAB2F6B
:022950000895E8
:10296000AF93A0EC4DDFDB0153DFAF91BA2F50DF07
:042970009DDF08954A
:10298000A8EE3EDFDC0144DF91DF6ADF0E940A7CB3
:04299000029608950E
:1029A000A8EC2EDFDC0134DF0E94077C31DF7EDF04
:0429B00002960895EE
:0E29C000A8EE1EDFDB0124DF71DF4ADF089581
:1029D0009D01A8EC15DFDB011BDFD90119DF66CFF4
:0829E600A4EE61E07FEFAACF2F
:0A29F000AF93A4EC61E07FEFB5CFD8
:062A000048E0BA2F06C0F9
:102A100040E1399A08B851E05A95F1F700000000FA
:102A2000B7FD18B854E05A95F1F70000000018B847
:0C2A30003998AA0FBB1F4A9561F7089562
:042A500048E007C093
:102A600040E1399A08B852E05A95F1F7399818B808
:102A700051E05A95F1F700000000AA0FBB1F3199F1
:0E2A8000A39553E05A95F1F74A9559F708953A
:0A2AA00056E05A95F1F70000089582
:0A2AAC005BE55A95F1F7000008956C
:102AC000A0EE9EDFDC01A4DF0E94DE08E9DFC0DFAC
:082AD0000E94097C01960895A3
:102AE000A0EC8EDFDC0194DF0E94067C89DF0E946F
:082AF000DE08D6DF019608950F
:102B0000A0EE7EDFDB0184DF0E94DE08C9DFA0CFFC
:102B2000AF93A0EC6DDFDB0173DFAF9169DF0E9433
:042B3000DE08B6CF36
:102B4000A0EE5EDFDB0164DFB1DF8ADF60FFAB2F69
:022B50000895E6
:102B6000AF93A0EC4DDFDB0153DFAF91BA2F50DF05
:042B70009DDF089548
:102B8000A8EE3EDFDC0144DF91DF6ADF0E940A7CB1
:042B9000029608950C
:102BA000A8EC2EDFDC0134DF0E94077C31DF7EDF02
:042BB00002960895EC
:0E2BC000A8EE1EDFDB0124DF71DF4ADF08957F
:102BD0009D01A8EC15DFDB011BDFD90119DF66CFF2
:082BE600A4EE61E07FEFAACF2D
:0A2BF000AF93A4EC61E07FEFB5CFD6
:062C000048E0BA2F06C0F7
:102C100040E1399A08B851E05A95F1F70000B7FD44
:102C200018B854E05A95F1F7000018B83998AA0F6F
:082C3000BB1F4A9571F70895DE
:042C500048E007C091
:102C600040E1399A08B851E05A95F1F700000000A8
:102C7000399818B851E05A95F1F70000AA0FBB1F18
:102C80003199A39552E05A95F1F7000000004A955A
:042C900041F708956B
:102CA00055E05A95F1F700000000089554E55A9553
:062CB000F1F70000089599
:102CC000A0EE9EDFDC01A4DF0E94DE08E9DFC0DFAA
:082CD0000E94097C01960895A1
:102CE000A0EC8EDFDC0194DF0E94067C89DF0E946D
:082CF000DE08D6DF019608950D
:102D0000A0EE7EDFDB0184DF0E94DE08C9DFA0CFFA
:102D2000AF93A0EC6DDFDB0173DFAF9169DF0E9431
:042D3000DE08B6CF34
:102D4000A0EE5EDFDB0164DFB1DF8ADF60FFAB2F67
:022D50000895E4
:102D6000AF93A0EC4DDFDB0153DFAF91BA2F50DF03
:042D70009DDF089546
:102D8000A8EE3EDFDC0144DF91DF6ADF0E940A7CAF
:042D9000029608950A
:102DA000A8EC2EDFDC0134DF0E94077C31DF7EDF00
:042DB00002960895EA
:0E2DC000A8EE1EDFDB0124DF71DF4ADF08957D
:102DD0009D01A8EC15DFDB011BDFD90119DF66CFF0
:082DE600A4EE61E07FEFAACF2B
:0A2DF000AF93A4EC61E07FEFB5CFD4
:062E000048E0BA2F06C0F5
:102E100040E1399A08B851E05A95F1F70000B7FD42
:102E200018B854E05A95F1F718B839980000000026
:0A2E3000AA0FBB1F4A9569F7089529
:042E500048E007C08F
:102E600040E1399A08B851E05A95F1F700000000A6
:102E7000399818B851E05A95F1F70000AA0FBB1F16
:102E80003199A39552E05A95F1F700004A9549F718
:022E90000895A3
:082EA00055E05A95F1F7089581
:082EAC005EE45A95F1F7089568
:102EC000A0EE9EDFDC01A4DF0E94DE08E9DFC0DFA8
:082ED0000E94097C019608959F
:102EE000A0EC8EDFDC0194DF0E94067C89DF0E946B
:082EF000DE08D6DF019608950B
:102F0000A0EE7EDFDB0184DF0E94DE08C9DFA0CFF8
:102F2000AF93A0EC6DDFDB0173DFAF9169DF0E942F
:042F3000DE08B6CF32
:102F4000A0EE5EDFDB0164DFB1DF8ADF60FFAB2F65
:022F50000895E2
:102F6000AF93A0EC4DDFDB0153DFAF91BA2F50DF01
:042F70009DDF089544
:102F8000A8EE3EDFDC0144DF91DF6ADF0E940A7CAD
:042F90000296089508
:102FA000A8EC2EDFDC0134DF0E94077C31DF7EDFFE
:042FB00002960895E8
:0E2FC000A8EE1EDFDB0124DF71DF4ADF08957B
:102FD0009D01A8EC15DFDB011BDFD90119DF66CFEE
:082FE600A4EE61E07FEFAACF29
:0A2FF000AF93A4EC61E07FEFB5CFD2
:0630000048E0BA2F06C0F3
:1030100040E1399A08B851E05A95F1F7B7FD18B870
:1030200053E05A95F1F70000000018B839980000F5
:0C3030000000AA0FBB1F4A9561F708952D
:0430500048E007C08D
:1030600040E1399A08B851E05A95F1F700003998D3
:1030700018B851E05A95F1F7AA0FBB1F3199A395E3
:0E30800052E05A95F1F700004A9559F708956D
:1030A00054E05A95F1F700000000089558E45A954D
:0830B000F1F700000000089593
:1030C000A0EE9EDFDC01A4DF0E94DE08E9DFC0DFA6
:0830D0000E94097C019608959D
:1030E000A0EC8EDFDC0194DF0E94067C89DF0E9469
:0830F000DE08D6DF0196089509
:10310000A0EE7EDFDB0184DF0E94DE08C9DFA0CFF6
:10312000AF93A0EC6DDFDB0173DFAF9169DF0E942D
:04313000DE08B6CF30
:10314000A0EE5EDFDB0164DFB1DF8ADF60FFAB2F63
:023150000895E0
:10316000AF93A0EC4DDFDB0153DFAF91BA2F50DFFF
:043170009DDF089542
:10318000A8EE3EDFDC0144DF91DF6ADF0E940A7CAB
:043190000296089506
:1031A000A8EC2EDFDC0134DF0E94077C31DF7EDFFC
:0431B00002960895E6
:0E31C000A8EE1EDFDB0124DF71DF4ADF089579
:1031D0009D01A8EC15DFDB011BDFD90119DF66CFEC
:0831E600A4EE61E07FEFAACF27
:0A31F000AF93A4EC61E07FEFB5CFD0
:0632000048E0BA2F06C0F1
:1032100040E1399A08B851E05A95F1F7B7FD18B86E
:1032200053E05A95F1F7000018B839980000AA0F3A
:08323000BB1F4A9571F70895D8
:0432500048E007C08B
:1032600040E1399A08B851E05A95F1F700003998D1
:1032700018B851E05A95F1F7AA0FBB1F3199A395E1
:0C32800052E05A95F1F74A9561F7089565
:0832A00054E05A95F1F708957E
:0832AC0054E45A95F1F708956E
:1032C000A0EE9EDFDC01A4DF0E94DE08E9DFC0DFA4
:0832D0000E94097C019608959B
:1032E000A0EC8EDFDC0194DF0E94067C89DF0E9467
:0832F000DE08D6DF0196089507
:10330000A0EE7EDFDB0184DF0E94DE08C9DFA0CFF4
:10332000AF93A0EC6DDFDB0173DFAF9169DF0E942B
:04333000DE08B6CF2E
:10334000A0EE5EDFDB0164DFB1DF8ADF60FFAB2F61
:023350000895DE
:10336000AF93A0EC4DDFDB0153DFAF91BA2F50DFFD
:043370009DDF089540
:10338000A8EE3EDFDC0144DF91DF6ADF0E940A7CA9
:043390000296089504
:1033A000A8EC2EDFDC0134DF0E94077C31DF7EDFFA
:0433B00002960895E4
:0E33C000A8EE1EDFDB0124DF71DF4ADF089577
:1033D0009D01A8EC15DFDB011BDFD90119DF66CFEA
:0833E600A4EE61E07FEFAACF25
:1033F000AF93A4EC61E07FEFB5CF409A389AB8B1B3
:10340000BE7FB8B9F9E000000000E3E0EA95F1F70B
:1034100000000000BE7F0894A79508F4B160B8B919
:10342000FA9599F7E4E0EA95F1F70895EE27FF277A
:103430006894309B04C03197E1F7E8940895E7E081
:10344000EA95F1F7F8E0A6953099A068E3E0EA95EF
:10345000F1F700000000FA95B1F7309BFECF089518
:10346000409A389AB8B1BE7FB8B9F9E000000000C0
:103470000000EAE0EA95F1F7B8B1BE7F0894A7959D
:1034800008F4B160B8B9FA95A1F7EEE0EA95F1F762
:1034900038980895EE27FF276894309B04C0319731
:1034A000E1F7E8940895EFE0EA95F1F7F8E0A695E2
:1034B0003099A068EBE0EA95F1F70000FA95B9F7CA
:1034C000309BFECF0895409A389AB8B1BE7FB8B904
:1034D000F9E0000000000000E7E1EA95F1F70000E4
:1034E000B8B1BE7F0894A79508F4B160B8B9FA9551
:1034F00099F7EAE5EA95F1F70895409A389AB8B154
:10350000BE7FB8B9F9E0000000000000E7E1EA95ED
:10351000F1F70000B8B1BE7F0894A79508F4B16038
:10352000B8B9FA9599F7E0E1EA95F1F73898089576
:10353000EE27FF276894309B04C03197E1F7E894A9
:103540000895E3E2EA95F1F7F8E0A6953099A068CE
:10355000E8E1EA95F1F700000000FA95B1F7309B39
:10356000FECF0895409A389AB8B1BE7FB8B9F9E055
:10357000000000000000E0EDEA95000000000000FF
:103580000000000000000000B9F7B8B1BE7F089449
:10359000A79508F4B160B8B9FA9569F7E1EDEA9535
:1035A0000000000000000000000000000000B9F76B
:1035B00038980895EE27FF276894309B0EC00000CE
:1035C00000000000000000000000000000000000FB
:1035D000319799F7E8940895E0EEEA95000000002D
:1035E00000000000000000000000000000000000DB
:1035F000000099F7F8E0A6953099A068E0EDEA950B
:103600000000000000000000000000000000B9F70A
:103610000000FA9581F7E4E8EA9500000000000058
:1036200000000000C9F70895EF93FF93AF93409A0D
:10363000389AB8B1BE7FB8B9F9E0000000000000C8
:10364000ECEAEA95F1F7B8B1BE7F0894A79508F4C3
:10365000B160B8B9FA95A1F7ECEAEA95F1F7AF9144
:10366000FF91EF910895EF93FF93EE27FF2738988E
:103670006894AA27309B08C0AA95E1F73197C9F74B
:10368000E894FF91EF910895E4ECEA950000E9F7E2
:10369000F8E0A6953099A068ECEAEA95F1F7FA957A
:1036A000C1F7E7E5EA95F1F7FF91EF910895EF9300
:1036B000FF93AF93409A389AB8B1BE7FB8B9F9E09A
:1036C000000000000000E7E3EA95F1F7B8B1BE7F23
:1036D0000894A79508F4B160B8B9FA95A1F7E7E3A3
:1036E000EA95F1F7AF91FF91EF9108953898EF9334
:1036F000FF93EE27FF276894AA27309B08C0AA955E
:10370000E1F73197C9F7E894FF91EF910895E6E466
:10371000EA95F1F7F8E0A6953099A068E8E3EA9514
:10372000F1F7FA95C1F7ECE1EA95F1F7FF91EF9126
:103730000895EF93FF93AF93BF934F934427409A1D
:10374000389AB8B1BE7FB8B9F8E0000000000000B8
:10375000E7E3EA95F1F74A27B8B1BE7F0894A79549
:1037600008F4B160B8B9FA9599F7E7E3EA95F1F78B
:10377000B8B1BE7F0894479508F4B160B8B9E9E3E1
:10378000EA95F1F7B160B8B9E7E3EA95F1F74F913F
:10379000BF91AF91FF91EF9108953898EF93FF9308
:1037A000EE27FF276894AA27309B08C0AA95E1F767
:1037B0003197C9F7E894FF91EF910895E6E4EA950F
:1037C000F1F7F8E0A6953099A068E8E3EA95F1F7FB
:1037D000FA95C1F7E4E5EA95F1F7FF91EF910895C5
:1037E000409A389AB8B1BE7FB8B9F9E0000000003D
:1037F0000000E8E6EA95000000000000000000007C
:1038000000000000B9F7B8B1BE7F0894A79508F48E
:10381000B160B8B9FA9569F7E2E4EA9500000000F2
:1038200000000000000000000000B9F70895EE2736
:10383000FF276894309B0DC00000000000000000CE
:1038400000000000000000000000319799F7E894A4
:103850000895E8E7EA95000000000000000000007D
:1038600000000000000000000000000099F7F8E0F0
:10387000A6953099A068E7E6EA95000000000000F0
:103880000000000000000000B9F70000FA9581F781
:10389000E2E4EA9500000000000000000000C9F723
:1038A0000895EE27F0E06894AA27309BFCCD309B6A
:1038B000FACD309BF8CD309BF6CDAA95B1F7319774
:1038C00099F7E8940895419A399AB8B1BD7FB8B98B
:1038D000F9E000000000E3E0EA95F1F700000000E5
:1038E000BD7F0894A79508F4B260B8B9FA9599F726
:1038F000E4E0EA95F1F70895EE27FF276894319BFD
:1039000004C03197E1F7E8940895E7E0EA95F1F70C
:10391000F8E0A6953199A068E3E0EA95F1F7000098
:103920000000FA95B1F7319BFECF0895419A399A7C
:10393000B8B1BD7FB8B9F9E0000000000000EAE0CE
:10394000EA95F1F7B8B1BD7F0894A79508F4B26085
:10395000B8B9FA95A1F7EDE2EA95F1F7399808952B
:10396000419A399AB8B1BD7FB8B9F9E000000000BA
:103970000000EAE0EA95F1F7B8B1BD7F0894A79599
:1039800008F4B260B8B9FA95A1F7E6E0EA95F1F764
:1039900039980895EE27FF276894AA27319B06C01F
:1039A000AA95E1F73197C9F7E8940895EFE0EA9511
:1039B000F1F7F8E0A6953199A068EBE0EA95F1F708
:1039C0000000FA95B9F7319BFECF0895419A399AD4
:1039D000B8B1BD7FB8B9F9E0000000000000E7E130
:1039E000EA95F1F70000B8B1BD7F0894A79508F4F7
:1039F000B260B8B9FA9599F7EAE5EA95F1F7089552
:103A0000419A399AB8B1BD7FB8B9F9E00000000019
:103A10000000E7E1EA95F1F70000B8B1BD7F089436
:103A2000A79508F4B260B8B9FA9599F7E0E1EA957C
:103A3000F1F739980895EE27FF276894319B04C069
:103A40003197E1F7E8940895E3E2EA95F1F7F8E0B9
:103A5000A6953199A068E8E1EA95F1F70000000029
:103A6000FA95B1F7319BFECF0895419A399AB8B1D2
:103A7000BD7FB8B9F9E0000000000000E0EDEA9574
:103A80000000000000000000000000000000B9F786
:103A9000B8B1BD7F0894A79508F4B260B8B9FA959B
:103AA00069F7E1EDEA950000000000000000000069
:103AB00000000000B9F739980895419A399AB8B1D1
:103AC000BD7FB8B9F9E0000000000000E0EDEA9524
:103AD0000000000000000000000000000000B9F736
:103AE000B8B1BD7F0894A79508F4B260B8B9FA954B
:103AF00069F7E4E1EA950000000000000000000022
:103B000000000000B9F70895EE27FF276894319B65
:103B10000EC00000000000000000000000000000D7
:103B200000000000319799F7E8940895E0EEEA95D7
:103B30000000000000000000000000000000000085
:103B400000000000000099F7F8E0A6953199A06800
:103B5000E0EDEA9500000000000000000000000019
:103B60000000B9F70000FA9581F7E4E8EA95000053
:103B70000000000000000000C9F70895EF93FF93D4
:103B8000AF93419A399AB8B1BD7FB8B9F9E0000056
:103B900000000000ECEAEA95F1F7B8B1BD7F0894A7
:103BA000A79508F4B260B8B9FA95A1F7ECEAEA95DE
:103BB000F1F7AF91FF91EF910895EF93FF93AF93DA
:103BC000419A399AB8B1BD7FB8B9F9E00000000058
:103BD0000000ECEAEA95F1F7B8B1BD7F0894A7952B
:103BE00008F4B260B8B9FA95A1F7EAE0EA95F1F7FE
:103BF000AF91FF91EF910895EF93FF93EE27FF2789
:103C000039986894AA27319B08C0AA95E1F73197A3
:103C1000C9F7E894FF91EF910895E4ECEA9500006C
:103C2000E9F7F8E0A6953199A068ECEAEA95F1F792
:103C3000FA95C1F7E7E5EA95F1F7FF91EF9108955D
:103C4000EF93FF93AF93419A399AB8B1BD7FB8B95A
:103C5000F9E0000000000000E7E3EA95F1F7B8B1F1
:103C6000BD7F0894A79508F4B260B8B9FA95A1F79A
:103C7000E7E3EA95F1F7AF91FF91EF910895399855
:103C8000EF93FF93EE27FF276894AA27319B08C084
:103C9000AA95E1F73197C9F7E894FF91EF9108955C
:103CA000E6E4EA95F1F7F8E0A6953199A068E8E333
:103CB000EA95F1F7FA95C1F7ECE1EA95F1F7FF9192
:103CC000EF910895419A399AB8B1BD7FB8B9F9E03A
:103CD000000000000000E8E6EA9500000000000097
:103CE0000000000000000000B9F7B8B1BD7F0894E3
:103CF000A79508F4B260B8B9FA9569F7E2E4EA95D5
:103D00000000000000000000000000000000B9F703
:103D10000895419A399AB8B1BD7FB8B9F9E0000069
:103D200000000000E8E6EA95000000000000000046
:103D3000000000000000B9F7B8B1BD7F0894A79556
:103D400008F4B260B8B9FA9569F7EAE0EA950000BC
:103D5000000000000000000000000000B9F7089516
:103D6000EE27FF276894319B0DC000000AD009D0D0
:103D700008D007D00000000000000000319799F73C
:103D8000E8940895E8E7EA950000000000000000CC
:103D9000000000000000000000000000000099F793
:103DA000F8E0A6953199A068E7E6EA9500000000E2
:103DB00000000000000000000000B9F70000FA95C4
:103DC00081F7E2E4EA950000000000000000000036
:103DD000C9F70895EE27FF276894319B0DC00000B6
:103DE00000000000000000000000000000000000D3
:103DF000319799F7E8940895E0E6EA95000000000D
:103E000000000000000000000000000000000000B2
:103E1000000099F7F8E0A6953199A068E3E5EA95E6
:103E20000000000000000000000000000000B9F7E2
:103E30000000FA9581F7E4E3EA9500000000000035
:103E400000000000C9F70895EE27FF276894319B12
:103E50000DC0000000000000000000000000000095
:103E600000000000319799F7E8940895E0E3EA959F
:103E70000000000000000000000000000000000042
:103E800000000000000099F7F8E0A6953199A068BD
:103E9000EAE2EA95000000000000000000000000D7
:103EA0000000B9F70000FA9581F7EAE1EA95000011
:103EB0000000000000000000C9F70895EE27F0E0C0
:103EC0006894AA27319B72CD319B70CD319B6ECD0A
:103ED000319B6CCDAA95B1F7319799F7E894089585
:103EE000CE0193700E94057C0196019741F0E1E0BC
:103EF000F0E00E94017C0E94067C2ED1F6CF0E9449
:103F0000057C8AB59BB593700196019729F0A2D3E1
:103F10002EF40E94097CF9CF0C944E7C01E90C949C
:103F20004F7CCE0193700E94057C0196019741F071
:103F3000E1E0F0E00E94017C0E94067C68D1F6CFAF
:103F40000E94057C8AB59BB593700196019729F074
:103F5000DAD32EF40E94097CF9CF0C944E7C01E94F
:103F60000C944F7CCE0197700E94057C01960197BE
:103F700041F0E1E0F0E00E94017C0E94067C8AD1E1
:103F8000F6CF0E94057C8AB59BB597700196019784
:103F900029F0FCD32EF40E94097CF9CF0C944E7CBE
:103FA00001E90C944F7CCE0193700E94057C019630
:103FB000019741F0E1E0F0E00E94017C0E94067C64
:103FC00049D0F6CF0E94057C8AB59BB593700196C7
:103FD000019741F0AFD2E3E0EA95F1F72EF40E94A9
:103FE000097CF6CF0C944E7C01E90C944F7C429AEC
:103FF0003A9AB8B1BB7FB8B9F9E000000000E3E03D
:10400000EA95F1F700000000BB7F0894A79508F43B
:10401000B460B8B9FA9599F7E4E0EA95F1F7089534
:10402000EE27FF276894329B04C03197E1F7E894AC
:104030000895E7E0EA95F1F7F8E0A6953299A068CF
:10404000E3E0EA95F1F700000000FA95B1F7329B42
:10405000FECF0895429A3A9AB8B1BB7FB8B9F9E059
:10406000000000000000EAE0EA95F1F7B8B1BB7F7C
:104070000894A79508F4B460B8B9FA95A1F7EEE0F2
:10408000EA95F1F73A980895EE27FF276894329B56
:1040900004C03197E1F7E8940895EFE0EA95F1F76D
:1040A000F8E0A6953299A068EBE0EA95F1F70000F8
:1040B000FA95B9F7329BFECF0895429A3A9AB8B171
:1040C000BB7FB8B9F9E0000000000000E7E1EA9525
:1040D000F1F70000B8B1BB7F0894A79508F4B4606D
:1040E000B8B9FA9599F7EAE5EA95F1F70895429A91
:1040F0003A9AB8B1BB7FB8B9F9E0000000000000FF
:10410000E7E1EA95F1F70000B8B1BB7F0894A79505
:1041100008F4B460B8B9FA9599F7E0E1EA95F1F7D7
:104120003A980895EE27FF276894329B04C0319790
:10413000E1F7E8940895E3E2EA95F1F7F8E0A6954F
:104140003299A068E8E1EA95F1F700000000FA95DD
:10415000B1F7329BFECF0895429A3A9AB8B1BB7F2D
:10416000B8B9F9E0000000000000E0EDEA950000B9
:10417000000000000000000000000000B9F7B8B126
:10418000BB7F0894A79508F4B460B8B9FA9569F7AD
:10419000E0E0EA95F1F73A980895EE27FF27689452
:1041A000329B0EC000000000000000000000000074
:1041B000000000000000319799F7E8940895E0EEC0
:1041C000EA95000000000000000000000000000070
:1041D000000000000000000099F7F8E0A695329971
:1041E000A068E0EDEA95000000000000000000007B
:1041F00000000000B9F70000FA9581F7E4E8EA95BD
:1042000000000000000000000000C9F70895EF93CF
:10421000FF93AF93429A3A9AB8B1BB7FB8B9F9E02D
:10422000000000000000ECEAEA95F1F7B8B1BB7FAE
:104230000894A79508F4B460B8B9FA95A1F7ECEA28
:10424000EA95F1F7AF91FF91EF910895EF93FF9306
:10425000EE27FF273A986894AA27329B08C0AA95B0
:10426000E1F73197C9F7E894FF91EF910895E4ECF5
:10427000EA950000E9F7F8E0A6953299A068ECEA23
:10428000EA95F1F7FA95C1F7E7E5EA95F1F7FF91BD
:10429000EF910895EF93FF93AF93429A3A9AB8B192
:1042A000BB7FB8B9F9E0000000000000E7E3EA9541
:1042B000F1F7B8B1BB7F0894A79508F4B460B8B91A
:1042C000FA95A1F7E7E3EA95F1F7AF91FF91EF9146
:1042D00008953A98EF93FF93EE27FF276894AA2753
:1042E000329B08C0AA95E1F73197C9F7E894FF918E
:1042F000EF910895E6E4EA95F1F7F8E0A695329992
:10430000A068E8E3EA95F1F7FA95C1F7ECE1EA95E0
:10431000F1F7FF91EF910895429A3A9AB8B1BB7FB5
:10432000B8B9F9E0000000000000E8E6EA950000F6
:10433000000000000000000000000000B9F7B8B164
:10434000BB7F0894A79508F4B460B8B9FA9569F7EB
:10435000E2E4EA9500000000000000000000000018
:104360000000B9F70895EE27FF276894329B0DC02F
:10437000000000000000000000000000000000003D
:104380000000319799F7E8940895E8E7EA9500006E
:10439000000000000000000000000000000000001D
:1043A0000000000099F7F8E0A6953299A068E7E6CA
:1043B000EA9500000000000000000000000000007E
:1043C000B9F70000FA9581F7E2E4EA9500000000F1
:1043D000000000000000C9F70895EE27F0E068949F
:1043E000AA27329B5ACE329B58CE329B56CE329B56
:1043F00054CEAA95B1F7319799F7E8940895429A67
:104400003A9AB8B1BB7FB8B9F9E0000000000000EB
:10441000E3E5EA9500000000000000000000000055
:104420000000B9F7B8B1BB7F0894A79508F4B46051
:10443000B8B9FA9569F7E4E3EA95000000000000D6
:104440000000000000000000B9F70895429A3A9A6F
:10445000B8B1BB7FB8B9F9E0000000000000E9E2A4
:10446000EA950000000000000000000000000000CD
:10447000B9F7B8B1BB7F0894A79508F4B460B8B990
:10448000FA9569F7EAE1EA950000000000000000F3
:10449000000000000000B9F70895439A3B9AB8B1B4
:1044A000B77FB8B9F9E000000000E3E0EA95F1F762
:1044B00000000000B77F0894A79508F4B860B8B969
:1044C000FA9599F7E4E0EA95F1F70895EE27FF27CA
:1044D0006894339B04C03197E1F7E8940895E7E0CE
:1044E000EA95F1F7F8E0A6953399A068E3E0EA953C
:1044F000F1F700000000FA95B1F7339BFECF089565
:10450000439A3B9AB8B1B77FB8B9F9E00000000010
:104510000000EAE0EA95F1F7B8B1B77F0894A795F3
:1045200008F4B860B8B9FA95A1F7EEE0EA95F1F7AA
:104530003B980895EE27FF276894339B04C031977A
:10454000E1F7E8940895EFE0EA95F1F7F8E0A69531
:104550003399A068EBE0EA95F1F70000FA95B9F716
:10456000339BFECF0895439A3B9AB8B1B77FB8B951
:10457000F9E0000000000000E7E1EA95F1F7000033
:10458000B8B1B77F0894A79508F4B860B8B9FA95A0
:1045900099F7EAE5EA95F1F70895439A3B9AB8B19D
:1045A000B77FB8B9F9E0000000000000E7E1EA9544
:1045B000F1F70000B8B1B77F0894A79508F4B86088
:1045C000B8B9FA9599F7E0E1EA95F1F73B980895C3
:1045D000EE27FF276894339B04C03197E1F7E894F6
:1045E0000895E3E2EA95F1F7F8E0A6953399A0681B
:1045F000E8E1EA95F1F700000000FA95B1F7339B86
:10460000FECF0895439A3B9AB8B1B77FB8B9F9E0A5
:10461000000000000000E0EDEA950000000000004E
:104620000000000000000000B9F7B8B1B77F08949F
:10463000A79508F4B860B8B9FA9569F7E1EDEA957D
:104640000000000000000000000000000000B9F7BA
:104650003B980895EE27FF276894339B0EC0000017
:10466000000000000000000000000000000000004A
:10467000319799F7E8940895E0EEEA95000000007C
:10468000000000000000000000000000000000002A
:10469000000099F7F8E0A6953399A068E0EDEA9557
:1046A0000000000000000000000000000000B9F75A
:1046B0000000FA9581F7E4E8EA95000000000000A8
:1046C00000000000C9F70895EF93FF93AF93439A5A
:1046D0003B9AB8B1B77FB8B9F9E00000000000001C
:1046E000ECEAEA95F1F7B8B1B77F0894A79508F41A
:1046F000B860B8B9FA95A1F7ECEAEA95F1F7AF918D
:10470000FF91EF910895EF93FF93EE27FF273B98DA
:104710006894AA27339B08C0AA95E1F73197C9F797
:10472000E894FF91EF910895E4ECEA950000E9F731
:10473000F8E0A6953399A068ECEAEA95F1F7FA95C6
:10474000C1F7E7E5EA95F1F7FF91EF910895EF934F
:10475000FF93AF93439A3B9AB8B1B77FB8B9F9E0EA
:10476000000000000000E7E3EA95F1F7B8B1B77F79
:104770000894A79508F4B860B8B9FA95A1F7E7E3EB
:10478000EA95F1F7AF91FF91EF9108953B98EF9380
:10479000FF93EE27FF276894AA27339B08C0AA95AA
:1047A000E1F73197C9F7E894FF91EF910895E6E4B6
:1047B000EA95F1F7F8E0A6953399A068E8E3EA9561
:1047C000F1F7FA95C1F7ECE1EA95F1F7FF91EF9176
:1047D0000895439A3B9AB8B1B77FB8B9F9E00000A1
:1047E00000000000E8E6EA9500000000000000007C
:1047F000000000000000B9F7B8B1B77F0894A79592
:1048000008F4B860B8B9FA9569F7E2E4EA950000EF
:10481000000000000000000000000000B9F708954B
:10482000EE27FF276894339B0DC0000000000000B6
:10483000000000000000000000000000319799F720
:10484000E8940895E8E7EA95000000000000000001
:10485000000000000000000000000000000099F7C8
:10486000F8E0A6953399A068E7E6EA950000000015
:1048700000000000000000000000B9F70000FA95F9
:1048800081F7E2E4EA95000000000000000000006B
:10489000C9F70895EE27F0E06894AA27339B53CE1A
:1048A000339B51CE339B4FCE339B4DCEAA95B1F760
:1048B000319799F7E8940895EF93FF93AF93BF93DF
:1048C000CF93E0E5EA95F1F7429A3A9AB8B1BB7F07
:1048D000B8B9F8E0CC270000E7E3EA95F1F7B8B102
:1048E000BB7FA79510F4B460C395B8B9FA95A1F74A
:1048F000E7E3EA95F1F7B8B1BB7FC79510F4B46070
:10490000C395B8B9E9E3EA95F1F7429AE7E3EA9586
:10491000F1F7CF91BF91AF91FF91EF9108953B983F
:10492000439AEF93FF93EE27FF276894AA27339BC0
:104930000DC00000000000000000AA95C1F73197EB
:10494000A9F7E894AA27FF91EF910895E6E4EA9584
:10495000F1F7F8E0A6953399A068E8E3EA95F1F756
:10496000FA95C1F7E4E6EA95F1F7FF91EF91089522
:10497000412E522E632E702E0E94027CA1E170FE09
:10498000ACE5A093B800A0E0A093B900A4E8A09380
:10499000BC000C944E7C2092BC000E94037C0C94C2
:1049A0004E7C87D0783089F4A22FAE7F9AD07831B0
:1049B00061F4A52DA13021F0A92F93D0783229F4EC
:1049C000A82F8FD0783209F408950F900F9000E44B
:1049D0006CD00C944F7C02E468D00C944F7CC801DE
:1049E0000E94057CDEDF65D07031A9F7A22FA1609F
:1049F00078D0703481F7439EC001903051F48130FB
:104A000041F478D00E94097C783529F74ED00C9477
:104A10004E7C6BD07035F9F60E94097C0197EDCF82
:104A200044D00C944E7CC8010E94057CBADF642DF2
:104A30000E94067C56D0783271F66A95C9F735D057
:104A4000E62DF0E00E94017C840D921D3A9571F7ED
:104A50000C944E7C01E40C944F7C2BD0783089F47C
:104A6000A5E43FD070930101703459F443D07093A2
:104A70000201783531F4A0930001002716D00C9480
:104A80004E7C01E412D00C944F7C13D0A22F29D07D
:104A9000A0EA27D0A0E825D0A1E023D006D0E2E309
:104AA000F0E00E94017C0C944E7C44E94093BC00F1
:104AB000089544EA4093BC004091BC0047FFFCCFFE
:104AC0007091B900787F44E04093BC000895409312
:104AD000BC004091BC0047FFFCCF7091B900787FCB
:104AE0000895A093BB0044E8F2CF44ECF0DFA0911E
:104AF000BB00089544E8EBDFA091BB00089528B8FF
:104B0000AFE0A7B90E94027CE4E6FAE00E94017CD3
:104B1000409A44E650E09AD040985AE097D00C94DE
:104B20004E7C28B827B80E94037C0C944E7CE1018F
:104B3000A991A03011F40C944E7CA13021F459912C
:104B4000499184D0F5CFA23031F47991699159918E
:104B500049917ED0EDCFA43019F4E89412D0E8CF7B
:104B6000A53019F468940DD0E3CFA63021F4E89471
:104B700008D02FD0DDCFA73019F4689402D029D007
:104B8000D7CF2E0189919991E0E0FAE0409A5CD06C
:104B90000EF45AD0409858D057D07727BB277030A2
:104BA00019F478E0A991B193A0FD429AA0FF429830
:104BB000903019F4813009F4409A46D0A695B69504
:104BC0003399B068019759F73FD040983DD0E20142
:104BD00008952E0189919991DC011796B695A795B4
:104BE000B695A795B695A7955A2FDE0153E0B695D1
:104BF000A7955A95E0E0FAE0DE01FC01C50FC21D61
:104C00000027452F6D9171910990602170216713E4
:104C100001E04A95B9F7003081F408950F900F90A4
:104C2000E51BF209C51BD209C51BD209C51BD20958
:104C30000E01E101599309921992019009925A9536
:104C4000E1F700E40C944F7C41E055276627772775
:104C5000419A431952096209000000000000000057
:104C600000004198720900000000000000000000F0
:104C700079F70895303029F4243018F401E40C94C5
:104C80004F7CA0E00E94357DA8E9A093C1007894F4
:104C90000E94027CAFE328B8A7B9303009F019C0F0
:104CA000243019F4A8B9A395FDCF253021F4A8B973
:104CB0000000A395FCCF263029F4A8B9000000001D
:104CC000A395FBCF273029F4A8B900000000A395D5
:104CD000FBCF21FD03C020FF04C00FC020FF1AC07E
:104CE00027C0C90196958795969587950197A8B98C
:104CF000A395FC013197F1F7FACFC90196958795F5
:104D0000969587950197A8B9A395FC013197F1F77E
:104D10000000F9CFC90196958795969587950197DB
:104D2000A8B9A395FC013197F1F700000000F8CF76
:104D3000C90196958795969587950197A8B9A395EA
:104D4000FC013197F1F7000000000000F7CF28B810
:104D5000E5E0F1E00E94017C27B80E94037C0C94FE
:104D60004E7CA0E00E94357DA8E9A093C100E0E060
:104D7000F2E02192F031E9F7A0ECA7B9A09100018F
:104D8000A0930010A095A8B9A5E5A0930001AAEAF8
:104D9000A09301017894D801C0E0D2E0E0E0FFE008
:104DA00056B131925193452F81E002C000000000BE
:104DB00000000000000000000000000000000000F3
:104DC00000000000000056B1652E6426452F39F41E
:104DD000839569F78193519381E0FFE0EFCF819351
:104DE000519381E0FFE052276522632249F7119732
:104DF00051F7F89456B1652E6426452F41F48395FA
:104E000061F48993599381E0DF3071F411C0899383
:104E1000599381E0DF3039F40BC00000000000003E
:104E20000000000000000000000000000000E2CFD1
:104E30002A98809100108F73C0E0D1E0FFE0A1912B
:104E4000FFE0A993A191FFE0A993D230C1F7C0E0A0
:104E5000D1E0A981BFEFA03011F0A823BA2FB98308
:104E60002296DF30B1F77894ABE20E94167CFFCF38
:104E700027B828B80C944E7CA0E00E94357DA8E9A4
:104E8000A093C100E0E0F2E02192F031E9F7A0EC5C
:104E9000A7B9A0910001A0930010A095A8B9A5E51D
:104EA000A0930001AAEAA09301017894D801C0E080
:104EB000D2E0E0E0FFE056B131925193452F81E01E
:104EC00002C0000000000000000000000000000020
:104ED0000000000000000000000000007CE37A9564
:104EE000F1F756B1652E6426452F39F4839551F7B5
:104EF0008193519381E0FFE0ECCF8193519381E066
:104F0000FFE052276522632231F7119739F7F894B1
:104F10007CE37A95F1F756B1652E6426452F41F46E
:104F2000839561F48993599381E0DF3071F480CFE8
:104F30008993599381E0DF3039F47ACF0000000083
:104F40000000000000000000000000000000000061
:104F5000DFCFA0E00E94357DA8E9A093C100E0E08A
:104F6000F2E02192F031E9F7A0ECA7B9A09100019D
:104F7000A0930010A095A8B9A5E5A0930001AAEA06
:104F8000A09301017894D801C0E0D2E0E0E0FFE016
:104F900056B131925193452F81E002C000000000CC
:104FA0000000000000000000000000000000000001
:104FB00000000000000036D056B1652E6426452F53
:104FC00039F4839561F78193519381E0FFE0EECF4F
:104FD0008193519381E0FFE052276522632241F7DC
:104FE000119749F7F8941ED056B1652E6426452FC7
:104FF00041F4839561F48993599381E0DF3071F432
:1050000017CF8993599381E0DF3039F411CF000035
:105010000000000000000000000000000000000090
:105020000000E1CF7BED0000000000000000000068
:1050300000007A95C1F700000895302F0E94AA0859
:105040002AE0120F11BDA5ED0E94E6090E94B208E8
:1050500000D1A32F60E278E10E94D10965E278E1F6
:105060000E94CB09A058A07B0A2F0C944F7C0E9471
:10507000AA08EFD064E278E1AFEF0E94D10960E0C6
:105080007CEFA0E00E94D10966E278E1A5E00E94F1
:10509000D109E4D061E278E10E94CB09A09300013C
:1050A000A370A23011F40C944E7C60E07CEFA0E081
:1050B0000E94D10966E278E1A1E40E94D109CED034
:1050C00060E07CEFA0E00E94D10966E278E1A5E013
:1050D0000E94D109C3D061E278E10E94CB09A0937C
:1050E0000101A370A23000E109F008E30C944F7CA9
:1050F0000E94AA08AED064E278E1AFEF0E94D10925
:1051000060E07CEFA0E00E94D10966E278E1A1E4D2
:105110000E94D109A3D09DD060E07CEFA0E00E9466
:10512000D10966E278E1A5E00E94D1090E942E290A
:105130000C944F7C0E94AA08C8010E94057C00279D
:1051400088D064E278E1AFEF0E94D109A0E90E9423
:10515000E6090E94F509ACE40E94E609DC0111971A
:105160000E94E9090E94F509A0E50E94E6090E9453
:10517000067C0E94E6090E94F50966E278E1A5E254
:105180000E94D1096BD0003099F62319320961F7DA
:105190000C944E7C0E94AA08C8010E94057C0E94C3
:1051A000CE0923193209D9F70C944E7C0E94AA0823
:1051B000A0E90E94E6090E94F509ABE40E94E60915
:1051C000D8010E94E9090E94F509A8E00E94E609B9
:1051D0000E94F50900270C944F7C0E94AA08C80180
:1051E0000E94057CA0E90E94E6090E94F509ACE452
:1051F0000E94E609DC0111970E94E9090E94F50965
:10520000A0E70E94E6090E94F5090E94EC090E94AD
:10521000097C23193209A1F70C944E7C4198399AE4
:10522000E2E0F0E00E94017CE0E0F0E0419A000062
:1052300000000000000039983199FECFE395319BC2
:10524000FDCFE0930201F09303010E9430090C941A
:105250004E7CA0E365E278E10C94D1091F910F9197
:10526000A0E865E278E10E94D109E0E0F0E0EF9388
:10527000FF9365E278E10E94CB090E94F209FF9159
:10528000EF91A7FD05C0319791F701E40C944F7C95
:10529000F801002709940E94AA08A0E90E94E609E3
:1052A0000E94F5090C944E7C0E94AA08A8E00E9476
:1052B000E6090E94F5090C944E7C0E94057C0E9430
:1052C000AA08A8E40E94E6090E94067C0E94E6095A
:1052D0000E94F509A9E40E94E6090E94067C0E944A
:1052E000E6090E94F509ABE40E94E6090E94077CEA
:1052F0000E94E9090E94F509ACE40E94E6090E94B7
:10530000077C0E94E9090E94F509AFE40E94E609C2
:105310000E94077C0E94E9090E94F5090C944E7CCA
:105320000E94AA080E94057CA8E60E94E6090E9445
:10533000F5090E94EC090E94097CA9E60E94E60991
:105340000E94F5090E94EC090E94097CABE60E94CC
:10535000E6090E94F5090E94EF090E940A7CACE66A
:105360000E94E6090E94F5090E94EF090E940A7C4A
:10537000AFE60E94E6090E94F5090E94EF090E942B
:105380000A7C0C944E7C28B8399A389A0E94027C88
:10539000E2E3FF270E94017C409AE2E3FF270E949C
:1053A000017C419AECE2F1E00E94017C689440E1CA
:1053B000AA270E94351DE6E1FF270E94017C4A953D
:1053C000B9F7A0EB0E94351D0E94841D06E426F566
:1053D00002E4A03BE1E0F0E00E94017CA7EB0E9428
:1053E000351DE1E0F0E00E94017CA8E00E94351D3F
:1053F0000E94841D01E486F403E4A73B0C944E7CD8
:1054000028B8399A389AE2E3FF270E94017C0E946B
:10541000037C27B80C944E7CA09300010C944F7C25
:10542000AF93AB2FAA950000000000000000000021
:1054300000000000AA95B1F7AF9108953327F80155
:105440000E94057C0E94067C3A0F3197D9F7AAEF9B
:105450000E94961CB801A62F0E94961CA72F0E949E
:10546000961CA32F0E94961C0E94057C0E94067C1D
:105470000E94961C63197209C9F700270C944F7C8F
:105480000E94057CAAEF0E94961CA02F0E94961CE9
:10549000A12F0E94961CA32F0E94961C80E098E0EA
:1054A0000E94067C0E94961C0197D1F700270C945D
:1054B0004F7C0E94057CC801F3CFBDD0A5EF0E94B0
:1054C000961CAFED0E94961CAFEF0E94961CA0E0C8
:1054D0000E94961CA7E00E94961C0E94057C47E053
:1054E0000E94067C0E94961C4A95D1F7E0E0F1E00C
:1054F0000E94017C73EC60E5A2D00C944F7C0E946A
:10550000057C0E94067C7A2F0E94067C6A2FA72BBE
:10551000A1F091D0A0E20E94961CA62F0E94961C9A
:10552000A72F0E94961CA0ED0E94961CE0E0F2E0DE
:105530000E94017C73EC60E582D0C03111F70C94BD
:105540004E7CA32F0E94961CA12F0E94961CA02F78
:105550000E94961C0E94CA1CA09300010C944E7CD1
:10556000C8010E94057C67D0A1E40E94961CA82F68
:105570000E94961CA92F0E94961C44270E94067C1C
:105580000E94961C4A95D1F7E5E0F0E00E94017C6C
:105590007EE460E254D001962A9529F70C944E7C63
:1055A0004AD0A6E20E94961CA0ED0E94961CEAE05A
:1055B000F0E00E94017C73E168E841D00C944E7CDD
:1055C000C8010E94057CAFEF0E94961CA82F0E9484
:1055D000961CA92F0E94961C30E00E94CA1C6EF4F3
:1055E0000E94097C3A95C9F7E2E0FF270E94017CFE
:1055F00001962A9541F70C944E7CC0932001D093DC
:10560000210120932201A5E5A093230100E40C943D
:105610004F7C0E94057CABEF0E94961C38E00E94F4
:10562000CA1C5EF70E94097C3A95C9F7AA270E9416
:10563000097C0C944E7C6894A0E50C94961C6894AC
:10564000EAE0F0E00E94017C2092200120922101FA
:105650002092220120922301A0E70E94961C0E9422
:10566000CA1C4A2F1EF50E94CA1C5A2F26F547FD58
:1056700005C06319720921F705E419C040932001A0
:10568000509321016093220170932301407321F014
:10569000429508E4040F0BC05C705C3029F056950D
:1056A00056950CE4050F03C00027089500E40F9001
:1056B0000F900C944F7C00E50F900F900C944F7C52
:1056C000432E0C944E7C0E94027C4198399A439858
:1056D0003B9A389A4098E8ECFF270E943A7EACEA61
:1056E00048D1A3E546D1A0E044D1BA2FA0E041D1F2
:1056F000B33511F40C944E7C01E40C944F7C0E9461
:10570000057C00E0A0E335D133D1A02F32D130D1D8
:105710000E947B7D03950330A9F7A0E52AD128D10B
:1057200027D126D10E947B7DA8E523D1A8E021D1F5
:105730001FD11ED10E947B7DA0E51BD1A8E019D10D
:1057400017D116D10E947B7DA8E513D111D110D1BC
:105750000FD10E947B7DA8E30CD10AD109D108D1D9
:105760000E947B7D0C944E7CACEA03D1A0E801D171
:10577000FFD013D10C944E7CACEAFBD0A0E8F9D05A
:10578000F7D0F6D0E4E1F0E00E94017C0C944E7C6E
:105790000E94057CC8016627A0E4D4D0D2D0A62FF1
:1057A000D1D00E94067CCED0A8E4CCD0CAD0A62FFF
:1057B000C9D00E94067CC6D06395631769F7ACE434
:1057C000C1D0A92FBFD0A82FBDD0E7D0830F921D85
:1057D0002A9509F70C944E7C0E94057CC801662727
:1057E000A0E4B0D0AED0A62FADD00E94067CAAD047
:1057F000A8E4A8D0A6D0A62FA5D00E94067CA2D04F
:105800006395631769F7ACE49DD0A92F9BD0A82FAF
:1058100099D097D0E5E0F0E00E94017C830F921DC3
:105820002A95E9F60C944E7CC8010E94057CA0E202
:1058300089D0A92F87D0A82F85D083D00E94097C3A
:10584000A8E280D0A92F7ED0A82F7CD07AD00E9449
:10585000097C01962150304051F70C944E7C0E94F7
:10586000057CF80160E0A1EC6DD06BD0A62F6AD06A
:105870000E94067C67D063956317A9F7A2EC62D0FB
:10588000A12F60D0A02F5ED088D0030F121D2A95C3
:1058900049F70C944E7C0E94057CF80160E0A1EC75
:1058A00051D04FD0A62F4ED00E94067C4BD063958E
:1058B0006317A9F7A2EC46D0A12F44D0A02F42D065
:1058C00040D0EAE0F0E00E94017C030F121D2A950F
:1058D00029F70C944E7CC801F9010E94057CA0EACE
:1058E00031D0A92F2FD0A82F2DD02BD00E94097CEA
:1058F00001963197A1F70C944E7CACEA3AD0A0EA1D
:105900000BC0ACEA36D0A8EA07C0ACEA32D0A4EAB1
:1059100003C0ACEA2ED0A0EE2CD02AD0A02F30FDB0
:1059200003C049D00C944E7C24D0EAE0F0E00E9401
:10593000017C0C944E7C28B80E94037C27B80C9400
:105940004E7CAA2758E040FE15C0A7FD439AA7FF4A
:105950004398419A44E04A95F1F788943299089423
:10596000AA1F419844E04A95F1F75A9571F70895B6
:10597000AA2758E0A7FD439AA7FF4398419A48EC0D
:105980004A95F1F7889432990894AA1F419848ECF7
:105990004A95F1F75A9571F70895AA27D3DFA0E049
:1059A000AA95F1F7A0EFCEDFCCDFCBDFCBDFA0FDF8
:1059B000F6CF0895AA27DDDFA0E0AA95F1F7A0EFC2
:1059C000D8DFD6DFD5DFD5DFA0FDF6CF0895512F84
:1059D000822E9924A2E0AA2E28B8A7E1A7B90E9496
:1059E000027CE4E6F0E00E943A7E449A419A429AB0
:1059F000439AEAE0F0E00E943A7E409AE1E0F0E06B
:105A00000E943A7E4098E1E0F0E00E943A7E409A9F
:105A1000E52FF0E00E943A7E4498E5D3449AE3D320
:105A20003A95D1F73B9884E1F4D32EF48A95E1F7C7
:105A300001E40C944F7CE2E3F0E00E94017CDBD3B4
:105A4000BEF3A5E5ABD3A0E0A9D3A13C19F002E4D5
:105A50000C944F7C0C944E7C28B80E94037C27B891
:105A60000C944E7C00E40C944F7C28B8A7E1A7B9B5
:105A7000E2E3F0E00E943A7EE2E3F0E00E943A7E48
:105A8000409A68940C944E7C932C0C944E7C0E940B
:105A9000057CE2EBFAE5A1E00CD3ECD23EF0E2EBC0
:105AA000FAE5A82D06D33BD30C944E7C04E40C9469
:105AB0004F7C01380E94057CE0EEFAE5ACE0A39F44
:105AC000E00DF11DA1E0F5D2D5D23EF0E0E7FBE517
:105AD000A82DEFD224D30C944E7C04E40C944F7C7C
:105AE0000932007A120003D090000000093200B79A
:105AF0001B0003D090000000093200F4240003D002
:105B000090000000093201312D0003D09000000008
:105B10000932016E360003D0900000000932000007
:105B2000000003D0900000000932007A120004C483
:105B3000B4000000093200B71B0004C4B400000028
:105B4000093200F4240004C4B40000000932013119
:105B50002D0004C4B40000000932016E360004C4F4
:105B6000B400000009320000000004C4B4000000CA
:105B700001320E94057CECE8FBE5A1E09AD27AD2E2
:105B800016F00C944E7C04E40C944F7C01000E94AF
:105B9000057CE2EBFBE5A1E08CD26CD23EF0E2EBBF
:105BA000FBE5A82D86D2BBD20C944E7C04E40C9469
:105BB0004F7C012C0E94057CE6ECFBE5A1E079D24C
:105BC000AED20C944E7C01240E94057CECEEFBE5E9
:105BD000A1E06FD24FD23EF0ECEEFBE5A82D69D2EA
:105BE0009ED20C944E7C04E40C944F7C013A0093BA
:105BF00090101093911020939210309393100C9466
:105C00004E7C00939410109395102093961030932F
:105C100097100C944E7C0E94057CAED2A0E0BDD2C1
:105C2000A9E0BBD2A0E1B9D2A0919310B6D2A091C5
:105C30009210B3D2A0919110B0D2A0919010ADD299
:105C4000A0919710AAD2A0919610A7D2A0919510DA
:105C5000A4D2A0919410A1D29ED297D260D20C94DB
:105C60004E7C8AD2A0E099D2A5E097D2A2E195D24B
:105C7000A32F93D2A22F91D2A12F8FD2A02F8DD25A
:105C80008AD283D2F7D116F00C944E7C0C944F7CC0
:105C900070E272D2A0E081D2A5E07FD2A2E17DD2F3
:105CA000A32F7BD2A22F79D2A12F77D2A02F75D28A
:105CB0000F9371D26AD2DED176F00F91A0E40A0F71
:105CC000121D221D321DE1E0F0E00E94017C7A9558
:105CD00001F70C944E7C0F9106E40C944F7C0E94CB
:105CE000057C4AD2A0E059D2A9E057D2A3E155D20F
:105CF000A091931052D2A09192104FD2A0919110E6
:105D00004CD2A091901049D2A091971046D2A09168
:105D1000961043D2A091951040D2A09194103DD2FC
:105D20003AD233D2A7D10C944F7C0E94057C24D266
:105D3000A0E033D2A9E031D2A6E12FD2A0919310F6
:105D40002CD2A091921029D2A091911026D2A0918C
:105D5000901023D2A091971020D2A09196101DD21E
:105D6000A09195101AD2A091941017D214D20DD2EE
:105D700081D10C944F7C0E94057CFED1A0E00DD215
:105D8000A9E00BD2AFE309D2A091931006D2A09163
:105D9000921003D2A091911000D2A0919010FDD149
:105DA000A0919710FAD1A0919610F7D1A0919510DB
:105DB000F4D1A0919410F1D1EED1E7D15BD10C9444
:105DC0004F7CC80102C080E094E0232F01960E941E
:105DD000057CD5D1A92FE1D1A82FDFD1A3E1DDD159
:105DE00001970E94067CD9D10197D9F7E1E0F0E054
:105DF0000E94017CD0D1A22FD0D1E1E0F0E00E943E
:105E0000017C0E94057C36D10C944F7CC80102C0F5
:105E100080E094E0232F01960E94057CB0D1A92F49
:105E2000BCD1A82FBAD1A6E1B8D101970E94067CB7
:105E3000B4D10197D9F7E1E0F0E00E94017CABD149
:105E4000A22FABD1E1E0F0E00E94017C0E94057C32
:105E500011D10C944F7CC80102C080E094E0232F44
:105E600001960E94057C8BD1A92F97D1A82F95D19F
:105E7000AFE393D101970E94067C8FD10197D9F7A8
:105E8000E1E0F0E00E94017C86D1A22F86D1E1E022
:105E9000F0E00E94017C0E94057CECD00C944F7CC9
:105EA0006ED1A0E07AD1A5E078D1A3E976D1A0E0C7
:105EB00074D1A0E072D1A4E070D1A0E06ED16BD11A
:105EC000A32F6BD10E94057CD5D00C944F7C0E94EF
:105ED000057C52D1A0E061D1A9E05FD1A5E15DD1FF
:105EE000A09193105AD1A091921057D1A0919110E6
:105EF00054D1A091901051D1A09197104ED1A09162
:105F000096104BD1A091951048D1A091941045D1F5
:105F100042D13BD1AFD00C944F7C0E94057C2FD155
:105F2000A0E03BD1A1E039D1A5E137D134D12DD1C9
:105F3000D7D0A53191F4E1E0F0E00E94017C1FD1BF
:105F4000A0E02BD1A1E029D1A5E127D124D11DD1F9
:105F5000C7D0A53111F40C944E7C0C944F7C0E9458
:105F6000057C0AD1A0E019D1A1E017D1A7E215D193
:105F700012D10BD17FD03FD102D1A0E00ED1A1E050
:105F80000CD1A7E20AD107D100D1C9D00C944E7C24
:105F90000E94057CF1D0A0E000D1A9E0FED0A8E1EC
:105FA000FCD088E00E94067CF8D08A95D9F7F3D01F
:105FB000ECD060D00E94057C1ED1E1D0A0E0EDD0F5
:105FC000A1E0EBD0A8E1E9D0E6D0DFD003D0A7D0A4
:105FD0000C944E7C80E0EAE0F0E00E94017C19D154
:105FE00016F48A95C1F7089584E6E4E6F0E00E948D
:105FF000017C01D116F48A95C1F70895BDD0A0E0C7
:10600000CCD0A2E0CAD0A0E2C8D0A32FAF61C5D047
:10601000C2D0BBD02FD00C944F7C0E94057CACD05A
:10602000A0E0BBD0A1E0B9D0A1E2B7D0B4D0ADD050
:1060300021D0E1D0A4D0A0E0B0D0A1E0AED0A1E2C8
:10604000ACD0A9D0A2D04CD00C944E7C0E94057C40
:1060500093D0A0E0A2D0A1E2A0D0A6E29ED090E290
:106060000E94067C9AD09A95D9F795D08ED002D00E
:106070000C944E7CE894002782E3CBD03EF48A95C2
:10608000E1F703E40F900F900C944F7C73D072D023
:1060900071D0A23031F06ED0A7FD68946BD06AD079
:1060A000089568D0A7FD689465D00A2F63D062D0A8
:1060B0000895E89484E19FD03EF48A95E1F703E4E3
:1060C0000F900F900C944F7C552468D053D085913D
:1060D000A82F63D0A59161D08A95E1F75CD055C017
:1060E000E89488EC96D03EF48A95E1F703E40F90AB
:1060F0000F900C944F7C3ED03DD09A2F3BD08A2FEE
:1061000039D00A2F0197A82FA92B29F033D00E944C
:10611000097C0197F8CF2ED02DD0A02F0895E894B8
:1061200088EC77D03EF48A95E1F703E40F900F9066
:106130000C944F7C1FD00E94097C1CD00E94097CCB
:106140009A2F18D00E94097C8A2F14D00E94097CB3
:106150000A2F0197A82FA92B29F00CD00E94097CA7
:106160000197F8CF07D00E94097C04D00E94097CD7
:10617000A02F0895AA2711C0A1E055240FC0A82D73
:1061800055240CC0A2E0552409C0A3E007C0A7E134
:1061900005C055240895A52D01C05A1AB8E090FEF7
:1061A0000CC0A7FD429AA7FF4298A6B8AA0F339940
:1061B000A395A6B8BA95A9F70895EF93E0E0EA95FC
:1061C000F1F7E0E8EA95F1F7EF914198A7FD429ADF
:1061D000A7FF4298AA0F07D03399A395419A03D0FD
:1061E000BA9599F70895BF93B0E0BA950000000002
:1061F000E1F7BF910895FF93EF93EE27FF27E8940F
:10620000339B04C012D03197D9F76894EF91FF9176
:106210000895FF93EF93EE27FF27E894339903C087
:106220003197E1F76894EF91FF910895A5ED0E94F1
:10623000E6090E94F509A0E90E94E6090E94F50915
:106240000C944E7C0E94AA080E94057CC901A5E41A
:106250000E94E609D80112970E94E9090E94F509F7
:10626000A2E40E94E6090E94067CBA2F0E94067CE6
:106270000E94E9090E94F509019791F70C944E7C60
:106280000E94AA08A3E40E94E609D8010E94E90935
:106290000E94F509A8E00E94E6090C944E7C0E9439
:1062A000AA08A3E40E94E609D8010E94E9090E9415
:1062B000F509A8E00E94E609002780E090E00E942E
:1062C000F809A6FF0C944F7CA0E0AA95F1F701977E
:1062D000B1F703E00C944F7C302F0E94AA081931CB
:1062E00008F017E02AE0120F11BDA5ED0E94E609A3
:1062F0000E94B208A6ED0E94E6090E94F509A0E0FE
:106300006CE370E00E94D7090E94F509A32F60E1B9
:1063100071E00E94D7090E94F509A32F60E071E0A7
:106320000E94D7090E94F50994D193D164E071E0ED
:10633000AFEF0E94D70964E171E0AFEF0E94D70987
:106340000C944F7C0E94AA08002765E071E0A0E34E
:106350000E94D70962E071E0A0E00E94D70965E0E1
:1063600071E0A2E00E94D70962E071E0A0E10E9422
:10637000D70968E071E0AEEFBFEF0E94E3096AE081
:1063800071E0AFEFBFEF0E94E30966E071E0A1E4C6
:106390000E94D70959D10C944F7C0E94AA0800276B
:1063A00065E171E0A0E30E94D70960E07CE0A0E035
:1063B000BCE00E94E30966E171E0A1E40E94D70914
:1063C00061D10C944F7C0E94AA080027E0E0F2E023
:1063D0000E94017C65E071E0A0E30E94D70962E0C1
:1063E00071E0A0E00E94D70965E071E0A2E00E94A0
:1063F000D70962E071E0A0E10E94D70968E071E08E
:10640000AEEFBFEF0E94E3096AE071E0AFEFBFEFCC
:106410000E94E30966E071E0A1E40E94D70914D16B
:1064200065E171E0A0E30E94D70962E171E0A0E0BC
:106430000E94D70965E171E0A2E00E94D70962E1FC
:1064400071E0A0E10E94D70968E171E0A0E0BCE042
:106450000E94E3096AE171E0A0E0B0E00E94E30974
:1064600066E171E0A1E40E94D7090CD10E941309F2
:106470000030A1F5A32F60E171E00E94D7090E94CE
:10648000F509A32F60E071E00E94D7090E94F50989
:10649000E0D062E071E0A0E00E94D70960E370E024
:1064A000AFEF0E94D70964E071E0AFEF0E94D70917
:1064B00064E171E0AFEF0E94D70965E071E0A2E30B
:1064C0000E94D7096EE07FEFAEEFBFEF0E94E309B5
:1064D00066E071E0A0E20E94D709B6D00C944F7C30
:1064E0000E94AA080E94057CC901A12F60E370E008
:1064F0000E94D709A4D00E94E00966E071E0A0E202
:106500000E94D709A1D006FF05C000908110D015C8
:1065100089F700270C944F7C0E94AA08AED00E94F5
:10652000057C80E098E0A02F67E170E00E94D70929
:106530000E943D330E94E00966E171E0A0E20E9402
:10654000D709A0D006FF05C000908110D01581F7B3
:1065500000270C944F7C0E94AA0871D00E94057CF1
:10656000C901A02F60E370E00E94D709A12F67E165
:1065700070E00E94D7090E94DA0900908310D015BC
:10658000D1F700270C944F7C0E94AA08C90157D06C
:106590000E94057CA02F60E370E00E94D709A5E46B
:1065A0000E94E609DC0112970E94E9090E94F509A0
:1065B000A2E60E94E6090E94F2090E94F2090E94E6
:1065C000EF090E940A7C0090831091F700270C9439
:1065D0004F7C0E94AA0833D00E94057C80E098E09E
:1065E000A02F67E170E00E94D7090E94DA090090AD
:1065F0008310F1F6D1F700270C944F7C0E94AA0873
:10660000A02FAA0FAA9564E370E00E94D709A3E027
:1066100065E370E00E94D709E2E3F0E00E94017CAC
:10662000A0E869E370E00E94D709E5E0F0E00E948D
:10663000017CA4E80E94FB0900E00C944F7CA2E3DB
:1066400065E071E00C94D709A0E865E071E00E9474
:10665000D70920E038EC0E94F50965E071E00E945E
:10666000D409A6FD08C023193209A9F702E0AF91A9
:10667000AF910C944F7C0A2F0895A0E365E171E07F
:106680000C94D709A0E865E171E00E94D70920E0E9
:1066900034E10E94F50965E171E00E94D409A6FD8C
:1066A00008C023193209A9F702E0AF91AF910C9409
:1066B0004F7C0A2F0895302F0E94AA08193108F044
:1066C00017E02AE0120F11BDA5ED0E94E6090E9415
:1066D000B208A6ED0E94E6090E94F509A0E06CE36D
:1066E00070E00E94D7090E94F509A32F60E071E0D5
:1066F0000E94D7090E94F509AFEF68E071E00E949F
:10670000D7090E94F509AFEF69E071E00E94D7094F
:106710000E94F509CBD00C944F7C0E94AA08BCD0F3
:1067200000E018E0A0E0D7D0BCD00C944F7C0E94D1
:10673000AA08B2D00FE719E0A0E0CDD000E010E049
:10674000A1E0C9D0AED00C944F7C0E94AA08A4D07E
:1067500000E01FE0A0E0BFD000E810E0A1E0BBD067
:1067600000E010E0A2E0B7D09CD00C944F7C0E94D7
:10677000AA0892D00FE716E0A0E0ADD008E01FEF26
:10678000A1E0A9D00FEF1FEFA2E0A5D00FEF1FEF00
:10679000A3E0A1D00FEF1FEFA4E09DD00EEF1FEFFD
:1067A000A5E099D07ED00C944F7C0E94AA080027C7
:1067B00000270C944F7C0E94AA080E94057CC80107
:1067C0006BD011E107C00E94AA080E94057CC80195
:1067D00063D016E01F93A0E0022F7DD08C01A1E0D2
:1067E0007AD00E94077C8D01A2E075D00E94077CC0
:1067F0008D01A3E070D00E94077C8D01A4E06BD0D6
:106800000E94077C8D01A5E066D04BD008961F91B1
:10681000D83001F70C944F7C0E94AA083DD00E940A
:10682000057CC901A02F65E170E00E94D709A12F66
:1068300067E170E00E94D7090E94DA09D830E1F7D9
:1068400000270C944F7C0E94AA08C90125D00E9401
:10685000057CA02F65E170E00E94D709A12F67E1B8
:1068600070E00E94D709A5E40E94E609DC011297B6
:106870000E94E9090E94F509A2E60E94E6090E9429
:10688000F2090E94F2090E94EF090E940A7CD830A6
:1068900099F700270C944F7CA0E366E071E00C941C
:1068A000D709A0E866E071E00E94D709EE27F0E280
:1068B0000E94F50966E071E00E94D409AF3F11F033
:1068C000A7FD07C03197A1F705E3AF91AF910C94F5
:1068D0004F7C0A2F089562E071E00E94D709A12F32
:1068E0006AE071E00E94D709A02F6BE071E00C9480
:1068F000D7090E94AA080F93A12F64E370E00E94B9
:10690000D709AF9165E370E00E94D709E2E3F0E0B8
:106910000E94017CA0E869E370E00E94D709E5E0ED
:10692000F0E00E94017CA4E80E94FB090C944E7CDC
:10693000419806D0409804D0419A02D0409A00D0A5
:10694000089540FD419A40FF4198FADF4098F8DFF2
:10695000409AF6DF08954198F8CF419AF6CF3998DA
:10696000419840984427ECDF31994395419AE8DFFC
