:020000020000FC
:100000000C94187C0C9439000C9439000C94390031
:100010000C9439000C9439000C9439000C9439007C
:100020000C9439000C9439000C9439000C9439006C
:100030000C9439000C9439000C9439000C9439005C
:100040000C9438000C9438000C9438000C9439004F
:100050000C943B000C9439000C9439000C9439003A
:100060000C9439000C9439000C9439000C9439002C
:1000700036B8789418950F900F90A8E1A093C1001E
:0A008000A091C60078940C94537C04
:1003C000000C000000000000000000000000000021
:1003D000000000000000000000000000000000001D
:1003E000000000000000000000000000000000000D
:1003F00000000000000000000000000000000000FD
:100400000C9408080C940C2B0C94092B0C94282B9E
:100410000C945D2B0C94712B0C94BD2B0C94D82B4D
:100420000C94142C0C94262C0C942A2C0C942E2C0A
:100430000C94322C0C94442C0C940E080C941A0836
:100440000C9434090C9482090C94C6270C947F28D0
:100450000C9421280C94E0270C9443280C949628A3
:100460000C9473280C940B080C940B080C940B0838
:100470000C940B080C940B080C9408080C94ED08D1
:100480000C946C290C94C7290C94062A0C94A92965
:100490000C94592A0C94892A0C94282A0C94792AB1
:1004A0000C94B22A0C940B080C940B080C94B728EB
:1004B0000C94191F0C943A1F0C945B1F0C947C1F16
:1004C0000C940B300C94DF2F0C94EE2F0C944130D5
:1004D0000C9482300C940F310C942B310C944A31D3
:1004E0000C946C300C94B52F0C94C12F0C949D314E
:1004F0000C9488310C940B080C940B080C940B088A
:100500000C94FA310C9408080C9408080C942C32C2
:100510000C9456320C9482320C94AB320C94080832
:100520000C947A320C9408080C9408080C94183334
:100530000C9436320C9444320C94764E0C942E4E1D
:100540000C943A380C948E380C94CD380C94B13805
:100550000C940C390C9417390C94EC380C94080852
:100560000C94DA4D0C94DF4D0C9410480C944E48CA
:100570000C945C480C94E5450C9424080C947C463F
:100580000C94CF3E0C943A3F0C944C3F0C94513F4A
:100590000C94703F0C94323F0C940B080C940B0895
:1005A0000C9462450C94AE450C94B6450C94674689
:1005B0000C94A0460C942A460C9443460C94764620
:1005C0000C9411400C941C400C9441400C945E40DF
:1005D0000C947F400C9492400C94A5400C942241C2
:1005E0000C9444410C948F410C94B4410C94EB4115
:1005F0000C9475400C9488400C949B400C940841DA
:100600000C945C410C94CF410C94D7420C94080894
:100610000C9473480C9493480C94C6480C948D48E1
:100620000C94B0480C94DC480C94F4420C94344381
:100630000C94AB430C944D430C9442430C94DC4318
:100640000C9495440C94AE440C94B8440C941F45FF
:100650000C942B450C943A450C9436450C94444527
:100660000C9438450C9448450C94C64D0C94E929DB
:100670000C94022A0C9408080C94E0070C94E407EC
:100680000C9461240C9474240C9498240C94BC2431
:100690000C94EE240C9408080C940B080C940B0892
:1006A0000C940B080C940B080C940B080C940B087E
:1006B0000C940B080C940B080C940B080C940B086E
:1006C0000C946D430C948B430C94714D0C94A94D78
:1006D0000C9464490C9488490C949A490C94F349FD
:1006E0000C94714A0C94D14A0C94324B0C94654B87
:1006F0000C941F4C0C94954B0C94F44C0C94914D11
:100700000C948D390C94D9390C94E5390C94483AF1
:100710000C943B3B0C942A4B0C94333A0C94C03A07
:100720000C94B4390C94123C0C94293C0C94433C2A
:100730000C94873C0C94B13C0C94E53C0C94143D17
:100740000C9445360C94C3340C948F360C94B53607
:100750000C94DD360C94B8370C943E370C945A3711
:100760000C94A4340C94C3340C94C8340C94E53425
:100770000C9400350C941A350C9437350C94BF3515
:100780000C940B080C940B080C940B080C940B089D
:100790000C940B080C940B080C940B080C940B088D
:1007A0000C940B080C940B080C940B080C940B087D
:1007B0000C940B080C940B080C9408080C94080873
:1007C0000000000000000000000000000000000029
:1007D0000000000000000000000000000000000019
:1007E0000000000000000000000000000000000009
:1007F00000000000000000000000000000000000F9
:100800000C9458520C9462520C9466520C94B05250
:100810000C9449530C9462530C9473530C94575397
:100820000C947F580C94C2580C94E7580C94F158CF
:100830000C941B590C9436580C9473580C94CC524D
:100840000C94A0540C94AA540C94C0540C941E55AF
:100850000C9490550C94B3550C94AE540C94EA54EB
:100860000C9453550C94A4550C942B590C94395951
:100870000C945A590C9408080C9408080C944A2AB1
:100880000C94EC520C941A530C9482520C94DE5338
:100890000C9451530C9408080C9475410C94A0418D
:1008A0000C94BF4D0C94604E0C942E4E0C94AE4D97
:1008B0000C9408080C9408080C94E1260C9450261B
:1008C0000C94F8550C9408080C944A560C94515604
:1008D0000C9467560C9408080C9477560C94865622
:1008E0000C9495560C9408080C949E560C94CE5675
:1008F0000C94FE560C9408080C942A570C94080883
:100900000C94902C0C94C52C0C94CE2C0C94DD2CB7
:100910000C94E02C0C94F32C0C94522D0C94602D20
:100920000C947D2D0C94732D0C94AC2E0C94C52E30
:100930000C9408080C9408080C94902D0C949A2D93
:100940000C94A42D0C94CA2D0C94062E0C942C2ED1
:100950000C944D2E0C94642E0C948A2E0C94E22D43
:100960000C9408080C9408080C940B080C940B08C1
:100970000C9408080C9408080C9408080C940808B7
:100980000C94695F0C94A25F0C94A85F0C94D65FE2
:100990000C94B75F0C94F05F0C9435600C94EE608F
:1009A0000C9408080C94A8600C94CC600C944C60D7
:1009B0000C941B600C9495600C9408080C94080827
:1009C0000C94C9630C94FA630C9400640C94006555
:1009D0000C9448650C947C650C948A650C94A36512
:1009E0000C94E8650C94E2670C9420660C94A36662
:1009F0000C947D670C9431670C94E9660C946566E1
:100A00000C94DD650C943D650C94CB650C948D6560
:100A10000C94EF670C94C0650C94B1650C94E96775
:100A20000C941A660C9450650C94FC670C9408089E
:100A30000C9408080C9408080C9408080C940808F6
:100A40000C945A260C94E3250C94E5260C94080883
:100A50000C9408080C9408080C940F540C943D5402
:100A60000C94EE530C94F8530C94FC530C942354B4
:100A70000C9458540C946A540C9408080C9408086C
:100A80000C940B080C940B080C940B080C940B089A
:100A90000C940B080C9408080C9408080C940B0890
:100AA0000C9408080C9408080C9408080C94080886
:100AB0000C94952B0C94F42B0C94652B0C94080837
:100AC0000C940B080C940B080C9408080C94080860
:100AD0000C9408080C9408080C9408080C94080856
:100AE0000C9450400C9433410C9468400C94CC40CE
:100AF0000C94F2400C9408080C9408080C94080814
:100B00000C9487680C94EA680C943A690C949E697A
:100B10000C94036A0C94CE690C943F6A0C94B169EE
:100B20000C94F4690C9408080C9408080C940808B8
:100B30000C9408080C9408080C9408080C940808F5
:100B40000C9446500C94A6500C9421510C94E450F3
:100B50000C946E510C9408080C9408080C94080826
:100B60000C9408080C9408080C9408080C940808C5
:100B70000C9408080C9408080C9408080C940808B5
:100B80000C9448080C9456080C944B080C94590883
:100B90000C9450080C945E080C9408080C940808F7
:100BA0000C9408080C9408080C9408080C94080885
:100BB0000C9408080C9408080C9408080C94080875
:100BC0000000000000000000000000000000000025
:100BD0000000000000000000000000000000000015
:100BE0000000000000000000000000000000000005
:100BF00000000000000000000000000000000000F5
:100C00000C94F4280C9496280C9439290C9473288D
:100C10000C9406290C94FD280C9408080C940808E0
:100C20000C9408080C9408080C9408080C94080804
:100C30000C9408080C9408080C9408080C940808F4
:100C40000C9408080C9408080C9408080C940808E4
:100C50000C9408080C9408080C9408080C940808D4
:100FB0000C9408080C9408080C94E8070C94F907A2
:100FC0004098389A0C94437C409A38980C94437C0F
:100FD00006E9009384100E940C7CE2E3F0E00E949A
:100FE000017C0E940E7CE8ECF0E00E94017C0C94F5
:100FF000437C0E940F7C0E94117CF5CF03E20A958E
:10100000F1F711970000D1F7089500270C94447C64
:1010100001E00C94447C02E00C94447CA7B1A07CD9
:10102000A02BA7B9A8B1A07CA12BA8B90E94027CD3
:101030000C94437C0E94037CA7B1A07CA7B9A8B103
:10104000A07CA8B90C94437CE0E0F8ECAF93BF938C
:101050000E94AE7EBF91AF91E53040F4AAE0B0E0CF
:10106000CDDF119799F70EE70C94447C0C94437CE8
:101070000E940C7EC0E0D8ECE8940E94AE7EE53081
:1010800030F4AAE0B0E0BADF2197B9F76894089588
:1010900038B90C94437CA8B1A32BA8B90C94437C19
:1010A000A8B13095A323A8B90C94437C37B90C940C
:1010B000437CA7B1A32BA7B90C94437CA7B130956F
:1010C000A323A7B90C94437C28B827B80E94027CBC
:1010D000ADE3A8B9A7E3A7B9089528B827B80E9437
:1010E000027CA7E3A8B9A7B9089528B827B80E9439
:1010F000037C089540980895409A0895AA2762E0D5
:1011000058E0A7FD429AA7FF429866B9AA0F339903
:10111000A39566B95A95A9F70895AA2762E058E001
:1011200066B9A7FD429AA7FF429866B9AA0F3399FC
:10113000A3955A95A9F7089558B15D7F052E526081
:10114000152E08954427319B1DC0000000000000AB
:101150000000000000000000000000000000319BC3
:1011600011C00000000000000000000000000000AE
:101170000000000000004A9531F703E34F914F91C2
:101180000C94447C4427319907C04A95E1F704E365
:101190004F914F910C94447C0C94BE09442739988C
:1011A000319B0DC000000000000000004A95C1F70F
:1011B00003E34F914F914F914F910C94447C4427FE
:1011C000319909C04A95E1F704E34F914F914F914E
:1011D0004F910C94447C0C94C1092AE0020F01BD8C
:1011E0001FD00C94447C41984098399A389AE2E395
:1011F000FF270E94197E409A3898F0E0E0E030998D
:1012000006C03197E1F700E3089506E3089548EC3E
:10121000309BFBCFE1E0F0E00E94197E4A95C1F7D8
:10122000419A399AE3E0FF270E94197E4198F0E441
:10123000E3E1EA95F1F7FA95D9F7419ABB27AA2796
:101240003998319B06C0B395E1F701E308953199D0
:1012500004C0A395E1F702E308950E94057C0E9473
:101260000B7C399A0027089541984098399A389A0A
:101270000E94037CE2E3FF270E94197E0E94027C09
:10128000E8ECFF270E94197E409A37FF3898F0E07B
:10129000E0E0309908C03197E1F700E30C94447C1A
:1012A00006E30C94447C48EC309BFACFE1E0F0E09C
:1012B0000E94197E4A95C1F7419A399AE3E0FF27C7
:1012C0000E94197E4198F0E4E3E1EA95F1F7FA957E
:1012D000D9F7419ABB27AA273998319B07C0B39504
:1012E000E1F701E30C94447C319905C0A395E1F743
:1012F00002E30C94447C0E94057C0E940B7C399A8A
:101300000C94437CEAE0FF270E94197E399A389AB0
:1013100041984098E4E1FF270E94017C0E94047CF0
:10132000399838980C94437CE0E6F1B50994E0E8EC
:10133000F1B50994E0E7F1B50994E0E9F1B5099454
:10134000E0EAF1B50994E0EBF1B50994E0ECF1B510
:101350000994E0EEF1B50994E0EDF1B50994E8EEF9
:10136000F1B50994E0E0F1B50994E8E0F1B509942C
:10137000E8E2F1B50994E0E3F1B50994E0E5F1B5EF
:101380000994E6E5F1B50994E3EFF1B50994E8EFC6
:04139000F1B5099416
:0614000048E0BA2F06C00F
:1014100040E1399A08B85AE15A95F1F7B7FD18B882
:101420005BE35A95F1F70000000018B8399858E1CD
:101430005A95F1F70000AA0FBB1F4A9551F708957E
:0414500048E007C0A9
:1014600040E1399A08B85AE15A95F1F700003998E5
:1014700018B856E25A95F1F70000AA0FBB1F319930
:10148000A3955DE25A95F1F7000000004A9549F7EF
:021490000895BD
:0A14A0005EE65A95F1F7000008958A
:1014AC0048E05CE85A95F1F700004A95D1F70895A9
:1014C000A0EE9EDFDC01A4DF0E94CE08E9DFC0DFD2
:0814D0000E94097C01960895B9
:1014E000A0EC8EDFDC0194DF0E94067C89DF0E9485
:0814F000CE08D6DF0196089535
:10150000A0EE7EDFDB0184DF0E94CE08C9DFA0CF22
:10152000AF93A0EC6DDFDB0173DFAF9169DF0E9449
:04153000CE08B6CF5C
:10154000A0EE5EDFDB0164DFB1DF8ADF60FFAB2F7F
:021550000895FC
:10156000AF93A0EC4DDFDB0153DFAF91BA2F50DF1B
:041570009DDF08955E
:10158000A8EE3EDFDC0144DF91DF6ADF0E940A7CC7
:041590000296089522
:1015A000A8EC2EDFDC0134DF0E94077C31DF7EDF18
:0415B0000296089502
:0E15C000A8EE1EDFDB0124DF71DF4ADF089595
:1015D0009D01A8EC15DFDB011BDFD90119DF66CF08
:0815E600A4EE61E07FEFAACF43
:0A15F000AF93A4EC61E07FEFB5CFEC
:0616000048E0BA2F06C00D
:1016100040E1399A08B85CE05A95F1F70000000003
:10162000B7FD18B85DE15A95F1F70000000018B851
:1016300039985BE05A95F1F7AA0FBB1F4A9549F715
:0216400008950B
:0416500048E007C0A7
:1016600040E1399A08B85DE05A95F1F7399818B811
:1016700052E15A95F1F70000AA0FBB1F3199A395CB
:0E16800056E15A95F1F700004A9559F7089582
:1016A00055E35A95F1F700000000089548E055E42D
:0C16B0005A95F1F700004A95D1F7089513
:1016C000A0EE9EDFDC01A4DF0E94CE08E9DFC0DFD0
:0816D0000E94097C01960895B7
:1016E000A0EC8EDFDC0194DF0E94067C89DF0E9483
:0816F000CE08D6DF0196089533
:10170000A0EE7EDFDB0184DF0E94CE08C9DFA0CF20
:10172000AF93A0EC6DDFDB0173DFAF9169DF0E9447
:04173000CE08B6CF5A
:10174000A0EE5EDFDB0164DFB1DF8ADF60FFAB2F7D
:021750000895FA
:10176000AF93A0EC4DDFDB0153DFAF91BA2F50DF19
:041770009DDF08955C
:10178000A8EE3EDFDC0144DF91DF6ADF0E940A7CC5
:041790000296089520
:1017A000A8EC2EDFDC0134DF0E94077C31DF7EDF16
:0417B0000296089500
:0E17C000A8EE1EDFDB0124DF71DF4ADF089593
:1017D0009D01A8EC15DFDB011BDFD90119DF66CF06
:0817E600A4EE61E07FEFAACF41
:0A17F000AF93A4EC61E07FEFB5CFEA
:0618000048E0BA2F06C00B
:1018100040E1399A08B858E05A95F1F70000B7FD51
:1018200018B853E15A95F1F70000000018B839983C
:1018300056E05A95F1F700000000AA0FBB1F4A9529
:0418400041F70895CF
:0418500048E007C0A5
:1018600040E1399A08B858E05A95F1F700000000B5
:10187000399818B85BE05A95F1F700000000AA0FFC
:10188000BB1F3199A3955EE05A95F1F70000000067
:061890004A9539F70895A6
:1018A00052E25A95F1F700000000089548E05EE228
:0A18B0005A95F1F74A95D9F708950B
:1018C000A0EE9EDFDC01A4DF0E94CE08E9DFC0DFCE
:0818D0000E94097C01960895B5
:1018E000A0EC8EDFDC0194DF0E94067C89DF0E9481
:0818F000CE08D6DF0196089531
:10190000A0EE7EDFDB0184DF0E94CE08C9DFA0CF1E
:10192000AF93A0EC6DDFDB0173DFAF9169DF0E9445
:04193000CE08B6CF58
:10194000A0EE5EDFDB0164DFB1DF8ADF60FFAB2F7B
:021950000895F8
:10196000AF93A0EC4DDFDB0153DFAF91BA2F50DF17
:041970009DDF08955A
:10198000A8EE3EDFDC0144DF91DF6ADF0E940A7CC3
:04199000029608951E
:1019A000A8EC2EDFDC0134DF0E94077C31DF7EDF14
:0419B00002960895FE
:0E19C000A8EE1EDFDB0124DF71DF4ADF089591
:1019D0009D01A8EC15DFDB011BDFD90119DF66CF04
:0819E600A4EE61E07FEFAACF3F
:0A19F000AF93A4EC61E07FEFB5CFE8
:061A000048E0BA2F06C009
:101A100040E1399A08B856E05A95F1F7B7FD18B881
:101A20005EE05A95F1F70000000018B8399854E0CC
:101A30005A95F1F70000AA0FBB1F4A9551F7089578
:041A500048E007C0A3
:101A600040E1399A08B856E05A95F1F700003998E4
:101A700018B858E05A95F1F70000AA0FBB1F31992A
:101A8000A3955AE05A95F1F7000000004A9549F7EE
:021A90000895B7
:0A1AA00059E15A95F1F7000008958E
:0E1AAC0048E052E25A95F1F74A95D9F70895AD
:101AC000A0EE9EDFDC01A4DF0E94CE08E9DFC0DFCC
:081AD0000E94097C01960895B3
:101AE000A0EC8EDFDC0194DF0E94067C89DF0E947F
:081AF000CE08D6DF019608952F
:101B0000A0EE7EDFDB0184DF0E94CE08C9DFA0CF1C
:101B2000AF93A0EC6DDFDB0173DFAF9169DF0E9443
:041B3000CE08B6CF56
:101B4000A0EE5EDFDB0164DFB1DF8ADF60FFAB2F79
:021B50000895F6
:101B6000AF93A0EC4DDFDB0153DFAF91BA2F50DF15
:041B70009DDF089558
:101B8000A8EE3EDFDC0144DF91DF6ADF0E940A7CC1
:041B9000029608951C
:101BA000A8EC2EDFDC0134DF0E94077C31DF7EDF12
:041BB00002960895FC
:0E1BC000A8EE1EDFDB0124DF71DF4ADF08958F
:101BD0009D01A8EC15DFDB011BDFD90119DF66CF02
:081BE600A4EE61E07FEFAACF3D
:0A1BF000AF93A4EC61E07FEFB5CFE6
:061C000048E0BA2F06C007
:101C100040E1399A08B854E05A95F1F70000000005
:101C2000B7FD18B85BE05A95F1F70000000018B84E
:101C3000399853E05A95F1F7AA0FBB1F4A9549F717
:021C4000089505
:041C500048E007C0A1
:101C600040E1399A08B855E05A95F1F7399818B813
:101C700056E05A95F1F70000AA0FBB1F3199A395C2
:0E1C800058E05A95F1F700004A9559F708957B
:101CA00053E15A95F1F70000000008955FED5A9551
:081CB000F1F7000000000895A7
:101CC000A0EE9EDFDC01A4DF0E94CE08E9DFC0DFCA
:081CD0000E94097C01960895B1
:101CE000A0EC8EDFDC0194DF0E94067C89DF0E947D
:081CF000CE08D6DF019608952D
:101D0000A0EE7EDFDB0184DF0E94CE08C9DFA0CF1A
:101D2000AF93A0EC6DDFDB0173DFAF9169DF0E9441
:041D3000CE08B6CF54
:101D4000A0EE5EDFDB0164DFB1DF8ADF60FFAB2F77
:021D50000895F4
:101D6000AF93A0EC4DDFDB0153DFAF91BA2F50DF13
:041D70009DDF089556
:101D8000A8EE3EDFDC0144DF91DF6ADF0E940A7CBF
:041D9000029608951A
:101DA000A8EC2EDFDC0134DF0E94077C31DF7EDF10
:041DB00002960895FA
:0E1DC000A8EE1EDFDB0124DF71DF4ADF08958D
:101DD0009D01A8EC15DFDB011BDFD90119DF66CF00
:081DE600A4EE61E07FEFAACF3B
:0A1DF000AF93A4EC61E07FEFB5CFE4
:061E000048E0BA2F06C005
:101E100040E1399A08B853E05A95F1F70000000004
:101E2000B7FD18B859E05A95F1F70000000018B84E
:101E3000399852E05A95F1F70000AA0FBB1F4A9556
:041E400041F70895C9
:041E500048E007C09F
:101E600040E1399A08B854E05A95F1F7399818B812
:101E700055E05A95F1F7AA0FBB1F3199A39557E08A
:0A1E80005A95F1F74A9569F70895A5
:081EA00050E15A95F1F7089595
:081EAC005AEB5A95F1F7089575
:101EC000A0EE9EDFDC01A4DF0E94CE08E9DFC0DFC8
:081ED0000E94097C01960895AF
:101EE000A0EC8EDFDC0194DF0E94067C89DF0E947B
:081EF000CE08D6DF019608952B
:101F0000A0EE7EDFDB0184DF0E94CE08C9DFA0CF18
:101F2000AF93A0EC6DDFDB0173DFAF9169DF0E943F
:041F3000CE08B6CF52
:101F4000A0EE5EDFDB0164DFB1DF8ADF60FFAB2F75
:021F50000895F2
:101F6000AF93A0EC4DDFDB0153DFAF91BA2F50DF11
:041F70009DDF089554
:101F8000A8EE3EDFDC0144DF91DF6ADF0E940A7CBD
:041F90000296089518
:101FA000A8EC2EDFDC0134DF0E94077C31DF7EDF0E
:041FB00002960895F8
:0E1FC000A8EE1EDFDB0124DF71DF4ADF08958B
:101FD0009D01A8EC15DFDB011BDFD90119DF66CFFE
:081FE600A4EE61E07FEFAACF39
:0A1FF000AF93A4EC61E07FEFB5CFE2
:0620000048E0BA2F06C003
:1020100040E1399A08B853E05A95F1F7B7FD18B87E
:1020200058E05A95F1F7000018B8399851E05A95E0
:10203000F1F700000000AA0FBB1F4A9551F7089561
:0420500048E007C09D
:1020600040E1399A08B853E05A95F1F700003998E1
:1020700018B854E05A95F1F7AA0FBB1F3199A395F0
:1020800055E05A95F1F7000000004A9551F7089580
:0A20A0005DE05A95F1F70000089585
:0820AC005FE95A95F1F7089570
:1020C000A0EE9EDFDC01A4DF0E94CE08E9DFC0DFC6
:0820D0000E94097C01960895AD
:1020E000A0EC8EDFDC0194DF0E94067C89DF0E9479
:0820F000CE08D6DF0196089529
:10210000A0EE7EDFDB0184DF0E94CE08C9DFA0CF16
:10212000AF93A0EC6DDFDB0173DFAF9169DF0E943D
:04213000CE08B6CF50
:10214000A0EE5EDFDB0164DFB1DF8ADF60FFAB2F73
:022150000895F0
:10216000AF93A0EC4DDFDB0153DFAF91BA2F50DF0F
:042170009DDF089552
:10218000A8EE3EDFDC0144DF91DF6ADF0E940A7CBB
:042190000296089516
:1021A000A8EC2EDFDC0134DF0E94077C31DF7EDF0C
:0421B00002960895F6
:0E21C000A8EE1EDFDB0124DF71DF4ADF089589
:1021D0009D01A8EC15DFDB011BDFD90119DF66CFFC
:0821E600A4EE61E07FEFAACF37
:0A21F000AF93A4EC61E07FEFB5CFE0
:0622000048E0BA2F06C001
:1022100040E1399A08B852E05A95F1F70000000001
:10222000B7FD18B857E05A95F1F7000018B839987B
:1022300051E05A95F1F7AA0FBB1F4A9551F708953F
:0422500048E007C09B
:1022600040E1399A08B853E05A95F1F7399818B80F
:1022700053E05A95F1F70000AA0FBB1F3199A395BF
:0C22800055E05A95F1F74A9561F7089572
:0A22A0005BE05A95F1F70000089585
:0C22AC005AE85A95F1F700000000089570
:1022C000A0EE9EDFDC01A4DF0E94CE08E9DFC0DFC4
:0822D0000E94097C01960895AB
:1022E000A0EC8EDFDC0194DF0E94067C89DF0E9477
:0822F000CE08D6DF0196089527
:10230000A0EE7EDFDB0184DF0E94CE08C9DFA0CF14
:10232000AF93A0EC6DDFDB0173DFAF9169DF0E943B
:04233000CE08B6CF4E
:10234000A0EE5EDFDB0164DFB1DF8ADF60FFAB2F71
:022350000895EE
:10236000AF93A0EC4DDFDB0153DFAF91BA2F50DF0D
:042370009DDF089550
:10238000A8EE3EDFDC0144DF91DF6ADF0E940A7CB9
:042390000296089514
:1023A000A8EC2EDFDC0134DF0E94077C31DF7EDF0A
:0423B00002960895F4
:0E23C000A8EE1EDFDB0124DF71DF4ADF089587
:1023D0009D01A8EC15DFDB011BDFD90119DF66CFFA
:0823E600A4EE61E07FEFAACF35
:0A23F000AF93A4EC61E07FEFB5CFDE
:0624000048E0BA2F06C0FF
:1024100040E1399A08B852E05A95F1F70000B7FD4B
:1024200018B856E05A95F1F7000018B8399800002E
:0C2430000000AA0FBB1F4A9561F7089539
:0424500048E007C099
:1024600040E1399A08B852E05A95F1F700000000AF
:10247000399818B852E05A95F1F700000000AA0FF9
:10248000BB1F3199A39554E05A95F1F700004A9586
:0424900041F7089573
:1024A00059E05A95F1F70000000008955BE75A954E
:0424B000F1F70895A3
:1024C000A0EE9EDFDC01A4DF0E94CE08E9DFC0DFC2
:0824D0000E94097C01960895A9
:1024E000A0EC8EDFDC0194DF0E94067C89DF0E9475
:0824F000CE08D6DF0196089525
:10250000A0EE7EDFDB0184DF0E94CE08C9DFA0CF12
:10252000AF93A0EC6DDFDB0173DFAF9169DF0E9439
:04253000CE08B6CF4C
:10254000A0EE5EDFDB0164DFB1DF8ADF60FFAB2F6F
:022550000895EC
:10256000AF93A0EC4DDFDB0153DFAF91BA2F50DF0B
:042570009DDF08954E
:10258000A8EE3EDFDC0144DF91DF6ADF0E940A7CB7
:042590000296089512
:1025A000A8EC2EDFDC0134DF0E94077C31DF7EDF08
:0425B00002960895F2
:0E25C000A8EE1EDFDB0124DF71DF4ADF089585
:1025D0009D01A8EC15DFDB011BDFD90119DF66CFF8
:0825E600A4EE61E07FEFAACF33
:0A25F000AF93A4EC61E07FEFB5CFDC
:0626000048E0BA2F06C0FD
:1026100040E1399A08B852E05A95F1F7B7FD18B879
:1026200055E05A95F1F70000000018B839980000FD
:0A263000AA0FBB1F4A9569F7089531
:0426500048E007C097
:1026600040E1399A08B852E05A95F1F700003998DC
:1026700018B852E05A95F1F70000AA0FBB1F319924
:10268000A39553E05A95F1F7000000004A9549F7E9
:022690000895AB
:0A26A00058E05A95F1F70000089584
:0A26AC005EE65A95F1F7000008956C
:1026C000A0EE9EDFDC01A4DF0E94CE08E9DFC0DFC0
:0826D0000E94097C01960895A7
:1026E000A0EC8EDFDC0194DF0E94067C89DF0E9473
:0826F000CE08D6DF0196089523
:10270000A0EE7EDFDB0184DF0E94CE08C9DFA0CF10
:10272000AF93A0EC6DDFDB0173DFAF9169DF0E9437
:04273000CE08B6CF4A
:10274000A0EE5EDFDB0164DFB1DF8ADF60FFAB2F6D
:022750000895EA
:10276000AF93A0EC4DDFDB0153DFAF91BA2F50DF09
:042770009DDF08954C
:10278000A8EE3EDFDC0144DF91DF6ADF0E940A7CB5
:042790000296089510
:1027A000A8EC2EDFDC0134DF0E94077C31DF7EDF06
:0427B00002960895F0
:0E27C000A8EE1EDFDB0124DF71DF4ADF089583
:1027D0009D01A8EC15DFDB011BDFD90119DF66CFF6
:0827E600A4EE61E07FEFAACF31
:0A27F000AF93A4EC61E07FEFB5CFDA
:0628000048E0BA2F06C0FB
:1028100040E1399A08B851E05A95F1F700000000FC
:10282000B7FD18B855E05A95F1F718B83998000077
:0A283000AA0FBB1F4A9569F708952F
:0428500048E007C095
:1028600040E1399A08B852E05A95F1F7399818B80A
:1028700052E05A95F1F7AA0FBB1F3199A39553E087
:0C2880005A95F1F700004A9561F70895A1
:0A28A00057E05A95F1F70000089583
:0828AC0054E65A95F1F7089576
:1028C000A0EE9EDFDC01A4DF0E94CE08E9DFC0DFBE
:0828D0000E94097C01960895A5
:1028E000A0EC8EDFDC0194DF0E94067C89DF0E9471
:0828F000CE08D6DF0196089521
:10290000A0EE7EDFDB0184DF0E94CE08C9DFA0CF0E
:10292000AF93A0EC6DDFDB0173DFAF9169DF0E9435
:04293000CE08B6CF48
:10294000A0EE5EDFDB0164DFB1DF8ADF60FFAB2F6B
:022950000895E8
:10296000AF93A0EC4DDFDB0153DFAF91BA2F50DF07
:042970009DDF08954A
:10298000A8EE3EDFDC0144DF91DF6ADF0E940A7CB3
:04299000029608950E
:1029A000A8EC2EDFDC0134DF0E94077C31DF7EDF04
:0429B00002960895EE
:0E29C000A8EE1EDFDB0124DF71DF4ADF089581
:1029D0009D01A8EC15DFDB011BDFD90119DF66CFF4
:0829E600A4EE61E07FEFAACF2F
:0A29F000AF93A4EC61E07FEFB5CFD8
:062A000048E0BA2F06C0F9
:102A100040E1399A08B851E05A95F1F700000000FA
:102A2000B7FD18B854E05A95F1F70000000018B847
:0C2A30003998AA0FBB1F4A9561F7089562
:042A500048E007C093
:102A600040E1399A08B852E05A95F1F7399818B808
:102A700051E05A95F1F700000000AA0FBB1F3199F1
:0E2A8000A39553E05A95F1F74A9559F708953A
:0A2AA00056E05A95F1F70000089582
:0A2AAC005BE55A95F1F7000008956C
:102AC000A0EE9EDFDC01A4DF0E94CE08E9DFC0DFBC
:082AD0000E94097C01960895A3
:102AE000A0EC8EDFDC0194DF0E94067C89DF0E946F
:082AF000CE08D6DF019608951F
:102B0000A0EE7EDFDB0184DF0E94CE08C9DFA0CF0C
:102B2000AF93A0EC6DDFDB0173DFAF9169DF0E9433
:042B3000CE08B6CF46
:102B4000A0EE5EDFDB0164DFB1DF8ADF60FFAB2F69
:022B50000895E6
:102B6000AF93A0EC4DDFDB0153DFAF91BA2F50DF05
:042B70009DDF089548
:102B8000A8EE3EDFDC0144DF91DF6ADF0E940A7CB1
:042B9000029608950C
:102BA000A8EC2EDFDC0134DF0E94077C31DF7EDF02
:042BB00002960895EC
:0E2BC000A8EE1EDFDB0124DF71DF4ADF08957F
:102BD0009D01A8EC15DFDB011BDFD90119DF66CFF2
:082BE600A4EE61E07FEFAACF2D
:0A2BF000AF93A4EC61E07FEFB5CFD6
:062C000048E0BA2F06C0F7
:102C100040E1399A08B851E05A95F1F70000B7FD44
:102C200018B854E05A95F1F7000018B83998AA0F6F
:082C3000BB1F4A9571F70895DE
:042C500048E007C091
:102C600040E1399A08B851E05A95F1F700000000A8
:102C7000399818B851E05A95F1F70000AA0FBB1F18
:102C80003199A39552E05A95F1F7000000004A955A
:042C900041F708956B
:102CA00055E05A95F1F700000000089554E55A9553
:062CB000F1F70000089599
:102CC000A0EE9EDFDC01A4DF0E94CE08E9DFC0DFBA
:082CD0000E94097C01960895A1
:102CE000A0EC8EDFDC0194DF0E94067C89DF0E946D
:082CF000CE08D6DF019608951D
:102D0000A0EE7EDFDB0184DF0E94CE08C9DFA0CF0A
:102D2000AF93A0EC6DDFDB0173DFAF9169DF0E9431
:042D3000CE08B6CF44
:102D4000A0EE5EDFDB0164DFB1DF8ADF60FFAB2F67
:022D50000895E4
:102D6000AF93A0EC4DDFDB0153DFAF91BA2F50DF03
:042D70009DDF089546
:102D8000A8EE3EDFDC0144DF91DF6ADF0E940A7CAF
:042D9000029608950A
:102DA000A8EC2EDFDC0134DF0E94077C31DF7EDF00
:042DB00002960895EA
:0E2DC000A8EE1EDFDB0124DF71DF4ADF08957D
:102DD0009D01A8EC15DFDB011BDFD90119DF66CFF0
:082DE600A4EE61E07FEFAACF2B
:0A2DF000AF93A4EC61E07FEFB5CFD4
:062E000048E0BA2F06C0F5
:102E100040E1399A08B851E05A95F1F70000B7FD42
:102E200018B854E05A95F1F718B839980000000026
:0A2E3000AA0FBB1F4A9569F7089529
:042E500048E007C08F
:102E600040E1399A08B851E05A95F1F700000000A6
:102E7000399818B851E05A95F1F70000AA0FBB1F16
:102E80003199A39552E05A95F1F700004A9549F718
:022E90000895A3
:082EA00055E05A95F1F7089581
:082EAC005EE45A95F1F7089568
:102EC000A0EE9EDFDC01A4DF0E94CE08E9DFC0DFB8
:082ED0000E94097C019608959F
:102EE000A0EC8EDFDC0194DF0E94067C89DF0E946B
:082EF000CE08D6DF019608951B
:102F0000A0EE7EDFDB0184DF0E94CE08C9DFA0CF08
:102F2000AF93A0EC6DDFDB0173DFAF9169DF0E942F
:042F3000CE08B6CF42
:102F4000A0EE5EDFDB0164DFB1DF8ADF60FFAB2F65
:022F50000895E2
:102F6000AF93A0EC4DDFDB0153DFAF91BA2F50DF01
:042F70009DDF089544
:102F8000A8EE3EDFDC0144DF91DF6ADF0E940A7CAD
:042F90000296089508
:102FA000A8EC2EDFDC0134DF0E94077C31DF7EDFFE
:042FB00002960895E8
:0E2FC000A8EE1EDFDB0124DF71DF4ADF08957B
:102FD0009D01A8EC15DFDB011BDFD90119DF66CFEE
:082FE600A4EE61E07FEFAACF29
:0A2FF000AF93A4EC61E07FEFB5CFD2
:0630000048E0BA2F06C0F3
:1030100040E1399A08B851E05A95F1F7B7FD18B870
:1030200053E05A95F1F70000000018B839980000F5
:0C3030000000AA0FBB1F4A9561F708952D
:0430500048E007C08D
:1030600040E1399A08B851E05A95F1F700003998D3
:1030700018B851E05A95F1F7AA0FBB1F3199A395E3
:0E30800052E05A95F1F700004A9559F708956D
:1030A00054E05A95F1F700000000089558E45A954D
:0830B000F1F700000000089593
:1030C000A0EE9EDFDC01A4DF0E94CE08E9DFC0DFB6
:0830D0000E94097C019608959D
:1030E000A0EC8EDFDC0194DF0E94067C89DF0E9469
:0830F000CE08D6DF0196089519
:10310000A0EE7EDFDB0184DF0E94CE08C9DFA0CF06
:10312000AF93A0EC6DDFDB0173DFAF9169DF0E942D
:04313000CE08B6CF40
:10314000A0EE5EDFDB0164DFB1DF8ADF60FFAB2F63
:023150000895E0
:10316000AF93A0EC4DDFDB0153DFAF91BA2F50DFFF
:043170009DDF089542
:10318000A8EE3EDFDC0144DF91DF6ADF0E940A7CAB
:043190000296089506
:1031A000A8EC2EDFDC0134DF0E94077C31DF7EDFFC
:0431B00002960895E6
:0E31C000A8EE1EDFDB0124DF71DF4ADF089579
:1031D0009D01A8EC15DFDB011BDFD90119DF66CFEC
:0831E600A4EE61E07FEFAACF27
:0A31F000AF93A4EC61E07FEFB5CFD0
:0632000048E0BA2F06C0F1
:1032100040E1399A08B851E05A95F1F7B7FD18B86E
:1032200053E05A95F1F7000018B839980000AA0F3A
:08323000BB1F4A9571F70895D8
:0432500048E007C08B
:1032600040E1399A08B851E05A95F1F700003998D1
:1032700018B851E05A95F1F7AA0FBB1F3199A395E1
:0C32800052E05A95F1F74A9561F7089565
:0832A00054E05A95F1F708957E
:0832AC0054E45A95F1F708956E
:1032C000A0EE9EDFDC01A4DF0E94CE08E9DFC0DFB4
:0832D0000E94097C019608959B
:1032E000A0EC8EDFDC0194DF0E94067C89DF0E9467
:0832F000CE08D6DF0196089517
:10330000A0EE7EDFDB0184DF0E94CE08C9DFA0CF04
:10332000AF93A0EC6DDFDB0173DFAF9169DF0E942B
:04333000CE08B6CF3E
:10334000A0EE5EDFDB0164DFB1DF8ADF60FFAB2F61
:023350000895DE
:10336000AF93A0EC4DDFDB0153DFAF91BA2F50DFFD
:043370009DDF089540
:10338000A8EE3EDFDC0144DF91DF6ADF0E940A7CA9
:043390000296089504
:1033A000A8EC2EDFDC0134DF0E94077C31DF7EDFFA
:0433B00002960895E4
:0E33C000A8EE1EDFDB0124DF71DF4ADF089577
:1033D0009D01A8EC15DFDB011BDFD90119DF66CFEA
:0833E600A4EE61E07FEFAACF25
:1033F000AF93A4EC61E07FEFB5CF409A389AB8B1B3
:10340000BE7FB8B9F9E000000000E3E0EA95F1F70B
:1034100000000000BE7F0894A79508F4B160B8B919
:10342000FA9599F7E4E0EA95F1F70895EE27FF277A
:103430006894309B04C03197E1F7E8940895E7E081
:10344000EA95F1F7F8E0A6953099A068E3E0EA95EF
:10345000F1F700000000FA95B1F7309BFECF089518
:10346000409A389AB8B1BE7FB8B9F9E000000000C0
:103470000000EAE0EA95F1F7B8B1BE7F0894A7959D
:1034800008F4B160B8B9FA95A1F7EEE0EA95F1F762
:1034900038980895EE27FF276894309B04C0319731
:1034A000E1F7E8940895EFE0EA95F1F7F8E0A695E2
:1034B0003099A068EBE0EA95F1F70000FA95B9F7CA
:1034C000309BFECF0895409A389AB8B1BE7FB8B904
:1034D000F9E0000000000000E7E1EA95F1F70000E4
:1034E000B8B1BE7F0894A79508F4B160B8B9FA9551
:1034F00099F7EAE5EA95F1F70895409A389AB8B154
:10350000BE7FB8B9F9E0000000000000E7E1EA95ED
:10351000F1F70000B8B1BE7F0894A79508F4B16038
:10352000B8B9FA9599F7E0E1EA95F1F73898089576
:10353000EE27FF276894309B04C03197E1F7E894A9
:103540000895E3E2EA95F1F7F8E0A6953099A068CE
:10355000E8E1EA95F1F700000000FA95B1F7309B39
:10356000FECF0895409A389AB8B1BE7FB8B9F9E055
:10357000000000000000E0EDEA95000000000000FF
:103580000000000000000000B9F7B8B1BE7F089449
:10359000A79508F4B160B8B9FA9569F7E1EDEA9535
:1035A0000000000000000000000000000000B9F76B
:1035B00038980895EE27FF276894309B0EC00000CE
:1035C00000000000000000000000000000000000FB
:1035D000319799F7E8940895E0EEEA95000000002D
:1035E00000000000000000000000000000000000DB
:1035F000000099F7F8E0A6953099A068E0EDEA950B
:103600000000000000000000000000000000B9F70A
:103610000000FA9581F7E4E8EA9500000000000058
:1036200000000000C9F70895EF93FF93AF93409A0D
:10363000389AB8B1BE7FB8B9F9E0000000000000C8
:10364000ECEAEA95F1F7B8B1BE7F0894A79508F4C3
:10365000B160B8B9FA95A1F7ECEAEA95F1F7AF9144
:10366000FF91EF910895EF93FF93EE27FF2738988E
:103670006894AA27309B08C0AA95E1F73197C9F74B
:10368000E894FF91EF910895E4ECEA950000E9F7E2
:10369000F8E0A6953099A068ECEAEA95F1F7FA957A
:1036A000C1F7E7E5EA95F1F7FF91EF910895EF9300
:1036B000FF93AF93409A389AB8B1BE7FB8B9F9E09A
:1036C000000000000000E7E3EA95F1F7B8B1BE7F23
:1036D0000894A79508F4B160B8B9FA95A1F7E7E3A3
:1036E000EA95F1F7AF91FF91EF9108953898EF9334
:1036F000FF93EE27FF276894AA27309B08C0AA955E
:10370000E1F73197C9F7E894FF91EF910895E6E466
:10371000EA95F1F7F8E0A6953099A068E8E3EA9514
:10372000F1F7FA95C1F7ECE1EA95F1F7FF91EF9126
:103730000895409A389AB8B1BE7FB8B9F9E0000050
:1037400000000000E8E6EA9500000000000000002C
:10375000000000000000B9F7B8B1BE7F0894A7953B
:1037600008F4B160B8B9FA9569F7E2E4EA950000A7
:10377000000000000000000000000000B9F70895FC
:10378000EE27FF276894309B0DC00000000000006A
:10379000000000000000000000000000319799F7D1
:1037A000E8940895E8E7EA950000000000000000B2
:1037B000000000000000000000000000000099F779
:1037C000F8E0A6953099A068E7E6EA9500000000C9
:1037D00000000000000000000000B9F70000FA95AA
:1037E00081F7E2E4EA95000000000000000000001C
:1037F000C9F70895EE27F0E06894AA27309B53CECE
:10380000309B51CE309B4FCE309B4DCEAA95B1F719
:10381000319799F7E8940895419A399AB8B1BD7FE4
:10382000B8B9F9E000000000E3E0EA95F1F7000024
:103830000000BD7F0894A79508F4B260B8B9FA9566
:1038400099F7E4E0EA95F1F70895EE27FF276894E9
:10385000319B04C03197E1F7E8940895E7E0EA95D9
:10386000F1F7F8E0A6953199A068E3E0EA95F1F761
:1038700000000000FA95B1F7319BFECF0895419A00
:10388000399AB8B1BD7FB8B9F9E000000000000076
:10389000EAE0EA95F1F7B8B1BD7F0894A79508F47E
:1038A000B260B8B9FA95A1F7EDE2EA95F1F7399867
:1038B0000895419A399AB8B1BD7FB8B9F9E00000CE
:1038C00000000000EAE0EA95F1F7B8B1BD7F089486
:1038D000A79508F4B260B8B9FA95A1F7E6E0EA95C1
:1038E000F1F739980895EE27FF276894AA27319BAE
:1038F00006C0AA95E1F73197C9F7E8940895EFE07B
:10390000EA95F1F7F8E0A6953199A068EBE0EA9521
:10391000F1F70000FA95B9F7319BFECF0895419A6F
:10392000399AB8B1BD7FB8B9F9E0000000000000D5
:10393000E7E1EA95F1F70000B8B1BD7F0894A795DB
:1039400008F4B260B8B9FA9599F7EAE5EA95F1F7A3
:103950000895419A399AB8B1BD7FB8B9F9E000002D
:1039600000000000E7E1EA95F1F70000B8B1BD7F83
:103970000894A79508F4B260B8B9FA9599F7E0E110
:10398000EA95F1F739980895EE27FF276894319B5F
:1039900004C03197E1F7E8940895E3E2EA95F1F77E
:1039A000F8E0A6953199A068E8E1EA95F1F7000002
:1039B0000000FA95B1F7319BFECF0895419A399AEC
:1039C000B8B1BD7FB8B9F9E0000000000000E0ED3B
:1039D000EA95000000000000000000000000000068
:1039E000B9F7B8B1BD7F0894A79508F4B260B8B92B
:1039F000FA9569F7E1EDEA9500000000000000008B
:103A0000000000000000B9F739980895419A399AEA
:103A1000B8B1BD7FB8B9F9E0000000000000E0EDEA
:103A2000EA95000000000000000000000000000017
:103A3000B9F7B8B1BD7F0894A79508F4B260B8B9DA
:103A4000FA9569F7E4E1EA95000000000000000043
:103A5000000000000000B9F70895EE27FF276894E2
:103A6000319B0EC0000000000000000000000000BC
:103A7000000000000000319799F7E8940895E0EE07
:103A8000EA950000000000000000000000000000B7
:103A9000000000000000000099F7F8E0A6953199B9
:103AA000A068E0EDEA9500000000000000000000C2
:103AB00000000000B9F70000FA9581F7E4E8EA9504
:103AC00000000000000000000000C9F70895EF9317
:103AD000FF93AF93419A399AB8B1BD7FB8B9F9E075
:103AE000000000000000ECEAEA95F1F7B8B1BD7FF4
:103AF0000894A79508F4B260B8B9FA95A1F7ECEA72
:103B0000EA95F1F7AF91FF91EF910895EF93FF934D
:103B1000AF93419A399AB8B1BD7FB8B9F9E00000C6
:103B200000000000ECEAEA95F1F7B8B1BD7F089417
:103B3000A79508F4B260B8B9FA95A1F7EAE0EA955A
:103B4000F1F7AF91FF91EF910895EF93FF93EE2777
:103B5000FF2739986894AA27319B08C0AA95E1F7F6
:103B60003197C9F7E894FF91EF910895E4ECEA9555
:103B70000000E9F7F8E0A6953199A068ECEAEA952B
:103B8000F1F7FA95C1F7E7E5EA95F1F7FF91EF91C3
:103B90000895EF93FF93AF93419A399AB8B1BD7FDF
:103BA000B8B9F9E0000000000000E7E3EA95F1F79A
:103BB000B8B1BD7F0894A79508F4B260B8B9FA957A
:103BC000A1F7E7E3EA95F1F7AF91FF91EF9108953F
:103BD0003998EF93FF93EE27FF276894AA27319B2C
:103BE00008C0AA95E1F73197C9F7E894FF91EF91E2
:103BF0000895E6E4EA95F1F7F8E0A6953199A06812
:103C0000E8E3EA95F1F7FA95C1F7ECE1EA95F1F707
:103C1000FF91EF910895419A399AB8B1BD7FB8B933
:103C2000F9E0000000000000E8E6EA95000000006E
:103C300000000000000000000000B9F7B8B1BD7F2F
:103C40000894A79508F4B260B8B9FA9569F7E2E468
:103C5000EA950000000000000000000000000000E5
:103C6000B9F70895419A399AB8B1BD7FB8B9F9E06A
:103C7000000000000000E8E6EA95000000000000F7
:103C80000000000000000000B9F7B8B1BD7F089443
:103C9000A79508F4B260B8B9FA9569F7EAE0EA9531
:103CA0000000000000000000000000000000B9F764
:103CB0000895EE27FF276894319B0DC000000AD0BD
:103CC00009D008D007D000000000000000003197A4
:103CD00099F7E8940895E8E7EA95000000000000ED
:103CE00000000000000000000000000000000000D4
:103CF00099F7F8E0A6953199A068E7E6EA95000003
:103D0000000000000000000000000000B9F7000003
:103D1000FA9581F7E2E4EA95000000000000000057
:103D20000000C9F70895EE27FF276894319B0DC066
:103D30000000000000000000000000000000000083
:103D40000000319799F7E8940895E0E6EA950000BD
:103D50000000000000000000000000000000000063
:103D60000000000099F7F8E0A6953199A068E3E516
:103D7000EA950000000000000000000000000000C4
:103D8000B9F70000FA9581F7E4E3EA950000000036
:103D9000000000000000C9F70895EE27FF2768948F
:103DA000319B0DC00000000000000000000000007A
:103DB000000000000000319799F7E8940895E0E3CF
:103DC000EA95000000000000000000000000000074
:103DD000000000000000000099F7F8E0A695319976
:103DE000A068EAE2EA950000000000000000000080
:103DF00000000000B9F70000FA9581F7EAE1EA95C2
:103E000000000000000000000000C9F70895EE2740
:103E1000F0E06894AA27319B72CD319B70CD319B25
:103E20006ECD319B6CCDAA95B1F7319799F7E89497
:103E30000895CE0193700E94057C0196019741F090
:103E4000E1E0F0E00E94017C0E94067C2ED1F6CFDA
:103E50000E94057C8AB59BB593700196019729F065
:103E6000A2D32EF40E94097CF9CF0C94437C01E983
:103E70000C94447CCE0193700E94057C01960197BE
:103E800041F0E1E0F0E00E94017C0E94067C68D1F4
:103E9000F6CF0E94057C8AB59BB593700196019779
:103EA00029F0DAD32EF40E94097CF9CF0C94437CDC
:103EB00001E90C94447CCE0197700E94057C019628
:103EC000019741F0E1E0F0E00E94017C0E94067C55
:103ED0008AD1F6CF0E94057C8AB59BB59770019672
:103EE000019729F0FCD32EF40E94097CF9CF0C94A1
:103EF000437C01E90C94447CCE0193700E94057CC4
:103F00000196019741F0E1E0F0E00E94017C0E94FF
:103F1000067C49D0F6CF0E94057C8AB59BB593708C
:103F20000196019741F0AFD2E3E0EA95F1F72EF464
:103F30000E94097CF6CF0C94437C01E90C94447CEC
:103F4000429A3A9AB8B1BB7FB8B9F9E000000000D4
:103F5000E3E0EA95F1F700000000BB7F0894A79525
:103F600008F4B460B8B9FA9599F7E4E0EA95F1F786
:103F70000895EE27FF276894329B04C03197E1F73C
:103F8000E8940895E7E0EA95F1F7F8E0A69532990C
:103F9000A068E3E0EA95F1F700000000FA95B1F7B8
:103FA000329BFECF0895429A3A9AB8B1BB7FB8B916
:103FB000F9E0000000000000EAE0EA95F1F7B8B18E
:103FC000BB7F0894A79508F4B460B8B9FA95A1F737
:103FD000EEE0EA95F1F73A980895EE27FF27689406
:103FE000329B04C03197E1F7E8940895EFE0EA9539
:103FF000F1F7F8E0A6953299A068EBE0EA95F1F7C1
:104000000000FA95B9F7329BFECF0895429A3A9A8A
:10401000B8B1BB7FB8B9F9E0000000000000E7E1EB
:10402000EA95F1F70000B8B1BB7F0894A79508F4B2
:10403000B460B8B9FA9599F7EAE5EA95F1F7089509
:10404000429A3A9AB8B1BB7FB8B9F9E000000000D3
:104050000000E7E1EA95F1F70000B8B1BB7F0894F2
:10406000A79508F4B460B8B9FA9599F7E0E1EA9534
:10407000F1F73A980895EE27FF276894329B04C021
:104080003197E1F7E8940895E3E2EA95F1F7F8E073
:10409000A6953299A068E8E1EA95F1F700000000E2
:1040A000FA95B1F7329BFECF0895429A3A9AB8B189
:1040B000BB7FB8B9F9E0000000000000E0EDEA9530
:1040C0000000000000000000000000000000B9F740
:1040D000B8B1BB7F0894A79508F4B460B8B9FA9555
:1040E00069F7E0E0EA95F1F73A980895EE27FF279F
:1040F0006894329B0EC00000000000000000000029
:104100000000000000000000319799F7E89408953E
:10411000E0EEEA9500000000000000000000000052
:104120000000000000000000000099F7F8E0A695EC
:104130003299A068E0EDEA95000000000000000060
:10414000000000000000B9F70000FA9581F7E4E8EC
:10415000EA9500000000000000000000C9F7089583
:10416000EF93FF93AF93429A3A9AB8B1BB7FB8B935
:10417000F9E0000000000000ECEAEA95F1F7B8B1C0
:10418000BB7F0894A79508F4B460B8B9FA95A1F775
:10419000ECEAEA95F1F7AF91FF91EF910895EF9373
:1041A000FF93EE27FF273A986894AA27329B08C00E
:1041B000AA95E1F73197C9F7E894FF91EF91089537
:1041C000E4ECEA950000E9F7F8E0A6953299A068DA
:1041D000ECEAEA95F1F7FA95C1F7E7E5EA95F1F728
:1041E000FF91EF910895EF93FF93AF93429A3A9A1C
:1041F000B8B1BB7FB8B9F9E0000000000000E7E308
:10420000EA95F1F7B8B1BB7F0894A79508F4B460BC
:10421000B8B9FA95A1F7E7E3EA95F1F7AF91FF9105
:10422000EF9108953A98EF93FF93EE27FF27689454
:10423000AA27329B08C0AA95E1F73197C9F7E894FD
:10424000FF91EF910895E6E4EA95F1F7F8E0A6957D
:104250003299A068E8E3EA95F1F7FA95C1F7ECE145
:10426000EA95F1F7FF91EF910895429A3A9AB8B121
:10427000BB7FB8B9F9E0000000000000E8E6EA956D
:104280000000000000000000000000000000B9F77E
:10429000B8B1BB7F0894A79508F4B460B8B9FA9593
:1042A00069F7E2E4EA950000000000000000000069
:1042B00000000000B9F70895EE27FF276894329BAD
:1042C0000DC0000000000000000000000000000021
:1042D00000000000319799F7E8940895E8E7EA951F
:1042E00000000000000000000000000000000000CE
:1042F00000000000000099F7F8E0A6953299A06848
:10430000E7E6EA9500000000000000000000000061
:104310000000B9F70000FA9581F7E2E4EA950000A1
:104320000000000000000000C9F70895EE27F0E04B
:104330006894AA27329B5ACE329B58CE329B56CED7
:10434000329B54CEAA95B1F7319799F7E894089526
:10435000429A3A9AB8B1BB7FB8B9F9E000000000C0
:104360000000E3E5EA950000000000000000000006
:1043700000000000B9F7B8B1BB7F0894A79508F416
:10438000B460B8B9FA9569F7E4E3EA950000000073
:1043900000000000000000000000B9F70895429AF4
:1043A0003A9AB8B1BB7FB8B9F9E00000000000004C
:1043B000E9E2EA95000000000000000000000000B3
:1043C0000000B9F7B8B1BB7F0894A79508F4B460B2
:1043D000B8B9FA9569F7EAE1EA9500000000000033
:1043E0000000000000000000B9F70895439A3B9ACE
:1043F000B8B1B77FB8B9F9E000000000E3E0EA9592
:10440000F1F700000000B77F0894A79508F4B860A2
:10441000B8B9FA9599F7E4E0EA95F1F70895EE272F
:10442000FF276894339B04C03197E1F7E89408951F
:10443000E7E0EA95F1F7F8E0A6953399A068E3E0A4
:10444000EA95F1F700000000FA95B1F7339BFECF33
:104450000895439A3B9AB8B1B77FB8B9F9E0000024
:1044600000000000EAE0EA95F1F7B8B1B77F0894E0
:10447000A79508F4B860B8B9FA95A1F7EEE0EA9507
:10448000F1F73B980895EE27FF276894339B04C00B
:104490003197E1F7E8940895EFE0EA95F1F7F8E055
:1044A000A6953399A068EBE0EA95F1F70000FA953C
:1044B000B9F7339BFECF0895439A3B9AB8B1B77FC3
:1044C000B8B9F9E0000000000000E7E1EA95F1F773
:1044D0000000B8B1B77F0894A79508F4B860B8B9E0
:1044E000FA9599F7EAE5EA95F1F70895439A3B9A28
:1044F000B8B1B77FB8B9F9E0000000000000E7E10B
:10450000EA95F1F70000B8B1B77F0894A79508F4D1
:10451000B860B8B9FA9599F7E0E1EA95F1F73B98F8
:104520000895EE27FF276894339B04C03197E1F785
:10453000E8940895E3E2EA95F1F7F8E0A695339957
:10454000A068E8E1EA95F1F700000000FA95B1F7FC
:10455000339BFECF0895439A3B9AB8B1B77FB8B961
:10456000F9E0000000000000E0EDEA950000000026
:1045700000000000000000000000B9F7B8B1B77FEC
:104580000894A79508F4B860B8B9FA9569F7E1ED11
:10459000EA9500000000000000000000000000009C
:1045A000B9F73B980895EE27FF276894339B0EC018
:1045B00000000000000000000000000000000000FB
:1045C0000000319799F7E8940895E0EEEA9500002D
:1045D00000000000000000000000000000000000DB
:1045E0000000000099F7F8E0A6953399A068E0ED87
:1045F000EA9500000000000000000000000000003C
:10460000B9F70000FA9581F7E4E8EA9500000000A8
:10461000000000000000C9F70895EF93FF93AF93E7
:10462000439A3B9AB8B1B77FB8B9F9E000000000EF
:104630000000ECEAEA95F1F7B8B1B77F0894A795C6
:1046400008F4B860B8B9FA95A1F7ECEAEA95F1F781
:10465000AF91FF91EF910895EF93FF93EE27FF271E
:104660003B986894AA27339B08C0AA95E1F7319735
:10467000C9F7E894FF91EF910895E4ECEA95000002
:10468000E9F7F8E0A6953399A068ECEAEA95F1F726
:10469000FA95C1F7E7E5EA95F1F7FF91EF910895F3
:1046A000EF93FF93AF93439A3B9AB8B1B77FB8B9F2
:1046B000F9E0000000000000E7E3EA95F1F7B8B187
:1046C000B77F0894A79508F4B860B8B9FA95A1F730
:1046D000E7E3EA95F1F7AF91FF91EF9108953B98E9
:1046E000EF93FF93EE27FF276894AA27339B08C018
:1046F000AA95E1F73197C9F7E894FF91EF910895F2
:10470000E6E4EA95F1F7F8E0A6953399A068E8E3C6
:10471000EA95F1F7FA95C1F7ECE1EA95F1F7FF9127
:10472000EF910895439A3B9AB8B1B77FB8B9F9E0D1
:10473000000000000000E8E6EA950000000000002C
:104740000000000000000000B9F7B8B1B77F08947E
:10475000A79508F4B860B8B9FA9569F7E2E4EA9564
:104760000000000000000000000000000000B9F799
:104770000895EE27FF276894339B0DC000000000CA
:104780000000000000000000000000000000319761
:1047900099F7E8940895E8E7EA9500000000000022
:1047A0000000000000000000000000000000000009
:1047B00099F7F8E0A6953399A068E7E6EA95000036
:1047C000000000000000000000000000B9F7000039
:1047D000FA9581F7E2E4EA9500000000000000008D
:1047E0000000C9F70895EE27F0E06894AA27339BEC
:1047F00053CE339B51CE339B4FCE339B4DCEAA9598
:10480000B1F7319799F7E8940895EF93FF93AF9339
:10481000BF93CF93E0E5EA95F1F7429A3A9AB8B19F
:10482000BB7FB8B9F8E0CC270000E7E3EA95F1F7E1
:10483000B8B1BB7FA79510F4B460C395B8B9FA9529
:10484000A1F7E7E3EA95F1F7B8B1BB7FC79510F49C
:10485000B460C395B8B9E9E3EA95F1F7429AE7E3A2
:10486000EA95F1F7CF91BF91AF91FF91EF91089544
:104870003B98439AEF93FF93EE27FF276894AA276C
:10488000339B0DC00000000000000000AA95C1F796
:104890003197A9F7E894AA27FF91EF910895E6E4EC
:1048A000EA95F1F7F8E0A6953399A068E8E3EA9570
:1048B000F1F7FA95C1F7E4E6EA95F1F7FF91EF9188
:1048C0000895412E522E632E702E0E94027CA1E18B
:1048D00070FEACE5A093B800A0E0A093B900A4E8F6
:1048E000A093BC000C94437C2092BC000E94037CEB
:1048F0000C94437C87D0783089F4A22FAE7F9AD075
:10490000783161F4A52DA13021F0A92F93D0783210
:1049100029F4A82F8FD0783209F408950F900F90C2
:1049200000E46CD00C94447C02E468D00C94447C89
:10493000C8010E94057CDEDF65D07031A9F7A22F87
:10494000A16078D0703481F7439EC001903051F45B
:10495000813041F478D00E94097C783529F74ED017
:104960000C94437C6BD07035F9F60E94097C01975A
:10497000EDCF44D00C94437CC8010E94057CBADF83
:10498000642D0E94067C56D0783271F66A95C9F77C
:1049900035D0E62DF0E00E94017C840D921D3A9501
:1049A00071F70C94437C01E40C94447C2BD0783058
:1049B00089F4A5E43FD070930101703459F443D0D9
:1049C00070930201783531F4A0930001002716D0CE
:1049D0000C94437C01E412D00C94447C13D0A22F9D
:1049E00029D0A0EA27D0A0E825D0A1E023D006D086
:1049F000E2E3F0E00E94017C0C94437C44E94093A4
:104A0000BC00089544EA4093BC004091BC0047FFBD
:104A1000FCCF7091B900787F44E04093BC000895CA
:104A20004093BC004091BC0047FFFCCF7091B9009F
:104A3000787F0895A093BB0044E8F2CF44ECF0DF08
:104A4000A091BB00089544E8EBDFA091BB0008955E
:104A500028B8AFE0A7B90E94027CE4E6FAE00E9421
:104A6000017C409A44E650E09AD040985AE097D0B2
:104A70000C94437C28B827B80E94037C0C94437C98
:104A8000E101A991A03011F40C94437CA13021F4F0
:104A90005991499184D0F5CFA23031F4799169913F
:104AA000599149917ED0EDCFA43019F4E89412D0F9
:104AB000E8CFA53019F468940DD0E3CFA63021F4E7
:104AC000E89408D02FD0DDCFA73019F4689402D035
:104AD00029D0D7CF2E0189919991E0E0FAE0409A50
:104AE0005CD00EF45AD0409858D057D07727BB27C7
:104AF000703019F478E0A991B193A0FD429AA0FF1B
:104B00004298903019F4813009F4409A46D0A69525
:104B1000B6953399B068019759F73FD040983DD08A
:104B2000E20108952E0189919991DC011796B695BD
:104B3000A795B695A795B695A7955A2FDE0153E090
:104B4000B695A7955A95E0E0FAE0DE01FC01C50FA5
:104B5000C21D0027452F6D91719109906021702130
:104B6000671301E04A95B9F7003081F408950F907A
:104B70000F90E51BF209C51BD209C51BD209C51B45
:104B8000D2090E01E10159930992199201900992FB
:104B90005A95E1F700E40C94447C41E055276627E0
:104BA0007727419A4319520962090000000000006A
:104BB00000000000419872090000000000000000A1
:104BC000000079F70895303029F4243018F401E416
:104BD0000C94447CA0E00E942A7DA8E9A093C10027
:104BE00078940E94027CAFE328B8A7B9303009F06E
:104BF00019C0243019F4A8B9A395FDCF253021F4AC
:104C0000A8B90000A395FCCF263029F4A8B900006C
:104C10000000A395FBCF273029F4A8B900000000BD
:104C2000A395FBCF21FD03C020FF04C00FC020FFD0
:104C30001AC027C0C90196958795969587950197C3
:104C4000A8B9A395FC013197F1F7FACFC901969560
:104C50008795969587950197A8B9A395FC013197FB
:104C6000F1F70000F9CFC90196958795969587953C
:104C70000197A8B9A395FC013197F1F70000000056
:104C8000F8CFC90196958795969587950197A8B90C
:104C9000A395FC013197F1F7000000000000F7CF69
:104CA00028B8E5E0F1E00E94017C27B80E94037C6F
:104CB0000C94437CA0E00E942A7DA8E9A093C10047
:104CC000E0E0F2E02192F031E9F7A0ECA7B9A09181
:104CD0000001A0930010A095A8B9A5E5A09300013C
:104CE000AAEAA09301017894D801C0E0D2E0E0E004
:104CF000FFE056B131925193452F81E002C0000090
:104D000000000000000000000000000000000000A3
:104D1000000000000000000056B1652E6426452FFB
:104D200039F4839569F78193519381E0FFE0EFCFE8
:104D30008193519381E0FFE052276522632249F776
:104D4000119751F7F89456B1652E6426452F41F41A
:104D5000839561F48993599381E0DF3071F411C038
:104D60008993599381E0DF3039F40BC000000000D3
:104D70000000000000000000000000000000000033
:104D8000E2CF2A98809100108F73C0E0D1E0FFE05D
:104D9000A191FFE0A993A191FFE0A993D230C1F7BF
:104DA000C0E0D1E0A981BFEFA03011F0A823BA2F55
:104DB000B9832296DF30B1F77894ABE20E94167C7B
:104DC000FFCF27B828B80C94437CA0E00E942A7D2E
:104DD000A8E9A093C100E0E0F2E02192F031E9F708
:104DE000A0ECA7B9A0910001A0930010A095A8B9CC
:104DF000A5E5A0930001AAEAA09301017894D80147
:104E0000C0E0D2E0E0E0FFE056B131925193452F8F
:104E100081E002C00000000000000000000000006F
:104E200000000000000000000000000000007CE323
:104E30007A95F1F756B1652E6426452F39F483959E
:104E400051F78193519381E0FFE0ECCF819351932F
:104E500081E0FFE052276522632231F7119739F78D
:104E6000F8947CE37A95F1F756B1652E6426452FC8
:104E700041F4839561F48993599381E0DF3071F4B3
:104E800080CF8993599381E0DF3039F47ACF0000E5
:104E90000000000000000000000000000000000012
:104EA0000000DFCFA0E00E942A7DA8E9A093C10006
:104EB000E0E0F2E02192F031E9F7A0ECA7B9A0918F
:104EC0000001A0930010A095A8B9A5E5A09300014A
:104ED000AAEAA09301017894D801C0E0D2E0E0E012
:104EE000FFE056B131925193452F81E002C000009E
:104EF00000000000000000000000000000000000B2
:104F0000000000000000000036D056B1652E642677
:104F1000452F39F4839561F78193519381E0FFE048
:104F2000EECF8193519381E0FFE052276522632207
:104F300041F7119749F7F8941ED056B1652E6426B3
:104F4000452F41F4839561F48993599381E0DF30D3
:104F500071F417CF8993599381E0DF3039F411CF81
:104F60000000000000000000000000000000000041
:104F700000000000E1CF7BED000000000000000019
:104F8000000000007A95C1F700000895302F0E94BC
:104F90009C082AE0120F11BDA5ED0E94B2090E94E3
:104FA000A20800D1A32F60E278E10E949D0965E28A
:104FB00078E10E949709A058A07B0A2F0C94447CAA
:104FC0000E949C08EFD064E278E1AFEF0E949D0957
:104FD00060E07CEFA0E00E949D0966E278E1A5E038
:104FE0000E949D09E4D061E278E10E949709A093B4
:104FF0000001A370A23011F40C94437C60E07CEFBC
:10500000A0E00E949D0966E278E1A1E40E949D096A
:10501000CED060E07CEFA0E00E949D0966E278E1DE
:10502000A5E00E949D09C3D061E278E10E94970942
:10503000A0930101A370A23000E109F008E30C94F1
:10504000447C0E949C08AED064E278E1AFEF0E94FD
:105050009D0960E07CEFA0E00E949D0966E278E196
:10506000A1E40E949D09A3D09DD060E07CEFA0E068
:105070000E949D0966E278E1A5E00E949D090E94D8
:10508000D7280C94447C0E949C08C8010E94057C8F
:10509000002788D064E278E1AFEF0E949D09A0E983
:1050A0000E94B2090E94C109ACE40E94B209DC016D
:1050B00011970E94B5090E94C109A0E50E94B2099A
:1050C0000E94067C0E94B2090E94C10966E278E152
:1050D000A5E20E949D096BD0003099F62319320990
:1050E00061F70C94437C0E949C08C8010E94057CD7
:1050F0000E949A0923193209D9F70C94437C0E9423
:105100009C08A0E90E94B2090E94C109ABE40E9478
:10511000B209D8010E94B5090E94C109A8E00E9405
:10512000B2090E94C10900270C94447C0E949C088B
:10513000C8010E94057CA0E90E94B2090E94C10931
:10514000ACE40E94B209DC0111970E94B5090E94EB
:10515000C109A0E70E94B2090E94C1090E94B809D2
:105160000E94097C23193209A1F70C94437C4198D1
:10517000399AE2E0F0E00E94017CE0E0F0E0419A40
:10518000000000000000000039983199FECFE3953F
:10519000319BFDCFE0930201F09303010E941009BF
:1051A0000C94437CA0E365E278E10C949D091F9187
:1051B0000F91A0E865E278E10E949D09E0E0F0E04F
:1051C000EF93FF9365E278E10E9497090E94BE0980
:1051D000FF91EF91A7FD05C0319791F701E40C9481
:1051E000447CF801002709940E949C08A0E90E94D1
:1051F000B2090E94C1090C94437C0E949C08A8E05B
:105200000E94B2090E94C1090C94437C0E94057C53
:105210000E949C08A8E40E94B2090E94067C0E9499
:10522000B2090E94C109A9E40E94B2090E94067C49
:105230000E94B2090E94C109ABE40E94B2090E9417
:10524000077C0E94B5090E94C109ACE40E94B20922
:105250000E94077C0E94B5090E94C109AFE40E9428
:10526000B2090E94077C0E94B5090E94C1090C94F2
:10527000437C0E949C080E94057CA8E60E94B2091B
:105280000E94C1090E94B8090E94097CA9E60E94F7
:10529000B2090E94C1090E94B8090E94097CABE6CC
:1052A0000E94B2090E94C1090E94BB090E940A7CA7
:1052B000ACE60E94B2090E94C1090E94BB090E948B
:1052C0000A7CAFE60E94B2090E94C1090E94BB0994
:1052D0000E940A7C0C94437C28B8399A389A0E9420
:1052E000027CE2E3FF270E94017C409AE2E3FF2771
:1052F0000E94017C419AECE2F1E00E94017C6894FA
:1053000040E1AA270E94DE1CE6E1FF270E94017C03
:105310004A95B9F7A0EB0E94DE1C0E942D1D06E401
:1053200026F502E4A03BE1E0F0E00E94017CA7EB5F
:105330000E94DE1CE1E0F0E00E94017CA8E00E94F7
:10534000DE1C0E942D1D01E486F403E4A73B0C94AF
:10535000437C28B8399A389AE2E3FF270E94017CFF
:105360000E94037C27B80C94437CA09300010C940A
:10537000447CAF93AB2FAA95000000000000000012
:10538000000000000000AA95B1F7AF9108953327FF
:10539000F8010E94057C0E94067C3A0F3197D9F7EC
:1053A000AAEF0E943F1CB801A62F0E943F1CA72F06
:1053B0000E943F1CA32F0E943F1C0E94057C0E945C
:1053C000067C0E943F1C63197209C9F700270C94E0
:1053D000447C0E94057CAAEF0E943F1CA02F0E94E3
:1053E0003F1CA12F0E943F1CA32F0E943F1C80E066
:1053F00098E00E94067C0E943F1C0197D1F700278D
:105400000C94447C0E94057CC801F3CFBDD0A5EF6D
:105410000E943F1CAFED0E943F1CAFEF0E943F1C5B
:10542000A0E00E943F1CA7E00E943F1C0E94057C58
:1054300047E00E94067C0E943F1C4A95D1F7E0E0BD
:10544000F1E00E94017C73EC60E5A2D00C94447CF6
:105450000E94057C0E94067C7A2F0E94067C6A2F9F
:10546000A72BA1F091D0A0E20E943F1CA62F0E9482
:105470003F1CA72F0E943F1CA0ED0E943F1CE0E0B4
:10548000F2E00E94017C73EC60E582D0C03111F73C
:105490000C94437CA32F0E943F1CA12F0E943F1C11
:1054A000A02F0E943F1C0E94731CA09300010C942B
:1054B000437CC8010E94057C67D0A1E40E943F1C88
:1054C000A82F0E943F1CA92F0E943F1C44270E9426
:1054D000067C0E943F1C4A95D1F7E5E0F0E00E946F
:1054E000017C7EE460E254D001962A9529F70C9461
:1054F000437C4AD0A6E20E943F1CA0ED0E943F1CC4
:10550000EAE0F0E00E94017C73E168E841D00C948D
:10551000437CC8010E94057CAFEF0E943F1CA82F6E
:105520000E943F1CA92F0E943F1C30E00E94731C68
:105530006EF40E94097C3A95C9F7E2E0FF270E94C9
:10554000017C01962A9541F70C94437CC09320017D
:10555000D093210120932201A5E5A093230100E42B
:105560000C94447C0E94057CABEF0E943F1C38E009
:105570000E94731C5EF70E94097C3A95C9F7AA271E
:105580000E94097C0C94437C6894A0E50C943F1C19
:105590006894EAE0F0E00E94017C209220012092D1
:1055A00021012092220120922301A0E70E943F1CAA
:1055B0000E94731C4A2F1EF50E94731C5A2F26F559
:1055C00047FD05C06319720921F705E419C040932E
:1055D00020015093210160932201709323014073B5
:1055E00021F0429508E4040F0BC05C705C3029F098
:1055F000569556950CE4050F03C00027089500E466
:105600000F900F900C94447C00E50F900F900C9439
:10561000447C432E0C94437C0E94027C4198399A2E
:1056200043983B9A389A4098E8ECFF270E94197EED
:10563000ACEA48D1A3E546D1A0E044D1BA2FA0E01E
:1056400041D1B33511F40C94437C01E40C94447CB7
:105650000E94057C00E0A0E335D133D1A02F32D1E8
:1056600030D10E946E7D03950330A9F7A0E52AD1C1
:1056700028D127D126D10E946E7DA8E523D1A8E0AC
:1056800021D11FD11ED10E946E7DA0E51BD1A8E0C3
:1056900019D117D116D10E946E7DA8E513D111D171
:1056A00010D10FD10E946E7DA8E30CD10AD109D18F
:1056B00008D10E946E7D0C94437CACEA03D1A0E833
:1056C00001D1FFD013D10C94437CACEAFBD0A0E80D
:1056D000F9D0F7D0F6D0E4E1F0E00E94017C0C9420
:1056E000437C0E94057CC8016627A0E4D4D0D2D0B8
:1056F000A62FD1D00E94067CCED0A8E4CCD0CAD0B0
:10570000A62FC9D00E94067CC6D06395631769F79F
:10571000ACE4C1D0A92FBFD0A82FBDD0E7D0830F54
:10572000921D2A9509F70C94437C0E94057CC801C0
:105730006627A0E4B0D0AED0A62FADD00E94067CE4
:10574000AAD0A8E4A8D0A6D0A62FA5D00E94067CF7
:10575000A2D06395631769F7ACE49DD0A92F9BD0C5
:10576000A82F99D097D0E5E0F0E00E94017C830F4C
:10577000921D2A95E9F60C94437CC8010E94057C91
:10578000A0E289D0A92F87D0A82F85D083D00E94EE
:10579000097CA8E280D0A92F7ED0A82F7CD07AD017
:1057A0000E94097C01962150304051F70C94437CB3
:1057B0000E94057CF80160E0A1EC6DD06BD0A62FB3
:1057C0006AD00E94067C67D063956317A9F7A2ECA4
:1057D00062D0A12F60D0A02F5ED088D0030F121D01
:1057E0002A9549F70C94437C0E94057CF80160E0FF
:1057F000A1EC51D04FD0A62F4ED00E94067C4BD0AA
:1058000063956317A9F7A2EC46D0A12F44D0A02F2F
:1058100042D040D0EAE0F0E00E94017C030F121D6C
:105820002A9529F70C94437CC801F9010E94057C54
:10583000A0EA31D0A92F2FD0A82F2DD02BD00E9495
:10584000097C01963197A1F70C94437CACEA3AD0DD
:10585000A0EA0BC0ACEA36D0A8EA07C0ACEA32D066
:10586000A4EA03C0ACEA2ED0A0EE2CD02AD0A02F00
:1058700030FD03C049D00C94437C24D0EAE0F0E032
:105880000E94017C0C94437C28B80E94037C27B8BA
:105890000C94437CAA2758E040FE15C0A7FD439A0C
:1058A000A7FF4398419A44E04A95F1F788943299CA
:1058B0000894AA1F419844E04A95F1F75A9571F768
:1058C0000895AA2758E0A7FD439AA7FF4398419A55
:1058D00048EC4A95F1F7889432990894AA1F4198A8
:1058E00048EC4A95F1F75A9571F70895AA27D3DF46
:1058F000A0E0AA95F1F7A0EFCEDFCCDFCBDFCBDFC6
:10590000A0FDF6CF0895AA27DDDFA0E0AA95F1F764
:10591000A0EFD8DFD6DFD5DFD5DFA0FDF6CF089525
:10592000822E9924A2E0AA2E28B8AFE1A7B90E943E
:10593000027CE4E6F0E00E94197E449A419A429A81
:10594000E1E0F0E00E94197E409AE4E6F0E00E9477
:10595000197E4498E8D2449AE6D23A95D1F73B981A
:1059600084E1F6D22EF48A95E1F701E40C94447CAC
:10597000E2D2DEF3A5E5B2D2A0E0B0D2A13C19F0AC
:1059800002E40C94447C0C94437C28B80E94037C71
:1059900027B80C94437C00E40C94447C28B8AFE115
:1059A000A7B9E2E3F0E00E94197EE2E3F0E00E9492
:1059B000197E409A68940C94437C932C0C94437CFD
:1059C0000E94057CE4EEF9E5A1E013D2F2D13EF0AD
:1059D000E4EEF9E5A82D0DD242D20C94437C04E408
:1059E0000C94447C01380E94057CE2E1FAE5ACE0CD
:1059F000A39FE00DF11DA1E0FCD1DBD13EF0E2EA76
:105A0000FAE5A82DF6D12BD20C94437C04E40C9437
:105A1000447C0932007A120003D090000000093261
:105A200000B71B0003D090000000093200F42400EE
:105A300003D090000000093201312D0003D0900006
:105A400000000932016E360003D0900000000932D8
:105A50000000000003D0900000000932007A12001C
:105A600004C4B4000000093200B71B0004C4B40031
:105A70000000093200F4240004C4B400000009321C
:105A800001312D0004C4B40000000932016E36005B
:105A900004C4B400000009320000000004C4B400D3
:105AA000000001320E94057CEEEBFAE5A1E0A1D1F5
:105AB00080D116F00C94437C04E40C94447C0100E7
:105AC0000E94057CE4EEFAE5A1E093D172D13EF0AC
:105AD000E4EEFAE5A82D8DD1C2D10C94437C04E408
:105AE0000C94447C012C0E94057CE8EFFAE5A1E0CF
:105AF00080D1B5D10C94437C01240E94057CEEE159
:105B0000FBE5A1E076D155D13EF0EEE1FBE5A82D15
:105B100070D1A5D10C94437C04E40C94447C013AEC
:105B20000093901010939110209392103093931043
:105B30000C94437C0093941010939510209396102E
:105B4000309397100C94437C0E94057CB5D1A0E063
:105B5000C4D1A9E0C2D1A0E1C0D1A0919310BDD120
:105B6000A0919210BAD1A0919110B7D1A0919010AC
:105B7000B4D1A0919710B1D1A0919610AED1A091BF
:105B80009510ABD1A0919410A8D1A5D19ED167D189
:105B90000C94437C91D1A0E0A0D1A5E09ED1A2E1DC
:105BA0009CD1A32F9AD1A22F98D1A12F96D1A02F0B
:105BB00094D191D18AD1FDD016F00C94437C06E4A7
:105BC0000C94447C70E278D1A0E087D1A5E085D127
:105BD000A2E183D1A32F81D1A22F7FD1A12F7DD18B
:105BE000A02F7BD178D171D1E4D06EF0A0E40A0F60
:105BF000121D221D321DE1E0F0E00E94017C7A9529
:105C000011F70C94437C06E40C94447C0E94057CC0
:105C100053D1A0E062D1A9E060D1A3E15ED1A0910F
:105C200093105BD1A091921058D1A091911055D1B1
:105C3000A091901052D1A09197104FD1A0919610A1
:105C40004CD1A091951049D1A091941046D143D147
:105C50003CD1AFD00C94447C232F0E94057C2FD1E3
:105C6000A4E03BD1A1E039D1A3E137D180E094E0B9
:105C70000E94067C32D10197D9F7E1E0F0E00E9462
:105C8000017C29D1A22F29D1E1E0F0E00E94017C22
:105C90000E94057C8ED00C94447C11D1A0E01DD1D3
:105CA000A5E01BD1A3E919D1A0E017D1A0E015D13F
:105CB000A4E013D1A0E011D10ED1A32F0ED10E94E8
:105CC000057C77D00C94447C0E94057CF5D0A0E044
:105CD00004D1A9E002D1A5E100D1A0919310FDD09B
:105CE000A0919210FAD0A0919110F7D0A0919010AD
:105CF000F4D0A0919710F1D0A0919610EED0A09181
:105D00009510EBD0A0919410E8D0E5D0DED051D022
:105D10000C94447C0E94057CD2D0A0E0DED0A1E0AF
:105D2000DCD0A5E1DAD0D7D0D0D07AD0A53191F4AB
:105D3000E1E0F0E00E94017CC2D0A0E0CED0A1E082
:105D4000CCD0A5E1CAD0C7D0C0D06AD0A53111F45B
:105D50000C94437C0C94447C0E94057CADD0A0E064
:105D6000BCD0A1E0BAD0A7E2B8D0B5D0AED021D097
:105D7000E2D0A5D0A0E0B1D0A1E0AFD0A7E2ADD0F5
:105D8000AAD0A3D06CD00C94437C0E94057C94D004
:105D9000A0E0A3D0A1E2A1D0A6E29FD090E20E9411
:105DA000067C9BD09A95D9F796D08FD002D00C94D0
:105DB000437CE894002788ECCBD03EF48A95E1F749
:105DC00003E40F900F900C94447C74D073D072D085
:105DD000A23031F06FD0A7FD68946CD06BD00895DD
:105DE00069D0A7FD689466D00A2F0F7763D062D080
:105DF0000895E89484E19FD03EF48A95E1F703E4A6
:105E00000F900F900C94447C552468D053D085910A
:105E1000A82F63D0A59161D08A95E1F75CD055C0D9
:105E2000E89488EC95D03EF48A95E1F703E40F906E
:105E30000F900C94447C3ED03DD09A2F3BD08A2FBB
:105E400039D00A2F0197A82FA92B29F033D00E940F
:105E5000097C0197F8CF2ED02DD0A02F0895E8947B
:105E600088EC76D03EF48A95E1F703E40F900F902A
:105E70000C94447C1FD00E94097C1CD00E94097C99
:105E80009A2F18D00E94097C8A2F14D00E94097C76
:105E90000A2F0197A82FA92B29F00CD00E94097C6A
:105EA0000197F8CF07D00E94097C04D00E94097C9A
:105EB000A02F0895AA2711C0A1E055240FC0A82D36
:105EC00055240CC0A2E0552409C0A3E007C0A7E1F7
:105ED00005C055240895A52D01C05A1AB8E090FEBA
:105EE0000CC0A7FD429AA7FF4298A6B8AA0F339903
:105EF000A395A6B8BA95A9F70895EF93E0E0EA95BF
:105F0000F1F7E0E8EA95F1F7EF914198A7FD429AA1
:105F1000A7FF4298AA0F07D03399A395419A03D0BF
:105F2000BA9599F70895BF93B0E0BA9500000000C4
:105F3000E1F7BF910895FF93EF93EE27FF27E894D1
:105F4000339B03C03197E1F76894EF91FF91089577
:105F5000FF93EF93EE27FF27E894339903C031971F
:105F6000E1F76894EF91FF910895A5ED0E94B209C1
:105F70000E94C109A0E90E94B2090E94C1090C94C3
:105F8000437C0E949C080E94057CC901A5E40E94F4
:105F9000B209D80112970E94B5090E94C109A2E472
:105FA0000E94B2090E94067CBA2F0E94067C0E94C1
:105FB000B5090E94C109019791F70C94437C0E9496
:105FC0009C08A3E40E94B209D8010E94B5090E946E
:105FD000C109A8E00E94B2090C94437C0E949C086D
:105FE000A3E40E94B209D8010E94B5090E94C10928
:105FF000A8E00E94B209002780E090E00E94C40956
:10600000A6FF0C94447CA0E0AA95F1F70197B1F7A4
:1060100003E00C94447C302F0E949C08193108F056
:1060200017E02AE0120F11BDA5ED0E94B2090E94EF
:10603000A208A6ED0E94B2090E94C109A0E06CE38B
:1060400070E00E94A3090E94C109A32F60E171E0E2
:106050000E94A3090E94C109A32F60E071E00E9481
:10606000A3090E94C10994D193D164E071E0AFEF1C
:106070000E94A30964E171E0AFEF0E94A3090C94B0
:10608000447C0E949C08002765E071E0A0E30E9428
:10609000A30962E071E0A0E00E94A30965E071E05D
:1060A000A2E00E94A30962E071E0A0E10E94A309BE
:1060B00068E071E0AEEFBFEF0E94AF096AE071E007
:1060C000AFEFBFEF0E94AF0966E071E0A1E40E946C
:1060D000A30959D10C94447C0E949C08002765E1D7
:1060E00071E0A0E30E94A30960E07CE0A0E0BCE0D6
:1060F0000E94AF0966E171E0A1E40E94A30961D1A9
:106100000C94447C0E949C080027E0E0F2E00E948E
:10611000017C65E071E0A0E30E94A30962E071E008
:10612000A0E00E94A30965E071E0A2E00E94A3093B
:1061300062E071E0A0E10E94A30968E071E0AEEFC7
:10614000BFEF0E94AF096AE071E0AFEFBFEF0E94BE
:10615000AF0966E071E0A1E40E94A30914D165E1F2
:1061600071E0A0E30E94A30962E171E0A0E00E9457
:10617000A30965E171E0A2E00E94A30962E171E078
:10618000A0E10E94A30968E171E0A0E0BCE00E94E8
:10619000AF096AE171E0A0E0B0E00E94AF0966E1FA
:1061A00071E0A1E40E94A3090CD10E94F308003021
:1061B000A1F5A32F60E171E00E94A3090E94C1092B
:1061C000A32F60E071E00E94A3090E94C109E0D002
:1061D00062E071E0A0E00E94A30960E370E0AFEF2D
:1061E0000E94A30964E071E0AFEF0E94A30964E19B
:1061F00071E0AFEF0E94A30965E071E0A2E30E94A5
:10620000A3096EE07FEFAEEFBFEF0E94AF0966E03B
:1062100071E0A0E20E94A309B6D00C94447C0E94D5
:106220009C080E94057CC901A12F60E370E00E94D8
:10623000A309A4D00E94AC0966E071E0A0E20E942C
:10624000A309A1D006FF05C000908110D01589F7E1
:1062500000270C94447C0E949C08AED00E94057CD0
:1062600080E098E0A02F67E170E00E94A3090E94FF
:10627000DC310E94AC0966E171E0A0E20E94A30952
:10628000A0D006FF05C000908110D01581F700272F
:106290000C94447C0E949C0871D00E94057CC9012A
:1062A000A02F60E370E00E94A309A12F67E170E0D6
:1062B0000E94A3090E94A60900908310D015D1F76F
:1062C00000270C94447C0E949C08C90157D00E946E
:1062D000057CA02F60E370E00E94A309A5E40E9462
:1062E000B209DC0112970E94B5090E94C109A2E619
:1062F0000E94B2090E94BE090E94BE090E94BB0909
:106300000E940A7C0090831091F700270C94447C33
:106310000E949C0833D00E94057C80E098E0A02F6A
:1063200067E170E00E94A3090E94A6090090831013
:10633000F1F6D1F700270C94447C0E949C08A02F12
:10634000AA0FAA9564E370E00E94A309A3E065E3A5
:1063500070E00E94A309E2E3F0E00E94017CA0E863
:1063600069E370E00E94A309E5E0F0E00E94017C8F
:10637000A4E80E94C70900E00C94447CA2E365E015
:1063800071E00C94A309A0E865E071E00E94A30904
:1063900020E038EC0E94C10965E071E00E94A0098C
:1063A000A6FD08C023193209A9F702E0AF91AF9109
:1063B0000C94447C0A2F0895A0E365E171E00C94ED
:1063C000A309A0E865E171E00E94A30920E034E19F
:1063D0000E94C10965E171E00E94A009A6FD08C004
:1063E00023193209A9F702E0AF91AF910C94447CD4
:1063F0000A2F0895302F0E949C08193108F017E0E9
:106400002AE0120F11BDA5ED0E94B2090E94A20858
:10641000A6ED0E94B2090E94C109A0E06CE370E001
:106420000E94A3090E94C109A32F60E071E00E94AD
:10643000A3090E94C109AFEF68E071E00E94A309BF
:106440000E94C109AFEF69E071E00E94A3090E94B8
:10645000C109CBD00C94447C0E949C08BCD000E0C5
:1064600018E0A0E0D7D0BCD00C94447C0E949C08DB
:10647000B2D00FE719E0A0E0CDD000E010E0A1E03D
:10648000C9D0AED00C94447C0E949C08A4D000E0FB
:106490001FE0A0E0BFD000E810E0A1E0BBD000E02A
:1064A00010E0A2E0B7D09CD00C94447C0E949C08E1
:1064B00092D00FE716E0A0E0ADD008E01FEFA1E01A
:1064C000A9D00FEF1FEFA2E0A5D00FEF1FEFA3E0C1
:1064D000A1D00FEF1FEFA4E09DD00EEF1FEFA5E0BE
:1064E00099D07ED00C94447C0E949C080027002701
:1064F0000C94447C0E949C080E94057CC8016BD0CF
:1065000011E107C00E949C080E94057CC80163D06D
:1065100016E01F93A0E0022F7DD08C01A1E07AD07D
:106520000E94077C8D01A2E075D00E94077C8D013E
:10653000A3E070D00E94077C8D01A4E06BD00E9484
:10654000077C8D01A5E066D04BD008961F91D8300E
:1065500001F70C94447C0E949C083DD00E94057C6D
:10656000C901A02F65E170E00E94A309A12F67E196
:1065700070E00E94A3090E94A609D830E1F7002725
:106580000C94447C0E949C08C90125D00E94057C83
:10659000A02F65E170E00E94A309A12F67E170E0E0
:1065A0000E94A309A5E40E94B209DC0112970E948F
:1065B000B5090E94C109A2E60E94B2090E94BE0963
:1065C0000E94BE090E94BB090E940A7CD83099F73C
:1065D00000270C94447CA0E366E071E00C94A309CE
:1065E000A0E866E071E00E94A309EE27F0E20E94B5
:1065F000C10966E071E00E94A009AF3F11F0A7FD5C
:1066000007C03197A1F705E3AF91AF910C94447C9B
:106610000A2F089562E071E00E94A309A12F6AE0A9
:1066200071E00E94A309A02F6BE071E00C94A30914
:106630000E949C080F93A12F64E370E00E94A309BD
:10664000AF9165E370E00E94A309E2E3F0E00E94ED
:10665000017CA0E869E370E00E94A309E5E0F0E0B6
:106660000E94017CA4E80E94C7090C94437C4198D5
:1066700006D0409804D0419A02D0409A00D00895A4
:1066800040FD419A40FF4198FADF4098F8DF409A78
:10669000F6DF08954198F8CF419AF6CF399841989E
:1066A00040984427ECDF31994395419AE8DF409ABE
:1066B000399A08954198E3DF4098E1DFF099419AD3
:1066C000DEDF409AE7DFEADFF09808954198D7DFF0
:1066D0004098D5DFF099419AD2DF409ADDDFDEDFC6
:1066E000F09A0895419A399A07D0419A05D0409A74
:1066F00003D0409801D0409A50EA5A95F1F7089596
:1067000040984198389A399A38983998F5CF10E1DD
:10671000C3DF4EB3B5DFC2DFBDDFBEDFBFDFBADF31
:10672000BBDFBCDF41E0131140E0AADFAA0FBB1FB3
:10673000441FA6DFB3DF4695EE1FFF1F1A9591F7A2
:106740002DC0AADF4EB39CDFA9DFA4DFA5DFA6DF43
:10675000A1DFA2DFA3DF14E040E092DF91DF9EDF44
:106760001A95D1F710E1DECF97DF4EB389DF96DFC0
:1067700093DF92DF93DF8EDF8FDF90DF8BDF8CDFA5
:106780008DDF18E041E0131140E07ADFA695441F49
:1067900077DF84DF4695E7951A95A1F77DDF7CDFEB
:1067A0007DDF78DF4EB36CDF79DFA6CF16E074DFD4
:1067B00073DF74DF1A95D9F76DDF6EDF6FDF6CDF83
:1067C0006BDF6CDF67DF68DF69DF66DF65DF66DF91
:1067D00061DF62DF63DF60DF5FDF60DF5DDF5CDFC3
:1067E0005DDF58DF59DF5ADF0895A4E1BDDF24E6FD
:1067F000A0E0B0E08CDF5EDF69DF2A95C9F7A1E495
:10680000B3DFAFEFBFE383DF55DFA3E1ADDFA9E087
:10681000B4E27DDF5BDF0895A3E1A6DFA1E0BCE287
:1068200076DFA1E0B4E273DF45DF50DF43DF4EDF08
:1068300041DFA4E899DF4ADFA1E496DFAFEFBFE3D1
:1068400066DF38DFA3E190DFA9E0B4E260DF3EDF7E
:106850000895A1E489DFAFEFBFE359DF2BDFA3E1A8
:1068600083DFA1E0B4E253DFA4E87EDF2FDF0895E9
:10687000A3E17ADFA1E0B5E14ADFA4E175DF22E31D
:10688000A0E0B0E044DF2A95D9F714DF1FDFA3E1D1
:106890006BDFA1E0BCE03BDFA1E0B4E038DFC5E0A6
:1068A00009DF14DFCA95E1F7A1E0B5E030DF02DFD0
:1068B0000DDFA4E159DFA0E0B0E029DFE8940895FE
:1068C000E894A4E151DFAAEABAEA21DFE53519F438
:1068D000F53509F468940895A3E146DFA1E0B4E238
:1068E00016DFA4E141DF24E6A0E0B0E010DF2A9546
:1068F000D9F7F1FF68940895A7E136DFB0E0A0E092
:1069000006DF0E2F0895A7E82FDFB0E0A0E019CF33
:10691000802FF6DE40984198389A399A0E94027C7E
:10692000F09AECE3F0E00E94017CDCDEE5DE3EDF85
:10693000E3DEAFEF19DFE0930001E81709F40895F3
:1069400001E50F900F901FC0C901E2DFE89402E556
:10695000B7DFCEF003E5C0DFB6F05EDFABDEA3E16C
:1069600003DFA8E0B4E2D3DEA3E8FEDEA0E2B1E0FC
:10697000CEDEA5E8F9DEA0E8BAE5C9DEA7DE9ADE3C
:1069800000270C94447CBCDE0E94037C0C94447C65
:10699000B801C9010E94057C8DDEA3E1E5DEA9E016
:1069A000B4E2B5DEA3E8E0DEDE01A60FB71FAFDE7E
:1069B000A5E8DADE8BDE7EDEA0E0B0E0A8DEDF0157
:1069C0000E940B7C019771F7DBCFB801C90172DE21
:1069D000A3E1CADEA8E1B4E29ADE0E94057CA3E846
:1069E000C3DEDE01A60FB71F92DEA5E8BDDE0E9462
:1069F000067CBB278CDE6ADE5DDE019781F7C0CFA7
:106A0000B801C90157DEA3E1AFDEA8E0B4E27FDE42
:106A10000E94057CA3E8A8DEDE01A60FB71F77DE83
:106A2000A5E8A2DE0E94087C72DE50DE43DE0197FC
:106A300089F7A6CFB8010DDFA3E196DEA1E0B4E3AC
:106A400066DEA1E491DEA0E3B0E461DE33DE3EDE8B
:106A5000DB015DDE2FDEA4E887DE38DE2BDEA3E17E
:106A600083DEA1E0B4E253DEA5E17EDE89CF9201B0
