:020000020000FC
:100000000C94187C0C9439000C9439000C94390031
:100010000C9439000C9439000C9439000C9439007C
:100020000C9439000C9439000C9439000C9439006C
:100030000C9439000C9439000C9439000C9439005C
:100040000C9438000C9438000C9438000C9439004F
:100050000C943B000C9439000C9439000C9439003A
:100060000C9439000C9439000C9439000C9439002C
:1000700036B8789418950F900F90A8E1A093C1001E
:0A008000A091C60078940C945E7CF9
:1003C000001200000000000000000000000000001B
:1003D000000000000000000000000000000000001D
:1003E000000000000000000000000000000000000D
:1003F00000000000000000000000000000000000FD
:100400000C9408080C94172A0C94142A0C94332A80
:100410000C94682A0C947C2A0C94C82A0C94E32A25
:100420000C941F2B0C94312B0C94352B0C94392BE2
:100430000C943D2B0C944F2B0C940E080C941A0822
:100440000C94A5090C944B0A0C941C270C940808D6
:100450000C9477270C9436270C9499270C94D52765
:100460000C94C9270C940B080C940B080C940B08E3
:100470000C940B080C940B080C9408080C94FD08C1
:100480000C9479280C94D2280C9411290C94B4283B
:100490000C9464290C9494290C9433290C94842989
:1004A0000C94BD290C940B080C940B080C94F627A3
:1004B0000C9470200C9491200C94B2200C94D320B6
:1004C0000C9498300C946C300C947B300C94CE309F
:1004D0000C940F310C949C310C94B8310C94D7319E
:1004E0000C94F9300C9442300C944E300C942A3217
:1004F0000C9415320C940B080C940B080C940B08FC
:100500000C9487320C9408080C9408080C94B932A7
:100510000C94E3320C940F330C9438330C94080889
:100520000C9407330C9408080C9408080C94A53319
:100530000C94C3320C94D1320C94B24F0C940A4FE9
:100540000C94A8380C94FC380C943B390C941F394B
:100550000C947A390C9485390C945A390C94080807
:100560000C949A4E0C949F4E0C948D480C94CB484E
:100570000C94D9480C9453460C9424080C94EA46E5
:100580000C943D3F0C94A83F0C94BA3F0C94BF3F91
:100590000C94DE3F0C94A03F0C940B080C940B08B9
:1005A0000C94D0450C941C460C9424460C94D546CF
:1005B0000C940E470C9498460C94B1460C94E44667
:1005C0000C947F400C948A400C94AF400C94CC4027
:1005D0000C94ED400C9400410C9413410C94904108
:1005E0000C94B2410C94FD410C9422420C9459425B
:1005F0000C94E3400C94F6400C9409410C94764121
:100600000C94CA410C943D420C9445430C94080848
:100610000C94F0480C9410490C9443490C940A49EA
:100620000C942D490C9459490C9462430C94A243A8
:100630000C9419440C94BB430C94B0430C944A445E
:100640000C9403450C941C450C9426450C948D4544
:100650000C9499450C94A8450C94A4450C94B2456F
:100660000C94A6450C94B6450C94864E0C94F42834
:100670000C940D290C9408080C94E0070C94E407E2
:100680000C94B8250C94CB250C94EF250C941326D0
:100690000C9445260C9408080C940B080C940B0839
:1006A0000C940B080C940B080C940B080C940B087E
:1006B0000C940B080C940B080C940B080C940B086E
:1006C0000C94DB430C94F9430C94EC4D0C94694E60
:1006D0000C94E1490C94054A0C94174A0C94704A06
:1006E0000C94EE4A0C944E4B0C94AF4B0C94E24B92
:1006F0000C949C4C0C94124C0C94714D0C940C4E1C
:100700000C94FB390C94473A0C94533A0C94B63A37
:100710000C94A93B0C94A74B0C94A13A0C942E3B3F
:100720000C94223A0C94803C0C94973C0C94B13C71
:100730000C94F53C0C941F3D0C94533D0C94823D5D
:100740000C94B3360C9431350C94FD360C9423374D
:100750000C944B370C9426380C94AC370C94C83757
:100760000C9412350C9431350C9436350C94533569
:100770000C946E350C9488350C94A5350C942D365C
:100780000C940B080C940B080C940B080C940B089D
:100790000C940B080C940B080C940B080C940B088D
:1007A0000C940B080C940B080C940B080C940B087D
:1007B0000C940B080C940B080C9408080C94080873
:1007C0000000000000000000000000000000000029
:1007D0000000000000000000000000000000000019
:1007E0000000000000000000000000000000000009
:1007F00000000000000000000000000000000000F9
:100800000C947C530C9486530C948A530C944A5445
:100810000C94E1540C94FA540C940B550C94EF5432
:100820000C94ED590C94305A0C94635A0C946D5AF4
:100830000C94975A0C94A3590C94E1590C94665457
:100840000C942F560C9439560C943D560C949B5690
:100850000C940D570C9430570C9408080C94675660
:100860000C94D0560C9421570C94A75A0C94B55A5A
:100870000C94E65A0C9408080C9408080C9455291A
:100880000C9486540C94B3540C941D540C946D55D4
:100890000C94E9540C94A2530C94E3410C940E4232
:1008A0000C947F4E0C943C4F0C940A4F0C946E4E5B
:1008B0000C9408080C94D6530C9408080C94122736
:1008C0000C9465570C9408080C94B7570C94BE57B9
:1008D0000C94D4570C9408080C94E4570C94F357D8
:1008E0000C9402580C9408080C940B580C943B5828
:1008F0000C946B580C9408080C9497580C940808A6
:100900000C949B2B0C94E02B0C94E92B0C94F82B5F
:100910000C94FB2B0C94482C0C949B2C0C94A92C21
:100920000C94C62C0C94BC2C0C94CE2E0C944A2FF8
:100930000C94EC2E0C9408080C94D92C0C94E32CF9
:100940000C94ED2C0C94132D0C94612D0C94D52D3E
:100950000C946F2E0C94862E0C94AC2E0C943A2D85
:100960000C94D32D0C94222F0C940B080C940B0890
:100970000C94312F0C942B2D0C940B080C940B0819
:100980000C949F600C94D8600C94DE600C940C6105
:100990000C94ED600C9426610C946B610C942462B1
:1009A0000C9408080C94DE610C9402620C94826131
:1009B0000C9451610C94CB610C9408080C940808B9
:1009C0000C9495640C94C6640C94CC640C943F65B0
:1009D0000C948F650C94C9650C94DA650C94F365DE
:1009E0000C9465660C945D680C949D660C94D866B6
:1009F0000C94D6670C948A670C941E670C94C2669C
:100A00000C945A660C9484650C9448660C94DD65CD
:100A10000C946A680C943D660C9401660C946468AE
:100A20000C9497660C9497650C9475680C941066FA
:100A30000C941F680C9466670C947D690C94BE66D8
:100A40000C9408080C94A5260C9408080C947E4875
:100A50000C94F24F0C9408080C949E550C94CC55B1
:100A60000C947D550C9487550C948B550C94B25571
:100A70000C94E7550C94F9550C9408080C9408084C
:100A80000C9408080C9408080C9408080C940808A6
:100A90000C9408080C9408080C9408080C94080896
:100AA0000C9408080C9408080C9408080C94080886
:100AB0000C94A02A0C94FF2A0C94702A0C94080819
:100AC0000C940B080C940B080C9408080C94080860
:100AD0000C9408080C9408080C9408080C94080856
:100AE0000C94BE400C94A1410C94D6400C943A4115
:100AF0000C9460410C9408080C9408080C940808A5
:100B00000C94BC690C941F6A0C946F6A0C94D36AA1
:100B10000C94386B0C94036B0C94746B0C94E66A15
:100B20000C94296B0C9408080C94236C0C946A6C3C
:100B30000C94726C0C94806C0C94AE6C0C94080841
:100B40000C9499510C94FA510C9461520C943852B3
:100B50000C9492520C94696F0C94636D0C942C6FEE
:100B60000C94306D0C94A36D0C94A96D0C94226EB2
:100B70000C94406E0C94AB6E0C94C86E0C94EA6DA1
:100B80000C9448080C9456080C944B080C94590883
:100B90000C9450080C945E080C9408080C940808F7
:100BA0000C940F540C9408080C949F750C94AA751F
:100BB0000C9408080C9408080C9408080C94080875
:100BC0000000000000000000000000000000000025
:100BD0000000000000000000000000000000000015
:100BE0000000000000000000000000000000000005
:100BF00000000000000000000000000000000000F5
:100C00000C9454280C94D5270C9468280C94C9276C
:100C10000C9457280C945D280C9463280C940808B5
:100C20000C942E2C0C94382C0C940E2C0C94242CFC
:100C30000C94AD2D0C944C2E0C94872D0C94272ED7
:100C40000C94D6700C9463710C94EF700C94FA7041
:100C50000C9412710C9426710C943E710C94527188
:100C60000C9407730C94C7730C9489730C940974D7
:100C70000C943B740C9408080C94F82D0C940C2ED6
:100C80000C947E710C94CD710C94DD710C94F77101
:100C90000C9413720C94C0710C9411720C94090989
:100CA0000C94AF710C946F720C9474720C947972F2
:100CB0000C947C720C9491720C94F3090C940309BB
:100CC0000C94F0740C94FB740C94FE740C940B75DF
:100CD0000C941E750C9408080C94F54E0C94664EFA
:100CE0000C94734F0C94944F0C94994F0C94554F53
:100CF0000C94244E0C94394E0C943C4E0C94444E5F
:100D00000C94BD750C94C3750C94D1750C94C97575
:100D10000C94CD750C94DA750C94E5750C940876EA
:100D20000C941D760C9425760C943C760C944676A7
:100D30000C9450760C942D760C9435760C945B764E
:100D40000C947A760C94FC750C9408080C940808A2
:100D50000C9408080C9408080C9408080C940808D3
:100D60000C9408080C9408080C9408080C940808C3
:100D70000C9408080C9408080C9408080C940808B3
:100D80000C9408080C9408080C9408080C940808A3
:100FB0000C9408080C9408080C94E8070C94F907A2
:100FC0004098389A0C944E7C409A38980C944E7CF9
:100FD00006E9009384100E940C7CE2E3F0E00E949A
:100FE000017C0E940E7CE8ECF0E00E94017C0C94F5
:100FF0004E7C0E940F7C0E94117CF5CF03E20A9583
:10100000F1F711970000D1F7089500270C944F7C59
:1010100001E00C944F7C02E00C944F7CA7B1A07CC3
:10102000A02BA7B9A8B1A07CA12BA8B90E94027CD3
:101030000C944E7C0E94037CA7B1A07CA7B9A8B1F8
:10104000A07CA8B90C944E7CE0E0F8ECAF93BF9381
:101050000E94CF7EBF91AF91E53040F4AAE0B0E0AE
:10106000CDDF119799F70EE70C944F7C0C944E7CD2
:101070000E942D7EC0E0D8ECE8940E94CF7EE5303F
:1010800030F4AAE0B0E0BADF2197B9F76894089588
:1010900038B90C944E7CA8B1A32BA8B90C944E7C03
:1010A000A8B13095A323A8B90C944E7C37B90C9401
:1010B0004E7CA7B1A32BA7B90C944E7CA7B1309559
:1010C000A323A7B90C944E7C28B827B80E94027CB1
:1010D000ADE3A8B9A7E3A7B9089528B827B80E9437
:1010E000027CA7E3A8B9A7B9089528B827B80E9439
:1010F000037C089540980895409A0895AA2762E0D5
:1011000058E0A7FD429AA7FF429866B9AA0F339903
:10111000A39566B95A95A9F7089562E05FEFA7FD18
:10112000429AA7FF429866B9AA0F3399A39566B968
:101130005A95A9F70895AA2762E058E066B9A7FD75
:10114000429AA7FF429866B9AA0F3399A3955A9578
:10115000A9F708955F9358B15D7F052E5260152E53
:101160005F9108954427319B1DC0000000000000DE
:101170000000000000000000000000000000319BA3
:1011800011C000000000000000000000000000008E
:101190000000000000004A9531F703E34F914F91A2
:1011A0000C944F7C4427319907C04A95E1F704E33A
:1011B0004F914F910C944F7C0C94870A4427399897
:1011C000319B0DC000000000000000004A95C1F7EF
:1011D00003E34F914F914F914F910C944F7C4427D3
:1011E000319909C04A95E1F704E34F914F914F912E
:1011F0004F910C944F7C0C948A0A2BE0020F01BD96
:1012000035D00C944F7C2BE0020F01BD70D00C94B4
:101210004F7C2BE0020F01BD0C944E7C419A399A11
:10122000E3E0FF270E943A7E4198F0E127D00C943A
:101230004E7C41984098399A389AE2E3FF270E9401
:101240003A7E409A3898F0E0E0E0309906C0319755
:10125000E1F700E3089506E3089548EC309BFBCFE7
:10126000E1E0F0E00E943A7E4A95C1F7419A399A4E
:10127000E3E0FF270E943A7E4198F0E4E3E1EA953B
:10128000F1F7FA95D9F7419ABB27AA273998319BEC
:1012900006C0B395E1F701E30895319904C0A39521
:1012A000E1F703E308950E94057C0E940B7C399AC4
:1012B0000027089541984098399A389AE2E3FF2729
:1012C0000E943A7E409A3898F0E0E0E0309906C0FB
:1012D0003197E1F700E3089506E3089548EC309B69
:1012E000FBCFE1E0F0E00E943A7E4A95C1F7419AD7
:1012F000399AE3E0FF270E943A7E4198F0E4E3E167
:10130000EA95F1F7FA95D9F7419ABB27AA273998B8
:10131000319B06C0B395E1F701E3089531990EC002
:10132000A395000000000000000000000000000085
:1013300000000000000091F703E308950E94057C7F
:101340000E940B7C399A0027089541984098399A59
:10135000389A0E94037CE2E3FF270E943A7E0E94B3
:10136000027CE8ECFF270E943A7E409A37FF3898CB
:10137000F0E0E0E0309908C03197E1F700E30C9429
:101380004F7C06E30C944F7C48EC309BFACFE1E0B5
:10139000F0E00E943A7E4A95C1F7419A399AE3E01B
:1013A000FF270E943A7E4198F0E4E3E1EA95F1F7E5
:1013B000FA95D9F7419ABB27AA273998319B07C0DC
:1013C000B395E1F701E30C944F7C319905C0A395E7
:1013D000E1F702E30C944F7C0E94057C0E940B7C99
:1013E000399A0C944E7C41984098399A389A0E94C8
:1013F000037CE2E3FF270E943A7E0E94027CE8EC35
:10140000FF270E943A7E409A37FF3898F0E0E0E0EC
:10141000309908C03197E1F700E30C944F7C06E364
:101420000C944F7C48EC309BFACFE1E0F0E00E9456
:101430003A7E4A95C1F7419A399AE3E0FF270E9424
:101440003A7E4198F0E4E3E1EA95F1F7FA95D9F7AD
:10145000419ABB27AA273998319B07C0B395E1F77A
:1014600001E30C944F7C31990FC0A395000000005C
:10147000000000000000000000000000000000006C
:1014800091F702E30C944F7C0E94057C0E940B7C38
:10149000399A0C944E7CEAE0FF270E943A7E399AF2
:1014A000389A41984098E4E1FF270E94017C0E940D
:1014B000047C399838980C944E7CE0E6F1B5099498
:1014C000E0E8F1B50994E0E7F1B50994E0E9F1B598
:1014D0000994E0EAF1B50994E0EBF1B50994E0EC88
:1014E000F1B50994E0EEF1B50994E0EDF1B5099498
:1014F000E8EEF1B50994E0E0F1B50994E8E0F1B562
:101500000994E8E2F1B50994E0E3F1B50994E0E566
:10151000F1B50994E6E5F1B50994E3EFF1B5099465
:06152000E8EFF1B50994AB
:0616000048E0BA2F06C00D
:1016100040E1399A08B85AE15A95F1F7B7FD18B880
:101620005BE35A95F1F70000000018B8399858E1CB
:101630005A95F1F70000AA0FBB1F4A9551F708957C
:0416500048E007C0A7
:1016600040E1399A08B85AE15A95F1F700003998E3
:1016700018B856E25A95F1F70000AA0FBB1F31992E
:10168000A3955DE25A95F1F7000000004A9549F7ED
:021690000895BB
:0A16A0005EE65A95F1F70000089588
:1016AC0048E05CE85A95F1F700004A95D1F70895A7
:1016C000A0EE9EDFDC01A4DF0E94DE08E9DFC0DFC0
:0816D0000E94097C01960895B7
:1016E000A0EC8EDFDC0194DF0E94067C89DF0E9483
:0816F000DE08D6DF0196089523
:10170000A0EE7EDFDB0184DF0E94DE08C9DFA0CF10
:10172000AF93A0EC6DDFDB0173DFAF9169DF0E9447
:04173000DE08B6CF4A
:10174000A0EE5EDFDB0164DFB1DF8ADF60FFAB2F7D
:021750000895FA
:10176000AF93A0EC4DDFDB0153DFAF91BA2F50DF19
:041770009DDF08955C
:10178000A8EE3EDFDC0144DF91DF6ADF0E940A7CC5
:041790000296089520
:1017A000A8EC2EDFDC0134DF0E94077C31DF7EDF16
:0417B0000296089500
:0E17C000A8EE1EDFDB0124DF71DF4ADF089593
:1017D0009D01A8EC15DFDB011BDFD90119DF66CF06
:0817E600A4EE61E07FEFAACF41
:0A17F000AF93A4EC61E07FEFB5CFEA
:0618000048E0BA2F06C00B
:1018100040E1399A08B85CE05A95F1F70000000001
:10182000B7FD18B85DE15A95F1F70000000018B84F
:1018300039985BE05A95F1F7AA0FBB1F4A9549F713
:02184000089509
:0418500048E007C0A5
:1018600040E1399A08B85DE05A95F1F7399818B80F
:1018700052E15A95F1F70000AA0FBB1F3199A395C9
:0E18800056E15A95F1F700004A9559F7089580
:1018A00055E35A95F1F700000000089548E055E42B
:0C18B0005A95F1F700004A95D1F7089511
:1018C000A0EE9EDFDC01A4DF0E94DE08E9DFC0DFBE
:0818D0000E94097C01960895B5
:1018E000A0EC8EDFDC0194DF0E94067C89DF0E9481
:0818F000DE08D6DF0196089521
:10190000A0EE7EDFDB0184DF0E94DE08C9DFA0CF0E
:10192000AF93A0EC6DDFDB0173DFAF9169DF0E9445
:04193000DE08B6CF48
:10194000A0EE5EDFDB0164DFB1DF8ADF60FFAB2F7B
:021950000895F8
:10196000AF93A0EC4DDFDB0153DFAF91BA2F50DF17
:041970009DDF08955A
:10198000A8EE3EDFDC0144DF91DF6ADF0E940A7CC3
:04199000029608951E
:1019A000A8EC2EDFDC0134DF0E94077C31DF7EDF14
:0419B00002960895FE
:0E19C000A8EE1EDFDB0124DF71DF4ADF089591
:1019D0009D01A8EC15DFDB011BDFD90119DF66CF04
:0819E600A4EE61E07FEFAACF3F
:0A19F000AF93A4EC61E07FEFB5CFE8
:061A000048E0BA2F06C009
:101A100040E1399A08B858E05A95F1F70000B7FD4F
:101A200018B853E15A95F1F70000000018B839983A
:101A300056E05A95F1F700000000AA0FBB1F4A9527
:041A400041F70895CD
:041A500048E007C0A3
:101A600040E1399A08B858E05A95F1F700000000B3
:101A7000399818B85BE05A95F1F700000000AA0FFA
:101A8000BB1F3199A3955EE05A95F1F70000000065
:061A90004A9539F70895A4
:101AA00052E25A95F1F700000000089548E05EE226
:0A1AB0005A95F1F74A95D9F7089509
:101AC000A0EE9EDFDC01A4DF0E94DE08E9DFC0DFBC
:081AD0000E94097C01960895B3
:101AE000A0EC8EDFDC0194DF0E94067C89DF0E947F
:081AF000DE08D6DF019608951F
:101B0000A0EE7EDFDB0184DF0E94DE08C9DFA0CF0C
:101B2000AF93A0EC6DDFDB0173DFAF9169DF0E9443
:041B3000DE08B6CF46
:101B4000A0EE5EDFDB0164DFB1DF8ADF60FFAB2F79
:021B50000895F6
:101B6000AF93A0EC4DDFDB0153DFAF91BA2F50DF15
:041B70009DDF089558
:101B8000A8EE3EDFDC0144DF91DF6ADF0E940A7CC1
:041B9000029608951C
:101BA000A8EC2EDFDC0134DF0E94077C31DF7EDF12
:041BB00002960895FC
:0E1BC000A8EE1EDFDB0124DF71DF4ADF08958F
:101BD0009D01A8EC15DFDB011BDFD90119DF66CF02
:081BE600A4EE61E07FEFAACF3D
:0A1BF000AF93A4EC61E07FEFB5CFE6
:061C000048E0BA2F06C007
:101C100040E1399A08B856E05A95F1F7B7FD18B87F
:101C20005EE05A95F1F70000000018B8399854E0CA
:101C30005A95F1F70000AA0FBB1F4A9551F7089576
:041C500048E007C0A1
:101C600040E1399A08B856E05A95F1F700003998E2
:101C700018B858E05A95F1F70000AA0FBB1F319928
:101C8000A3955AE05A95F1F7000000004A9549F7EC
:021C90000895B5
:0A1CA00059E15A95F1F7000008958C
:0E1CAC0048E052E25A95F1F74A95D9F70895AB
:101CC000A0EE9EDFDC01A4DF0E94DE08E9DFC0DFBA
:081CD0000E94097C01960895B1
:101CE000A0EC8EDFDC0194DF0E94067C89DF0E947D
:081CF000DE08D6DF019608951D
:101D0000A0EE7EDFDB0184DF0E94DE08C9DFA0CF0A
:101D2000AF93A0EC6DDFDB0173DFAF9169DF0E9441
:041D3000DE08B6CF44
:101D4000A0EE5EDFDB0164DFB1DF8ADF60FFAB2F77
:021D50000895F4
:101D6000AF93A0EC4DDFDB0153DFAF91BA2F50DF13
:041D70009DDF089556
:101D8000A8EE3EDFDC0144DF91DF6ADF0E940A7CBF
:041D9000029608951A
:101DA000A8EC2EDFDC0134DF0E94077C31DF7EDF10
:041DB00002960895FA
:0E1DC000A8EE1EDFDB0124DF71DF4ADF08958D
:101DD0009D01A8EC15DFDB011BDFD90119DF66CF00
:081DE600A4EE61E07FEFAACF3B
:0A1DF000AF93A4EC61E07FEFB5CFE4
:061E000048E0BA2F06C005
:101E100040E1399A08B854E05A95F1F70000000003
:101E2000B7FD18B85BE05A95F1F70000000018B84C
:101E3000399853E05A95F1F7AA0FBB1F4A9549F715
:021E4000089503
:041E500048E007C09F
:101E600040E1399A08B855E05A95F1F7399818B811
:101E700056E05A95F1F70000AA0FBB1F3199A395C0
:0E1E800058E05A95F1F700004A9559F7089579
:101EA00053E15A95F1F70000000008955FED5A954F
:081EB000F1F7000000000895A5
:101EC000A0EE9EDFDC01A4DF0E94DE08E9DFC0DFB8
:081ED0000E94097C01960895AF
:101EE000A0EC8EDFDC0194DF0E94067C89DF0E947B
:081EF000DE08D6DF019608951B
:101F0000A0EE7EDFDB0184DF0E94DE08C9DFA0CF08
:101F2000AF93A0EC6DDFDB0173DFAF9169DF0E943F
:041F3000DE08B6CF42
:101F4000A0EE5EDFDB0164DFB1DF8ADF60FFAB2F75
:021F50000895F2
:101F6000AF93A0EC4DDFDB0153DFAF91BA2F50DF11
:041F70009DDF089554
:101F8000A8EE3EDFDC0144DF91DF6ADF0E940A7CBD
:041F90000296089518
:101FA000A8EC2EDFDC0134DF0E94077C31DF7EDF0E
:041FB00002960895F8
:0E1FC000A8EE1EDFDB0124DF71DF4ADF08958B
:101FD0009D01A8EC15DFDB011BDFD90119DF66CFFE
:081FE600A4EE61E07FEFAACF39
:0A1FF000AF93A4EC61E07FEFB5CFE2
:0620000048E0BA2F06C003
:1020100040E1399A08B853E05A95F1F70000000002
:10202000B7FD18B859E05A95F1F70000000018B84C
:10203000399852E05A95F1F70000AA0FBB1F4A9554
:0420400041F70895C7
:0420500048E007C09D
:1020600040E1399A08B854E05A95F1F7399818B810
:1020700055E05A95F1F7AA0FBB1F3199A39557E088
:0A2080005A95F1F74A9569F70895A3
:0820A00050E15A95F1F7089593
:0820AC005AEB5A95F1F7089573
:1020C000A0EE9EDFDC01A4DF0E94DE08E9DFC0DFB6
:0820D0000E94097C01960895AD
:1020E000A0EC8EDFDC0194DF0E94067C89DF0E9479
:0820F000DE08D6DF0196089519
:10210000A0EE7EDFDB0184DF0E94DE08C9DFA0CF06
:10212000AF93A0EC6DDFDB0173DFAF9169DF0E943D
:04213000DE08B6CF40
:10214000A0EE5EDFDB0164DFB1DF8ADF60FFAB2F73
:022150000895F0
:10216000AF93A0EC4DDFDB0153DFAF91BA2F50DF0F
:042170009DDF089552
:10218000A8EE3EDFDC0144DF91DF6ADF0E940A7CBB
:042190000296089516
:1021A000A8EC2EDFDC0134DF0E94077C31DF7EDF0C
:0421B00002960895F6
:0E21C000A8EE1EDFDB0124DF71DF4ADF089589
:1021D0009D01A8EC15DFDB011BDFD90119DF66CFFC
:0821E600A4EE61E07FEFAACF37
:0A21F000AF93A4EC61E07FEFB5CFE0
:0622000048E0BA2F06C001
:1022100040E1399A08B853E05A95F1F7B7FD18B87C
:1022200058E05A95F1F7000018B8399851E05A95DE
:10223000F1F700000000AA0FBB1F4A9551F708955F
:0422500048E007C09B
:1022600040E1399A08B853E05A95F1F700003998DF
:1022700018B854E05A95F1F7AA0FBB1F3199A395EE
:1022800055E05A95F1F7000000004A9551F708957E
:0A22A0005DE05A95F1F70000089583
:0822AC005FE95A95F1F708956E
:1022C000A0EE9EDFDC01A4DF0E94DE08E9DFC0DFB4
:0822D0000E94097C01960895AB
:1022E000A0EC8EDFDC0194DF0E94067C89DF0E9477
:0822F000DE08D6DF0196089517
:10230000A0EE7EDFDB0184DF0E94DE08C9DFA0CF04
:10232000AF93A0EC6DDFDB0173DFAF9169DF0E943B
:04233000DE08B6CF3E
:10234000A0EE5EDFDB0164DFB1DF8ADF60FFAB2F71
:022350000895EE
:10236000AF93A0EC4DDFDB0153DFAF91BA2F50DF0D
:042370009DDF089550
:10238000A8EE3EDFDC0144DF91DF6ADF0E940A7CB9
:042390000296089514
:1023A000A8EC2EDFDC0134DF0E94077C31DF7EDF0A
:0423B00002960895F4
:0E23C000A8EE1EDFDB0124DF71DF4ADF089587
:1023D0009D01A8EC15DFDB011BDFD90119DF66CFFA
:0823E600A4EE61E07FEFAACF35
:0A23F000AF93A4EC61E07FEFB5CFDE
:0624000048E0BA2F06C0FF
:1024100040E1399A08B852E05A95F1F700000000FF
:10242000B7FD18B857E05A95F1F7000018B8399879
:1024300051E05A95F1F7AA0FBB1F4A9551F708953D
:0424500048E007C099
:1024600040E1399A08B853E05A95F1F7399818B80D
:1024700053E05A95F1F70000AA0FBB1F3199A395BD
:0C24800055E05A95F1F74A9561F7089570
:0A24A0005BE05A95F1F70000089583
:0C24AC005AE85A95F1F70000000008956E
:1024C000A0EE9EDFDC01A4DF0E94DE08E9DFC0DFB2
:0824D0000E94097C01960895A9
:1024E000A0EC8EDFDC0194DF0E94067C89DF0E9475
:0824F000DE08D6DF0196089515
:10250000A0EE7EDFDB0184DF0E94DE08C9DFA0CF02
:10252000AF93A0EC6DDFDB0173DFAF9169DF0E9439
:04253000DE08B6CF3C
:10254000A0EE5EDFDB0164DFB1DF8ADF60FFAB2F6F
:022550000895EC
:10256000AF93A0EC4DDFDB0153DFAF91BA2F50DF0B
:042570009DDF08954E
:10258000A8EE3EDFDC0144DF91DF6ADF0E940A7CB7
:042590000296089512
:1025A000A8EC2EDFDC0134DF0E94077C31DF7EDF08
:0425B00002960895F2
:0E25C000A8EE1EDFDB0124DF71DF4ADF089585
:1025D0009D01A8EC15DFDB011BDFD90119DF66CFF8
:0825E600A4EE61E07FEFAACF33
:0A25F000AF93A4EC61E07FEFB5CFDC
:0626000048E0BA2F06C0FD
:1026100040E1399A08B852E05A95F1F70000B7FD49
:1026200018B856E05A95F1F7000018B8399800002C
:0C2630000000AA0FBB1F4A9561F7089537
:0426500048E007C097
:1026600040E1399A08B852E05A95F1F700000000AD
:10267000399818B852E05A95F1F700000000AA0FF7
:10268000BB1F3199A39554E05A95F1F700004A9584
:0426900041F7089571
:1026A00059E05A95F1F70000000008955BE75A954C
:0426B000F1F70895A1
:1026C000A0EE9EDFDC01A4DF0E94DE08E9DFC0DFB0
:0826D0000E94097C01960895A7
:1026E000A0EC8EDFDC0194DF0E94067C89DF0E9473
:0826F000DE08D6DF0196089513
:10270000A0EE7EDFDB0184DF0E94DE08C9DFA0CF00
:10272000AF93A0EC6DDFDB0173DFAF9169DF0E9437
:04273000DE08B6CF3A
:10274000A0EE5EDFDB0164DFB1DF8ADF60FFAB2F6D
:022750000895EA
:10276000AF93A0EC4DDFDB0153DFAF91BA2F50DF09
:042770009DDF08954C
:10278000A8EE3EDFDC0144DF91DF6ADF0E940A7CB5
:042790000296089510
:1027A000A8EC2EDFDC0134DF0E94077C31DF7EDF06
:0427B00002960895F0
:0E27C000A8EE1EDFDB0124DF71DF4ADF089583
:1027D0009D01A8EC15DFDB011BDFD90119DF66CFF6
:0827E600A4EE61E07FEFAACF31
:0A27F000AF93A4EC61E07FEFB5CFDA
:0628000048E0BA2F06C0FB
:1028100040E1399A08B852E05A95F1F7B7FD18B877
:1028200055E05A95F1F70000000018B839980000FB
:0A283000AA0FBB1F4A9569F708952F
:0428500048E007C095
:1028600040E1399A08B852E05A95F1F700003998DA
:1028700018B852E05A95F1F70000AA0FBB1F319922
:10288000A39553E05A95F1F7000000004A9549F7E7
:022890000895A9
:0A28A00058E05A95F1F70000089582
:0A28AC005EE65A95F1F7000008956A
:1028C000A0EE9EDFDC01A4DF0E94DE08E9DFC0DFAE
:0828D0000E94097C01960895A5
:1028E000A0EC8EDFDC0194DF0E94067C89DF0E9471
:0828F000DE08D6DF0196089511
:10290000A0EE7EDFDB0184DF0E94DE08C9DFA0CFFE
:10292000AF93A0EC6DDFDB0173DFAF9169DF0E9435
:04293000DE08B6CF38
:10294000A0EE5EDFDB0164DFB1DF8ADF60FFAB2F6B
:022950000895E8
:10296000AF93A0EC4DDFDB0153DFAF91BA2F50DF07
:042970009DDF08954A
:10298000A8EE3EDFDC0144DF91DF6ADF0E940A7CB3
:04299000029608950E
:1029A000A8EC2EDFDC0134DF0E94077C31DF7EDF04
:0429B00002960895EE
:0E29C000A8EE1EDFDB0124DF71DF4ADF089581
:1029D0009D01A8EC15DFDB011BDFD90119DF66CFF4
:0829E600A4EE61E07FEFAACF2F
:0A29F000AF93A4EC61E07FEFB5CFD8
:062A000048E0BA2F06C0F9
:102A100040E1399A08B851E05A95F1F700000000FA
:102A2000B7FD18B855E05A95F1F718B83998000075
:0A2A3000AA0FBB1F4A9569F708952D
:042A500048E007C093
:102A600040E1399A08B852E05A95F1F7399818B808
:102A700052E05A95F1F7AA0FBB1F3199A39553E085
:0C2A80005A95F1F700004A9561F708959F
:0A2AA00057E05A95F1F70000089581
:082AAC0054E65A95F1F7089574
:102AC000A0EE9EDFDC01A4DF0E94DE08E9DFC0DFAC
:082AD0000E94097C01960895A3
:102AE000A0EC8EDFDC0194DF0E94067C89DF0E946F
:082AF000DE08D6DF019608950F
:102B0000A0EE7EDFDB0184DF0E94DE08C9DFA0CFFC
:102B2000AF93A0EC6DDFDB0173DFAF9169DF0E9433
:042B3000DE08B6CF36
:102B4000A0EE5EDFDB0164DFB1DF8ADF60FFAB2F69
:022B50000895E6
:102B6000AF93A0EC4DDFDB0153DFAF91BA2F50DF05
:042B70009DDF089548
:102B8000A8EE3EDFDC0144DF91DF6ADF0E940A7CB1
:042B9000029608950C
:102BA000A8EC2EDFDC0134DF0E94077C31DF7EDF02
:042BB00002960895EC
:0E2BC000A8EE1EDFDB0124DF71DF4ADF08957F
:102BD0009D01A8EC15DFDB011BDFD90119DF66CFF2
:082BE600A4EE61E07FEFAACF2D
:0A2BF000AF93A4EC61E07FEFB5CFD6
:062C000048E0BA2F06C0F7
:102C100040E1399A08B851E05A95F1F700000000F8
:102C2000B7FD18B854E05A95F1F70000000018B845
:0C2C30003998AA0FBB1F4A9561F7089560
:042C500048E007C091
:102C600040E1399A08B852E05A95F1F7399818B806
:102C700051E05A95F1F700000000AA0FBB1F3199EF
:0E2C8000A39553E05A95F1F74A9559F7089538
:0A2CA00056E05A95F1F70000089580
:0A2CAC005BE55A95F1F7000008956A
:102CC000A0EE9EDFDC01A4DF0E94DE08E9DFC0DFAA
:082CD0000E94097C01960895A1
:102CE000A0EC8EDFDC0194DF0E94067C89DF0E946D
:082CF000DE08D6DF019608950D
:102D0000A0EE7EDFDB0184DF0E94DE08C9DFA0CFFA
:102D2000AF93A0EC6DDFDB0173DFAF9169DF0E9431
:042D3000DE08B6CF34
:102D4000A0EE5EDFDB0164DFB1DF8ADF60FFAB2F67
:022D50000895E4
:102D6000AF93A0EC4DDFDB0153DFAF91BA2F50DF03
:042D70009DDF089546
:102D8000A8EE3EDFDC0144DF91DF6ADF0E940A7CAF
:042D9000029608950A
:102DA000A8EC2EDFDC0134DF0E94077C31DF7EDF00
:042DB00002960895EA
:0E2DC000A8EE1EDFDB0124DF71DF4ADF08957D
:102DD0009D01A8EC15DFDB011BDFD90119DF66CFF0
:082DE600A4EE61E07FEFAACF2B
:0A2DF000AF93A4EC61E07FEFB5CFD4
:062E000048E0BA2F06C0F5
:102E100040E1399A08B851E05A95F1F70000B7FD42
:102E200018B854E05A95F1F7000018B83998AA0F6D
:082E3000BB1F4A9571F70895DC
:042E500048E007C08F
:102E600040E1399A08B851E05A95F1F700000000A6
:102E7000399818B851E05A95F1F70000AA0FBB1F16
:102E80003199A39552E05A95F1F7000000004A9558
:042E900041F7089569
:102EA00055E05A95F1F700000000089554E55A9551
:062EB000F1F70000089597
:102EC000A0EE9EDFDC01A4DF0E94DE08E9DFC0DFA8
:082ED0000E94097C019608959F
:102EE000A0EC8EDFDC0194DF0E94067C89DF0E946B
:082EF000DE08D6DF019608950B
:102F0000A0EE7EDFDB0184DF0E94DE08C9DFA0CFF8
:102F2000AF93A0EC6DDFDB0173DFAF9169DF0E942F
:042F3000DE08B6CF32
:102F4000A0EE5EDFDB0164DFB1DF8ADF60FFAB2F65
:022F50000895E2
:102F6000AF93A0EC4DDFDB0153DFAF91BA2F50DF01
:042F70009DDF089544
:102F8000A8EE3EDFDC0144DF91DF6ADF0E940A7CAD
:042F90000296089508
:102FA000A8EC2EDFDC0134DF0E94077C31DF7EDFFE
:042FB00002960895E8
:0E2FC000A8EE1EDFDB0124DF71DF4ADF08957B
:102FD0009D01A8EC15DFDB011BDFD90119DF66CFEE
:082FE600A4EE61E07FEFAACF29
:0A2FF000AF93A4EC61E07FEFB5CFD2
:0630000048E0BA2F06C0F3
:1030100040E1399A08B851E05A95F1F70000B7FD40
:1030200018B854E05A95F1F718B839980000000024
:0A303000AA0FBB1F4A9569F7089527
:0430500048E007C08D
:1030600040E1399A08B851E05A95F1F700000000A4
:10307000399818B851E05A95F1F70000AA0FBB1F14
:103080003199A39552E05A95F1F700004A9549F716
:023090000895A1
:0830A00055E05A95F1F708957F
:0830AC005EE45A95F1F7089566
:1030C000A0EE9EDFDC01A4DF0E94DE08E9DFC0DFA6
:0830D0000E94097C019608959D
:1030E000A0EC8EDFDC0194DF0E94067C89DF0E9469
:0830F000DE08D6DF0196089509
:10310000A0EE7EDFDB0184DF0E94DE08C9DFA0CFF6
:10312000AF93A0EC6DDFDB0173DFAF9169DF0E942D
:04313000DE08B6CF30
:10314000A0EE5EDFDB0164DFB1DF8ADF60FFAB2F63
:023150000895E0
:10316000AF93A0EC4DDFDB0153DFAF91BA2F50DFFF
:043170009DDF089542
:10318000A8EE3EDFDC0144DF91DF6ADF0E940A7CAB
:043190000296089506
:1031A000A8EC2EDFDC0134DF0E94077C31DF7EDFFC
:0431B00002960895E6
:0E31C000A8EE1EDFDB0124DF71DF4ADF089579
:1031D0009D01A8EC15DFDB011BDFD90119DF66CFEC
:0831E600A4EE61E07FEFAACF27
:0A31F000AF93A4EC61E07FEFB5CFD0
:0632000048E0BA2F06C0F1
:1032100040E1399A08B851E05A95F1F7B7FD18B86E
:1032200053E05A95F1F70000000018B839980000F3
:0C3230000000AA0FBB1F4A9561F708952B
:0432500048E007C08B
:1032600040E1399A08B851E05A95F1F700003998D1
:1032700018B851E05A95F1F7AA0FBB1F3199A395E1
:0E32800052E05A95F1F700004A9559F708956B
:1032A00054E05A95F1F700000000089558E45A954B
:0832B000F1F700000000089591
:1032C000A0EE9EDFDC01A4DF0E94DE08E9DFC0DFA4
:0832D0000E94097C019608959B
:1032E000A0EC8EDFDC0194DF0E94067C89DF0E9467
:0832F000DE08D6DF0196089507
:10330000A0EE7EDFDB0184DF0E94DE08C9DFA0CFF4
:10332000AF93A0EC6DDFDB0173DFAF9169DF0E942B
:04333000DE08B6CF2E
:10334000A0EE5EDFDB0164DFB1DF8ADF60FFAB2F61
:023350000895DE
:10336000AF93A0EC4DDFDB0153DFAF91BA2F50DFFD
:043370009DDF089540
:10338000A8EE3EDFDC0144DF91DF6ADF0E940A7CA9
:043390000296089504
:1033A000A8EC2EDFDC0134DF0E94077C31DF7EDFFA
:0433B00002960895E4
:0E33C000A8EE1EDFDB0124DF71DF4ADF089577
:1033D0009D01A8EC15DFDB011BDFD90119DF66CFEA
:0833E600A4EE61E07FEFAACF25
:0A33F000AF93A4EC61E07FEFB5CFCE
:0634000048E0BA2F06C0EF
:1034100040E1399A08B851E05A95F1F7B7FD18B86C
:1034200053E05A95F1F7000018B839980000AA0F38
:08343000BB1F4A9571F70895D6
:0434500048E007C089
:1034600040E1399A08B851E05A95F1F700003998CF
:1034700018B851E05A95F1F7AA0FBB1F3199A395DF
:0C34800052E05A95F1F74A9561F7089563
:0834A00054E05A95F1F708957C
:0834AC0054E45A95F1F708956C
:1034C000A0EE9EDFDC01A4DF0E94DE08E9DFC0DFA2
:0834D0000E94097C0196089599
:1034E000A0EC8EDFDC0194DF0E94067C89DF0E9465
:0834F000DE08D6DF0196089505
:10350000A0EE7EDFDB0184DF0E94DE08C9DFA0CFF2
:10352000AF93A0EC6DDFDB0173DFAF9169DF0E9429
:04353000DE08B6CF2C
:10354000A0EE5EDFDB0164DFB1DF8ADF60FFAB2F5F
:023550000895DC
:10356000AF93A0EC4DDFDB0153DFAF91BA2F50DFFB
:043570009DDF08953E
:10358000A8EE3EDFDC0144DF91DF6ADF0E940A7CA7
:043590000296089502
:1035A000A8EC2EDFDC0134DF0E94077C31DF7EDFF8
:0435B00002960895E2
:0E35C000A8EE1EDFDB0124DF71DF4ADF089575
:1035D0009D01A8EC15DFDB011BDFD90119DF66CFE8
:0835E600A4EE61E07FEFAACF23
:1035F000AF93A4EC61E07FEFB5CF409A389AB8B1B1
:10360000BE7FB8B9F9E000000000E3E0EA95F1F709
:1036100000000000BE7F0894A79508F4B160B8B917
:10362000FA9599F7E4E0EA95F1F70895EE27FF2778
:103630006894309B04C03197E1F7E8940895E7E07F
:10364000EA95F1F7F8E0A6953099A068E3E0EA95ED
:10365000F1F700000000FA95B1F7309BFECF089516
:10366000409A389AB8B1BE7FB8B9F9E000000000BE
:103670000000EAE0EA95F1F7B8B1BE7F0894A7959B
:1036800008F4B160B8B9FA95A1F7EEE0EA95F1F760
:1036900038980895EE27FF276894309B04C031972F
:1036A000E1F7E8940895EFE0EA95F1F7F8E0A695E0
:1036B0003099A068EBE0EA95F1F70000FA95B9F7C8
:1036C000309BFECF0895409A389AB8B1BE7FB8B902
:1036D000F9E0000000000000E7E1EA95F1F70000E2
:1036E000B8B1BE7F0894A79508F4B160B8B9FA954F
:1036F00099F7EAE5EA95F1F70895409A389AB8B152
:10370000BE7FB8B9F9E0000000000000E7E1EA95EB
:10371000F1F70000B8B1BE7F0894A79508F4B16036
:10372000B8B9FA9599F7E0E1EA95F1F73898089574
:10373000EE27FF276894309B04C03197E1F7E894A7
:103740000895E3E2EA95F1F7F8E0A6953099A068CC
:10375000E8E1EA95F1F700000000FA95B1F7309B37
:10376000FECF0895409A389AB8B1BE7FB8B9F9E053
:10377000000000000000E0EDEA95000000000000FD
:103780000000000000000000B9F7B8B1BE7F089447
:10379000A79508F4B160B8B9FA9569F7E1EDEA9533
:1037A0000000000000000000000000000000B9F769
:1037B00038980895EE27FF276894309B0EC00000CC
:1037C00000000000000000000000000000000000F9
:1037D000319799F7E8940895E0EEEA95000000002B
:1037E00000000000000000000000000000000000D9
:1037F000000099F7F8E0A6953099A068E0EDEA9509
:103800000000000000000000000000000000B9F708
:103810000000FA9581F7E4E8EA9500000000000056
:1038200000000000C9F70895EF93FF93AF93409A0B
:10383000389AB8B1BE7FB8B9F9E0000000000000C6
:10384000ECEAEA95F1F7B8B1BE7F0894A79508F4C1
:10385000B160B8B9FA95A1F7ECEAEA95F1F7AF9142
:10386000FF91EF910895EF93FF93EE27FF2738988C
:103870006894AA27309B08C0AA95E1F73197C9F749
:10388000E894FF91EF910895E4ECEA950000E9F7E0
:10389000F8E0A6953099A068ECEAEA95F1F7FA9578
:1038A000C1F7E7E5EA95F1F7FF91EF910895EF93FE
:1038B000FF93AF93409A389AB8B1BE7FB8B9F9E098
:1038C000000000000000E7E3EA95F1F7B8B1BE7F21
:1038D0000894A79508F4B160B8B9FA95A1F7E7E3A1
:1038E000EA95F1F7AF91FF91EF9108953898EF9332
:1038F000FF93EE27FF276894AA27309B08C0AA955C
:10390000E1F73197C9F7E894FF91EF910895E6E464
:10391000EA95F1F7F8E0A6953099A068E8E3EA9512
:10392000F1F7FA95C1F7ECE1EA95F1F7FF91EF9124
:103930000895EF93FF93AF93BF934F934427409A1B
:10394000389AB8B1BE7FB8B9F8E0000000000000B6
:10395000E7E3EA95F1F74A27B8B1BE7F0894A79547
:1039600008F4B160B8B9FA9599F7E7E3EA95F1F789
:10397000B8B1BE7F0894479508F4B160B8B9E9E3DF
:10398000EA95F1F7B160B8B9E7E3EA95F1F74F913D
:10399000BF91AF91FF91EF9108953898EF93FF9306
:1039A000EE27FF276894AA27309B08C0AA95E1F765
:1039B0003197C9F7E894FF91EF910895E6E4EA950D
:1039C000F1F7F8E0A6953099A068E8E3EA95F1F7F9
:1039D000FA95C1F7E4E5EA95F1F7FF91EF910895C3
:1039E000409A389AB8B1BE7FB8B9F9E0000000003B
:1039F0000000E8E6EA95000000000000000000007A
:103A000000000000B9F7B8B1BE7F0894A79508F48C
:103A1000B160B8B9FA9569F7E2E4EA9500000000F0
:103A200000000000000000000000B9F70895EE2734
:103A3000FF276894309B0DC00000000000000000CC
:103A400000000000000000000000319799F7E894A2
:103A50000895E8E7EA95000000000000000000007B
:103A600000000000000000000000000099F7F8E0EE
:103A7000A6953099A068E7E6EA95000000000000EE
:103A80000000000000000000B9F70000FA9581F77F
:103A9000E2E4EA9500000000000000000000C9F721
:103AA0000895EE27F0E06894AA27309BFCCD309B68
:103AB000FACD309BF8CD309BF6CDAA95B1F7319772
:103AC00099F7E8940895419A399AB8B1BD7FB8B989
:103AD000F9E000000000E3E0EA95F1F700000000E3
:103AE000BD7F0894A79508F4B260B8B9FA9599F724
:103AF000E4E0EA95F1F70895EE27FF276894319BFB
:103B000004C03197E1F7E8940895E7E0EA95F1F70A
:103B1000F8E0A6953199A068E3E0EA95F1F7000096
:103B20000000FA95B1F7319BFECF0895419A399A7A
:103B3000B8B1BD7FB8B9F9E0000000000000EAE0CC
:103B4000EA95F1F7B8B1BD7F0894A79508F4B26083
:103B5000B8B9FA95A1F7EDE2EA95F1F73998089529
:103B6000419A399AB8B1BD7FB8B9F9E000000000B8
:103B70000000EAE0EA95F1F7B8B1BD7F0894A79597
:103B800008F4B260B8B9FA95A1F7E6E0EA95F1F762
:103B900039980895EE27FF276894AA27319B06C01D
:103BA000AA95E1F73197C9F7E8940895EFE0EA950F
:103BB000F1F7F8E0A6953199A068EBE0EA95F1F706
:103BC0000000FA95B9F7319BFECF0895419A399AD2
:103BD000B8B1BD7FB8B9F9E0000000000000E7E12E
:103BE000EA95F1F70000B8B1BD7F0894A79508F4F5
:103BF000B260B8B9FA9599F7EAE5EA95F1F7089550
:103C0000419A399AB8B1BD7FB8B9F9E00000000017
:103C10000000E7E1EA95F1F70000B8B1BD7F089434
:103C2000A79508F4B260B8B9FA9599F7E0E1EA957A
:103C3000F1F739980895EE27FF276894319B04C067
:103C40003197E1F7E8940895E3E2EA95F1F7F8E0B7
:103C5000A6953199A068E8E1EA95F1F70000000027
:103C6000FA95B1F7319BFECF0895419A399AB8B1D0
:103C7000BD7FB8B9F9E0000000000000E0EDEA9572
:103C80000000000000000000000000000000B9F784
:103C9000B8B1BD7F0894A79508F4B260B8B9FA9599
:103CA00069F7E1EDEA950000000000000000000067
:103CB00000000000B9F739980895419A399AB8B1CF
:103CC000BD7FB8B9F9E0000000000000E0EDEA9522
:103CD0000000000000000000000000000000B9F734
:103CE000B8B1BD7F0894A79508F4B260B8B9FA9549
:103CF00069F7E4E1EA950000000000000000000020
:103D000000000000B9F70895EE27FF276894319B63
:103D10000EC00000000000000000000000000000D5
:103D200000000000319799F7E8940895E0EEEA95D5
:103D30000000000000000000000000000000000083
:103D400000000000000099F7F8E0A6953199A068FE
:103D5000E0EDEA9500000000000000000000000017
:103D60000000B9F70000FA9581F7E4E8EA95000051
:103D70000000000000000000C9F70895EF93FF93D2
:103D8000AF93419A399AB8B1BD7FB8B9F9E0000054
:103D900000000000ECEAEA95F1F7B8B1BD7F0894A5
:103DA000A79508F4B260B8B9FA95A1F7ECEAEA95DC
:103DB000F1F7AF91FF91EF910895EF93FF93AF93D8
:103DC000419A399AB8B1BD7FB8B9F9E00000000056
:103DD0000000ECEAEA95F1F7B8B1BD7F0894A79529
:103DE00008F4B260B8B9FA95A1F7EAE0EA95F1F7FC
:103DF000AF91FF91EF910895EF93FF93EE27FF2787
:103E000039986894AA27319B08C0AA95E1F73197A1
:103E1000C9F7E894FF91EF910895E4ECEA9500006A
:103E2000E9F7F8E0A6953199A068ECEAEA95F1F790
:103E3000FA95C1F7E7E5EA95F1F7FF91EF9108955B
:103E4000EF93FF93AF93419A399AB8B1BD7FB8B958
:103E5000F9E0000000000000E7E3EA95F1F7B8B1EF
:103E6000BD7F0894A79508F4B260B8B9FA95A1F798
:103E7000E7E3EA95F1F7AF91FF91EF910895399853
:103E8000EF93FF93EE27FF276894AA27319B08C082
:103E9000AA95E1F73197C9F7E894FF91EF9108955A
:103EA000E6E4EA95F1F7F8E0A6953199A068E8E331
:103EB000EA95F1F7FA95C1F7ECE1EA95F1F7FF9190
:103EC000EF910895419A399AB8B1BD7FB8B9F9E038
:103ED000000000000000E8E6EA9500000000000095
:103EE0000000000000000000B9F7B8B1BD7F0894E1
:103EF000A79508F4B260B8B9FA9569F7E2E4EA95D3
:103F00000000000000000000000000000000B9F701
:103F10000895419A399AB8B1BD7FB8B9F9E0000067
:103F200000000000E8E6EA95000000000000000044
:103F3000000000000000B9F7B8B1BD7F0894A79554
:103F400008F4B260B8B9FA9569F7EAE0EA950000BA
:103F5000000000000000000000000000B9F7089514
:103F6000EE27FF276894319B0DC000000AD009D0CE
:103F700008D007D00000000000000000319799F73A
:103F8000E8940895E8E7EA950000000000000000CA
:103F9000000000000000000000000000000099F791
:103FA000F8E0A6953199A068E7E6EA9500000000E0
:103FB00000000000000000000000B9F70000FA95C2
:103FC00081F7E2E4EA950000000000000000000034
:103FD000C9F70895EE27FF276894319B0DC00000B4
:103FE00000000000000000000000000000000000D1
:103FF000319799F7E8940895E0E6EA95000000000B
:1040000000000000000000000000000000000000B0
:10401000000099F7F8E0A6953199A068E3E5EA95E4
:104020000000000000000000000000000000B9F7E0
:104030000000FA9581F7E4E3EA9500000000000033
:1040400000000000C9F70895EE27FF276894319B10
:104050000DC0000000000000000000000000000093
:1040600000000000319799F7E8940895E0E3EA959D
:104070000000000000000000000000000000000040
:1040800000000000000099F7F8E0A6953199A068BB
:10409000EAE2EA95000000000000000000000000D5
:1040A0000000B9F70000FA9581F7EAE1EA9500000F
:1040B0000000000000000000C9F70895EE27F0E0BE
:1040C0006894AA27319B72CD319B70CD319B6ECD08
:1040D000319B6CCDAA95B1F7319799F7E894089583
:1040E000CE0193700E94057C0196019741F0E1E0BA
:1040F000F0E00E94017C0E94067C2ED1F6CF0E9447
:10410000057C8AB59BB593700196019729F0A2D3DF
:104110002EF40E94097CF9CF0C944E7C01E90C949A
:104120004F7CCE0193700E94057C0196019741F06F
:10413000E1E0F0E00E94017C0E94067C68D1F6CFAD
:104140000E94057C8AB59BB593700196019729F072
:10415000DAD32EF40E94097CF9CF0C944E7C01E94D
:104160000C944F7CCE0197700E94057C01960197BC
:1041700041F0E1E0F0E00E94017C0E94067C8AD1DF
:10418000F6CF0E94057C8AB59BB597700196019782
:1041900029F0FCD32EF40E94097CF9CF0C944E7CBC
:1041A00001E90C944F7CCE0193700E94057C01962E
:1041B000019741F0E1E0F0E00E94017C0E94067C62
:1041C00049D0F6CF0E94057C8AB59BB593700196C5
:1041D000019741F0AFD2E3E0EA95F1F72EF40E94A7
:1041E000097CF6CF0C944E7C01E90C944F7C429AEA
:1041F0003A9AB8B1BB7FB8B9F9E000000000E3E03B
:10420000EA95F1F700000000BB7F0894A79508F439
:10421000B460B8B9FA9599F7E4E0EA95F1F7089532
:10422000EE27FF276894329B04C03197E1F7E894AA
:104230000895E7E0EA95F1F7F8E0A6953299A068CD
:10424000E3E0EA95F1F700000000FA95B1F7329B40
:10425000FECF0895429A3A9AB8B1BB7FB8B9F9E057
:10426000000000000000EAE0EA95F1F7B8B1BB7F7A
:104270000894A79508F4B460B8B9FA95A1F7EEE0F0
:10428000EA95F1F73A980895EE27FF276894329B54
:1042900004C03197E1F7E8940895EFE0EA95F1F76B
:1042A000F8E0A6953299A068EBE0EA95F1F70000F6
:1042B000FA95B9F7329BFECF0895429A3A9AB8B16F
:1042C000BB7FB8B9F9E0000000000000E7E1EA9523
:1042D000F1F70000B8B1BB7F0894A79508F4B4606B
:1042E000B8B9FA9599F7EAE5EA95F1F70895429A8F
:1042F0003A9AB8B1BB7FB8B9F9E0000000000000FD
:10430000E7E1EA95F1F70000B8B1BB7F0894A79503
:1043100008F4B460B8B9FA9599F7E0E1EA95F1F7D5
:104320003A980895EE27FF276894329B04C031978E
:10433000E1F7E8940895E3E2EA95F1F7F8E0A6954D
:104340003299A068E8E1EA95F1F700000000FA95DB
:10435000B1F7329BFECF0895429A3A9AB8B1BB7F2B
:10436000B8B9F9E0000000000000E0EDEA950000B7
:10437000000000000000000000000000B9F7B8B124
:10438000BB7F0894A79508F4B460B8B9FA9569F7AB
:10439000E0E0EA95F1F73A980895EE27FF27689450
:1043A000329B0EC000000000000000000000000072
:1043B000000000000000319799F7E8940895E0EEBE
:1043C000EA9500000000000000000000000000006E
:1043D000000000000000000099F7F8E0A69532996F
:1043E000A068E0EDEA950000000000000000000079
:1043F00000000000B9F70000FA9581F7E4E8EA95BB
:1044000000000000000000000000C9F70895EF93CD
:10441000FF93AF93429A3A9AB8B1BB7FB8B9F9E02B
:10442000000000000000ECEAEA95F1F7B8B1BB7FAC
:104430000894A79508F4B460B8B9FA95A1F7ECEA26
:10444000EA95F1F7AF91FF91EF910895EF93FF9304
:10445000EE27FF273A986894AA27329B08C0AA95AE
:10446000E1F73197C9F7E894FF91EF910895E4ECF3
:10447000EA950000E9F7F8E0A6953299A068ECEA21
:10448000EA95F1F7FA95C1F7E7E5EA95F1F7FF91BB
:10449000EF910895EF93FF93AF93429A3A9AB8B190
:1044A000BB7FB8B9F9E0000000000000E7E3EA953F
:1044B000F1F7B8B1BB7F0894A79508F4B460B8B918
:1044C000FA95A1F7E7E3EA95F1F7AF91FF91EF9144
:1044D00008953A98EF93FF93EE27FF276894AA2751
:1044E000329B08C0AA95E1F73197C9F7E894FF918C
:1044F000EF910895E6E4EA95F1F7F8E0A695329990
:10450000A068E8E3EA95F1F7FA95C1F7ECE1EA95DE
:10451000F1F7FF91EF910895429A3A9AB8B1BB7FB3
:10452000B8B9F9E0000000000000E8E6EA950000F4
:10453000000000000000000000000000B9F7B8B162
:10454000BB7F0894A79508F4B460B8B9FA9569F7E9
:10455000E2E4EA9500000000000000000000000016
:104560000000B9F70895EE27FF276894329B0DC02D
:10457000000000000000000000000000000000003B
:104580000000319799F7E8940895E8E7EA9500006C
:10459000000000000000000000000000000000001B
:1045A0000000000099F7F8E0A6953299A068E7E6C8
:1045B000EA9500000000000000000000000000007C
:1045C000B9F70000FA9581F7E2E4EA9500000000EF
:1045D000000000000000C9F70895EE27F0E068949D
:1045E000AA27329B5ACE329B58CE329B56CE329B54
:1045F00054CEAA95B1F7319799F7E8940895429A65
:104600003A9AB8B1BB7FB8B9F9E0000000000000E9
:10461000E3E5EA9500000000000000000000000053
:104620000000B9F7B8B1BB7F0894A79508F4B4604F
:10463000B8B9FA9569F7E4E3EA95000000000000D4
:104640000000000000000000B9F70895429A3A9A6D
:10465000B8B1BB7FB8B9F9E0000000000000E9E2A2
:10466000EA950000000000000000000000000000CB
:10467000B9F7B8B1BB7F0894A79508F4B460B8B98E
:10468000FA9569F7EAE1EA950000000000000000F1
:10469000000000000000B9F70895439A3B9AB8B1B2
:1046A000B77FB8B9F9E000000000E3E0EA95F1F760
:1046B00000000000B77F0894A79508F4B860B8B967
:1046C000FA9599F7E4E0EA95F1F70895EE27FF27C8
:1046D0006894339B04C03197E1F7E8940895E7E0CC
:1046E000EA95F1F7F8E0A6953399A068E3E0EA953A
:1046F000F1F700000000FA95B1F7339BFECF089563
:10470000439A3B9AB8B1B77FB8B9F9E0000000000E
:104710000000EAE0EA95F1F7B8B1B77F0894A795F1
:1047200008F4B860B8B9FA95A1F7EEE0EA95F1F7A8
:104730003B980895EE27FF276894339B04C0319778
:10474000E1F7E8940895EFE0EA95F1F7F8E0A6952F
:104750003399A068EBE0EA95F1F70000FA95B9F714
:10476000339BFECF0895439A3B9AB8B1B77FB8B94F
:10477000F9E0000000000000E7E1EA95F1F7000031
:10478000B8B1B77F0894A79508F4B860B8B9FA959E
:1047900099F7EAE5EA95F1F70895439A3B9AB8B19B
:1047A000B77FB8B9F9E0000000000000E7E1EA9542
:1047B000F1F70000B8B1B77F0894A79508F4B86086
:1047C000B8B9FA9599F7E0E1EA95F1F73B980895C1
:1047D000EE27FF276894339B04C03197E1F7E894F4
:1047E0000895E3E2EA95F1F7F8E0A6953399A06819
:1047F000E8E1EA95F1F700000000FA95B1F7339B84
:10480000FECF0895439A3B9AB8B1B77FB8B9F9E0A3
:10481000000000000000E0EDEA950000000000004C
:104820000000000000000000B9F7B8B1B77F08949D
:10483000A79508F4B860B8B9FA9569F7E1EDEA957B
:104840000000000000000000000000000000B9F7B8
:104850003B980895EE27FF276894339B0EC0000015
:104860000000000000000000000000000000000048
:10487000319799F7E8940895E0EEEA95000000007A
:104880000000000000000000000000000000000028
:10489000000099F7F8E0A6953399A068E0EDEA9555
:1048A0000000000000000000000000000000B9F758
:1048B0000000FA9581F7E4E8EA95000000000000A6
:1048C00000000000C9F70895EF93FF93AF93439A58
:1048D0003B9AB8B1B77FB8B9F9E00000000000001A
:1048E000ECEAEA95F1F7B8B1B77F0894A79508F418
:1048F000B860B8B9FA95A1F7ECEAEA95F1F7AF918B
:10490000FF91EF910895EF93FF93EE27FF273B98D8
:104910006894AA27339B08C0AA95E1F73197C9F795
:10492000E894FF91EF910895E4ECEA950000E9F72F
:10493000F8E0A6953399A068ECEAEA95F1F7FA95C4
:10494000C1F7E7E5EA95F1F7FF91EF910895EF934D
:10495000FF93AF93439A3B9AB8B1B77FB8B9F9E0E8
:10496000000000000000E7E3EA95F1F7B8B1B77F77
:104970000894A79508F4B860B8B9FA95A1F7E7E3E9
:10498000EA95F1F7AF91FF91EF9108953B98EF937E
:10499000FF93EE27FF276894AA27339B08C0AA95A8
:1049A000E1F73197C9F7E894FF91EF910895E6E4B4
:1049B000EA95F1F7F8E0A6953399A068E8E3EA955F
:1049C000F1F7FA95C1F7ECE1EA95F1F7FF91EF9174
:1049D0000895439A3B9AB8B1B77FB8B9F9E000009F
:1049E00000000000E8E6EA9500000000000000007A
:1049F000000000000000B9F7B8B1B77F0894A79590
:104A000008F4B860B8B9FA9569F7E2E4EA950000ED
:104A1000000000000000000000000000B9F7089549
:104A2000EE27FF276894339B0DC0000000000000B4
:104A3000000000000000000000000000319799F71E
:104A4000E8940895E8E7EA950000000000000000FF
:104A5000000000000000000000000000000099F7C6
:104A6000F8E0A6953399A068E7E6EA950000000013
:104A700000000000000000000000B9F70000FA95F7
:104A800081F7E2E4EA950000000000000000000069
:104A9000C9F70895EE27F0E06894AA27339B53CE18
:104AA000339B51CE339B4FCE339B4DCEAA95B1F75E
:104AB000319799F7E8940895EF93FF93AF93BF93DD
:104AC000CF93E0E5EA95F1F7429A3A9AB8B1BB7F05
:104AD000B8B9F8E0CC270000E7E3EA95F1F7B8B100
:104AE000BB7FA79510F4B460C395B8B9FA95A1F748
:104AF000E7E3EA95F1F7B8B1BB7FC79510F4B4606E
:104B0000C395B8B9E9E3EA95F1F7429AE7E3EA9584
:104B1000F1F7CF91BF91AF91FF91EF9108953B983D
:104B2000439AEF93FF93EE27FF276894AA27339BBE
:104B30000DC00000000000000000AA95C1F73197E9
:104B4000A9F7E894AA27FF91EF910895E6E4EA9582
:104B5000F1F7F8E0A6953399A068E8E3EA95F1F754
:104B6000FA95C1F7E4E6EA95F1F7FF91EF91089520
:104B7000412E522E632E702E0E94027CA1E170FE07
:104B8000ACE5A093B800A0E0A093B900A4E8A0937E
:104B9000BC000C944E7C2092BC000E94037C0C94C0
:104BA0004E7C87D0783089F4A22FAE7F9AD07831AE
:104BB00061F4A52DA13021F0A92F93D0783229F4EA
:104BC000A82F8FD0783209F408950F900F9000E449
:104BD0006CD00C944F7C02E468D00C944F7CC801DC
:104BE0000E94057CDEDF65D07031A9F7A22FA1609D
:104BF00078D0703481F7439EC001903051F48130F9
:104C000041F478D00E94097C783529F74ED00C9475
:104C10004E7C6BD07035F9F60E94097C0197EDCF80
:104C200044D00C944E7CC8010E94057CBADF642DF0
:104C30000E94067C56D0783271F66A95C9F735D055
:104C4000E62DF0E00E94017C840D921D3A9571F7EB
:104C50000C944E7C01E40C944F7C2BD0783089F47A
:104C6000A5E43FD070930101703459F443D07093A0
:104C70000201783531F4A0930001002716D00C947E
:104C80004E7C01E412D00C944F7C13D0A22F29D07B
:104C9000A0EA27D0A0E825D0A1E023D006D0E2E307
:104CA000F0E00E94017C0C944E7C44E94093BC00EF
:104CB000089544EA4093BC004091BC0047FFFCCFFC
:104CC0007091B900787F44E04093BC000895409310
:104CD000BC004091BC0047FFFCCF7091B900787FC9
:104CE0000895A093BB0044E8F2CF44ECF0DFA0911C
:104CF000BB00089544E8EBDFA091BB00089528B8FD
:104D0000A7E0A7B90E94027CE8ECF0E00E94017CD9
:104D1000409A552744E609D040984AE006D00895C5
:104D200028B827B80E94037C0895419A4319520974
:104D3000000000000000000000004198000000009A
:104D400000000000000089F70895303029F4243075
:104D500018F401E40C944F7CA0E00E94357DA8E992
:104D6000A093C10078940E94027CAFE328B8A7B951
:104D7000303009F019C0243019F4A8B9A395FDCF3B
:104D8000253021F4A8B90000A395FCCF263029F4E2
:104D9000A8B900000000A395FBCF273029F4A8B9DB
:104DA00000000000A395FBCF21FD03C020FF04C03D
:104DB0000FC020FF1AC027C0C90196958795969508
:104DC00087950197A8B9A395FC013197F1F7FACF20
:104DD000C90196958795969587950197A8B9A3954A
:104DE000FC013197F1F70000F9CFC901969587953D
:104DF000969587950197A8B9A395FC013197F1F78E
:104E000000000000F8CFC901969587959695879583
:104E10000197A8B9A395FC013197F1F700000000B4
:104E20000000F7CF28B8E5E0F1E00E94017C27B848
:104E30000E94037C0C944E7C302F0E94AA082BE029
:104E4000120F11BDA5ED0E947B0A0E94B208E9D0A5
:104E5000A32F60E278E10E94660A65E278E10E9491
:104E6000600AA058A07B0A2F0C944F7C0E94AA08CD
:104E7000D8D064E278E1AFEF0E94660A60E07CEF90
:104E8000A0E00E94660A66E278E1A5E00E94660A58
:104E9000CDD061E278E10E94600AA0930001A37086
:104EA000A23011F40C944E7C60E07CEFA0E00E94F4
:104EB000660A66E278E1A1E40E94660AB7D060E083
:104EC0007CEFA0E00E94660A66E278E1A5E00E941D
:104ED000660AACD061E278E10E94600AA093010109
:104EE000A370A23000E109F008E30C944F7C0E940B
:104EF000AA0897D064E278E1AFEF0E94660A60E00A
:104F00007CEFA0E00E94660A66E278E1A1E40E94DC
:104F1000660A8CD086D060E07CEFA0E00E94660A32
:104F200066E278E1A5E00E94660A0E9416280C94C9
:104F30004F7C0E94AA08C8010E94057C002771D0FE
:104F400064E278E1AFEF0E94660AA0E90E947B0A62
:104F50000E948A0AACE40E947B0ADC0111970E943D
:104F60007E0A0E948A0AA0E50E947B0A0E94067CB3
:104F70000E947B0A0E948A0A66E278E1A5E20E940A
:104F8000660A54D0003099F62319320961F70C945F
:104F90004E7C0E94AA08C8010E94057C0E94630AF8
:104FA00023193209D9F70C944E7C0E94AA08C80133
:104FB0000E94057CA0E90E947B0A0E948A0AACE458
:104FC0000E947B0ADC0111970E947E0A0E948A0AD5
:104FD000A0E70E947B0A0E948A0A0E94810A0E941E
:104FE000097C23193209A1F70C944E7C4198399A17
:104FF000E2E0F0E00E94017CE0E0F0E0419A000095
:1050000000000000000039983199FECFE395319BF4
:10501000FDCFE0930201F09303010E9436090C9446
:105020004E7CA0E365E278E10C94660A1F910F9133
:10503000A0E865E278E10E94660AE0E0F0E0EF9324
:10504000FF9365E278E10E94600A0E94870AFF915F
:10505000EF91A7FD05C0319791F701E40C944F7CC7
:10506000F801002709940E94067C0E947B0A0E9496
:105070008A0A0C944E7C0E94087C0E947E0AF7CF1C
:105080000E947B0A0E948A0A0E94810A0C94097C71
:105090000E947B0A0E948A0A0E94840A0C940A7C5D
:1050A0000E94057C0C94AA08FBDFA32FDECFF8DF5B
:1050B000A32F0E947B0AA02FD8CFF2DFA32F0E943C
:1050C0007B0AD801DACFECDFA4EEDADF0C944E7C59
:1050D000E7DFA8E6D5DFA9E6D3DFACE6D9DFABE6AC
:1050E000D7DFAFE6D5DFA2EED3DFA4EEC9DF0C94A5
:1050F0004E7C28B8399A389A0E94027CE2E3FF2756
:105100000E94017C409AE2E3FF270E94017C419AC1
:10511000ECE2F1E00E94017C689440E1AA270E9441
:10512000351EE6E1FF270E94017C4A95B9F7A0EB06
:105130000E94351E0E94841E06E416F502E4A03B80
:10514000E1E0F0E00E94017CA5EB0E94351EE1E069
:10515000F0E00E94017CA0E00E94351E0E94841EA7
:1051600001E476F40C944E7C28B8399A389AE2E33C
:10517000FF270E94017C0E94037C27B80C944E7C80
:10518000A09300010C944F7CAF93AB2FAA95000025
:10519000000000000000000000000000AA95B1F728
:1051A000AF9108953327F8010E94057C0E94067C88
:1051B0003A0F3197D9F7AAEF0E94961DB801A62F92
:1051C0000E94961DA72F0E94961DA32F0E94961D38
:1051D0000E94057C0E94067C0E94961D631972093C
:1051E000C9F700270C944F7C0E94057CAAEF0E940F
:1051F000961DA02F0E94961DA12F0E94961DA32FE1
:105200000E94961D80E098E00E94067C0E94961DF8
:105210000197D1F700270C944F7C0E94057CC801B0
:10522000F3CFBDD0A5EF0E94961DAFED0E94961D55
:10523000AFEF0E94961DA0E00E94961DA7E00E947D
:10524000961D0E94057C47E00E94067C0E94961DE8
:105250004A95D1F7E0E0F1E00E94017C73EC60E553
:10526000A2D00C944F7C0E94057C0E94067C7A2F71
:105270000E94067C6A2FA72BA1F091D0A0E20E9489
:10528000961DA62F0E94961DA72F0E94961DA0ED89
:105290000E94961DE0E0F2E00E94017C73EC60E564
:1052A00082D0C03111F70C944E7CA32F0E94961D22
:1052B000A12F0E94961DA02F0E94961D0E94CA1D1C
:1052C000A09300010C944E7CC8010E94057C67D01D
:1052D000A1E40E94961DA82F0E94961DA92F0E944E
:1052E000961D44270E94067C0E94961D4A95D1F780
:1052F000E5E0F0E00E94017C7EE460E254D001969B
:105300002A9529F70C944E7C4AD0A6E20E94961D5D
:10531000A0ED0E94961DEAE0F0E00E94017C73E19E
:1053200068E841D00C944E7CC8010E94057CAFEF28
:105330000E94961DA82F0E94961DA92F0E94961DBF
:1053400030E00E94CA1D6EF40E94097C3A95C9F7AC
:10535000E2E0FF270E94017C01962A9541F70C9418
:105360004E7CC0932001D093210120932201A5E51A
:10537000A093230100E40C944F7C0E94057CABEFCA
:105380000E94961D38E00E94CA1D5EF70E94097CAB
:105390003A95C9F7AA270E94097C0C944E7C689420
:1053A000A0E50C94961D6894EAE0F0E00E94017C70
:1053B000209220012092210120922201209223019B
:1053C000A0E70E94961D0E94CA1D4A2F1EF50E944A
:1053D000CA1D5A2F26F547FD05C06319720921F72A
:1053E00005E419C0409320015093210160932201EC
:1053F00070932301407321F0429508E4040F0BC021
:105400005C705C3029F0569556950CE4050F03C08E
:105410000027089500E40F900F900C944F7C00E556
:105420000F900F900C944F7C432E0C944E7C0E9456
:10543000027C4198399A43983B9A389A4098E8EC14
:10544000FF270E943A7EACEA48D1A3E546D1A0E00E
:1054500044D1BA2FA0E041D1B33511F40C944E7C65
:1054600001E40C944F7C0E94057C00E0A0E335D160
:1054700033D1A02F32D130D10E947B7D03950330F0
:10548000A9F7A0E52AD128D127D126D10E947B7D7A
:10549000A8E523D1A8E021D11FD11ED10E947B7D98
:1054A000A0E51BD1A8E019D117D116D10E947B7DB0
:1054B000A8E513D111D110D10FD10E947B7DA8E3B3
:1054C0000CD10AD109D108D10E947B7D0C944E7C6D
:1054D000ACEA03D1A0E801D1FFD013D10C944E7CEB
:1054E000ACEAFBD0A0E8F9D0F7D0F6D0E4E1F0E0E8
:1054F0000E94017C0C944E7C0E94057CC8016627AA
:10550000A0E4D4D0D2D0A62FD1D00E94067CCED099
:10551000A8E4CCD0CAD0A62FC9D00E94067CC6D0A1
:105520006395631769F7ACE4C1D0A92FBFD0A82F4A
:10553000BDD0E7D0830F921D2A9509F70C944E7CBD
:105540000E94057CC8016627A0E4B0D0AED0A62F8B
:10555000ADD00E94067CAAD0A8E4A8D0A6D0A62FE1
:10556000A5D00E94067CA2D06395631769F7ACE4CE
:105570009DD0A92F9BD0A82F99D097D0E5E0F0E03F
:105580000E94017C830F921D2A95E9F60C944E7CB3
:10559000C8010E94057CA0E289D0A92F87D0A82F3E
:1055A00085D083D00E94097CA8E280D0A92F7ED02C
:1055B000A82F7CD07AD00E94097C019621503040DF
:1055C00051F70C944E7C0E94057CF80160E0A1EC40
:1055D0006DD06BD0A62F6AD00E94067C67D06395F1
:1055E0006317A9F7A2EC62D0A12F60D0A02F5ED0E4
:1055F00088D0030F121D2A9549F70C944E7C0E9407
:10560000057CF80160E0A1EC51D04FD0A62F4ED020
:105610000E94067C4BD063956317A9F7A2EC46D095
:10562000A12F44D0A02F42D040D0EAE0F0E00E9469
:10563000017C030F121D2A9529F70C944E7CC8019A
:10564000F9010E94057CA0EA31D0A92F2FD0A82F04
:105650002DD02BD00E94097C01963197A1F70C9494
:105660004E7CACEA3AD0A0EA0BC0ACEA36D0A8EA4D
:1056700007C0ACEA32D0A4EA03C0ACEA2ED0A0EE58
:105680002CD02AD0A02F30FD03C049D00C944E7CE2
:1056900024D0EAE0F0E00E94017C0C944E7C28B813
:1056A0000E94037C27B80C944E7CAA2758E040FE49
:1056B00015C0A7FD439AA7FF4398419A44E04A9535
:1056C000F1F7889432990894AA1F419844E04A95CA
:1056D000F1F75A9571F70895AA2758E0A7FD439A64
:1056E000A7FF4398419A48EC4A95F1F7889432997C
:1056F0000894AA1F419848EC4A95F1F75A9571F71A
:105700000895AA27D3DFA0E0AA95F1F7A0EFCEDF96
:10571000CCDFCBDFCBDFA0FDF6CF0895AA27DDDFFE
:10572000A0E0AA95F1F7A0EFD8DFD6DFD5DFD5DF6F
:10573000A0FDF6CF0895512F822E9924A2E0AA2E23
:1057400028B8A7E1A7B90E94027CE4E6F0E00E9435
:105750003A7E449A419A429A439AEAE0F0E00E94E3
:105760003A7E409AE1E0F0E00E943A7E4098E1E023
:10577000F0E00E943A7E409AE52FF0E00E943A7EE7
:1057800044985DD4449A5BD43A95D1F73B9884E130
:105790006CD42EF48A95E1F701E40C944F7CE2E39B
:1057A000F0E00E94017C53D4BEF3A5E523D4A0E031
:1057B00021D4A13C19F002E40C944F7C0C944E7C53
:1057C00028B80E94037C27B80C944E7C00E40C940B
:1057D0004F7C28B8A7E1A7B9E2E3F0E00E943A7E47
:1057E000E2E3F0E00E943A7E409A68940C944E7C8A
:1057F000932C0C944E7C0E94057CEAE1F8E5A1E034
:1058000084D364D33EF0EAE1F8E5A82D7ED3B3D388
:105810000C944E7C04E40C944F7C01380E94057C6F
:10582000D7D3A0E0E6D3A1E1E4D3A0E3E2D390E1B3
:105830000E94067CDED39A95D9F7D9D3D2D30E94A1
:10584000057C99D30C944E7C0E94057CC1D3A0E0CA
:10585000D0D3A1E1CED3AAE2CCD3E9CF0E94057C7C
:10586000B7D3A0E0C6D3A1E1C4D3A8E2C2D3DFCFAF
:105870000E94057CEEE8F8E5A1E047D327D356F275
:10588000EEE8F8E5A82D41D376D30C944E7C012B9D
:105890000E94057CECEBF8E5AAE0A39FE00DF11D6A
:1058A000A1E033D313D33EF0E4E3F9E5A82D2DD3E3
:1058B00062D30C944E7C04E40C944F7C0932007A41
:1058C000120003D09000093200B71B0003D09000F3
:1058D000093200F4240003D09000093201312D0078
:1058E00003D090000932016E360003D090000932D7
:1058F0000000000003D090000932007A120004C4B6
:10590000B400093200B71B0004C4B400093200F42B
:10591000240004C4B400093201312D0004C4B400D1
:105920000932016E360004C4B400093200000000E0
:1059300004C4B40001320E94057CE0E5F9E5A1E071
:10594000E4D2C4D216F00C944E7C04E40C944F7C48
:1059500001000E94057CE6E7F9E5A1E0D6D2B6D2C7
:105960003EF0E6E7F9E5A82DD0D205D30C944E7CA5
:1059700004E40C944F7C012C0E94057CEAE8F9E5D4
:10598000A1E0C3D2F8D20C944E7C01240E94057C85
:10599000E0EBF9E5A1E0B9D299D23EF0E0EBF9E510
:1059A000A82DB3D2E8D20C944E7C04E40C944F7C26
:1059B000013A00939010109391102093921030931D
:1059C00093100C944E7C0093941010939510209398
:1059D0009610309397100C944E7C0E94057CF8D260
:1059E000A0E007D3A9E005D3A0E103D3A0919310D1
:1059F00000D3A0919210FDD2A0919110FAD2A09163
:105A00009010F7D2A0919710F4D2A0919610F1D2F5
:105A1000A0919510EED2A0919410EBD2E8D2E1D2F1
:105A2000AAD20C944E7CD4D2A0E0E3D2A5E0E1D27D
:105A3000A2E1DFD2A32FDDD2A22FDBD2A12FD9D2B8
:105A4000A02FD7D2D4D2CDD241D216F00C944E7C16
:105A500006E40C944F7CBCD2A0E0CBD2A2E0C9D229
:105A6000A0E5C7D2A32FC5D2C2D2BBD22FD286F314
:105A70000C944E7C70E2ACD2A0E0BBD2A5E0B9D2CF
:105A8000A2E1B7D2A32FB5D2A22FB3D2A12FB1D208
:105A9000A02FAFD20F93ABD2A4D218D276F00F9131
:105AA000A0E40A0F121D221D321DE1E0F0E00E9469
:105AB000017C7A9501F70C944E7C0F9106E40C94CE
:105AC0004F7C0E94057C84D2A0E093D2A9E091D2C1
:105AD000A3E18FD2A09193108CD2A091921089D281
:105AE000A091911086D2A091901083D2A09197108E
:105AF00080D2A09196107DD2A09195107AD2A091DB
:105B0000941077D274D26DD2E1D10C944F7C0E9464
:105B1000057C5ED2A0E06DD2A9E06BD2A6E169D28D
:105B2000A091931066D2A091921063D2A09191108F
:105B300060D2A09190105DD2A09197105AD2A091FE
:105B4000961057D2A091951054D2A091941051D292
:105B50004ED247D2BBD10C944F7C0E94057C38D2E8
:105B6000A0E047D2A9E045D2AFE343D2A091931081
:105B700040D2A09192103DD2A09191103AD2A09122
:105B8000901037D2A091971034D2A091961031D2B4
:105B9000A09195102ED2A09194102BD228D221D270
:105BA00095D10C944F7CC80102C080E094E0232F73
:105BB00001960E94057C0FD2A92F1BD2A82F19D2C3
:105BC000A3E117D201970E94067C13D20197D9F75F
:105BD000E1E0F0E00E94017C0AD2A22F0AD2E1E0CB
:105BE000F0E00E94017C0E94057C70D10C944F7CF7
:105BF0000E94057CEDD1A0E0FCD1A3E6FAD1ADE294
:105C0000F8D182E60E94067CF4D18A95D9F7EFD1CB
:105C1000E8D15CD10C944F7C0E94057CD9D1A0E0E6
:105C2000E8D1A1E0E6D1AEE2E4D1E1D1DAD14ED1C2
:105C30000ED2D1D1A0E0DDD1A1E0DBD1AEE2D9D14D
:105C4000D6D1CFD198D10C944E7CC80102C080E04F
:105C500094E0232F01960E94057CBDD1A92FC9D1C4
:105C6000A82FC7D1A6E1C5D101970E94067CC1D15A
:105C70000197D9F7E1E0F0E00E94017CB8D1A22FB2
:105C8000B8D1E1E0F0E00E94017C0E94057C1ED1C9
:105C90000C944F7CC80102C080E094E0232F019651
:105CA0000E94057C98D1A92FA4D1A82FA2D1AFE33F
:105CB000A0D101970E94067C9CD10197D9F7E1E021
:105CC000F0E00E94017C93D1A22F93D1E1E0F0E0BB
:105CD0000E94017C0E94057CF9D00C944F7C7BD102
:105CE000A0E087D1A5E085D1A3E983D1A0E081D14F
:105CF000A0E07FD1A4E07DD1A0E07BD178D1A32F1B
:105D000078D10E94057CE2D00C944F7C0E94057CE7
:105D10005FD1A0E06ED1A9E06CD1A5E16AD1A091DC
:105D2000931067D1A091921064D1A091911061D18C
:105D3000A09190105ED1A09197105BD1A091961088
:105D400058D1A091951055D1A091941052D14FD116
:105D500048D1BCD00C944F7C0E94057C3CD1A0E083
:105D600048D1A1E046D1A5E144D141D13AD1E4D016
:105D7000A53191F4E1E0F0E00E94017C2CD1A0E09B
:105D800038D1A1E036D1A5E134D131D12AD1D4D056
:105D9000A53111F40C944E7C0C944F7C0E94057C30
:105DA00017D1A0E026D1A1E037FFA2E022D1A7E2DF
:105DB00020D1A32F37FF1DD11AD113D187D047D1BE
:105DC0000AD1A0E016D1A1E014D1A7E212D10FD1DF
:105DD00008D1D1D00C944E7C0E94057CF9D0A0E073
:105DE00008D1A9E006D1A8E104D188E00E94067C90
:105DF00000D18A95D9F7FBD0F4D068D00E94057CF9
:105E000026D1E9D0A0E0F5D0A1E0F3D0A8E1F1D00F
:105E1000EED0E7D003D0AFD00C944E7C80E0EAE027
:105E2000F0E00E94017C21D116F48A95C1F7089513
:105E300084E6E4E6F0E00E94017C09D116F48A953C
:105E4000C1F70895C5D0A0E0D4D0A2E0D2D0A0E29E
:105E5000D0D0A32FAF61CDD0CAD0C3D037D00C944F
:105E60004F7C0E94057CB4D0A0E0C3D0A1E0C1D09B
:105E7000A1E2BFD0BCD0B5D029D0E9D0ACD0A0E051
:105E8000B8D0A1E0B6D0A1E2B4D0B1D0AAD054D05D
:105E90000C944E7C0E94057C9BD0A0E0AAD0A1E28D
:105EA00037FDA2E1A6D0A6E2A4D0A32FAF7737FD9D
:105EB000A0D090E237FD90E10E94067C9AD09A959E
:105EC000D9F795D08ED002D00C944E7CE894002760
:105ED00082E3CBD03EF48A95E1F703E40F900F9074
:105EE0000C944F7C73D072D071D0A23031F06ED050
:105EF000A7FD68946BD06AD0089568D0A7FD689418
:105F000065D00A2F63D062D00895E89484E19FD0D1
:105F10003EF48A95E1F703E40F900F900C944F7CC8
:105F2000552468D053D08591A82F63D0A59161D016
:105F30008A95E1F75CD055C0E89488EC96D03EF4A1
:105F40008A95E1F703E40F900F900C944F7C3ED0BC
:105F50003DD09A2F3BD08A2F39D00A2F0197A82FF6
:105F6000A92B29F033D00E94097C0197F8CF2ED0BD
:105F70002DD0A02F0895E89488EC77D03EF48A9530
:105F8000E1F703E40F900F900C944F7C1FD00E9418
:105F9000097C1CD00E94097C9A2F18D00E94097C91
:105FA0008A2F14D00E94097C0A2F0197A82FA92BB1
:105FB00029F00CD00E94097C0197F8CF07D00E94ED
:105FC000097C04D00E94097CA02F0895AA2711C043
:105FD000A1E055240FC0A82D55240CC0A2E05524E3
:105FE00009C0A3E007C0A7E105C055240895A52D69
:105FF00001C05A1AB8E090FE0CC0A7FD429AA7FF54
:106000004298A6B8AA0F3399A395A6B8BA95A9F74E
:106010000895EF93E0E0EA95F1F7E0E8EA95F1F70B
:10602000EF914198A7FD429AA7FF4298AA0F07D087
:106030003399A395419A03D0BA9599F70895BF93E0
:10604000B0E0BA9500000000E1F7BF910895FF931A
:10605000EF93EE27FF27E894339B04C012D03197CB
:10606000D9F76894EF91FF910895FF93EF93EE278E
:10607000FF27E894339903C03197E1F76894EF91D3
:10608000FF910895A5ED0E947B0A0E948A0AA0E96B
:106090000E947B0A0E948A0A0C944E7C0E94AA08E5
:1060A0000E94057CC901A5E40E947B0AD8011297D1
:1060B0000E947E0A0E948A0AA2E40E947B0A0E9431
:1060C000067CBA2F0E94067C0E947E0A0E948A0AE1
:1060D000019791F70C944E7C0E94AA08A3E40E94B9
:1060E0007B0AD8010E947E0A0E948A0AA8E00E94C8
:1060F0007B0A0C944E7C0E94AA08A3E40E947B0AAF
:10610000D8010E947E0A0E948A0AA8E00E947B0AA7
:10611000002780E090E00E948D0AA6FF0C944F7C3F
:10612000A0E0AA95F1F70197B1F703E00C944F7C3A
:10613000302F0E94AA08193108F017E02BE0120F47
:1061400011BDA5ED0E947B0A0E94B208A6ED0E9437
:106150007B0A0E948A0AA0E06CE370E00E946C0A4D
:106160000E948A0AA32F60E171E00E946C0A0E94DB
:106170008A0AA32F60E071E00E946C0A0E948A0ADA
:1061800094D193D164E071E0AFEF0E946C0A64E1B6
:1061900071E0AFEF0E946C0A0C944F7C0E94AA0839
:1061A000002765E071E0A0E30E946C0A62E071E004
:1061B000A0E00E946C0A65E071E0A2E00E946C0A17
:1061C00062E071E0A0E10E946C0A68E071E0AEEF6D
:1061D000BFEF0E94780A6AE071E0AFEFBFEF0E9464
:1061E000780A66E071E0A1E40E946C0A59D10C942F
:1061F0004F7C0E94AA08002765E171E0A0E30E949D
:106200006C0A60E07CE0A0E0BCE00E94780A66E1F5
:1062100071E0A1E40E946C0A61D10C944F7C0E9451
:10622000AA080027E0E0F2E00E94017C65E071E04E
:10623000A0E30E946C0A62E071E0A0E00E946C0A98
:1062400065E071E0A2E00E946C0A62E071E0A0E10A
:106250000E946C0A68E071E0AEEFBFEF0E94780A1E
:106260006AE071E0AFEFBFEF0E94780A66E071E08C
:10627000A1E40E946C0A14D165E171E0A0E30E94E0
:106280006C0A62E171E0A0E00E946C0A65E171E0D5
:10629000A2E00E946C0A62E171E0A0E10E946C0A37
:1062A00068E171E0A0E0BCE00E94780A6AE171E078
:1062B000A0E0B0E00E94780A66E171E0A1E40E94EB
:1062C0006C0A0CD10E9419090030A1F5A32F60E1DE
:1062D00071E00E946C0A0E948A0AA32F60E071E0BC
:1062E0000E946C0A0E948A0AE0D062E071E0A0E09D
:1062F0000E946C0A60E370E0AFEF0E946C0A64E0F9
:1063000071E0AFEF0E946C0A64E171E0AFEF0E94B0
:106310006C0A65E071E0A2E30E946C0A6EE07FEF18
:10632000AEEFBFEF0E94780A66E071E0A0E20E9443
:106330006C0AB6D00C944F7C0E94AA080E94057C7F
:10634000C901A12F60E370E00E946C0AA4D00E94F2
:10635000750A66E071E0A0E20E946C0AA1D006FF17
:1063600005C000908110D01589F700270C944F7C50
:106370000E94AA08AED00E94057C80E098E0A02F81
:1063800067E170E00E946C0A0E9469320E94750AFF
:1063900066E171E0A0E20E946C0AA0D006FF05C091
:1063A00000908110D01581F700270C944F7C0E943B
:1063B000AA0871D00E94057CC901A02F60E370E09B
:1063C0000E946C0AA12F67E170E00E946C0A0E9493
:1063D0006F0A00908310D015D1F700270C944F7CE2
:1063E0000E94AA08C90157D00E94057CA02F60E333
:1063F00070E00E946C0AA5E40E947B0ADC011297FF
:106400000E947E0A0E948A0AA2E60E947B0A0E94DB
:10641000870A0E94870A0E94840A0E940A7C0090D0
:10642000831091F700270C944F7C0E94AA0833D068
:106430000E94057C80E098E0A02F67E170E00E9458
:106440006C0A0E946F0A00908310F1F6D1F70027C2
:106450000C944F7C0E94AA08A02FAA0FAA9564E36F
:1064600070E00E946C0AA3E065E370E00E946C0A91
:10647000E2E3F0E00E94017CA0E869E370E00E94A2
:106480006C0AE5E0F0E00E94017CA4E80E94900A1A
:1064900000E00C944F7CA2E365E071E00C946C0A80
:1064A000A0E865E071E00E946C0A20E038EC0E94F0
:1064B0008A0A65E071E00E94690AA6FD08C02319F6
:1064C0003209A9F702E0AF91AF910C944F7C0A2FEB
:1064D0000895A0E365E171E00C946C0AA0E865E121
:1064E00071E00E946C0A20E034E10E948A0A65E1B2
:1064F00071E00E94690AA6FD08C023193209A9F7B4
:1065000002E0AF91AF910C944F7C0A2F0895302F89
:106510000E94AA08193108F017E02BE0120F11BDF4
:10652000A5ED0E947B0A0E94B208A6ED0E947B0A9C
:106530000E948A0AA0E06CE370E00E946C0A0E944C
:106540008A0AA32F60E071E00E946C0A0E948A0A06
:10655000AFEF68E071E00E946C0A0E948A0AAFEF18
:1065600069E071E00E946C0A0E948A0ACBD00C9408
:106570004F7C0E94AA08BCD000E018E0A0E0D7D071
:10658000BCD00C944F7C0E94AA08B2D00FE719E04F
:10659000A0E0CDD000E010E0A1E0C9D0AED00C94D6
:1065A0004F7C0E94AA08A4D000E01FE0A0E0BFD06A
:1065B00000E810E0A1E0BBD000E010E0A2E0B7D01E
:1065C0009CD00C944F7C0E94AA0892D00FE716E052
:1065D000A0E0ADD008E01FEFA1E0A9D00FEF1FEFC2
:1065E000A2E0A5D00FEF1FEFA3E0A1D00FEF1FEFA8
:1065F000A4E09DD00EEF1FEFA5E099D07ED00C94C3
:106600004F7C0E94AA08002700270C944F7C0E9410
:10661000AA080E94057CC8016BD011E107C00E9446
:10662000AA080E94057CC80163D016E01F93A0E071
:10663000022F7DD08C01A1E07AD00E94077C8D01D1
:10664000A2E075D00E94077C8D01A3E070D00E946B
:10665000077C8D01A4E06BD00E94077C8D01A5E032
:1066600066D04BD008961F91D83001F70C944F7C20
:106670000E94AA083DD00E94057CC901A02F65E1B7
:1066800070E00E946C0AA12F67E170E00E946C0A22
:106690000E946F0AD830E1F700270C944F7C0E94CB
:1066A000AA08C90125D00E94057CA02F65E170E0F1
:1066B0000E946C0AA12F67E170E00E946C0AA5E4B9
:1066C0000E947B0ADC0112970E947E0A0E948A0ABD
:1066D000A2E60E947B0A0E94870A0E94870A0E9403
:1066E000840A0E940A7CD83099F700270C944F7CCA
:1066F000A0E366E071E00C946C0AA0E866E071E04B
:106700000E946C0AEE27F0E20E948A0A66E071E0BD
:106710000E94690AAF3F11F0A7FD07C03197A1F7AA
:1067200005E3AF91AF910C944F7C0A2F089562E07E
:1067300071E00E946C0AA12F6AE071E00E946C0A6D
:10674000A02F6BE071E00C946C0A0E94AA080F93D2
:10675000A12F64E370E00E946C0AAF9165E370E0E2
:106760000E946C0AE2E3F0E00E94017CA0E869E389
:1067700070E00E946C0AE5E0F0E00E94017CA4E871
:106780000E94900A0C944E7C419806D0409804D008
:10679000419A02D0409A00D0089540FD419A40FFAE
:1067A0004198FADF4098F8DF409AF6DF0895419863
:1067B000F8CF419AF6CF3998419840984427ECDFBA
:1067C00031994395419AE8DF409A399A0895419862
:1067D000E3DF4098E1DFF099419ADEDF409AE7DF9E
:1067E000EADFF09808954198D7DF4098D5DFF09917
:1067F000419AD2DF409ADDDFDEDFF09A08954098BB
:106800004198389A399A07D0419A05D0409A03D0D6
:10681000409801D0409A50EA5A95F1F7089540986F
:106820004198389A399A38983998F5CF10E1C1DFF4
:106830004EB3B3DFC0DFBBDFBCDFBDDFB8DFB9DF26
:10684000BADF41E0131140E0A8DFAA0FBB1F441FCD
:10685000A4DFB1DF4695EE1FFF1F1A9591F72DC0FB
:10686000A8DF4EB39ADFA7DFA2DFA3DFA4DF9FDF9D
:10687000A0DFA1DF14E040E090DF8FDF9CDF1A95FE
:10688000D1F710E1DECF95DF4EB387DF94DF91DFE4
:1068900090DF91DF8CDF8DDF8EDF89DF8ADF8BDF9A
:1068A00018E041E0131140E078DFA695441F75DF42
:1068B00082DF4695E7951A95A1F77BDF7ADF7BDFCC
:1068C00076DF4EB36ADF77DFA6CF16E072DF71DFC7
:1068D00072DF1A95D9F76BDF6CDF6DDF6ADF69DF76
:1068E0006ADF65DF66DF67DF64DF63DF64DF5FDF8A
:1068F00060DF61DF5EDF5DDF5EDF5BDF5ADF5BDFB6
:1069000056DF57DF58DF0895A4E1BDDF24E6A0E09D
:10691000B0E08CDF5CDF67DF2A95C9F7A1E4B3DF65
:10692000AFEFBFE383DF53DFA3E1ADDFA9E0B4E264
:106930007DDF59DF0895A1E4A6DFAFEFBFE376DF87
:1069400046DFA3E1A0DFA1E0B4E270DFA4E89BDFB3
:106950004ADF0895A3E197DFA1E0B5E167DFA4E195
:1069600092DF22E3A0E0B0E061DF2A95D9F72FDFC4
:106970003ADFA3E188DFA1E0BCE058DFA1E0B4E0AA
:1069800055DFC5E024DF2FDFCA95E1F7A1E0B5E0D0
:106990004DDF1DDF28DFA4E176DFA0E0B0E046DFB9
:1069A000E8940895E894A4E16EDFAAEABAEA3EDF2B
