S0030000FC
S1131C0003430343B240805A58013140FF1EB2409F
S1131C1000A54601B2B0400044010324B24040A5EF
S1131C2044013740CDAB9012F4009012E400379099
S1131C3053A116209012DA0006479012D400D2B3B2
S1131C404401FD23B24000A544018245400186477A
S1131C500000D2B34401FD23B24010A54401E13F8A
S1131C60379052A11D209012A80006479012A2009E
S1131C700547D2B34401FD23B24000A54401B2405C
S1131C8040A5400190128A0086470000D2B3440167
S1131C90FD23B24010A5440126531583EA23C13F16
S1131CA0379051A10D2090126800064790126200EF
S1131CB0054727469012660026531583FA23B13F41
S1131CC0379061A1242090124800379055791F2045
S1131CD0B240030082013640FC1737405555254376
S1131CE0D2B34401FD23B24000A54401B24040A553
S1131CF0400186470000D2B34401FD23B24010A541
S1131D00440126531583EC23B240431F8201893FCB
S1131D10D0B374E4FD27174070E43041E0B268E4C6
S10B1D20FD27804768E430410F
S9030000FC
