S00B0000626F6F742E73333735
S315200000000010002009000020414C31232360414983
S3152000001000220A6008689042FCD0071C3E4A17401E
S31520000020FF221040522819D0722854D0732800D0AD
S31520000030EDE7374C00232361384A394B6260636011
S31520000040A260A360226920231A43226140231A4317
S3152000005022610123E2681A42FCD1D8E7314A3B1CCF
S31520000060134093421BD03049304E294C2B4A2C4BFF
S31520000070626063600023236108882D4B984209D073
S31520000080226901231A4322613880000C0123E26889
S315200000901A42FCD102370231013EEDD1B7E722499F
S315200000A0224E1B4C002323651C4A1D4B626463644D
S315200000B008881F4B984209D0226D01231A432265D6
S315200000C03880000C0123E26C1A42FCD1023702313F
S315200000D0013EEDD19BE7144908260D4C00232361F0
S315200000E00E4A0F4B62606360A260A3600888226993
S315200000F010231A43226138800123E2681A42FCD178
S3152000010002370231013EF1D1002323617FE7C04649
S3152000011000200240000C002000FFFFFF230167455E
S31520000120AB89EFCD00000800000400200004000089
S30920000130FFFF0000A7
S70520000000DA
