S00B0000626F6F742E73333735
S315200000000010002009000020354C3123236035499B
S3152000001000220A6008689042FCD0071C324A17402A
S31520000020FF221040522802D072283DD0EFE72F4AF7
S315200000303B1C134093421BD02D492E4E284C2E4A52
S315200000402E4B626063600023236108882C4B984204
S3152000005009D0226901231A4322613880000C01232A
S31520000060E2681A42FCD102370231013EEDD1CEE7D9
S315200000701F49204E1A4C002323651F4A1F4B6264DA
S31520000080636408881E4B984209D0226D01231A43C7
S3152000009022653880000C0123E26C1A42FCD102371B
S315200000A00231013EEDD1B2E7114908260C4C00235E
S315200000B02361114A114B62606360A260A3600888C5
S315200000C0226910231A43226138800123E2681A42EA
S315200000D0FCD102370231013EF1D10023236196E79C
S315200000E000200240000C002000FFFFFF0000080057
S315200000F0000400200004000023016745AB89EFCDF2
S30920000100FFFF0000D7
S70520000000DA
