:020000040000fa
:080000000002040000000000f2
:020000040000fa
:100400002aa3ef0005c1a80011c1a80013c1a800cc
:100410001fc1a80021c1a80043c1a80047c1a8006e
:100420004bc1a8004fc1a80053c1a80007c2a80033
:1004300017c2a80021c2a80031c2a80041c2a8006a
:1004400061c2a80021c3a800404088005140880034
:10045000624088007340880084408800954088008e
:10046000ac408800bd408800cf408800000180007b
:10047000d040880090018000e04088001002800099
:10048000f04088008f822000e08420000001880076
:1004900000000000d00f20009001880041032000e0
:1004a00040602a008008bb0000000000000000003f
:1004b0000028ef001b0107000040800000600100e1
:1004c000000000001c0037001f0037002900370023
:1004d00036003700180037001700370016003700c5
:1004e00015003700140037001300370012003700e2
:1004f000110037003b0037000f0037000e003700b7
:100500000d0037000c0037000b0037000a003700e1
:1005100009003700080037000700370006003700e1
:100520000500370037003700510037000200370060
:1005300083003700900037000028ef00b800070064
:10054000b7000700daff3700b50007000000200001
:1005500000408800b20007004001200000408800f1
:10056000af0007002000200000408800ac0007001a
:10057000cfff3700aa000700050107000c408000ec
:10058000030107000088bf00c9ff320020002000df
:1005900020408800bc4678000d408800a00007007d
:1005a0000428ed00fbff3a00c1ff37009c00070064
:1005b000f70007000c408000f50007000088bf002e
:1005c000bbff32002000200020408800d50007003b
:1005d0000d4080000d5e78000428ed00fbff3a001e
:1005e000b3ff37008e0007007001800000408800d4
:1005f000c6000700800180000040880088000700d6
:10060000abff3700860007001100ba0000000000b1
:10061000000000000050a0008008bb0000000000a7
:1006200000000000f040800010028800e0408000e0
:1006300090018800d040800000018800cf408000f9
:10064000bd408000ac408000954080008440800028
:100650007340800062408000514080004040800034
:1006600000c0da00000000000000000076ff370044
:100670006b0007001100ba0000000000000000003d
:100680000050a0008008bb00000000000000000037
:10069000f040800010028800e04080009001880057
:1006a000d040800000018800cf408000bd40800025
:1006b000ac40800095408000844080007340800002
:1006c0006240800051408000404080000080da009d
:1006d00000000000000000005bff37005000070032
:1006e0001100ba0000000000000000000050a0004f
:1006f0008008bb000000000000000000f040800007
:1007000010028800e040800090018800d040800006
:1007100000018800cf408000bd408000ac408000d8
:1007200095408000844080007340800062408000db
:1007300051408000404080000000da005cff37003c
:1007400037000700920007000c408000900007006f
:100750000040800030408800bc06ba000000000065
:10076000000000000d408800680007000628ed002a
:10077000f9ff3a004eff3700290007008400070008
:100780000c4080008200070000408000304088005c
:100790007f0007000d4080000d1ebb000000000020
:1007a000000000000628ed00f9ff3a0040ff370086
:1007b0001100ba0000000000000000000040a0008e
:1007c0008008bb0000000000000000001100ba001b
:1007d00000000000000000000000a300fbff31004b
:1007e0001100ba0000000000000000000000a3009b
:1007f000fbff39001100ba000000000000000000fb
:100800000040a1008008bb000000000000000000c4
:10081000f00f20000000e900feff3a000000060093
:10082000e3ff07001100ba00000000000000000014
:100830000020a1008008bb000000000000000000b4
:100840001100ba0000000000000000000010a1002c
:100850008008bb00000000000000000082002000b3
:100860001100ba0000000000000000000040a000dd
:100870008008bb0000000000000000001100ba006a
:10088000000000000000000000e8ab0002003200a1
:100890000010a000010037000010a1008008bb007c
:1008a00000000000000000001100ba00000000007d
:1008b000000000000040a1008008bb000000000014
:1008c000000000000068d6001100ba00000000001f
:1008d000000000000010a1008008bb000000000024
:1008e000000000000201e900ddff3a001100ba003b
:1008f00000000000000000000020a0008008bb00f5
:10090000000000000000000000000600034080001e
:10091000c3ff07000380fd0003408800c0ff0700fd
:1009200000000600a2ff0700820020001100ba00ac
:1009300000000000000000000040a0008008bb0094
:1009400000000000000000001100ba0000000000dc
:10095000000000000040a1008008bb000000000073
:10096000000000001100ba000000000000000000bc
:100970000000a300010039000008a8000028d400ee
:100980000201e900e9ff3a000028d5000000060056
:100990000028ef00e3ff0700034080000028ef007d
:1009a000e0ff0700044080000480fd0084814100d6
:0809b00003408800000006006e
:020000040000fa
:10000c00de040000de040000de040000de0400005c
:10001c00de040000de040000de040000de0400004c
:10002c00de040000de040000de040000de0400003c
:10003c00de040000de040000de040000de0400002c
:10004c00de040000de040000de040000de0400001c
:10005c00de040000de040000de040000de0400000c
:10006c00de040000de040000de040000de040000fc
:10007c00de040000de040000de040000de040000ec
:10008c00de040000de040000de040000de040000dc
:10009c00de040000de040000de040000de040000cc
:1000ac00de040000de040000de040000de040000bc
:1000bc00de040000de040000de040000de040000ac
:1000cc00de040000de040000de040000de0400009c
:1000dc00de040000de040000de040000de0400008c
:1000ec00de040000de040000de040000de0400007c
:0800fc00de040000de04000038
:020000040000fa
:10020000de040000de040000de040000de04000066
:10021000de040000de040000de040000de04000056
:10022000de040000de040000de040000de04000046
:10023000de040000de040000de040000de04000036
:10024000de040000de040000de040000de04000026
:10025000de040000de040000de040000de04000016
:10026000de040000de040000de040000de04000006
:10027000de040000de040000de040000de040000f6
:10028000de040000de040000de040000de040000e6
:10029000de040000de040000de040000de040000d6
:1002a000de040000de040000de040000de040000c6
:1002b000de040000de040000de040000de040000b6
:1002c000de040000de040000de040000de040000a6
:1002d000de040000de040000de040000de04000096
:1002e000de040000de040000de040000de04000086
:0802f000de040000de04000042
:020000040000fa
:0409b800000000003b
:020000040000fa
:0409bc000000fe0039
:00000001FF
