:020000040000fa
:020000040100f9
:100400000000fa00ef39210000ff2d0000018800f4
:1004100000000000020007000080fa000000060053
:100420000200fa007a0207003a020700bc01070046
:1004300005000700fdff37000000fa000000fe0085
:100440000080fa00004006000600fa00609080007c
:100450004c00de000080fb006101b900120798002b
:1004600023079800e0002000010020001e019000fa
:10047000ae019000800f5100818f590030003e0086
:100480001e009000ae009000000601000e00370034
:100490000d0037000c00370029003700100037002e
:1004a0001300370026003700130037002400370000
:1004b000130037001400370017003700180037000a
:1004c00009003700120037009393a80093b3a900e6
:1004d00093d3a90093f3a900200007001d00370063
:1004e000b40007001b003700d900070019003700cf
:1004f00012010700170037006200070015003700df
:100500007a00070013003700500107001100370080
:10051000510107000f003700780107000d00370078
:100520000a020700c09c88009393a80093b3a90017
:1005300093d3a90093f3a900080007000500370032
:100540009393a80093b3a80093d3a90093f3a900b1
:10055000020007000080fa00000006000000fa0018
:10056000919c800000002f0080806000000021002e
:10057000808f500006003200919c800000002f0008
:100580008080600000002300808f500003003a004c
:100590000040eb0092f3b7000200370010c0b30038
:1005a00092f3b700609080004c00de000080fb00fa
:1005b0006f0060004801dd00919c8000f00f2f006b
:1005c0000080600002007000909c8800919c800078
:1005d00000f020008080600000102000808f50001c
:1005e00005003a000fd2bf000080fb000080e80049
:1005f000a09c880020003700919c800000f0200023
:100600008080600000202000808f50000d003a00a4
:10061000709080000000d1006300b9000080e80005
:10062000a09c880070908000610060000004e000e1
:1006300011003200a09c80000080e800a09c88008f
:100640000d003700919c800000f020008080600049
:1006500000c02000808f500005003a0030002000cc
:10066000a09c8800c09c8000b09c880002003700dd
:1006700020002000a09c88003b0107000080fa00b9
:10068000000006000000fa00e00024004039880065
:1006900029c7a80000000000000000005705200046
:1006a00077398800a70a20007739880029e7a80051
:1006b00000000000000000000000000029c7bf008b
:1006c00001c8b300014060000004e000fbff3a00f5
:1006d0009393a80093b3a90093d3a90093f3a9001f
:1006e0009eff07000080fa00000006000600fa00e6
:1006f00030002400403988000ed2bf000080fb008b
:1007000001002000c001dd00020020008090800078
:1007100001002000001f4100019749000000eb008c
:10072000200798001700370029c7a8000000000024
:10073000000000005705200077398800a70a200034
:100740007739880029e7a8000000000000000000b9
:100750000000000029c7bf0001c8b30001406000cd
:100760000004e000fbff3a00000820000100200028
:100770001e0f40005e9748002e0090000000e80029
:10078000200798000fd2bf008080fb002e00900051
:10079000808f5000e4ff3e009393a80093b3a9001c
:1007a00093d3a90093f3a9006cff07000080fa001f
:1007b000000006000400fa00a00f2000a00288003c
:1007c0000000240040398800809080005039880063
:1007d0000ed2bf000080fb0060398800909080003e
:1007e000100798000000eb00000f78009e009000ba
:1007f0001e0078000108bb0029c7a8005005200092
:1008000070398800a00a20007039880029e7a80004
:100810000000000000000000000000001007980029
:1008200029c7bf0001c8b300014060000004e00018
:10083000fbff3a009393a80093b3a90093d3a900b8
:1008400093f3a90045ff07000080fa0000000600ae
:100850000400fa000ed2bf000080fb00a002880056
:100860001000240040398800909080001007980004
:1008700080908000000f78009e0090001e0078009d
:100880000108bb000fd2bf000080fb0010079800da
:100890009e0090001e00780001c8bb0029c7a80078
:1008a0005005200070398800a00a200070398800a7
:1008b00029e7a800000000000000000010079800d1
:1008c00029c7bf0001c8b300014060000004e00078
:1008d000fbff3a001e0078001000ba0010079800d5
:1008e0009393a90093b3a80093d3a90093f3a9000d
:1008f000919080001e009000808f50000c003a0004
:100900001e00780010c0ba00100798001e0090006a
:10091000804078000fd2bf0080cf500004003a0022
:100920009393a80093b3a90093d3a90093f3a900cc
:100930000aff07000080fa000000060020002400e3
:1009400040398800c52021000000eb0025449000bc
:10095000a5049000668342006839880059398800f0
:10096000a80f2000a80288008003eb0000022000ee
:10097000b60bbb00b6dbbb00b6ebbb00b61bbb00c7
:10098000b60bbb00b6dbbb00b6ebbb00b61bbb00b7
:100990000000e900f6ff3a0029c7a80000000000a7
:1009a000000000005705200077398800a70a2000c2
:1009b0007739880029e7a800000000000000000047
:1009c000000000004039800000f0a300fdff31006e
:1009d000050007004c00dd00213921008008780067
:1009e000defe070000000600c02021008000eb00b2
:1009f00020449000a0049000c7002000e6014000c1
:100a0000a802880089027800f40320001503ba00c8
:100a10003330e1000b003a00b5dbba00d5d3ba00a1
:100a20003330e10007003a003503ba003330e1000b
:100a300004003a000402e900f4ff3b00100020002b
:100a40000100370020002000000006005420ef00c5
:100a5000e7ff2f0005003700c0202100b001900003
:100a6000a3028800c0019000e28351000082eb00e5
:100a7000f50f2000e6ff2f00c0202100900190001c
:100a8000200190001200b1000380b100120032007a
:100a90008783e8001700ba000400e1004220ae009e
:100aa0000b0037000000eb0017c0ba000500e100a2
:100ab0004220ae00060037000730e100f1ff3a00a7
:100ac000a00280000000e800a0028800edff3700cf
:100ad000f100200001003700010f200000a02100dc
:100ae00001007000233921008019780020002000c7
:100af000800978001c000700000006001103200098
:100b000000b0210001007000213921008018780018
:100b10002000200080087800130007000000060075
:100b20006d000700c7202100801b7800f3ff200024
:100b3000830160008301e9000400320066000700c1
:100b4000801b78008301e900fcff3a0041e2a90024
:100b5000005020001012880048a2ef0041e2a800d7
:100b600048a2ef00000006004822ef004022ef00fc
:100b70000000000041e2a8004822ef000000000051
:100b80004022ef001d00090000000000004020008e
:100b9000101288000148a90041e2a800273921006d
:100ba0003700780040128800370078004f000700b7
:100bb00020392100900290008582e900380032003f
:100bc00010409000f040b20011c0b3000104e100f9
:100bd0000a003a00c0202100a04090008180fb0064
:100be000a1028800a00390003700ba003f00070070
:100bf0008502e900fcff3a002900370021c0b3005c
:100c00000104e1002e003a00c02021009002900073
:100c10000503d1004000b000904078000104780046
:100c2000d0007800810378000500e900150032004b
:100c300001002000a8028800000000009708ba0008
:100c40002a00070097d8ba002700b0000880b0003b
:100c5000a80288000000000097d0ba002300070017
:100c60001700ba00210007002700b0000880b0007c
:100c7000a80288000603e900eeff3a000500a6007e
:100c800007003700a8028800000000001700ba0023
:100c90001600070017c0ba000080fb001300070011
:100ca0000148ae00feff37000148a90041e2a9005b
:100cb0004362a80041e2a800411280000000060043
:100cc000c1c0b3000104e100f5ff3a00370078002d
:100cd00006000700f2ff37000148ae00feff3700b4
:100ce0000148a9004012800000000600811f780022
:100cf0000148ae00feff37000148ae00fcff3700a0
:100d00000148a9004112800040128800cf007800fd
:100d10000000060010028000000ab30010028800e4
:100d200000c02000101288000148a9004428ef00ec
:100d30004508a8002148a8000000280000128800eb
:100d40002a27ef002c27ef00000006000c00fa0015
:100d50006000b80020079800310798006000b800d4
:100d60004007980051079800709080004800de000e
:100d70006f406000004f7800709080004c00de00f3
:100d80000080fb00e09c8800640047008080e80051
:100d90000ed2bf0080487800809080006101b800ca
:100da0002e009000be009000000071008180710054
:100db0002007980031079800680047008080e8000d
:100dc0009090800080087800a09080006101b800b9
:100dd0004e009000de0090000000710081807100e4
:100de00040079800510798004e019000de019000e6
:100df0002e009000be0090001e4278002d000700db
:100e0000100798001e0090000080fa000000060005
:100e10000600fa000000eb00100798001f003700e2
:100e20001e0090004800dd002007980080c0b3003d
:100e3000004f78000e0037002e0090000000e00008
:100e400007003d002e009000000040008000780068
:100e5000100221000080680020079800030037007e
:100e60002e00900000004000200798001e4fe9006f
:100e70001e04e000f0ff3a001e00900080004000d9
:100e8000c000210000804000ae0090000108780002
:100e90001e0090000000e800100798009e009000df
:100ea000f00f2000808f5000ddff34000080fa003a
:100eb000000006001e00fa0070079800010f98005d
:100ec000120f9800230f9800645798000080eb00e1
:100ed000500798000000eb00400798007e0190004a
:100ee0008e09900000002000110020000200400048
:100ef0008380480002002000f3ff2f0000027800ea
:100f0000810278000200780083007800000162000e
:100f1000018062006102b800540f9800650f9800cc
:100f20005e089000ee089000c000dd000000200088
:100f3000500f9800610f98005e089000ee08900036
:100f40006112b800540f9800650f98005e09900078
:100f5000ee09900002007000838070001007980076
:100f600021079800460037001e089000ae08900048
:100f700000014000818148007e0090008e089000b2
:100f800002014000838148001e009000ae009000e6
:100f9000800f5100818f59001a0039001e01900006
:100fa000ae0190007e0090008e089000000051007d
:100fb000818059008100d1000080d3003007980063
:100fc0001e019000ae0190000000200011002000e2
:100fd0000200400083804800100798002107980015
:100fe0003e0090006101b8001e089000ae0890001d
:100ff0000200500083805800100f9800210f9800c5
:10100000050037009e099000330798006000b80083
:10101000100f9800210f9800e09c80000000e00075
:1010200007003a00de0190003e0190007e00900033
:101030008e08900022000700500798000600370035
:10104000ce0190003e0190007e0090008e0890003e
:1010500041000700400798003e009000010020007a
:1010600000014000818148007e0090008e089000c1
:10107000000041008180490070079800010f98002e
:101080001e089000ae089000e00f5000e08f58005e
:10109000b5ff3a00e09c80000000e00003003a0049
:1010a0005e029000440f980002003700ce029000cc
:1010b000450f98004e0890000080fa0000000600de
:1010c00046052000010b780080037800a60021006f
:1010d000020b78000a30d500c80021006200200011
:1010e00006002100171bba0037dbba0057dbba0035
:1010f000371bba0004002100350020008000eb00ff
:101100000380fd0003407800b44868000160ef00f0
:101110000000d200080040008041eb001089690007
:101120000380fd0003407800b44868000160ef00d0
:101130000000d200080040008041eb0010896900e7
:101140000a20ed00eeff3a000a30ed00e4ff3a001d
:10115000030078000000060046052000010b78001f
:10116000800378000002eb001782ba00b702ba00d1
:101170000004eb0005447800c82ade0005024200a6
:1011800008024200830142000201e900f5ff3a0033
:081190000300780000000600d6
:020000040000fa
:020000040100f9
:101198009a13000002000000000000000c1200007a
:1011a8008e010000000000009c13000002000000f7
:1011b80002000000000000000c1000000002000007
:1011c80000000000001000000c00000000000000fb
:0411d8000000000013
:020000040000fa
:020000040100f9
:081fe000dd00000031000000eb
:020000040000fa
:020000040100f9
:080000000002040000000000f2
:020000040000fa
:020000040100f9
:100008001c0280001c0280001c0280001c02800070
:100018001c0280001c0280001c0280001c02800060
:100028001c0280001c0280001c0280001c02800050
:100038001c0280001c0280001c0280001c02800040
:00000001FF
