S00B0000626F6F742E73333735
S31520000000FC0F002009000020A649CA6C01231A43D0
S3152000001004231A43CA64A44C0123236000F002F986
S3152000002000F012F9A1490A68A14B1A40A14B1A40C7
S315200000300A60A14BCB60A14FA14EA24B3A689342D6
S3152000004003D10437013EF9D102E000F00CF9FEE7B6
S3152000005000F0FAF89C4B8B610A689C4B1A430A60A5
S315200000609B4C0A692242FCD00A692242FCD10A68CA
S31520000070904B1A400A6000F0EEF800F07BF8954AA3
S31520000080904202D100F0F7F8F7E7934A904202D166
S3152000009000F0E9F8F1E7914A904202D100F0DBF84E
S315200000A0EBE78F4A904202D100F0CEF8E5E700F068
S315200000B0DAF800F0D8F88B4A904209D08A4A904262
S315200000C017D08A4A904231D000F0BEF8FCE7D2E73A
S315200000D000F050F8071C00F04DF8061C00F072F8EE
S315200000E0386800F07AF80437013EF9D100F08EF82E
S315200000F0C1E700F03FF8071C00F03CF8061C760824
S3152000010000F0C2F80122626100F034F8386004374A
S31520000110043100F02FF83860754B22691A42FCD161
S315200001200437013EF0D100236361A4E700F022F8F2
S31520000130061C00F0A9F85C4C6E4A6F4BE260E36047
S315200001400023636100F016F8236200F013F863625F
S3152000015000F010F8A36200F00DF8E36200F00AF850
S315200001602363664B2361624B2361614B22691A42EA
S31520000170FCD180E7564C544D0A6922420BD08D6142
S315200001800A68524B1A430A600A692242FCD10A685D
S31520000190484B1A400A60102300200A692242FCD0EC
S315200001A040002A4200D001300A692242FCD1400098
S315200001B02A4200D00130013BEFD10A692242FCD00D
S315200001C0394C7047424C404B8B610A683F4B1A436F
S315200001D00A600A692242FCD170473D4C1023484AE6
S315200001E0394D104200D12D040A692242FCD08D617E
S315200001F04000434A344D104200D12D040A69224260
S31520000200FCD18D614000013BE9D17047304C0A6931
S315200002102242FCD00A692242FCD10A68254B1A40A8
S315200002200A6070470EB53749884601229146022258
S3152000023092460A68344B1A40344B1A4001231A431B
S3152000024004231A430A600EBD03B540464946816120
S315200002505146816103BD03B5404649460904816183
S315200002605146816103BD03B54046494681615146E9
S315200002700904816103BD03B54046494609048161ED
S3152000028051460904816103BD074C62691C4B1A4023
S31520000290934203D11E4A1F4BA260A36000236361D1
S315200002A0704700BF001002400020024000080048AE
S315200002B0FFFFCFFFFFFF3FFF0000200000000008E8
S315200002C000800000FFFFFFFF000800000000400044
S315200002D0000400000056341201563412025634121D
S315200002E003563412517834125278341272783412FA
S315200002F0000001003B2A19087F6E5D4CFFFF0000BD
S315200003000000008000000048FCFFFFFFF3FFFFFF16
S30D2000031023016745AB89EFCDFF
S70520000000DA
