:020000020000FC
:100000000C94187C0C9439000C9439000C94390031
:100010000C9439000C9439000C9439000C9439007C
:100020000C9439000C9439000C9439000C9439006C
:100030000C9439000C9439000C9439000C9439005C
:100040000C9438000C9438000C9438000C9439004F
:100050000C943B000C9439000C9439000C9439003A
:100060000C9439000C9439000C9439000C9439002C
:1000700036B8789418950F900F90A8E1A093C1001E
:0A008000A091C60078940C945E7CF9
:1003C000000E00000000000000000000000000001F
:1003D000000000000000000000000000000000001D
:1003E000000000000000000000000000000000000D
:1003F00000000000000000000000000000000000FD
:100400000C9408080C94632B0C94602B0C947F2B99
:100410000C94B42B0C94C82B0C94142C0C942F2CEF
:100420000C946B2C0C947D2C0C94812C0C94852CAE
:100430000C94892C0C949B2C0C940E080C941A0888
:100440000C9442090C9490090C941D280C94D62805
:100450000C9478280C9437280C949A280C94ED2846
:100460000C94CA280C940B080C940B080C940B08E1
:100470000C940B080C940B080C9408080C94FB08C3
:100480000C94C3290C941E2A0C945D2A0C94002A07
:100490000C94B02A0C94E02A0C947F2A0C94D02A55
:1004A0000C94092B0C940B080C940B080C940E293B
:1004B0000C94701F0C94911F0C94B21F0C94D31FBA
:1004C0000C946F310C9443310C9452310C94A5313F
:1004D0000C94E6310C9473320C948F320C94AE323F
:1004E0000C94D0310C9419310C9425310C940133B7
:1004F0000C94EC320C940B080C940B080C940B0825
:100500000C945E330C9408080C9408080C949033F7
:100510000C94BA330C94E6330C940F340C94080802
:100520000C94DE330C9408080C9408080C947C346A
:100530000C949A330C94A8330C94BB4F0C94734FC7
:100540000C947F390C94D3390C94123A0C94F639EC
:100550000C94513A0C945C3A0C94313A0C9408087F
:100560000C941F4F0C94244F0C9455490C949349B0
:100570000C94A1490C942A470C9424080C94C1476C
:100580000C9414400C947F400C9491400C94964031
:100590000C94B5400C9477400C940B080C940B0809
:1005A0000C94A7460C94F3460C94FB460C94AC4771
:1005B0000C94E5470C946F470C9488470C94BB4708
:1005C0000C9456410C9461410C9486410C94A341C7
:1005D0000C94C4410C94D7410C94EA410C946742AA
:1005E0000C9489420C94D4420C94F9420C943043FC
:1005F0000C94BA410C94CD410C94E0410C944D42C2
:100600000C94A1420C9414430C941C440C940808C0
:100610000C94B8490C94D8490C940B4A0C94D249C8
:100620000C94F5490C94214A0C9439440C94794467
:100630000C94F0440C9492440C9487440C942145FF
:100640000C94DA450C94F3450C94FD450C946446E7
:100650000C9470460C947F460C947B460C9489460F
:100660000C947D460C948D460C940B4F0C94402AB0
:100670000C94592A0C9408080C94E0070C94E40795
:100680000C94B8240C94CB240C94EF240C941325D4
:100690000C9445250C9408080C940B080C940B083A
:1006A0000C940B080C940B080C940B080C940B087E
:1006B0000C940B080C940B080C940B080C940B086E
:1006C0000C94B2440C94D0440C94B64E0C94EE4E60
:1006D0000C94A94A0C94CD4A0C94DF4A0C94384BE4
:1006E0000C94B64B0C94164C0C94774C0C94AA4C6E
:1006F0000C94644D0C94DA4C0C94394E0C94D64EF8
:100700000C94D23A0C941E3B0C942A3B0C948D3BD7
:100710000C94803C0C946F4C0C94783B0C94053CEE
:100720000C94F93A0C94573D0C946E3D0C94883D12
:100730000C94CC3D0C94F63D0C942A3E0C94593EFE
:100740000C948A370C9408360C94D4370C94FA37EE
:100750000C9422380C94FD380C9483380C949F38F8
:100760000C94E9350C9408360C940D360C942A360A
:100770000C9445360C945F360C947C360C940437FC
:100780000C940B080C940B080C940B080C940B089D
:100790000C940B080C940B080C940B080C940B088D
:1007A0000C940B080C940B080C940B080C940B087D
:1007B0000C940B080C940B080C9408080C94080873
:1007C0000000000000000000000000000000000029
:1007D0000000000000000000000000000000000019
:1007E0000000000000000000000000000000000009
:1007F00000000000000000000000000000000000F9
:100800000C94C6530C94D0530C94D4530C9494541D
:100810000C942B550C9444550C9455550C94395507
:100820000C94595A0C949C5A0C94CF5A0C94D95A43
:100830000C94035B0C940F5A0C944D5A0C94B054C6
:100840000C9479560C9483560C9499560C94F75644
:100850000C9469570C948C570C9487560C94C3567F
:100860000C942C570C947D570C94135B0C94215BC7
:100870000C94525B0C9408080C9408080C94A12A60
:100880000C94D0540C94FD540C9467540C94B755AC
:100890000C9433550C94EC530C94BA420C94E542EE
:1008A0000C94044F0C94A54F0C94734F0C94F34E7E
:1008B0000C9408080C9420540C9438270C94A72608
:1008C0000C94D1570C9408080C9423580C942A5873
:1008D0000C9440580C9408080C9450580C945F5891
:1008E0000C946E580C9408080C9477580C94A758E4
:1008F0000C94D7580C9408080C9403590C940808CD
:100900000C94E72C0C942C2D0C94352D0C94442D28
:100910000C94472D0C945A2D0C94B92D0C94C72D82
:100920000C94E42D0C94DA2D0C94B22F0C942930F5
:100930000C94CB2F0C9408080C94F72D0C94012EDA
:100940000C940B2E0C94312E0C94722E0C94E62EDB
:100950000C94532F0C946A2F0C94902F0C944B2EC4
:100960000C94E42E0C9401300C940B080C940B089E
:100970000C9410300C9408080C940B080C940B0881
:100980000C9469610C94A2610C94A8610C94D661DA
:100990000C94B7610C94F0610C9435620C94EE6287
:1009A0000C9408080C94A8620C94CC620C944C62D1
:1009B0000C941B620C9495620C9408080C94080823
:1009C0000C94C8660C94F9660C94FF660C9400684D
:1009D0000C9448680C947C680C948A680C94A36806
:1009E0000C94E8680C94FF6A0C9420690C94A36939
:1009F0000C947D6A0C94316A0C94E9690C946569D5
:100A00000C94DD680C943D680C94CB680C948D6854
:100A10000C940C6B0C94C0680C94B1680C94066B2D
:100A20000C941A690C9450680C94196B0C94080877
:100A30000C9408080C9408080C9408080C940808F6
:100A40000C94B1260C943A260C943C270C9408087C
:100A50000C9408080C9408080C94E8550C9416564D
:100A60000C94C7550C94D1550C94D5550C94FC5549
:100A70000C9431560C9443560C9408080C940808B6
:100A80000C940B080C940B080C940B080C940B089A
:100A90000C940B080C9408080C9408080C940B0890
:100AA0000C9408080C9408080C9408080C94080886
:100AB0000C94EC2B0C944B2C0C94BC2B0C94080831
:100AC0000C940B080C940B080C9408080C94080860
:100AD0000C9408080C9408080C9408080C94080856
:100AE0000C9495410C9478420C94AD410C941142B5
:100AF0000C9437420C9408080C9408080C940808CD
:100B00000C94A46B0C94076C0C94576C0C94BB6CF9
:100B10000C94206D0C94EB6C0C945C6D0C94CE6C6E
:100B20000C94116D0C9408080C940B6E0C94526E7E
:100B30000C945A6E0C94686E0C94966E0C94080883
:100B40000C94B5510C9416520C9491520C9454522E
:100B50000C94DC520C9451710C944B6F0C941471E6
:100B60000C94186F0C948B6F0C94916F0C940A700A
:100B70000C9428700C9493700C94B0700C94D26FF9
:100B80000C9448080C9456080C944B080C94590883
:100B90000C9450080C945E080C9408080C940808F7
:100BA0000C9459540C9408080C9408080C940808E8
:100BB0000C9408080C9408080C9408080C94080875
:100BC0000000000000000000000000000000000025
:100BD0000000000000000000000000000000000015
:100BE0000000000000000000000000000000000005
:100BF00000000000000000000000000000000000F5
:100C00000C944B290C94ED280C9490290C94CA2830
:100C10000C945D290C9454290C9408080C94080831
:100C20000C9408080C9408080C9408080C94080804
:100C30000C94BE2E0C94302F0C94982E0C940B2FE9
:100C40000C94BE720C944B730C94D7720C94E27299
:100C50000C94FA720C940E730C9426730C943A73E1
:100C60000C9408080C9408080C9408080C940808C4
:100C70000C9408080C9408080C9408080C940808B4
:100C80000C9408080C9408080C9408080C940808A4
:100C90000C9408080C9408080C9408080C94080894
:100FB0000C9408080C9408080C94E8070C94F907A2
:100FC0004098389A0C944E7C409A38980C944E7CF9
:100FD00006E9009384100E940C7CE2E3F0E00E949A
:100FE000017C0E940E7CE8ECF0E00E94017C0C94F5
:100FF0004E7C0E940F7C0E94117CF5CF03E20A9583
:10100000F1F711970000D1F7089500270C944F7C59
:1010100001E00C944F7C02E00C944F7CA7B1A07CC3
:10102000A02BA7B9A8B1A07CA12BA8B90E94027CD3
:101030000C944E7C0E94037CA7B1A07CA7B9A8B1F8
:10104000A07CA8B90C944E7CE0E0F8ECAF93BF9381
:101050000E94CF7EBF91AF91E53040F4AAE0B0E0AE
:10106000CDDF119799F70EE70C944F7C0C944E7CD2
:101070000E942D7EC0E0D8ECE8940E94CF7EE5303F
:1010800030F4AAE0B0E0BADF2197B9F76894089588
:1010900038B90C944E7CA8B1A32BA8B90C944E7C03
:1010A000A8B13095A323A8B90C944E7C37B90C9401
:1010B0004E7CA7B1A32BA7B90C944E7CA7B1309559
:1010C000A323A7B90C944E7C28B827B80E94027CB1
:1010D000ADE3A8B9A7E3A7B9089528B827B80E9437
:1010E000027CA7E3A8B9A7B9089528B827B80E9439
:1010F000037C089540980895409A0895AA2762E0D5
:1011000058E0A7FD429AA7FF429866B9AA0F339903
:10111000A39566B95A95A9F7089562E05FEFA7FD18
:10112000429AA7FF429866B9AA0F3399A39566B968
:101130005A95A9F70895AA2762E058E066B9A7FD75
:10114000429AA7FF429866B9AA0F3399A3955A9578
:10115000A9F7089558B15D7F052E5260152E0895A8
:101160004427319B1DC0000000000000000000006B
:1011700000000000000000000000319B11C00000D2
:10118000000000000000000000000000000000005F
:1011900000004A9531F703E34F914F910C944F7C37
:1011A0004427319907C04A95E1F704E34F914F91E5
:1011B0000C944F7C0C94CC0944273998319B0DC07A
:1011C00000000000000000004A95C1F703E34F91C2
:1011D0004F914F914F910C944F7C4427319909C006
:1011E0004A95E1F704E34F914F914F914F910C9441
:1011F0004F7C0C94CF092AE0020F01BD1FD00C9444
:101200004F7C41984098399A389AE2E3FF270E9430
:101210003A7E409A3898F0E0E0E0309906C0319785
:10122000E1F700E3089506E3089548EC309BFBCF17
:10123000E1E0F0E00E943A7E4A95C1F7419A399A7E
:10124000E3E0FF270E943A7E4198F0E4E3E1EA956B
:10125000F1F7FA95D9F7419ABB27AA273998319B1C
:1012600006C0B395E1F701E30895319904C0A39551
:10127000E1F702E308950E94057C0E940B7C399AF5
:101280000027089541984098399A389A0E94037C23
:10129000E2E3FF270E943A7E0E94027CE8ECFF27EF
:1012A0000E943A7E409A37FF3898F0E0E0E03099AB
:1012B00008C03197E1F700E30C944F7C06E30C94EF
:1012C0004F7C48EC309BFACFE1E0F0E00E943A7EA0
:1012D0004A95C1F7419A399AE3E0FF270E943A7E86
:1012E0004198F0E4E3E1EA95F1F7FA95D9F7419AEC
:1012F000BB27AA273998319B07C0B395E1F701E3D3
:101300000C944F7C319905C0A395E1F702E30C944E
:101310004F7C0E94057C0E940B7C399A0C944E7C79
:10132000EAE0FF270E943A7E399A389A419840981D
:10133000E4E1FF270E94017C0E94047C39983898E0
:101340000C944E7CE0E6F1B50994E0E8F1B509941F
:10135000E0E7F1B50994E0E9F1B50994E0EAF1B507
:101360000994E0EBF1B50994E0ECF1B50994E0EEF5
:10137000F1B50994E0EDF1B50994E8EEF1B5099401
:10138000E0E0F1B50994E8E0F1B50994E8E2F1B5DF
:101390000994E0E3F1B50994E0E5F1B50994E6E5D7
:1013A000F1B50994E3EFF1B50994E8EFF1B50994CB
:0614000048E0BA2F06C00F
:1014100040E1399A08B85AE15A95F1F7B7FD18B882
:101420005BE35A95F1F70000000018B8399858E1CD
:101430005A95F1F70000AA0FBB1F4A9551F708957E
:0414500048E007C0A9
:1014600040E1399A08B85AE15A95F1F700003998E5
:1014700018B856E25A95F1F70000AA0FBB1F319930
:10148000A3955DE25A95F1F7000000004A9549F7EF
:021490000895BD
:0A14A0005EE65A95F1F7000008958A
:1014AC0048E05CE85A95F1F700004A95D1F70895A9
:1014C000A0EE9EDFDC01A4DF0E94DC08E9DFC0DFC4
:0814D0000E94097C01960895B9
:1014E000A0EC8EDFDC0194DF0E94067C89DF0E9485
:0814F000DC08D6DF0196089527
:10150000A0EE7EDFDB0184DF0E94DC08C9DFA0CF14
:10152000AF93A0EC6DDFDB0173DFAF9169DF0E9449
:04153000DC08B6CF4E
:10154000A0EE5EDFDB0164DFB1DF8ADF60FFAB2F7F
:021550000895FC
:10156000AF93A0EC4DDFDB0153DFAF91BA2F50DF1B
:041570009DDF08955E
:10158000A8EE3EDFDC0144DF91DF6ADF0E940A7CC7
:041590000296089522
:1015A000A8EC2EDFDC0134DF0E94077C31DF7EDF18
:0415B0000296089502
:0E15C000A8EE1EDFDB0124DF71DF4ADF089595
:1015D0009D01A8EC15DFDB011BDFD90119DF66CF08
:0815E600A4EE61E07FEFAACF43
:0A15F000AF93A4EC61E07FEFB5CFEC
:0616000048E0BA2F06C00D
:1016100040E1399A08B85CE05A95F1F70000000003
:10162000B7FD18B85DE15A95F1F70000000018B851
:1016300039985BE05A95F1F7AA0FBB1F4A9549F715
:0216400008950B
:0416500048E007C0A7
:1016600040E1399A08B85DE05A95F1F7399818B811
:1016700052E15A95F1F70000AA0FBB1F3199A395CB
:0E16800056E15A95F1F700004A9559F7089582
:1016A00055E35A95F1F700000000089548E055E42D
:0C16B0005A95F1F700004A95D1F7089513
:1016C000A0EE9EDFDC01A4DF0E94DC08E9DFC0DFC2
:0816D0000E94097C01960895B7
:1016E000A0EC8EDFDC0194DF0E94067C89DF0E9483
:0816F000DC08D6DF0196089525
:10170000A0EE7EDFDB0184DF0E94DC08C9DFA0CF12
:10172000AF93A0EC6DDFDB0173DFAF9169DF0E9447
:04173000DC08B6CF4C
:10174000A0EE5EDFDB0164DFB1DF8ADF60FFAB2F7D
:021750000895FA
:10176000AF93A0EC4DDFDB0153DFAF91BA2F50DF19
:041770009DDF08955C
:10178000A8EE3EDFDC0144DF91DF6ADF0E940A7CC5
:041790000296089520
:1017A000A8EC2EDFDC0134DF0E94077C31DF7EDF16
:0417B0000296089500
:0E17C000A8EE1EDFDB0124DF71DF4ADF089593
:1017D0009D01A8EC15DFDB011BDFD90119DF66CF06
:0817E600A4EE61E07FEFAACF41
:0A17F000AF93A4EC61E07FEFB5CFEA
:0618000048E0BA2F06C00B
:1018100040E1399A08B858E05A95F1F70000B7FD51
:1018200018B853E15A95F1F70000000018B839983C
:1018300056E05A95F1F700000000AA0FBB1F4A9529
:0418400041F70895CF
:0418500048E007C0A5
:1018600040E1399A08B858E05A95F1F700000000B5
:10187000399818B85BE05A95F1F700000000AA0FFC
:10188000BB1F3199A3955EE05A95F1F70000000067
:061890004A9539F70895A6
:1018A00052E25A95F1F700000000089548E05EE228
:0A18B0005A95F1F74A95D9F708950B
:1018C000A0EE9EDFDC01A4DF0E94DC08E9DFC0DFC0
:0818D0000E94097C01960895B5
:1018E000A0EC8EDFDC0194DF0E94067C89DF0E9481
:0818F000DC08D6DF0196089523
:10190000A0EE7EDFDB0184DF0E94DC08C9DFA0CF10
:10192000AF93A0EC6DDFDB0173DFAF9169DF0E9445
:04193000DC08B6CF4A
:10194000A0EE5EDFDB0164DFB1DF8ADF60FFAB2F7B
:021950000895F8
:10196000AF93A0EC4DDFDB0153DFAF91BA2F50DF17
:041970009DDF08955A
:10198000A8EE3EDFDC0144DF91DF6ADF0E940A7CC3
:04199000029608951E
:1019A000A8EC2EDFDC0134DF0E94077C31DF7EDF14
:0419B00002960895FE
:0E19C000A8EE1EDFDB0124DF71DF4ADF089591
:1019D0009D01A8EC15DFDB011BDFD90119DF66CF04
:0819E600A4EE61E07FEFAACF3F
:0A19F000AF93A4EC61E07FEFB5CFE8
:061A000048E0BA2F06C009
:101A100040E1399A08B856E05A95F1F7B7FD18B881
:101A20005EE05A95F1F70000000018B8399854E0CC
:101A30005A95F1F70000AA0FBB1F4A9551F7089578
:041A500048E007C0A3
:101A600040E1399A08B856E05A95F1F700003998E4
:101A700018B858E05A95F1F70000AA0FBB1F31992A
:101A8000A3955AE05A95F1F7000000004A9549F7EE
:021A90000895B7
:0A1AA00059E15A95F1F7000008958E
:0E1AAC0048E052E25A95F1F74A95D9F70895AD
:101AC000A0EE9EDFDC01A4DF0E94DC08E9DFC0DFBE
:081AD0000E94097C01960895B3
:101AE000A0EC8EDFDC0194DF0E94067C89DF0E947F
:081AF000DC08D6DF0196089521
:101B0000A0EE7EDFDB0184DF0E94DC08C9DFA0CF0E
:101B2000AF93A0EC6DDFDB0173DFAF9169DF0E9443
:041B3000DC08B6CF48
:101B4000A0EE5EDFDB0164DFB1DF8ADF60FFAB2F79
:021B50000895F6
:101B6000AF93A0EC4DDFDB0153DFAF91BA2F50DF15
:041B70009DDF089558
:101B8000A8EE3EDFDC0144DF91DF6ADF0E940A7CC1
:041B9000029608951C
:101BA000A8EC2EDFDC0134DF0E94077C31DF7EDF12
:041BB00002960895FC
:0E1BC000A8EE1EDFDB0124DF71DF4ADF08958F
:101BD0009D01A8EC15DFDB011BDFD90119DF66CF02
:081BE600A4EE61E07FEFAACF3D
:0A1BF000AF93A4EC61E07FEFB5CFE6
:061C000048E0BA2F06C007
:101C100040E1399A08B854E05A95F1F70000000005
:101C2000B7FD18B85BE05A95F1F70000000018B84E
:101C3000399853E05A95F1F7AA0FBB1F4A9549F717
:021C4000089505
:041C500048E007C0A1
:101C600040E1399A08B855E05A95F1F7399818B813
:101C700056E05A95F1F70000AA0FBB1F3199A395C2
:0E1C800058E05A95F1F700004A9559F708957B
:101CA00053E15A95F1F70000000008955FED5A9551
:081CB000F1F7000000000895A7
:101CC000A0EE9EDFDC01A4DF0E94DC08E9DFC0DFBC
:081CD0000E94097C01960895B1
:101CE000A0EC8EDFDC0194DF0E94067C89DF0E947D
:081CF000DC08D6DF019608951F
:101D0000A0EE7EDFDB0184DF0E94DC08C9DFA0CF0C
:101D2000AF93A0EC6DDFDB0173DFAF9169DF0E9441
:041D3000DC08B6CF46
:101D4000A0EE5EDFDB0164DFB1DF8ADF60FFAB2F77
:021D50000895F4
:101D6000AF93A0EC4DDFDB0153DFAF91BA2F50DF13
:041D70009DDF089556
:101D8000A8EE3EDFDC0144DF91DF6ADF0E940A7CBF
:041D9000029608951A
:101DA000A8EC2EDFDC0134DF0E94077C31DF7EDF10
:041DB00002960895FA
:0E1DC000A8EE1EDFDB0124DF71DF4ADF08958D
:101DD0009D01A8EC15DFDB011BDFD90119DF66CF00
:081DE600A4EE61E07FEFAACF3B
:0A1DF000AF93A4EC61E07FEFB5CFE4
:061E000048E0BA2F06C005
:101E100040E1399A08B853E05A95F1F70000000004
:101E2000B7FD18B859E05A95F1F70000000018B84E
:101E3000399852E05A95F1F70000AA0FBB1F4A9556
:041E400041F70895C9
:041E500048E007C09F
:101E600040E1399A08B854E05A95F1F7399818B812
:101E700055E05A95F1F7AA0FBB1F3199A39557E08A
:0A1E80005A95F1F74A9569F70895A5
:081EA00050E15A95F1F7089595
:081EAC005AEB5A95F1F7089575
:101EC000A0EE9EDFDC01A4DF0E94DC08E9DFC0DFBA
:081ED0000E94097C01960895AF
:101EE000A0EC8EDFDC0194DF0E94067C89DF0E947B
:081EF000DC08D6DF019608951D
:101F0000A0EE7EDFDB0184DF0E94DC08C9DFA0CF0A
:101F2000AF93A0EC6DDFDB0173DFAF9169DF0E943F
:041F3000DC08B6CF44
:101F4000A0EE5EDFDB0164DFB1DF8ADF60FFAB2F75
:021F50000895F2
:101F6000AF93A0EC4DDFDB0153DFAF91BA2F50DF11
:041F70009DDF089554
:101F8000A8EE3EDFDC0144DF91DF6ADF0E940A7CBD
:041F90000296089518
:101FA000A8EC2EDFDC0134DF0E94077C31DF7EDF0E
:041FB00002960895F8
:0E1FC000A8EE1EDFDB0124DF71DF4ADF08958B
:101FD0009D01A8EC15DFDB011BDFD90119DF66CFFE
:081FE600A4EE61E07FEFAACF39
:0A1FF000AF93A4EC61E07FEFB5CFE2
:0620000048E0BA2F06C003
:1020100040E1399A08B853E05A95F1F7B7FD18B87E
:1020200058E05A95F1F7000018B8399851E05A95E0
:10203000F1F700000000AA0FBB1F4A9551F7089561
:0420500048E007C09D
:1020600040E1399A08B853E05A95F1F700003998E1
:1020700018B854E05A95F1F7AA0FBB1F3199A395F0
:1020800055E05A95F1F7000000004A9551F7089580
:0A20A0005DE05A95F1F70000089585
:0820AC005FE95A95F1F7089570
:1020C000A0EE9EDFDC01A4DF0E94DC08E9DFC0DFB8
:0820D0000E94097C01960895AD
:1020E000A0EC8EDFDC0194DF0E94067C89DF0E9479
:0820F000DC08D6DF019608951B
:10210000A0EE7EDFDB0184DF0E94DC08C9DFA0CF08
:10212000AF93A0EC6DDFDB0173DFAF9169DF0E943D
:04213000DC08B6CF42
:10214000A0EE5EDFDB0164DFB1DF8ADF60FFAB2F73
:022150000895F0
:10216000AF93A0EC4DDFDB0153DFAF91BA2F50DF0F
:042170009DDF089552
:10218000A8EE3EDFDC0144DF91DF6ADF0E940A7CBB
:042190000296089516
:1021A000A8EC2EDFDC0134DF0E94077C31DF7EDF0C
:0421B00002960895F6
:0E21C000A8EE1EDFDB0124DF71DF4ADF089589
:1021D0009D01A8EC15DFDB011BDFD90119DF66CFFC
:0821E600A4EE61E07FEFAACF37
:0A21F000AF93A4EC61E07FEFB5CFE0
:0622000048E0BA2F06C001
:1022100040E1399A08B852E05A95F1F70000000001
:10222000B7FD18B857E05A95F1F7000018B839987B
:1022300051E05A95F1F7AA0FBB1F4A9551F708953F
:0422500048E007C09B
:1022600040E1399A08B853E05A95F1F7399818B80F
:1022700053E05A95F1F70000AA0FBB1F3199A395BF
:0C22800055E05A95F1F74A9561F7089572
:0A22A0005BE05A95F1F70000089585
:0C22AC005AE85A95F1F700000000089570
:1022C000A0EE9EDFDC01A4DF0E94DC08E9DFC0DFB6
:0822D0000E94097C01960895AB
:1022E000A0EC8EDFDC0194DF0E94067C89DF0E9477
:0822F000DC08D6DF0196089519
:10230000A0EE7EDFDB0184DF0E94DC08C9DFA0CF06
:10232000AF93A0EC6DDFDB0173DFAF9169DF0E943B
:04233000DC08B6CF40
:10234000A0EE5EDFDB0164DFB1DF8ADF60FFAB2F71
:022350000895EE
:10236000AF93A0EC4DDFDB0153DFAF91BA2F50DF0D
:042370009DDF089550
:10238000A8EE3EDFDC0144DF91DF6ADF0E940A7CB9
:042390000296089514
:1023A000A8EC2EDFDC0134DF0E94077C31DF7EDF0A
:0423B00002960895F4
:0E23C000A8EE1EDFDB0124DF71DF4ADF089587
:1023D0009D01A8EC15DFDB011BDFD90119DF66CFFA
:0823E600A4EE61E07FEFAACF35
:0A23F000AF93A4EC61E07FEFB5CFDE
:0624000048E0BA2F06C0FF
:1024100040E1399A08B852E05A95F1F70000B7FD4B
:1024200018B856E05A95F1F7000018B8399800002E
:0C2430000000AA0FBB1F4A9561F7089539
:0424500048E007C099
:1024600040E1399A08B852E05A95F1F700000000AF
:10247000399818B852E05A95F1F700000000AA0FF9
:10248000BB1F3199A39554E05A95F1F700004A9586
:0424900041F7089573
:1024A00059E05A95F1F70000000008955BE75A954E
:0424B000F1F70895A3
:1024C000A0EE9EDFDC01A4DF0E94DC08E9DFC0DFB4
:0824D0000E94097C01960895A9
:1024E000A0EC8EDFDC0194DF0E94067C89DF0E9475
:0824F000DC08D6DF0196089517
:10250000A0EE7EDFDB0184DF0E94DC08C9DFA0CF04
:10252000AF93A0EC6DDFDB0173DFAF9169DF0E9439
:04253000DC08B6CF3E
:10254000A0EE5EDFDB0164DFB1DF8ADF60FFAB2F6F
:022550000895EC
:10256000AF93A0EC4DDFDB0153DFAF91BA2F50DF0B
:042570009DDF08954E
:10258000A8EE3EDFDC0144DF91DF6ADF0E940A7CB7
:042590000296089512
:1025A000A8EC2EDFDC0134DF0E94077C31DF7EDF08
:0425B00002960895F2
:0E25C000A8EE1EDFDB0124DF71DF4ADF089585
:1025D0009D01A8EC15DFDB011BDFD90119DF66CFF8
:0825E600A4EE61E07FEFAACF33
:0A25F000AF93A4EC61E07FEFB5CFDC
:0626000048E0BA2F06C0FD
:1026100040E1399A08B852E05A95F1F7B7FD18B879
:1026200055E05A95F1F70000000018B839980000FD
:0A263000AA0FBB1F4A9569F7089531
:0426500048E007C097
:1026600040E1399A08B852E05A95F1F700003998DC
:1026700018B852E05A95F1F70000AA0FBB1F319924
:10268000A39553E05A95F1F7000000004A9549F7E9
:022690000895AB
:0A26A00058E05A95F1F70000089584
:0A26AC005EE65A95F1F7000008956C
:1026C000A0EE9EDFDC01A4DF0E94DC08E9DFC0DFB2
:0826D0000E94097C01960895A7
:1026E000A0EC8EDFDC0194DF0E94067C89DF0E9473
:0826F000DC08D6DF0196089515
:10270000A0EE7EDFDB0184DF0E94DC08C9DFA0CF02
:10272000AF93A0EC6DDFDB0173DFAF9169DF0E9437
:04273000DC08B6CF3C
:10274000A0EE5EDFDB0164DFB1DF8ADF60FFAB2F6D
:022750000895EA
:10276000AF93A0EC4DDFDB0153DFAF91BA2F50DF09
:042770009DDF08954C
:10278000A8EE3EDFDC0144DF91DF6ADF0E940A7CB5
:042790000296089510
:1027A000A8EC2EDFDC0134DF0E94077C31DF7EDF06
:0427B00002960895F0
:0E27C000A8EE1EDFDB0124DF71DF4ADF089583
:1027D0009D01A8EC15DFDB011BDFD90119DF66CFF6
:0827E600A4EE61E07FEFAACF31
:0A27F000AF93A4EC61E07FEFB5CFDA
:0628000048E0BA2F06C0FB
:1028100040E1399A08B851E05A95F1F700000000FC
:10282000B7FD18B855E05A95F1F718B83998000077
:0A283000AA0FBB1F4A9569F708952F
:0428500048E007C095
:1028600040E1399A08B852E05A95F1F7399818B80A
:1028700052E05A95F1F7AA0FBB1F3199A39553E087
:0C2880005A95F1F700004A9561F70895A1
:0A28A00057E05A95F1F70000089583
:0828AC0054E65A95F1F7089576
:1028C000A0EE9EDFDC01A4DF0E94DC08E9DFC0DFB0
:0828D0000E94097C01960895A5
:1028E000A0EC8EDFDC0194DF0E94067C89DF0E9471
:0828F000DC08D6DF0196089513
:10290000A0EE7EDFDB0184DF0E94DC08C9DFA0CF00
:10292000AF93A0EC6DDFDB0173DFAF9169DF0E9435
:04293000DC08B6CF3A
:10294000A0EE5EDFDB0164DFB1DF8ADF60FFAB2F6B
:022950000895E8
:10296000AF93A0EC4DDFDB0153DFAF91BA2F50DF07
:042970009DDF08954A
:10298000A8EE3EDFDC0144DF91DF6ADF0E940A7CB3
:04299000029608950E
:1029A000A8EC2EDFDC0134DF0E94077C31DF7EDF04
:0429B00002960895EE
:0E29C000A8EE1EDFDB0124DF71DF4ADF089581
:1029D0009D01A8EC15DFDB011BDFD90119DF66CFF4
:0829E600A4EE61E07FEFAACF2F
:0A29F000AF93A4EC61E07FEFB5CFD8
:062A000048E0BA2F06C0F9
:102A100040E1399A08B851E05A95F1F700000000FA
:102A2000B7FD18B854E05A95F1F70000000018B847
:0C2A30003998AA0FBB1F4A9561F7089562
:042A500048E007C093
:102A600040E1399A08B852E05A95F1F7399818B808
:102A700051E05A95F1F700000000AA0FBB1F3199F1
:0E2A8000A39553E05A95F1F74A9559F708953A
:0A2AA00056E05A95F1F70000089582
:0A2AAC005BE55A95F1F7000008956C
:102AC000A0EE9EDFDC01A4DF0E94DC08E9DFC0DFAE
:082AD0000E94097C01960895A3
:102AE000A0EC8EDFDC0194DF0E94067C89DF0E946F
:082AF000DC08D6DF0196089511
:102B0000A0EE7EDFDB0184DF0E94DC08C9DFA0CFFE
:102B2000AF93A0EC6DDFDB0173DFAF9169DF0E9433
:042B3000DC08B6CF38
:102B4000A0EE5EDFDB0164DFB1DF8ADF60FFAB2F69
:022B50000895E6
:102B6000AF93A0EC4DDFDB0153DFAF91BA2F50DF05
:042B70009DDF089548
:102B8000A8EE3EDFDC0144DF91DF6ADF0E940A7CB1
:042B9000029608950C
:102BA000A8EC2EDFDC0134DF0E94077C31DF7EDF02
:042BB00002960895EC
:0E2BC000A8EE1EDFDB0124DF71DF4ADF08957F
:102BD0009D01A8EC15DFDB011BDFD90119DF66CFF2
:082BE600A4EE61E07FEFAACF2D
:0A2BF000AF93A4EC61E07FEFB5CFD6
:062C000048E0BA2F06C0F7
:102C100040E1399A08B851E05A95F1F70000B7FD44
:102C200018B854E05A95F1F7000018B83998AA0F6F
:082C3000BB1F4A9571F70895DE
:042C500048E007C091
:102C600040E1399A08B851E05A95F1F700000000A8
:102C7000399818B851E05A95F1F70000AA0FBB1F18
:102C80003199A39552E05A95F1F7000000004A955A
:042C900041F708956B
:102CA00055E05A95F1F700000000089554E55A9553
:062CB000F1F70000089599
:102CC000A0EE9EDFDC01A4DF0E94DC08E9DFC0DFAC
:082CD0000E94097C01960895A1
:102CE000A0EC8EDFDC0194DF0E94067C89DF0E946D
:082CF000DC08D6DF019608950F
:102D0000A0EE7EDFDB0184DF0E94DC08C9DFA0CFFC
:102D2000AF93A0EC6DDFDB0173DFAF9169DF0E9431
:042D3000DC08B6CF36
:102D4000A0EE5EDFDB0164DFB1DF8ADF60FFAB2F67
:022D50000895E4
:102D6000AF93A0EC4DDFDB0153DFAF91BA2F50DF03
:042D70009DDF089546
:102D8000A8EE3EDFDC0144DF91DF6ADF0E940A7CAF
:042D9000029608950A
:102DA000A8EC2EDFDC0134DF0E94077C31DF7EDF00
:042DB00002960895EA
:0E2DC000A8EE1EDFDB0124DF71DF4ADF08957D
:102DD0009D01A8EC15DFDB011BDFD90119DF66CFF0
:082DE600A4EE61E07FEFAACF2B
:0A2DF000AF93A4EC61E07FEFB5CFD4
:062E000048E0BA2F06C0F5
:102E100040E1399A08B851E05A95F1F70000B7FD42
:102E200018B854E05A95F1F718B839980000000026
:0A2E3000AA0FBB1F4A9569F7089529
:042E500048E007C08F
:102E600040E1399A08B851E05A95F1F700000000A6
:102E7000399818B851E05A95F1F70000AA0FBB1F16
:102E80003199A39552E05A95F1F700004A9549F718
:022E90000895A3
:082EA00055E05A95F1F7089581
:082EAC005EE45A95F1F7089568
:102EC000A0EE9EDFDC01A4DF0E94DC08E9DFC0DFAA
:082ED0000E94097C019608959F
:102EE000A0EC8EDFDC0194DF0E94067C89DF0E946B
:082EF000DC08D6DF019608950D
:102F0000A0EE7EDFDB0184DF0E94DC08C9DFA0CFFA
:102F2000AF93A0EC6DDFDB0173DFAF9169DF0E942F
:042F3000DC08B6CF34
:102F4000A0EE5EDFDB0164DFB1DF8ADF60FFAB2F65
:022F50000895E2
:102F6000AF93A0EC4DDFDB0153DFAF91BA2F50DF01
:042F70009DDF089544
:102F8000A8EE3EDFDC0144DF91DF6ADF0E940A7CAD
:042F90000296089508
:102FA000A8EC2EDFDC0134DF0E94077C31DF7EDFFE
:042FB00002960895E8
:0E2FC000A8EE1EDFDB0124DF71DF4ADF08957B
:102FD0009D01A8EC15DFDB011BDFD90119DF66CFEE
:082FE600A4EE61E07FEFAACF29
:0A2FF000AF93A4EC61E07FEFB5CFD2
:0630000048E0BA2F06C0F3
:1030100040E1399A08B851E05A95F1F7B7FD18B870
:1030200053E05A95F1F70000000018B839980000F5
:0C3030000000AA0FBB1F4A9561F708952D
:0430500048E007C08D
:1030600040E1399A08B851E05A95F1F700003998D3
:1030700018B851E05A95F1F7AA0FBB1F3199A395E3
:0E30800052E05A95F1F700004A9559F708956D
:1030A00054E05A95F1F700000000089558E45A954D
:0830B000F1F700000000089593
:1030C000A0EE9EDFDC01A4DF0E94DC08E9DFC0DFA8
:0830D0000E94097C019608959D
:1030E000A0EC8EDFDC0194DF0E94067C89DF0E9469
:0830F000DC08D6DF019608950B
:10310000A0EE7EDFDB0184DF0E94DC08C9DFA0CFF8
:10312000AF93A0EC6DDFDB0173DFAF9169DF0E942D
:04313000DC08B6CF32
:10314000A0EE5EDFDB0164DFB1DF8ADF60FFAB2F63
:023150000895E0
:10316000AF93A0EC4DDFDB0153DFAF91BA2F50DFFF
:043170009DDF089542
:10318000A8EE3EDFDC0144DF91DF6ADF0E940A7CAB
:043190000296089506
:1031A000A8EC2EDFDC0134DF0E94077C31DF7EDFFC
:0431B00002960895E6
:0E31C000A8EE1EDFDB0124DF71DF4ADF089579
:1031D0009D01A8EC15DFDB011BDFD90119DF66CFEC
:0831E600A4EE61E07FEFAACF27
:0A31F000AF93A4EC61E07FEFB5CFD0
:0632000048E0BA2F06C0F1
:1032100040E1399A08B851E05A95F1F7B7FD18B86E
:1032200053E05A95F1F7000018B839980000AA0F3A
:08323000BB1F4A9571F70895D8
:0432500048E007C08B
:1032600040E1399A08B851E05A95F1F700003998D1
:1032700018B851E05A95F1F7AA0FBB1F3199A395E1
:0C32800052E05A95F1F74A9561F7089565
:0832A00054E05A95F1F708957E
:0832AC0054E45A95F1F708956E
:1032C000A0EE9EDFDC01A4DF0E94DC08E9DFC0DFA6
:0832D0000E94097C019608959B
:1032E000A0EC8EDFDC0194DF0E94067C89DF0E9467
:0832F000DC08D6DF0196089509
:10330000A0EE7EDFDB0184DF0E94DC08C9DFA0CFF6
:10332000AF93A0EC6DDFDB0173DFAF9169DF0E942B
:04333000DC08B6CF30
:10334000A0EE5EDFDB0164DFB1DF8ADF60FFAB2F61
:023350000895DE
:10336000AF93A0EC4DDFDB0153DFAF91BA2F50DFFD
:043370009DDF089540
:10338000A8EE3EDFDC0144DF91DF6ADF0E940A7CA9
:043390000296089504
:1033A000A8EC2EDFDC0134DF0E94077C31DF7EDFFA
:0433B00002960895E4
:0E33C000A8EE1EDFDB0124DF71DF4ADF089577
:1033D0009D01A8EC15DFDB011BDFD90119DF66CFEA
:0833E600A4EE61E07FEFAACF25
:1033F000AF93A4EC61E07FEFB5CF409A389AB8B1B3
:10340000BE7FB8B9F9E000000000E3E0EA95F1F70B
:1034100000000000BE7F0894A79508F4B160B8B919
:10342000FA9599F7E4E0EA95F1F70895EE27FF277A
:103430006894309B04C03197E1F7E8940895E7E081
:10344000EA95F1F7F8E0A6953099A068E3E0EA95EF
:10345000F1F700000000FA95B1F7309BFECF089518
:10346000409A389AB8B1BE7FB8B9F9E000000000C0
:103470000000EAE0EA95F1F7B8B1BE7F0894A7959D
:1034800008F4B160B8B9FA95A1F7EEE0EA95F1F762
:1034900038980895EE27FF276894309B04C0319731
:1034A000E1F7E8940895EFE0EA95F1F7F8E0A695E2
:1034B0003099A068EBE0EA95F1F70000FA95B9F7CA
:1034C000309BFECF0895409A389AB8B1BE7FB8B904
:1034D000F9E0000000000000E7E1EA95F1F70000E4
:1034E000B8B1BE7F0894A79508F4B160B8B9FA9551
:1034F00099F7EAE5EA95F1F70895409A389AB8B154
:10350000BE7FB8B9F9E0000000000000E7E1EA95ED
:10351000F1F70000B8B1BE7F0894A79508F4B16038
:10352000B8B9FA9599F7E0E1EA95F1F73898089576
:10353000EE27FF276894309B04C03197E1F7E894A9
:103540000895E3E2EA95F1F7F8E0A6953099A068CE
:10355000E8E1EA95F1F700000000FA95B1F7309B39
:10356000FECF0895409A389AB8B1BE7FB8B9F9E055
:10357000000000000000E0EDEA95000000000000FF
:103580000000000000000000B9F7B8B1BE7F089449
:10359000A79508F4B160B8B9FA9569F7E1EDEA9535
:1035A0000000000000000000000000000000B9F76B
:1035B00038980895EE27FF276894309B0EC00000CE
:1035C00000000000000000000000000000000000FB
:1035D000319799F7E8940895E0EEEA95000000002D
:1035E00000000000000000000000000000000000DB
:1035F000000099F7F8E0A6953099A068E0EDEA950B
:103600000000000000000000000000000000B9F70A
:103610000000FA9581F7E4E8EA9500000000000058
:1036200000000000C9F70895EF93FF93AF93409A0D
:10363000389AB8B1BE7FB8B9F9E0000000000000C8
:10364000ECEAEA95F1F7B8B1BE7F0894A79508F4C3
:10365000B160B8B9FA95A1F7ECEAEA95F1F7AF9144
:10366000FF91EF910895EF93FF93EE27FF2738988E
:103670006894AA27309B08C0AA95E1F73197C9F74B
:10368000E894FF91EF910895E4ECEA950000E9F7E2
:10369000F8E0A6953099A068ECEAEA95F1F7FA957A
:1036A000C1F7E7E5EA95F1F7FF91EF910895EF9300
:1036B000FF93AF93409A389AB8B1BE7FB8B9F9E09A
:1036C000000000000000E7E3EA95F1F7B8B1BE7F23
:1036D0000894A79508F4B160B8B9FA95A1F7E7E3A3
:1036E000EA95F1F7AF91FF91EF9108953898EF9334
:1036F000FF93EE27FF276894AA27309B08C0AA955E
:10370000E1F73197C9F7E894FF91EF910895E6E466
:10371000EA95F1F7F8E0A6953099A068E8E3EA9514
:10372000F1F7FA95C1F7ECE1EA95F1F7FF91EF9126
:103730000895EF93FF93AF93BF934F934427409A1D
:10374000389AB8B1BE7FB8B9F8E0000000000000B8
:10375000E7E3EA95F1F74A27B8B1BE7F0894A79549
:1037600008F4B160B8B9FA9599F7E7E3EA95F1F78B
:10377000B8B1BE7F0894479508F4B160B8B9E9E3E1
:10378000EA95F1F7B160B8B9E7E3EA95F1F74F913F
:10379000BF91AF91FF91EF9108953898EF93FF9308
:1037A000EE27FF276894AA27309B08C0AA95E1F767
:1037B0003197C9F7E894FF91EF910895E6E4EA950F
:1037C000F1F7F8E0A6953099A068E8E3EA95F1F7FB
:1037D000FA95C1F7E4E5EA95F1F7FF91EF910895C5
:1037E000409A389AB8B1BE7FB8B9F9E0000000003D
:1037F0000000E8E6EA95000000000000000000007C
:1038000000000000B9F7B8B1BE7F0894A79508F48E
:10381000B160B8B9FA9569F7E2E4EA9500000000F2
:1038200000000000000000000000B9F70895EE2736
:10383000FF276894309B0DC00000000000000000CE
:1038400000000000000000000000319799F7E894A4
:103850000895E8E7EA95000000000000000000007D
:1038600000000000000000000000000099F7F8E0F0
:10387000A6953099A068E7E6EA95000000000000F0
:103880000000000000000000B9F70000FA9581F781
:10389000E2E4EA9500000000000000000000C9F723
:1038A0000895EE27F0E06894AA27309BFCCD309B6A
:1038B000FACD309BF8CD309BF6CDAA95B1F7319774
:1038C00099F7E8940895419A399AB8B1BD7FB8B98B
:1038D000F9E000000000E3E0EA95F1F700000000E5
:1038E000BD7F0894A79508F4B260B8B9FA9599F726
:1038F000E4E0EA95F1F70895EE27FF276894319BFD
:1039000004C03197E1F7E8940895E7E0EA95F1F70C
:10391000F8E0A6953199A068E3E0EA95F1F7000098
:103920000000FA95B1F7319BFECF0895419A399A7C
:10393000B8B1BD7FB8B9F9E0000000000000EAE0CE
:10394000EA95F1F7B8B1BD7F0894A79508F4B26085
:10395000B8B9FA95A1F7EDE2EA95F1F7399808952B
:10396000419A399AB8B1BD7FB8B9F9E000000000BA
:103970000000EAE0EA95F1F7B8B1BD7F0894A79599
:1039800008F4B260B8B9FA95A1F7E6E0EA95F1F764
:1039900039980895EE27FF276894AA27319B06C01F
:1039A000AA95E1F73197C9F7E8940895EFE0EA9511
:1039B000F1F7F8E0A6953199A068EBE0EA95F1F708
:1039C0000000FA95B9F7319BFECF0895419A399AD4
:1039D000B8B1BD7FB8B9F9E0000000000000E7E130
:1039E000EA95F1F70000B8B1BD7F0894A79508F4F7
:1039F000B260B8B9FA9599F7EAE5EA95F1F7089552
:103A0000419A399AB8B1BD7FB8B9F9E00000000019
:103A10000000E7E1EA95F1F70000B8B1BD7F089436
:103A2000A79508F4B260B8B9FA9599F7E0E1EA957C
:103A3000F1F739980895EE27FF276894319B04C069
:103A40003197E1F7E8940895E3E2EA95F1F7F8E0B9
:103A5000A6953199A068E8E1EA95F1F70000000029
:103A6000FA95B1F7319BFECF0895419A399AB8B1D2
:103A7000BD7FB8B9F9E0000000000000E0EDEA9574
:103A80000000000000000000000000000000B9F786
:103A9000B8B1BD7F0894A79508F4B260B8B9FA959B
:103AA00069F7E1EDEA950000000000000000000069
:103AB00000000000B9F739980895419A399AB8B1D1
:103AC000BD7FB8B9F9E0000000000000E0EDEA9524
:103AD0000000000000000000000000000000B9F736
:103AE000B8B1BD7F0894A79508F4B260B8B9FA954B
:103AF00069F7E4E1EA950000000000000000000022
:103B000000000000B9F70895EE27FF276894319B65
:103B10000EC00000000000000000000000000000D7
:103B200000000000319799F7E8940895E0EEEA95D7
:103B30000000000000000000000000000000000085
:103B400000000000000099F7F8E0A6953199A06800
:103B5000E0EDEA9500000000000000000000000019
:103B60000000B9F70000FA9581F7E4E8EA95000053
:103B70000000000000000000C9F70895EF93FF93D4
:103B8000AF93419A399AB8B1BD7FB8B9F9E0000056
:103B900000000000ECEAEA95F1F7B8B1BD7F0894A7
:103BA000A79508F4B260B8B9FA95A1F7ECEAEA95DE
:103BB000F1F7AF91FF91EF910895EF93FF93AF93DA
:103BC000419A399AB8B1BD7FB8B9F9E00000000058
:103BD0000000ECEAEA95F1F7B8B1BD7F0894A7952B
:103BE00008F4B260B8B9FA95A1F7EAE0EA95F1F7FE
:103BF000AF91FF91EF910895EF93FF93EE27FF2789
:103C000039986894AA27319B08C0AA95E1F73197A3
:103C1000C9F7E894FF91EF910895E4ECEA9500006C
:103C2000E9F7F8E0A6953199A068ECEAEA95F1F792
:103C3000FA95C1F7E7E5EA95F1F7FF91EF9108955D
:103C4000EF93FF93AF93419A399AB8B1BD7FB8B95A
:103C5000F9E0000000000000E7E3EA95F1F7B8B1F1
:103C6000BD7F0894A79508F4B260B8B9FA95A1F79A
:103C7000E7E3EA95F1F7AF91FF91EF910895399855
:103C8000EF93FF93EE27FF276894AA27319B08C084
:103C9000AA95E1F73197C9F7E894FF91EF9108955C
:103CA000E6E4EA95F1F7F8E0A6953199A068E8E333
:103CB000EA95F1F7FA95C1F7ECE1EA95F1F7FF9192
:103CC000EF910895419A399AB8B1BD7FB8B9F9E03A
:103CD000000000000000E8E6EA9500000000000097
:103CE0000000000000000000B9F7B8B1BD7F0894E3
:103CF000A79508F4B260B8B9FA9569F7E2E4EA95D5
:103D00000000000000000000000000000000B9F703
:103D10000895419A399AB8B1BD7FB8B9F9E0000069
:103D200000000000E8E6EA95000000000000000046
:103D3000000000000000B9F7B8B1BD7F0894A79556
:103D400008F4B260B8B9FA9569F7EAE0EA950000BC
:103D5000000000000000000000000000B9F7089516
:103D6000EE27FF276894319B0DC000000AD009D0D0
:103D700008D007D00000000000000000319799F73C
:103D8000E8940895E8E7EA950000000000000000CC
:103D9000000000000000000000000000000099F793
:103DA000F8E0A6953199A068E7E6EA9500000000E2
:103DB00000000000000000000000B9F70000FA95C4
:103DC00081F7E2E4EA950000000000000000000036
:103DD000C9F70895EE27FF276894319B0DC00000B6
:103DE00000000000000000000000000000000000D3
:103DF000319799F7E8940895E0E6EA95000000000D
:103E000000000000000000000000000000000000B2
:103E1000000099F7F8E0A6953199A068E3E5EA95E6
:103E20000000000000000000000000000000B9F7E2
:103E30000000FA9581F7E4E3EA9500000000000035
:103E400000000000C9F70895EE27FF276894319B12
:103E50000DC0000000000000000000000000000095
:103E600000000000319799F7E8940895E0E3EA959F
:103E70000000000000000000000000000000000042
:103E800000000000000099F7F8E0A6953199A068BD
:103E9000EAE2EA95000000000000000000000000D7
:103EA0000000B9F70000FA9581F7EAE1EA95000011
:103EB0000000000000000000C9F70895EE27F0E0C0
:103EC0006894AA27319B72CD319B70CD319B6ECD0A
:103ED000319B6CCDAA95B1F7319799F7E894089585
:103EE000CE0193700E94057C0196019741F0E1E0BC
:103EF000F0E00E94017C0E94067C2ED1F6CF0E9449
:103F0000057C8AB59BB593700196019729F0A2D3E1
:103F10002EF40E94097CF9CF0C944E7C01E90C949C
:103F20004F7CCE0193700E94057C0196019741F071
:103F3000E1E0F0E00E94017C0E94067C68D1F6CFAF
:103F40000E94057C8AB59BB593700196019729F074
:103F5000DAD32EF40E94097CF9CF0C944E7C01E94F
:103F60000C944F7CCE0197700E94057C01960197BE
:103F700041F0E1E0F0E00E94017C0E94067C8AD1E1
:103F8000F6CF0E94057C8AB59BB597700196019784
:103F900029F0FCD32EF40E94097CF9CF0C944E7CBE
:103FA00001E90C944F7CCE0193700E94057C019630
:103FB000019741F0E1E0F0E00E94017C0E94067C64
:103FC00049D0F6CF0E94057C8AB59BB593700196C7
:103FD000019741F0AFD2E3E0EA95F1F72EF40E94A9
:103FE000097CF6CF0C944E7C01E90C944F7C429AEC
:103FF0003A9AB8B1BB7FB8B9F9E000000000E3E03D
:10400000EA95F1F700000000BB7F0894A79508F43B
:10401000B460B8B9FA9599F7E4E0EA95F1F7089534
:10402000EE27FF276894329B04C03197E1F7E894AC
:104030000895E7E0EA95F1F7F8E0A6953299A068CF
:10404000E3E0EA95F1F700000000FA95B1F7329B42
:10405000FECF0895429A3A9AB8B1BB7FB8B9F9E059
:10406000000000000000EAE0EA95F1F7B8B1BB7F7C
:104070000894A79508F4B460B8B9FA95A1F7EEE0F2
:10408000EA95F1F73A980895EE27FF276894329B56
:1040900004C03197E1F7E8940895EFE0EA95F1F76D
:1040A000F8E0A6953299A068EBE0EA95F1F70000F8
:1040B000FA95B9F7329BFECF0895429A3A9AB8B171
:1040C000BB7FB8B9F9E0000000000000E7E1EA9525
:1040D000F1F70000B8B1BB7F0894A79508F4B4606D
:1040E000B8B9FA9599F7EAE5EA95F1F70895429A91
:1040F0003A9AB8B1BB7FB8B9F9E0000000000000FF
:10410000E7E1EA95F1F70000B8B1BB7F0894A79505
:1041100008F4B460B8B9FA9599F7E0E1EA95F1F7D7
:104120003A980895EE27FF276894329B04C0319790
:10413000E1F7E8940895E3E2EA95F1F7F8E0A6954F
:104140003299A068E8E1EA95F1F700000000FA95DD
:10415000B1F7329BFECF0895429A3A9AB8B1BB7F2D
:10416000B8B9F9E0000000000000E0EDEA950000B9
:10417000000000000000000000000000B9F7B8B126
:10418000BB7F0894A79508F4B460B8B9FA9569F7AD
:10419000E0E0EA95F1F73A980895EE27FF27689452
:1041A000329B0EC000000000000000000000000074
:1041B000000000000000319799F7E8940895E0EEC0
:1041C000EA95000000000000000000000000000070
:1041D000000000000000000099F7F8E0A695329971
:1041E000A068E0EDEA95000000000000000000007B
:1041F00000000000B9F70000FA9581F7E4E8EA95BD
:1042000000000000000000000000C9F70895EF93CF
:10421000FF93AF93429A3A9AB8B1BB7FB8B9F9E02D
:10422000000000000000ECEAEA95F1F7B8B1BB7FAE
:104230000894A79508F4B460B8B9FA95A1F7ECEA28
:10424000EA95F1F7AF91FF91EF910895EF93FF9306
:10425000EE27FF273A986894AA27329B08C0AA95B0
:10426000E1F73197C9F7E894FF91EF910895E4ECF5
:10427000EA950000E9F7F8E0A6953299A068ECEA23
:10428000EA95F1F7FA95C1F7E7E5EA95F1F7FF91BD
:10429000EF910895EF93FF93AF93429A3A9AB8B192
:1042A000BB7FB8B9F9E0000000000000E7E3EA9541
:1042B000F1F7B8B1BB7F0894A79508F4B460B8B91A
:1042C000FA95A1F7E7E3EA95F1F7AF91FF91EF9146
:1042D00008953A98EF93FF93EE27FF276894AA2753
:1042E000329B08C0AA95E1F73197C9F7E894FF918E
:1042F000EF910895E6E4EA95F1F7F8E0A695329992
:10430000A068E8E3EA95F1F7FA95C1F7ECE1EA95E0
:10431000F1F7FF91EF910895429A3A9AB8B1BB7FB5
:10432000B8B9F9E0000000000000E8E6EA950000F6
:10433000000000000000000000000000B9F7B8B164
:10434000BB7F0894A79508F4B460B8B9FA9569F7EB
:10435000E2E4EA9500000000000000000000000018
:104360000000B9F70895EE27FF276894329B0DC02F
:10437000000000000000000000000000000000003D
:104380000000319799F7E8940895E8E7EA9500006E
:10439000000000000000000000000000000000001D
:1043A0000000000099F7F8E0A6953299A068E7E6CA
:1043B000EA9500000000000000000000000000007E
:1043C000B9F70000FA9581F7E2E4EA9500000000F1
:1043D000000000000000C9F70895EE27F0E068949F
:1043E000AA27329B5ACE329B58CE329B56CE329B56
:1043F00054CEAA95B1F7319799F7E8940895429A67
:104400003A9AB8B1BB7FB8B9F9E0000000000000EB
:10441000E3E5EA9500000000000000000000000055
:104420000000B9F7B8B1BB7F0894A79508F4B46051
:10443000B8B9FA9569F7E4E3EA95000000000000D6
:104440000000000000000000B9F70895429A3A9A6F
:10445000B8B1BB7FB8B9F9E0000000000000E9E2A4
:10446000EA950000000000000000000000000000CD
:10447000B9F7B8B1BB7F0894A79508F4B460B8B990
:10448000FA9569F7EAE1EA950000000000000000F3
:10449000000000000000B9F70895439A3B9AB8B1B4
:1044A000B77FB8B9F9E000000000E3E0EA95F1F762
:1044B00000000000B77F0894A79508F4B860B8B969
:1044C000FA9599F7E4E0EA95F1F70895EE27FF27CA
:1044D0006894339B04C03197E1F7E8940895E7E0CE
:1044E000EA95F1F7F8E0A6953399A068E3E0EA953C
:1044F000F1F700000000FA95B1F7339BFECF089565
:10450000439A3B9AB8B1B77FB8B9F9E00000000010
:104510000000EAE0EA95F1F7B8B1B77F0894A795F3
:1045200008F4B860B8B9FA95A1F7EEE0EA95F1F7AA
:104530003B980895EE27FF276894339B04C031977A
:10454000E1F7E8940895EFE0EA95F1F7F8E0A69531
:104550003399A068EBE0EA95F1F70000FA95B9F716
:10456000339BFECF0895439A3B9AB8B1B77FB8B951
:10457000F9E0000000000000E7E1EA95F1F7000033
:10458000B8B1B77F0894A79508F4B860B8B9FA95A0
:1045900099F7EAE5EA95F1F70895439A3B9AB8B19D
:1045A000B77FB8B9F9E0000000000000E7E1EA9544
:1045B000F1F70000B8B1B77F0894A79508F4B86088
:1045C000B8B9FA9599F7E0E1EA95F1F73B980895C3
:1045D000EE27FF276894339B04C03197E1F7E894F6
:1045E0000895E3E2EA95F1F7F8E0A6953399A0681B
:1045F000E8E1EA95F1F700000000FA95B1F7339B86
:10460000FECF0895439A3B9AB8B1B77FB8B9F9E0A5
:10461000000000000000E0EDEA950000000000004E
:104620000000000000000000B9F7B8B1B77F08949F
:10463000A79508F4B860B8B9FA9569F7E1EDEA957D
:104640000000000000000000000000000000B9F7BA
:104650003B980895EE27FF276894339B0EC0000017
:10466000000000000000000000000000000000004A
:10467000319799F7E8940895E0EEEA95000000007C
:10468000000000000000000000000000000000002A
:10469000000099F7F8E0A6953399A068E0EDEA9557
:1046A0000000000000000000000000000000B9F75A
:1046B0000000FA9581F7E4E8EA95000000000000A8
:1046C00000000000C9F70895EF93FF93AF93439A5A
:1046D0003B9AB8B1B77FB8B9F9E00000000000001C
:1046E000ECEAEA95F1F7B8B1B77F0894A79508F41A
:1046F000B860B8B9FA95A1F7ECEAEA95F1F7AF918D
:10470000FF91EF910895EF93FF93EE27FF273B98DA
:104710006894AA27339B08C0AA95E1F73197C9F797
:10472000E894FF91EF910895E4ECEA950000E9F731
:10473000F8E0A6953399A068ECEAEA95F1F7FA95C6
:10474000C1F7E7E5EA95F1F7FF91EF910895EF934F
:10475000FF93AF93439A3B9AB8B1B77FB8B9F9E0EA
:10476000000000000000E7E3EA95F1F7B8B1B77F79
:104770000894A79508F4B860B8B9FA95A1F7E7E3EB
:10478000EA95F1F7AF91FF91EF9108953B98EF9380
:10479000FF93EE27FF276894AA27339B08C0AA95AA
:1047A000E1F73197C9F7E894FF91EF910895E6E4B6
:1047B000EA95F1F7F8E0A6953399A068E8E3EA9561
:1047C000F1F7FA95C1F7ECE1EA95F1F7FF91EF9176
:1047D0000895439A3B9AB8B1B77FB8B9F9E00000A1
:1047E00000000000E8E6EA9500000000000000007C
:1047F000000000000000B9F7B8B1B77F0894A79592
:1048000008F4B860B8B9FA9569F7E2E4EA950000EF
:10481000000000000000000000000000B9F708954B
:10482000EE27FF276894339B0DC0000000000000B6
:10483000000000000000000000000000319799F720
:10484000E8940895E8E7EA95000000000000000001
:10485000000000000000000000000000000099F7C8
:10486000F8E0A6953399A068E7E6EA950000000015
:1048700000000000000000000000B9F70000FA95F9
:1048800081F7E2E4EA95000000000000000000006B
:10489000C9F70895EE27F0E06894AA27339B53CE1A
:1048A000339B51CE339B4FCE339B4DCEAA95B1F760
:1048B000319799F7E8940895EF93FF93AF93BF93DF
:1048C000CF93E0E5EA95F1F7429A3A9AB8B1BB7F07
:1048D000B8B9F8E0CC270000E7E3EA95F1F7B8B102
:1048E000BB7FA79510F4B460C395B8B9FA95A1F74A
:1048F000E7E3EA95F1F7B8B1BB7FC79510F4B46070
:10490000C395B8B9E9E3EA95F1F7429AE7E3EA9586
:10491000F1F7CF91BF91AF91FF91EF9108953B983F
:10492000439AEF93FF93EE27FF276894AA27339BC0
:104930000DC00000000000000000AA95C1F73197EB
:10494000A9F7E894AA27FF91EF910895E6E4EA9584
:10495000F1F7F8E0A6953399A068E8E3EA95F1F756
:10496000FA95C1F7E4E6EA95F1F7FF91EF91089522
:10497000412E522E632E702E0E94027CA1E170FE09
:10498000ACE5A093B800A0E0A093B900A4E8A09380
:10499000BC000C944E7C2092BC000E94037C0C94C2
:1049A0004E7C87D0783089F4A22FAE7F9AD07831B0
:1049B00061F4A52DA13021F0A92F93D0783229F4EC
:1049C000A82F8FD0783209F408950F900F9000E44B
:1049D0006CD00C944F7C02E468D00C944F7CC801DE
:1049E0000E94057CDEDF65D07031A9F7A22FA1609F
:1049F00078D0703481F7439EC001903051F48130FB
:104A000041F478D00E94097C783529F74ED00C9477
:104A10004E7C6BD07035F9F60E94097C0197EDCF82
:104A200044D00C944E7CC8010E94057CBADF642DF2
:104A30000E94067C56D0783271F66A95C9F735D057
:104A4000E62DF0E00E94017C840D921D3A9571F7ED
:104A50000C944E7C01E40C944F7C2BD0783089F47C
:104A6000A5E43FD070930101703459F443D07093A2
:104A70000201783531F4A0930001002716D00C9480
:104A80004E7C01E412D00C944F7C13D0A22F29D07D
:104A9000A0EA27D0A0E825D0A1E023D006D0E2E309
:104AA000F0E00E94017C0C944E7C44E94093BC00F1
:104AB000089544EA4093BC004091BC0047FFFCCFFE
:104AC0007091B900787F44E04093BC000895409312
:104AD000BC004091BC0047FFFCCF7091B900787FCB
:104AE0000895A093BB0044E8F2CF44ECF0DFA0911E
:104AF000BB00089544E8EBDFA091BB00089528B8FF
:104B0000AFE0A7B90E94027CE4E6FAE00E94017CD3
:104B1000409A44E650E09AD040985AE097D00C94DE
:104B20004E7C28B827B80E94037C0C944E7CE1018F
:104B3000A991A03011F40C944E7CA13021F459912C
:104B4000499184D0F5CFA23031F47991699159918E
:104B500049917ED0EDCFA43019F4E89412D0E8CF7B
:104B6000A53019F468940DD0E3CFA63021F4E89471
:104B700008D02FD0DDCFA73019F4689402D029D007
:104B8000D7CF2E0189919991E0E0FAE0409A5CD06C
:104B90000EF45AD0409858D057D07727BB277030A2
:104BA00019F478E0A991B193A0FD429AA0FF429830
:104BB000903019F4813009F4409A46D0A695B69504
:104BC0003399B068019759F73FD040983DD0E20142
:104BD00008952E0189919991DC011796B695A795B4
:104BE000B695A795B695A7955A2FDE0153E0B695D1
:104BF000A7955A95E0E0FAE0DE01FC01C50FC21D61
:104C00000027452F6D9171910990602170216713E4
:104C100001E04A95B9F7003081F408950F900F90A4
:104C2000E51BF209C51BD209C51BD209C51BD20958
:104C30000E01E101599309921992019009925A9536
:104C4000E1F700E40C944F7C41E055276627772775
:104C5000419A431952096209000000000000000057
:104C600000004198720900000000000000000000F0
:104C700079F70895303029F4243018F401E40C94C5
:104C80004F7CA0E00E94357DA8E9A093C1007894F4
:104C90000E94027CAFE328B8A7B9303009F019C0F0
:104CA000243019F4A8B9A395FDCF253021F4A8B973
:104CB0000000A395FCCF263029F4A8B9000000001D
:104CC000A395FBCF273029F4A8B900000000A395D5
:104CD000FBCF21FD03C020FF04C00FC020FF1AC07E
:104CE00027C0C90196958795969587950197A8B98C
:104CF000A395FC013197F1F7FACFC90196958795F5
:104D0000969587950197A8B9A395FC013197F1F77E
:104D10000000F9CFC90196958795969587950197DB
:104D2000A8B9A395FC013197F1F700000000F8CF76
:104D3000C90196958795969587950197A8B9A395EA
:104D4000FC013197F1F7000000000000F7CF28B810
:104D5000E5E0F1E00E94017C27B80E94037C0C94FE
:104D60004E7CA0E00E94357DA8E9A093C100E0E060
:104D7000F2E02192F031E9F7A0ECA7B9A09100018F
:104D8000A0930010A095A8B9A5E5A0930001AAEAF8
:104D9000A09301017894D801C0E0D2E0E0E0FFE008
:104DA00056B131925193452F81E002C000000000BE
:104DB00000000000000000000000000000000000F3
:104DC00000000000000056B1652E6426452F39F41E
:104DD000839569F78193519381E0FFE0EFCF819351
:104DE000519381E0FFE052276522632249F7119732
:104DF00051F7F89456B1652E6426452F41F48395FA
:104E000061F48993599381E0DF3071F411C0899383
:104E1000599381E0DF3039F40BC00000000000003E
:104E20000000000000000000000000000000E2CFD1
:104E30002A98809100108F73C0E0D1E0FFE0A1912B
:104E4000FFE0A993A191FFE0A993D230C1F7C0E0A0
:104E5000D1E0A981BFEFA03011F0A823BA2FB98308
:104E60002296DF30B1F77894ABE20E94167CFFCF38
:104E700027B828B80C944E7CA0E00E94357DA8E9A4
:104E8000A093C100E0E0F2E02192F031E9F7A0EC5C
:104E9000A7B9A0910001A0930010A095A8B9A5E51D
:104EA000A0930001AAEAA09301017894D801C0E080
:104EB000D2E0E0E0FFE056B131925193452F81E01E
:104EC00002C0000000000000000000000000000020
:104ED0000000000000000000000000007CE37A9564
:104EE000F1F756B1652E6426452F39F4839551F7B5
:104EF0008193519381E0FFE0ECCF8193519381E066
:104F0000FFE052276522632231F7119739F7F894B1
:104F10007CE37A95F1F756B1652E6426452F41F46E
:104F2000839561F48993599381E0DF3071F480CFE8
:104F30008993599381E0DF3039F47ACF0000000083
:104F40000000000000000000000000000000000061
:104F5000DFCFA0E00E94357DA8E9A093C100E0E08A
:104F6000F2E02192F031E9F7A0ECA7B9A09100019D
:104F7000A0930010A095A8B9A5E5A0930001AAEA06
:104F8000A09301017894D801C0E0D2E0E0E0FFE016
:104F900056B131925193452F81E002C000000000CC
:104FA0000000000000000000000000000000000001
:104FB00000000000000036D056B1652E6426452F53
:104FC00039F4839561F78193519381E0FFE0EECF4F
:104FD0008193519381E0FFE052276522632241F7DC
:104FE000119749F7F8941ED056B1652E6426452FC7
:104FF00041F4839561F48993599381E0DF3071F432
:1050000017CF8993599381E0DF3039F411CF000035
:105010000000000000000000000000000000000090
:105020000000E1CF7BED0000000000000000000068
:1050300000007A95C1F700000895302F0E94AA0859
:105040002AE0120F11BDA5ED0E94C0090E94B00810
:1050500000D1A32F60E278E10E94AB0965E278E11C
:105060000E94A509A058A07B0A2F0C944F7C0E9497
:10507000AA08EFD064E278E1AFEF0E94AB0960E0EC
:105080007CEFA0E00E94AB0966E278E1A5E00E9417
:10509000AB09E4D061E278E10E94A509A093000188
:1050A000A370A23011F40C944E7C60E07CEFA0E081
:1050B0000E94AB0966E278E1A1E40E94AB09CED080
:1050C00060E07CEFA0E00E94AB0966E278E1A5E039
:1050D0000E94AB09C3D061E278E10E94A509A093C8
:1050E0000101A370A23000E109F008E30C944F7CA9
:1050F0000E94AA08AED064E278E1AFEF0E94AB094B
:1051000060E07CEFA0E00E94AB0966E278E1A1E4F8
:105110000E94AB09A3D09DD060E07CEFA0E00E948C
:10512000AB0966E278E1A5E00E94AB090E942E2956
:105130000C944F7C0E94AA08C8010E94057C00279D
:1051400088D064E278E1AFEF0E94AB09A0E90E9449
:10515000C0090E94CF09ACE40E94C009DC0111978C
:105160000E94C3090E94CF09A0E50E94C0090E94C5
:10517000067C0E94C0090E94CF0966E278E1A5E2A0
:105180000E94AB096BD0003099F62319320961F700
:105190000C944E7C0E94AA08C8010E94057C0E94C3
:1051A000A80923193209D9F70C944E7C0E94AA0849
:1051B000A0E90E94C0090E94CF09ABE40E94C00987
:1051C000D8010E94C3090E94CF09A8E00E94C0092B
:1051D0000E94CF0900270C944F7C0E94AA08C801A6
:1051E0000E94057CA0E90E94C0090E94CF09ACE49E
:1051F0000E94C009DC0111970E94C3090E94CF09D7
:10520000A0E70E94C0090E94CF090E94C6090E941F
:10521000097C23193209A1F70C944E7C4198399AE4
:10522000E2E0F0E00E94017CE0E0F0E0419A000062
:1052300000000000000039983199FECFE395319BC2
:10524000FDCFE0930201F09303010E941E090C942C
:105250004E7CA0E365E278E10C94AB091F910F91BD
:10526000A0E865E278E10E94AB09E0E0F0E0EF93AE
:10527000FF9365E278E10E94A5090E94CC09FF91A5
:10528000EF91A7FD05C0319791F701E40C944F7C95
:10529000F801002709940E94AA08A0E90E94C00909
:1052A0000E94CF090C944E7C0E94AA08A8E00E949C
:1052B000C0090E94CF090C944E7C0E94057C0E947C
:1052C000AA08A8E40E94C0090E94067C0E94C009A6
:1052D0000E94CF09A9E40E94C0090E94067C0E9496
:1052E000C0090E94CF09ABE40E94C0090E94077C5C
:1052F0000E94C3090E94CF09ACE40E94C0090E9429
:10530000077C0E94C3090E94CF09AFE40E94C00934
:105310000E94077C0E94C3090E94CF090C944E7C16
:105320000E94AA080E94057CA8E60E94C0090E946B
:10533000CF090E94C6090E94097CA9E60E94C00903
:105340000E94CF090E94C6090E94097CABE60E9418
:10535000C0090E94CF090E94C9090E940A7CACE6DC
:105360000E94C0090E94CF090E94C9090E940A7CBC
:10537000AFE60E94C0090E94CF090E94C9090E949D
:105380000A7C0C944E7C28B8399A389A0E94027C88
:10539000E2E3FF270E94017C409AE2E3FF270E949C
:1053A000017C419AECE2F1E00E94017C689440E1CA
:1053B000AA270E94351DE6E1FF270E94017C4A953D
:1053C000B9F7A0EB0E94351D0E94841D06E426F566
:1053D00002E4A03BE1E0F0E00E94017CA7EB0E9428
:1053E000351DE1E0F0E00E94017CA8E00E94351D3F
:1053F0000E94841D01E486F403E4A73B0C944E7CD8
:1054000028B8399A389AE2E3FF270E94017C0E946B
:10541000037C27B80C944E7CA09300010C944F7C25
:10542000AF93AB2FAA950000000000000000000021
:1054300000000000AA95B1F7AF9108953327F80155
:105440000E94057C0E94067C3A0F3197D9F7AAEF9B
:105450000E94961CB801A62F0E94961CA72F0E949E
:10546000961CA32F0E94961C0E94057C0E94067C1D
:105470000E94961C63197209C9F700270C944F7C8F
:105480000E94057CAAEF0E94961CA02F0E94961CE9
:10549000A12F0E94961CA32F0E94961C80E098E0EA
:1054A0000E94067C0E94961C0197D1F700270C945D
:1054B0004F7C0E94057CC801F3CFBDD0A5EF0E94B0
:1054C000961CAFED0E94961CAFEF0E94961CA0E0C8
:1054D0000E94961CA7E00E94961C0E94057C47E053
:1054E0000E94067C0E94961C4A95D1F7E0E0F1E00C
:1054F0000E94017C73EC60E5A2D00C944F7C0E946A
:10550000057C0E94067C7A2F0E94067C6A2FA72BBE
:10551000A1F091D0A0E20E94961CA62F0E94961C9A
:10552000A72F0E94961CA0ED0E94961CE0E0F2E0DE
:105530000E94017C73EC60E582D0C03111F70C94BD
:105540004E7CA32F0E94961CA12F0E94961CA02F78
:105550000E94961C0E94CA1CA09300010C944E7CD1
:10556000C8010E94057C67D0A1E40E94961CA82F68
:105570000E94961CA92F0E94961C44270E94067C1C
:105580000E94961C4A95D1F7E5E0F0E00E94017C6C
:105590007EE460E254D001962A9529F70C944E7C63
:1055A0004AD0A6E20E94961CA0ED0E94961CEAE05A
:1055B000F0E00E94017C73E168E841D00C944E7CDD
:1055C000C8010E94057CAFEF0E94961CA82F0E9484
:1055D000961CA92F0E94961C30E00E94CA1C6EF4F3
:1055E0000E94097C3A95C9F7E2E0FF270E94017CFE
:1055F00001962A9541F70C944E7CC0932001D093DC
:10560000210120932201A5E5A093230100E40C943D
:105610004F7C0E94057CABEF0E94961C38E00E94F4
:10562000CA1C5EF70E94097C3A95C9F7AA270E9416
:10563000097C0C944E7C6894A0E50C94961C6894AC
:10564000EAE0F0E00E94017C2092200120922101FA
:105650002092220120922301A0E70E94961C0E9422
:10566000CA1C4A2F1EF50E94CA1C5A2F26F547FD58
:1056700005C06319720921F705E419C040932001A0
:10568000509321016093220170932301407321F014
:10569000429508E4040F0BC05C705C3029F056950D
:1056A00056950CE4050F03C00027089500E40F9001
:1056B0000F900C944F7C00E50F900F900C944F7C52
:1056C000432E0C944E7C0E94027C4198399A439858
:1056D0003B9A389A4098E8ECFF270E943A7EACEA61
:1056E00048D1A3E546D1A0E044D1BA2FA0E041D1F2
:1056F000B33511F40C944E7C01E40C944F7C0E9461
:10570000057C00E0A0E335D133D1A02F32D130D1D8
:105710000E947B7D03950330A9F7A0E52AD128D10B
:1057200027D126D10E947B7DA8E523D1A8E021D1F5
:105730001FD11ED10E947B7DA0E51BD1A8E019D10D
:1057400017D116D10E947B7DA8E513D111D110D1BC
:105750000FD10E947B7DA8E30CD10AD109D108D1D9
:105760000E947B7D0C944E7CACEA03D1A0E801D171
:10577000FFD013D10C944E7CACEAFBD0A0E8F9D05A
:10578000F7D0F6D0E4E1F0E00E94017C0C944E7C6E
:105790000E94057CC8016627A0E4D4D0D2D0A62FF1
:1057A000D1D00E94067CCED0A8E4CCD0CAD0A62FFF
:1057B000C9D00E94067CC6D06395631769F7ACE434
:1057C000C1D0A92FBFD0A82FBDD0E7D0830F921D85
:1057D0002A9509F70C944E7C0E94057CC801662727
:1057E000A0E4B0D0AED0A62FADD00E94067CAAD047
:1057F000A8E4A8D0A6D0A62FA5D00E94067CA2D04F
:105800006395631769F7ACE49DD0A92F9BD0A82FAF
:1058100099D097D0E5E0F0E00E94017C830F921DC3
:105820002A95E9F60C944E7CC8010E94057CA0E202
:1058300089D0A92F87D0A82F85D083D00E94097C3A
:10584000A8E280D0A92F7ED0A82F7CD07AD00E9449
:10585000097C01962150304051F70C944E7C0E94F7
:10586000057CF80160E0A1EC6DD06BD0A62F6AD06A
:105870000E94067C67D063956317A9F7A2EC62D0FB
:10588000A12F60D0A02F5ED088D0030F121D2A95C3
:1058900049F70C944E7C0E94057CF80160E0A1EC75
:1058A00051D04FD0A62F4ED00E94067C4BD063958E
:1058B0006317A9F7A2EC46D0A12F44D0A02F42D065
:1058C00040D0EAE0F0E00E94017C030F121D2A950F
:1058D00029F70C944E7CC801F9010E94057CA0EACE
:1058E00031D0A92F2FD0A82F2DD02BD00E94097CEA
:1058F00001963197A1F70C944E7CACEA3AD0A0EA1D
:105900000BC0ACEA36D0A8EA07C0ACEA32D0A4EAB1
:1059100003C0ACEA2ED0A0EE2CD02AD0A02F30FDB0
:1059200003C049D00C944E7C24D0EAE0F0E00E9401
:10593000017C0C944E7C28B80E94037C27B80C9400
:105940004E7CAA2758E040FE15C0A7FD439AA7FF4A
:105950004398419A44E04A95F1F788943299089423
:10596000AA1F419844E04A95F1F75A9571F70895B6
:10597000AA2758E0A7FD439AA7FF4398419A48EC0D
:105980004A95F1F7889432990894AA1F419848ECF7
:105990004A95F1F75A9571F70895AA27D3DFA0E049
:1059A000AA95F1F7A0EFCEDFCCDFCBDFCBDFA0FDF8
:1059B000F6CF0895AA27DDDFA0E0AA95F1F7A0EFC2
:1059C000D8DFD6DFD5DFD5DFA0FDF6CF0895512F84
:1059D000822E9924A2E0AA2E28B8A7E1A7B90E9496
:1059E000027CE4E6F0E00E943A7E449A419A429AB0
:1059F000439AEAE0F0E00E943A7E409AE1E0F0E06B
:105A00000E943A7E4098E1E0F0E00E943A7E409A9F
:105A1000E52FF0E00E943A7E4498E8D3449AE6D31A
:105A20003A95D1F73B9884E1F7D32EF48A95E1F7C4
:105A300001E40C944F7CE2E3F0E00E94017CDED3B1
:105A4000BEF3A5E5AED3A0E0ACD3A13C19F002E4CF
:105A50000C944F7C0C944E7C28B80E94037C27B891
:105A60000C944E7C00E40C944F7C28B8A7E1A7B9B5
:105A7000E2E3F0E00E943A7EE2E3F0E00E943A7E48
:105A8000409A68940C944E7C932C0C944E7C0E940B
:105A9000057CE2EBFAE5A1E00FD3EFD23EF0E2EBBA
:105AA000FAE5A82D09D33ED30C944E7C04E40C9463
:105AB0004F7C01380E94057CE0EEFAE5ACE0A39F44
:105AC000E00DF11DA1E0F8D2D8D23EF0E0E7FBE511
:105AD000A82DF2D227D30C944E7C04E40C944F7C76
:105AE0000932007A120003D090000000093200B79A
:105AF0001B0003D090000000093200F4240003D002
:105B000090000000093201312D0003D09000000008
:105B10000932016E360003D0900000000932000007
:105B2000000003D0900000000932007A120004C483
:105B3000B4000000093200B71B0004C4B400000028
:105B4000093200F4240004C4B40000000932013119
:105B50002D0004C4B40000000932016E360004C4F4
:105B6000B400000009320000000004C4B4000000CA
:105B700001320E94057CECE8FBE5A1E09DD27DD2DC
:105B800016F00C944E7C04E40C944F7C01000E94AF
:105B9000057CE2EBFBE5A1E08FD26FD23EF0E2EBB9
:105BA000FBE5A82D89D2BED20C944E7C04E40C9463
:105BB0004F7C012C0E94057CE6ECFBE5A1E07CD249
:105BC000B1D20C944E7C01240E94057CECEEFBE5E6
:105BD000A1E072D252D23EF0ECEEFBE5A82D6CD2E1
:105BE000A1D20C944E7C04E40C944F7C013A0093B7
:105BF00090101093911020939210309393100C9466
:105C00004E7C00939410109395102093961030932F
:105C100097100C944E7C0E94057CB1D2A0E0C0D2BB
:105C2000A9E0BED2A0E1BCD2A0919310B9D2A091BC
:105C30009210B6D2A0919110B3D2A0919010B0D290
:105C4000A0919710ADD2A0919610AAD2A0919510D4
:105C5000A7D2A0919410A4D2A1D29AD263D20C94CC
:105C60004E7C8DD2A0E09CD2A5E09AD2A2E198D23F
:105C7000A32F96D2A22F94D2A12F92D2A02F90D24E
:105C80000F938CD285D2F9D10F9116F00C944E7CE3
:105C900006E40C944F7C70E272D2A0E081D2A5E0C1
:105CA0007FD2A2E17DD2A32F7BD2A22F79D2A12FC6
:105CB00077D2A02F75D20F9371D26AD2DED176F04F
:105CC0000F91A0E40A0F121D221D321DE1E0F0E049
:105CD0000E94017C7A9501F70C944E7C0F9106E4AA
:105CE0000C944F7C0E94057C4AD2A0E059D2A9E0D6
:105CF00057D2A3E155D2A091931052D2A091921005
:105D00004FD2A09191104CD2A091901049D2A09165
:105D1000971046D2A091961043D2A091951040D2F0
:105D2000A09194103DD23AD233D2A7D10C944F7C9B
:105D30000E94057C24D2A0E033D2A9E031D2A6E1B2
:105D40002FD2A09193102CD2A091921029D2A09181
:105D5000911026D2A091901023D2A091971020D21A
:105D6000A09196101DD2A09195101AD2A0919410D6
:105D700017D214D20DD281D10C944F7C0E94057C95
:105D8000FED1A0E00DD2A9E00BD2AFE309D2A091E1
:105D9000931006D2A091921003D2A091911000D23C
:105DA000A0919010FDD1A0919710FAD1A0919610DA
:105DB000F7D1A0919510F4D1A0919410F1D1EED12A
:105DC000E7D15BD10C944F7CC80102C080E094E025
:105DD000232F01960E94057CD5D1A92FE1D1A82FB0
:105DE000DFD1A3E1DDD101970E94067CD9D10197D3
:105DF000D9F7E1E0F0E00E94017CD0D1A22FD0D110
:105E0000E1E0F0E00E94017C0E94057C36D10C9418
:105E10004F7CC80102C080E094E0232F01960E94CD
:105E2000057CB0D1A92FBCD1A82FBAD1A6E1B8D199
:105E300001970E94067CB4D10197D9F7E1E0F0E028
:105E40000E94017CABD1A22FABD1E1E0F0E00E9437
:105E5000017C0E94057C11D10C944F7CC80102C0CA
:105E600080E094E0232F01960E94057C8BD1A92F1E
:105E700097D1A82F95D1AFE393D101970E94067CCB
:105E80008FD10197D9F7E1E0F0E00E94017C86D143
:105E9000A22F86D1E1E0F0E00E94017C0E94057C07
:105EA000ECD00C944F7C6ED1A0E07AD1A5E078D1F3
:105EB000A3E976D1A0E074D1A0E072D1A4E070D1C2
:105EC000A0E06ED16BD1A32F6BD10E94057CD5D001
:105ED0000C944F7C0E94057C52D1A0E061D1A9E0D6
:105EE0005FD1A5E15DD1A09193105AD1A0919210FC
:105EF00057D1A091911054D1A091901051D1A0915F
:105F000097104ED1A09196104BD1A091951048D1E9
:105F1000A091941045D142D13BD1AFD00C944F7C8D
:105F20000E94057C2FD1A0E03BD1A1E039D1A5E1B1
:105F300037D134D12DD1D7D0A53191F4E1E0F0E0C3
:105F40000E94017C1FD1A0E02BD1A1E029D1A5E1C5
:105F500027D124D11DD1C7D0A53111F40C944E7C8A
:105F60000C944F7C0E94057C0AD1A0E019D1A1E0DD
:105F700017D1A7E215D112D10BD17FD03FD102D1D9
:105F8000A0E00ED1A1E00CD1A7E20AD107D100D147
:105F9000C9D00C944E7C0E94057CF1D0A0E000D1C9
:105FA000A9E0FED0A8E1FCD088E00E94067CF8D0F1
:105FB0008A95D9F7F3D0ECD060D00E94057C1ED131
:105FC000E1D0A0E0EDD0A1E0EBD0A8E1E9D0E6D0AF
:105FD000DFD003D0A7D00C944E7C80E0EAE0F0E064
:105FE0000E94017C19D116F48A95C1F7089584E6C0
:105FF000E4E6F0E00E94017C01D116F48A95C1F735
:106000000895BDD0A0E0CCD0A2E0CAD0A0E2C8D014
:10601000A32FAF61C5D0C2D0BBD02FD00C944F7C82
:106020000E94057CACD0A0E0BBD0A1E0B9D0A1E239
:10603000B7D0B4D0ADD021D0E1D0A4D0A0E0B0D0C2
:10604000A1E0AED0A1E2ACD0A9D0A2D04CD00C94AB
:106050004E7C0E94057C93D0A0E0A2D0A1E2A0D00B
:10606000A6E29ED090E20E94067C9AD09A95D9F73B
:1060700095D08ED002D00C944E7CE894002788EC0A
:10608000CBD03EF48A95E1F703E40F900F900C9487
:106090004F7C73D072D071D0A23031F06ED0A7FD9A
:1060A00068946BD06AD0089568D0A7FD689465D0D5
:1060B0000A2F63D062D00895E89484E19FD03EF423
:1060C0008A95E1F703E40F900F900C944F7C5524D0
:1060D00068D053D08591A82F63D0A59161D08A95BF
:1060E000E1F75CD055C0E89488EC96D03EF48A95F0
:1060F000E1F703E40F900F900C944F7C3ED03DD01D
:106100009A2F3BD08A2F39D00A2F0197A82FA92B7D
:1061100029F033D00E94097C0197F8CF2ED02DD0E2
:10612000A02F0895E89488EC77D03EF48A95E1F7A3
:1061300003E40F900F900C944F7C1FD00E94097CB9
:106140001CD00E94097C9A2F18D00E94097C8A2FAB
:1061500014D00E94097C0A2F0197A82FA92B29F09F
:106160000CD00E94097C0197F8CF07D00E94097CCF
:1061700004D00E94097CA02F0895AA2711C0A1E095
:1061800055240FC0A82D55240CC0A2E0552409C0E9
:10619000A3E007C0A7E105C055240895A52D01C0BF
:1061A0005A1AB8E090FE0CC0A7FD429AA7FF429889
:1061B000A6B8AA0F3399A395A6B8BA95A9F70895DA
:1061C000EF93E0E0EA95F1F7E0E8EA95F1F7EF9177
:1061D0004198A7FD429AA7FF4298AA0F07D033998A
:1061E000A395419A03D0BA9599F70895BF93B0E06B
:1061F000BA9500000000E1F7BF910895FF93EF9377
:10620000EE27FF27E894339B04C012D03197D9F7CB
:106210006894EF91FF910895FF93EF93EE27FF2786
:10622000E894339903C03197E1F76894EF91FF91B7
:106230000895A5ED0E94C0090E94CF09A0E90E941F
:10624000C0090E94CF090C944E7C0E94AA080E94AB
:10625000057CC901A5E40E94C009D80112970E94DB
:10626000C3090E94CF09A2E40E94C0090E94067CD3
:10627000BA2F0E94067C0E94C3090E94CF09019791
:1062800091F70C944E7C0E94AA08A3E40E94C009D6
:10629000D8010E94C3090E94CF09A8E00E94C0094A
:1062A0000C944E7C0E94AA08A3E40E94C009D80165
:1062B0000E94C3090E94CF09A8E00E94C0090027DC
:1062C00080E090E00E94D209A6FF0C944F7CA0E0F1
:1062D000AA95F1F70197B1F703E00C944F7C302FAA
:1062E0000E94AA08193108F017E02AE0120F11BD28
:1062F000A5ED0E94C0090E94B008A6ED0E94C00949
:106300000E94CF09A0E06CE370E00E94B1090E94F6
:10631000CF09A32F60E171E00E94B1090E94CF096B
:10632000A32F60E071E00E94B1090E94CF0994D1CF
:1063300093D164E071E0AFEF0E94B10964E171E0D4
:10634000AFEF0E94B1090C944F7C0E94AA0800276D
:1063500065E071E0A0E30E94B10962E071E0A0E0B5
:106360000E94B10965E071E0A2E00E94B10962E01B
:1063700071E0A0E10E94B10968E071E0AEEFBFEF0B
:106380000E94BD096AE071E0AFEFBFEF0E94BD0956
:1063900066E071E0A1E40E94B10959D10C944F7CF0
:1063A0000E94AA08002765E171E0A0E30E94B109FC
:1063B00060E07CE0A0E0BCE00E94BD0966E171E025
:1063C000A1E40E94B10961D10C944F7C0E94AA08FB
:1063D0000027E0E0F2E00E94017C65E071E0A0E3CC
:1063E0000E94B10962E071E0A0E00E94B10965E09D
:1063F00071E0A2E00E94B10962E071E0A0E10E94B8
:10640000B10968E071E0AEEFBFEF0E94BD096AE03C
:1064100071E0AFEFBFEF0E94BD0966E071E0A1E45B
:106420000E94B10914D165E171E0A0E30E94B109B5
:1064300062E171E0A0E00E94B10965E171E0A2E0D3
:106440000E94B10962E171E0A0E10E94B10968E136
:1064500071E0A0E0BCE00E94BD096AE171E0A0E04B
:10646000B0E00E94BD0966E171E0A1E40E94B109BB
:106470000CD10E9401090030A1F5A32F60E171E069
:106480000E94B1090E94CF09A32F60E071E00E9431
:10649000B1090E94CF09E0D062E071E0A0E00E9463
:1064A000B10960E370E0AFEF0E94B10964E071E010
:1064B000AFEF0E94B10964E171E0AFEF0E94B10952
:1064C00065E071E0A2E30E94B1096EE07FEFAEEFFC
:1064D000BFEF0E94BD0966E071E0A0E20E94B10931
:1064E000B6D00C944F7C0E94AA080E94057CC9017A
:1064F000A12F60E370E00E94B109A4D00E94BA0904
:1065000066E071E0A0E20E94B109A1D006FF05C0DB
:1065100000908110D01589F700270C944F7C0E94C1
:10652000AA08AED00E94057C80E098E0A02F67E129
:1065300070E00E94B1090E9440330E94BA0966E1EE
:1065400071E0A0E20E94B109A0D006FF05C0009052
:106550008110D01581F700270C944F7C0E94AA0867
:1065600071D00E94057CC901A02F60E370E00E94F9
:10657000B109A12F67E170E00E94B1090E94B4093E
:1065800000908310D015D1F700270C944F7C0E9407
:10659000AA08C90157D00E94057CA02F60E370E0D3
:1065A0000E94B109A5E40E94C009DC0112970E9473
:1065B000C3090E94CF09A2E60E94C0090E94CC092B
:1065C0000E94CC090E94C9090E940A7C0090831095
:1065D00091F700270C944F7C0E94AA0833D00E94A8
:1065E000057C80E098E0A02F67E170E00E94B1098F
:1065F0000E94B40900908310F1F6D1F700270C94A3
:106600004F7C0E94AA08A02FAA0FAA9564E370E00D
:106610000E94B109A3E065E370E00E94B109E2E3E2
:10662000F0E00E94017CA0E869E370E00E94B109FB
:10663000E5E0F0E00E94017CA4E80E94D50900E0BA
:106640000C944F7CA2E365E071E00C94B109A0E8E2
:1066500065E071E00E94B10920E038EC0E94CF09AA
:1066600065E071E00E94AE09A6FD08C02319320959
:10667000A9F702E0AF91AF910C944F7C0A2F0895D7
:10668000A0E365E171E00C94B109A0E865E171E077
:106690000E94B10920E034E10E94CF0965E171E078
:1066A0000E94AE09A6FD08C023193209A9F702E02D
:1066B000AF91AF910C944F7C0A2F0895302F0E9418
:1066C000AA08193108F017E02AE0120F11BDA5ED54
:1066D0000E94C0090E94B008A6ED0E94C0090E9455
:1066E000CF09A0E06CE370E00E94B1090E94CF09DD
:1066F000A32F60E071E00E94B1090E94CF09AFEFC3
:1067000068E071E00E94B1090E94CF09AFEF69E033
:1067100071E00E94B1090E94CF09CBD00C944F7C4C
:106720000E94AA08BCD000E018E0A0E0D7D0BCD0FE
:106730000C944F7C0E94AA08B2D00FE719E0A0E0A9
:10674000CDD000E010E0A1E0C9D0AED00C944F7CD9
:106750000E94AA08A4D000E01FE0A0E0BFD000E89B
:1067600010E0A1E0BBD000E010E0A2E0B7D09CD0E8
:106770000C944F7C0E94AA0892D00FE716E0A0E08C
:10678000ADD008E01FEFA1E0A9D00FEF1FEFA2E00E
:10679000A5D00FEF1FEFA3E0A1D00FEF1FEFA4E0F4
:1067A0009DD00EEF1FEFA5E099D07ED00C944F7CCA
:1067B0000E94AA08002700270C944F7C0E94AA0878
:1067C0000E94057CC8016BD011E107C00E94AA0895
:1067D0000E94057CC80163D016E01F93A0E0022F41
:1067E0007DD08C01A1E07AD00E94077C8D01A2E0CF
:1067F00075D00E94077C8D01A3E070D00E94077CB9
:106800008D01A4E06BD00E94077C8D01A5E066D0CD
:106810004BD008961F91D83001F70C944F7C0E9402
:10682000AA083DD00E94057CC901A02F65E170E057
:106830000E94B109A12F67E170E00E94B1090E9496
:10684000B409D830E1F700270C944F7C0E94AA08C5
:10685000C90125D00E94057CA02F65E170E00E944F
:10686000B109A12F67E170E00E94B109A5E40E947F
:10687000C009DC0112970E94C3090E94CF09A2E659
:106880000E94C0090E94CC090E94CC090E94C9093B
:106890000E940A7CD83099F700270C944F7CA0E323
:1068A00066E071E00C94B109A0E866E071E00E9436
:1068B000B109EE27F0E20E94CF0966E071E00E9484
:1068C000AE09AF3F11F0A7FD07C03197A1F705E36F
:1068D000AF91AF910C944F7C0A2F089562E071E064
:1068E0000E94B109A12F6AE071E00E94B109A02FB6
:1068F0006BE071E00C94B1090E94AA080F93A12FDC
:1069000064E370E00E94B109AF9165E370E00E941A
:10691000B109E2E3F0E00E94017CA0E869E370E0E5
:106920000E94B109E5E0F0E00E94017CA4E80E9429
:10693000D5090C944E7C419806D0409804D0419AD9
:1069400002D0409A00D0089540FD419A40FF4198FE
:10695000FADF4098F8DF409AF6DF08954198F8CFC3
:10696000419AF6CF3998419840984427ECDF319905
:106970004395419AE8DF409A399A08954198E3DFB8
:106980004098E1DFF099419ADEDF409AE7DFEADFE5
:10699000F09808954198D7DF4098D5DFF099419A53
:1069A000D2DF409ADDDFDEDFF09A0895409841980B
:1069B000389A399A07D0419A05D0409A03D0409826
:1069C00001D0409A50EA5A95F1F7089540984198BD
:1069D000389A399A38983998F5CF10E1C1DF4EB31B
:1069E000B3DFC0DFBBDFBCDFBDDFB8DFB9DFBADFDD
:1069F00041E0131140E0A8DFAA0FBB1F441FA4DF32
:106A0000B1DF4695EE1FFF1F1A9591F72DC0A8DF45
:106A10004EB39ADFA7DFA2DFA3DFA4DF9FDFA0DFF3
