:020000020000FC
:100000000C94187C0C9439000C9439000C94390031
:100010000C9439000C9439000C9439000C9439007C
:100020000C9439000C9439000C9439000C9439006C
:100030000C9439000C9439000C9439000C9439005C
:100040000C9438000C9438000C9438000C9439004F
:100050000C943B000C9439000C9439000C9439003A
:100060000C9439000C9439000C9439000C9439002C
:1000700036B8789418950F900F90A8E1A093C1001E
:0A008000A091C60078940C945F7CF8
:1001000080010180018080010180800180010180E7
:1001100001808001800101808001018001808001D7
:1001200001808001800101808001018001808001C7
:1001300080010180018080010180800180010180B7
:1001400001808001800101808001018001808001A7
:100150008001018001808001018080018001018097
:100160008001018001808001018080018001018087
:100170000180800180010180800101800180800177
:100180000180800180010180800101800180800167
:100190008001018001808001018080018001018057
:1001A0008001018001808001018080018001018047
:1001B0000180800180010180800101800180800137
:1001C0008001018001808001018080018001018027
:1001D0000180800180010180800101800180800117
:1001E0000180800180010180800101800180800107
:1001F00080010180018080010180800180010180F7
:1003C0000014000000000000000000000000000019
:1003D000000000000000000000000000000000001D
:1003E000000000000000000000000000000000000D
:1003F00000000000000000000000000000000000FD
:100400000C9408080C9467270C9464270C94832799
:100410000C94B8270C94CC270C9418280C943328EF
:100420000C946F280C9481280C9485280C948928AE
:100430000C948D280C949F280C940E080C941A0888
:100440000C943C0A0C94E20A0C946C240C9408085A
:100450000C94C7240C9486240C94E9240C94252530
:100460000C9419250C940B080C940B080C940B0895
:100470000C940B080C940B080C9408080C94940929
:100480000C94C9250C9422260C9461260C94042605
:100490000C94B4260C94E4260C9483260C94D42655
:1004A0000C940D270C940B080C940B080C94462507
:1004B0000C94821E0C949C1E0C94B61E0C94D01EA0
:1004C0000C94B82D0C948C2D0C949B2D0C94EE2D2B
:1004D0000C942F2E0C94BC2E0C94D82E0C94F72E2A
:1004E0000C94192E0C94622D0C946E2D0C944A2FA2
:1004F0000C94352F0C940B080C940B080C940B08DF
:100500000C94A72F0C9408080C9408080C94D92F6D
:100510000C9403300C942F300C9458300C94080831
:100520000C9427300C9408080C94CA4B0C94C530DA
:100530000C94E32F0C94F12F0C94484D0C943F4CE9
:100540000C94C8350C941C360C945A360C943F36D7
:100550000C949C360C94A7360C947D360C940808A9
:100560000C94CF4B0C94D44B0C94B1450C94EF45A8
:100570000C94FD450C9477430C9424080C940E4481
:100580000C94613C0C94CC3C0C94DE3C0C94E33C0D
:100590000C94023D0C94C43C0C940B080C940B0876
:1005A0000C94F4420C9440430C9448430C94F9434B
:1005B0000C9432440C94BC430C94D5430C940844E2
:1005C0000C94A33D0C94AE3D0C94D33D0C94F03DA3
:1005D0000C94113E0C94243E0C94373E0C94B43E83
:1005E0000C94D63E0C94213F0C94463F0C947D3FD6
:1005F0000C94073E0C941A3E0C942D3E0C949A3E9B
:100600000C94EE3E0C94613F0C9469400C940808E5
:100610000C9414460C9434460C9467460C942E4665
:100620000C9451460C947D460C9486400C94C64024
:100630000C943D410C94DF400C94D4400C946E41DA
:100640000C9427420C9440420C944A420C94B142C0
:100650000C94BD420C94CC420C94C8420C94D642EB
:100660000C94CA420C94DA420C94B64B0C94442677
:100670000C945D260C94DA4C0C94E0070C94E4077F
:100680000C94B2220C94C5220C94E9220C940D23F4
:100690000C943F230C94F04C0C940B080C940B0816
:1006A0000C940B080C940B080C940B080C940B087E
:1006B0000C940B080C940B080C940B080C940B086E
:1006C0000C94FF400C941D410C94144B0C94994BCA
:1006D0000C9405470C9429470C943B470C94944781
:1006E0000C9412480C9472480C94D3480C9406490C
:1006F0000C94C0490C9436490C94954A0C94344B94
:100700000C941F370C946B370C9477370C94DA37B2
:100710000C94CD380C94CB480C94C5370C945238BB
:100720000C9446370C94A4390C94BB390C94D539ED
:100730000C94193A0C94433A0C94773A0C94A63AD8
:100740000C94D3330C9451320C941D340C944334D8
:100750000C946B340C9446350C94CC340C94E834E3
:100760000C9432320C9451320C9456320C947332F5
:100770000C948E320C94A8320C94C5320C944D33E8
:100780000C940B080C940B080C940B080C940B089D
:100790000C940B080C940B080C940B080C940B088D
:1007A0000C940B080C940B080C940B080C940B087D
:1007B0000C940B080C940B080C9408080C94080873
:1007C0000000000000000000000000000000000029
:1007D0000000000000000000000000000000000019
:1007E0000000000000000000000000000000000009
:1007F00000000000000000000000000000000000F9
:100800000C94CC500C94D6500C94DA500C944E515D
:100810000C94D0510C94F0510C9401520C94DE5174
:100820000C94E3560C9426570C9459570C94635728
:100830000C948D570C9499560C94D7560C948B515C
:100840000C9425530C942F530C9433530C949153C4
:100850000C9403540C9426540C9408080C945D5387
:100860000C94C6530C9417540C949D570C94AB578E
:100870000C94DC570C9408080C9408080C94A526DA
:100880000C94F2500C946A510C94AB510C9463523A
:100890000C94D8510C9425510C94073F0C94323F82
:1008A0000C94AF4B0C94744C0C943F4C0C949E4B9A
:1008B0000C9408080C9408080C940D510C946224B4
:1008C0000C945B540C9408080C94AD540C94B454E0
:1008D0000C94CA540C9408080C94DA540C94E954FF
:1008E0000C94F8540C9408080C9401550C94315550
:1008F0000C9461550C9408080C948D550C940808C0
:100900000C94EB280C9430290C9439290C94482928
:100910000C944B290C9498290C94EB290C94F929EC
:100920000C94162A0C940C2A0C94D82B0C94692C39
:100930000C94F62B0C943B2C0C94292A0C94332AFF
:100940000C943D2A0C94632A0C94B12A0C94080848
:100950000C9408080C94902B0C94B62B0C948A2AB7
:100960000C94FD2A0C942C2C0C940B080C940B0862
:100970000C94502C0C947B2A0C940B080C940B08B0
:100980000C943F5D0C94785D0C947E5D0C94AC5D92
:100990000C948D5D0C94C65D0C940B5E0C94C45E3F
:1009A0000C9408080C947E5E0C94A25E0C94225E5B
:1009B0000C94F15D0C946B5E0C9408080C941C2B49
:1009C0000C9435610C9466610C946C610C94DF613D
:1009D0000C942F620C9469620C947A620C9493626A
:1009E0000C9405630C94FD640C943D630C94786343
:1009F0000C9476640C942A640C94BE630C94626329
:100A00000C94FA620C9424620C94E8620C947D625B
:100A10000C940A650C94DD620C94A1620C9404653C
:100A20000C9437630C9437620C9415650C94B06287
:100A30000C94BF640C9406640C941D660C945E6365
:100A40000C9408080C94F5230C9408080C94A24507
:100A50000C94884D0C9408080C9494520C94C25237
:100A60000C9473520C947D520C9481520C94A852A5
:100A70000C94DD520C94EF520C9408080C94080866
:100A80000C940B080C940B080C940B080C940B089A
:100A90000C940B080C9408080C9408080C940B0890
:100AA0000C9408080C9408080C9462230C944F23AF
:100AB0000C94F0270C944F280C94C0270C94080831
:100AC0000C940B080C940B080C9408080C94080860
:100AD0000C9408080C9408080C9408080C94080856
:100AE0000C94E23D0C94C53E0C94FA3D0C945E3E91
:100AF0000C94843E0C9408080C9495500C9465500A
:100B00000C945C660C94BF660C940F670C9473672E
:100B10000C94D8670C94A3670C9414680C948667A3
:100B20000C94C9670C9408080C94C3680C940A6967
:100B30000C9412690C9420690C944E690C9408086A
:100B40000C94584F0C94164F0C94EC4F0C94C34FCC
:100B50000C941D500C94096C0C94036A0C94CC6B8F
:100B60000C94D0690C94436A0C94496A0C94C26A40
:100B70000C94E06A0C944B6B0C94686B0C948A6A2E
:100B80000C9448080C9456080C944B080C94590883
:100B90000C9450080C945E080C9408080C940808F7
:100BA0000C9440510C9408080C9443730C944E73AD
:100BB0000C9408080C9408080C9408080C94080875
:100BC0000000000000000000000000000000000025
:100BD0000000000000000000000000000000000015
:100BE0000000000000000000000000000000000005
:100BF00000000000000000000000000000000000F5
:100C00000C94A4250C9425250C94B8250C94192536
:100C10000C94A7250C94AD250C94B3250C940808CE
:100C20000C947E290C9488290C945E290C947429C8
:100C30000C94D72A0C946D2B0C9408080C9408087B
:100C40000C94766D0C94036E0C948F6D0C949A6DCD
:100C50000C94B26D0C94C66D0C94DE6D0C94F26D18
:100C60000C94A76F0C9467700C9429700C94A97065
:100C70000C94DB700C9408080C943E2B0C94522BB3
:100C80000C941E6E0C946D6E0C947D6E0C94976E8D
:100C90000C94B36E0C94606E0C94B16E0C94A0091D
:100CA0000C944F6E0C940F6F0C94146F0C94196F7E
:100CB0000C941C6F0C94316F0C948A0A0C949A0952
:100CC0000C9494720C949F720C94A2720C94AF7258
:100CD0000C94C2720C94084F0C942A4C0C94964BB2
:100CE0000C94AB4C0C94CC4C0C94D14C0C948D4C7F
:100CF0000C944C4B0C94614B0C94684B0C94724BC1
:100D00000C946B730C9471730C947F730C947773C5
:100D10000C947B730C9488730C9493730C94B6733B
:100D20000C94CB730C94D3730C94EA730C94F473FB
:100D30000C94FE730C94DB730C94E3730C940974A1
:100D40000C9428740C94AA730C94B1500C941F72D8
:100D50000C9490710C94D6710C940E4F0C94524FCD
:100D60000C94EA710C9408080C9408080C94080878
:100D70000C9408080C9408080C9408080C940808B3
:100D80000C9408080C9408080C9408080C940808A3
:100D90000C9408080C9408080C9408080C94080893
:100DA0000C9408080C9408080C9408080C94080883
:100FB0000C9408080C9408080C94E8070C94F907A2
:100FC0004098389A0C944F7C409A38980C944F7CF7
:100FD00006E9009384100E940C7CE2E3F0E00E949A
:100FE000017C0E940E7CE8ECF0E00E94017C0C94F5
:100FF0004F7C0E940F7C0E94117CF5CF03E20A9582
:10100000F1F711970000D1F7089500270C94507C58
:1010100001E00C94507C02E00C94507CA7B1A07CC1
:10102000A02BA7B9A8B1A07CA12BA8B90E94027CD3
:101030000C944F7C0E94037CA7B1A07CA7B9A8B1F7
:10104000A07CA8B90C944F7CE0E0F8ECAF93BF9380
:101050000E94D77EBF91AF91E53040F4AAE0B0E0A6
:10106000CDDF119799F70EE70C94507C0C944F7CD0
:101070000E94357EC0E0D8ECE8940E94D77EE5302F
:1010800030F4AAE0B0E0BADF2197B9F76894089588
:1010900038B90C944F7CA8B1A32BA8B90C944F7C01
:1010A000A8B13095A323A8B90C944F7C37B90C9400
:1010B0004F7CA7B1A32BA7B90C944F7CA7B1309557
:1010C000A323A7B90C944F7C28B827B80E94027CB0
:1010D000ADE3A8B9A7E3A7B9089528B827B80E9437
:1010E000027CA7E3A8B9A7B9089528B827B80E9439
:1010F000037C089540980895409A0895AA2762E0D5
:1011000058E0A7FD429AA7FF429866B9AA0F339903
:10111000A39566B95A95A9F70895AA2762E008B081
:10112000A7FB02F808B866B9000016B013FAA7F9D1
:1011300066B9A6FB02F808B866B9000016B013FA43
:10114000A6F966B9A5FB02F808B866B9000016B0A2
:1011500013FAA5F966B9A4FB02F808B866B900004D
:1011600016B013FAA4F966B9A3FB02F808B866B979
:10117000000016B013FAA3F966B9A2FB02F808B88A
:1011800066B9000016B013FAA2F966B9A1FB02F81D
:1011900008B866B9000016B013FAA1F966B9A0FB49
:1011A00002F808B866B9000016B013FAA0F966B9DB
:1011B000089562E008B0A7FB02F808B866B9A6FB7C
:1011C00002F866B908B866B9A5FB02F866B908B8AE
:1011D00066B9A4FB02F866B908B866B9A3FB02F8C1
:1011E00066B908B866B9A2FB02F866B908B866B96C
:1011F000A1FB02F866B908B866B9A0FB02F866B9A7
:1012000008B866B90000000066B9089562E0429827
:1012100066B9000066B916B013FA66B9A7F966B9DF
:1012200016B013FA66B9A6F966B916B013FA66B91C
:10123000A5F966B916B013FA66B9A4F966B916B07D
:1012400013FA66B9A3F966B916B013FA66B9A2F92A
:1012500066B916B013FA66B9A1F966B916B013FAF1
:10126000A0F90895AA2762E058E066B9A7FD429A5E
:10127000A7FF429866B9AA0F3399A3955A95A9F783
:1012800008955F9358B15D7F052E5260152E5F91D2
:1012900008954427319B1DC000000000000000009D
:1012A000000000000000000000000000319B11C0A1
:1012B000000000000000000000000000000000002E
:1012C000000000004A9531F703E34F914F910C94D1
:1012D000507C4427319907C04A95E1F704E34F91C8
:1012E0004F910C94507C0C941E0B44273998319BE1
:1012F0000DC000000000000000004A95C1F703E3A4
:101300004F914F914F914F910C94507C44273199BC
:1013100009C04A95E1F704E34F914F914F914F91E6
:101320000C94507C0C94210B2CE0020F01BD35D0A5
:101330000C94507C2CE0020F01BD70D00C94507CBA
:101340002CE0020F01BD0C944F7C419A399AE3E0E6
:10135000FF270E94427E4198F0E127D00C944F7CF9
:1013600041984098399A389AE2E3FF270E94427EDA
:10137000409A3898F0E0E0E0309906C03197E1F704
:1013800000E3089506E3089548EC309BFBCFE1E0CD
:10139000F0E00E94427E4A95C1F7419A399AE3E013
:1013A000FF270E94427E4198F0E4E3E1EA95F1F7DD
:1013B000FA95D9F7419ABB27AA273998319B06C0DD
:1013C000B395E1F701E30895319904C0A395E1F7DE
:1013D00003E308950E94057C0E940B7C399A002744
:1013E000089541984098399A389AE2E3FF270E947D
:1013F000427E409A3898F0E0E0E0309906C031979C
:10140000E1F700E3089506E3089548EC309BFBCF35
:10141000E1E0F0E00E94427E4A95C1F7419A399A94
:10142000E3E0FF270E94427E4198F0E4E3E1EA9581
:10143000F1F7FA95D9F7419ABB27AA273998319B3A
:1014400006C0B395E1F701E3089531990EC0A39565
:10145000000000000000000000000000000000008C
:101460000000000091F703E308950E94057C0E94AC
:101470000B7C399A0027089541984098399A389AF8
:101480000E94037CE2E3FF270E94427E0E94027CCE
:10149000E8ECFF270E94427E409A37FF3898F0E040
:1014A000E0E0309908C03197E1F700E30C94507CFC
:1014B00006E30C94507C48EC309BFACFE1E0F0E07E
:1014C0000E94427E4A95C1F7419A399AE3E0FF278C
:1014D0000E94427E4198F0E4E3E1EA95F1F7FA9543
:1014E000D9F7419ABB27AA273998319B07C0B395F2
:1014F000E1F701E30C94507C319905C0A395E1F725
:1015000002E30C94507C0E94057C0E940B7C399A6B
:101510000C944F7C41984098399A389A0E94037CE9
:10152000E2E3FF270E94427E0E94027CE8ECFF2754
:101530000E94427E409A37FF3898F0E0E0E0309910
:1015400008C03197E1F700E30C94507C06E30C945B
:10155000507C48EC309BFACFE1E0F0E00E94427E04
:101560004A95C1F7419A399AE3E0FF270E94427EEB
:101570004198F0E4E3E1EA95F1F7FA95D9F7419A59
:10158000BB27AA273998319B07C0B395E1F701E340
:101590000C94507C31990FC0A3950000000000000E
:1015A000000000000000000000000000000091F7B3
:1015B00002E30C94507C0E94057C0E940B7C399ABB
:1015C0000C944F7CEAE0FF270E94427E399A389AB9
:1015D00041984098E4E1FF270E94017C0E94047C2E
:1015E000399838980C944F7CE0E6F1B50994E0E81E
:1015F000F1B50994E0E7F1B50994E0E9F1B5099492
:10160000E0EAF1B50994E0EBF1B50994E0ECF1B54D
:101610000994E0EEF1B50994E0EDF1B50994E8EE36
:10162000F1B50994E0E0F1B50994E8E0F1B5099469
:10163000E8E2F1B50994E0E3F1B50994E0E5F1B52C
:101640000994E6E5F1B50994E3EFF1B50994E8EF03
:04165000F1B5099453
:0618000048E0BA2F06C00B
:1018100040E1399A08B85AE15A95F1F7B7FD18B87E
:101820005BE35A95F1F70000000018B8399858E1C9
:101830005A95F1F70000AA0FBB1F4A9551F708957A
:0418500048E007C0A5
:1018600040E1399A08B85AE15A95F1F700003998E1
:1018700018B856E25A95F1F70000AA0FBB1F31992C
:10188000A3955DE25A95F1F7000000004A9549F7EB
:021890000895B9
:0A18A0005EE65A95F1F70000089586
:1018AC0048E05CE85A95F1F700004A95D1F70895A5
:1018C000A0EE9EDFDC01A4DF0E947509E9DFC0DF26
:0818D0000E94097C01960895B5
:1018E000A0EC8EDFDC0194DF0E94067C89DF0E9481
:0818F0007509D6DF0196089589
:10190000A0EE7EDFDB0184DF0E947509C9DFA0CF76
:10192000AF93A0EC6DDFDB0173DFAF9169DF0E9445
:041930007509B6CFB0
:10194000A0EE5EDFDB0164DFB1DF8ADF60FFAB2F7B
:021950000895F8
:10196000AF93A0EC4DDFDB0153DFAF91BA2F50DF17
:041970009DDF08955A
:10198000A8EE3EDFDC0144DF91DF6ADF0E940A7CC3
:04199000029608951E
:1019A000A8EC2EDFDC0134DF0E94077C31DF7EDF14
:0419B00002960895FE
:0E19C000A8EE1EDFDB0124DF71DF4ADF089591
:1019D0009D01A8EC15DFDB011BDFD90119DF66CF04
:0819E600A4EE61E07FEFAACF3F
:0A19F000AF93A4EC61E07FEFB5CFE8
:061A000048E0BA2F06C009
:101A100040E1399A08B85CE05A95F1F700000000FF
:101A2000B7FD18B85DE15A95F1F70000000018B84D
:101A300039985BE05A95F1F7AA0FBB1F4A9549F711
:021A4000089507
:041A500048E007C0A3
:101A600040E1399A08B85DE05A95F1F7399818B80D
:101A700052E15A95F1F70000AA0FBB1F3199A395C7
:0E1A800056E15A95F1F700004A9559F708957E
:101AA00055E35A95F1F700000000089548E055E429
:0C1AB0005A95F1F700004A95D1F708950F
:101AC000A0EE9EDFDC01A4DF0E947509E9DFC0DF24
:081AD0000E94097C01960895B3
:101AE000A0EC8EDFDC0194DF0E94067C89DF0E947F
:081AF0007509D6DF0196089587
:101B0000A0EE7EDFDB0184DF0E947509C9DFA0CF74
:101B2000AF93A0EC6DDFDB0173DFAF9169DF0E9443
:041B30007509B6CFAE
:101B4000A0EE5EDFDB0164DFB1DF8ADF60FFAB2F79
:021B50000895F6
:101B6000AF93A0EC4DDFDB0153DFAF91BA2F50DF15
:041B70009DDF089558
:101B8000A8EE3EDFDC0144DF91DF6ADF0E940A7CC1
:041B9000029608951C
:101BA000A8EC2EDFDC0134DF0E94077C31DF7EDF12
:041BB00002960895FC
:0E1BC000A8EE1EDFDB0124DF71DF4ADF08958F
:101BD0009D01A8EC15DFDB011BDFD90119DF66CF02
:081BE600A4EE61E07FEFAACF3D
:0A1BF000AF93A4EC61E07FEFB5CFE6
:061C000048E0BA2F06C007
:101C100040E1399A08B858E05A95F1F70000B7FD4D
:101C200018B853E15A95F1F70000000018B8399838
:101C300056E05A95F1F700000000AA0FBB1F4A9525
:041C400041F70895CB
:041C500048E007C0A1
:101C600040E1399A08B858E05A95F1F700000000B1
:101C7000399818B85BE05A95F1F700000000AA0FF8
:101C8000BB1F3199A3955EE05A95F1F70000000063
:061C90004A9539F70895A2
:101CA00052E25A95F1F700000000089548E05EE224
:0A1CB0005A95F1F74A95D9F7089507
:101CC000A0EE9EDFDC01A4DF0E947509E9DFC0DF22
:081CD0000E94097C01960895B1
:101CE000A0EC8EDFDC0194DF0E94067C89DF0E947D
:081CF0007509D6DF0196089585
:101D0000A0EE7EDFDB0184DF0E947509C9DFA0CF72
:101D2000AF93A0EC6DDFDB0173DFAF9169DF0E9441
:041D30007509B6CFAC
:101D4000A0EE5EDFDB0164DFB1DF8ADF60FFAB2F77
:021D50000895F4
:101D6000AF93A0EC4DDFDB0153DFAF91BA2F50DF13
:041D70009DDF089556
:101D8000A8EE3EDFDC0144DF91DF6ADF0E940A7CBF
:041D9000029608951A
:101DA000A8EC2EDFDC0134DF0E94077C31DF7EDF10
:041DB00002960895FA
:0E1DC000A8EE1EDFDB0124DF71DF4ADF08958D
:101DD0009D01A8EC15DFDB011BDFD90119DF66CF00
:081DE600A4EE61E07FEFAACF3B
:0A1DF000AF93A4EC61E07FEFB5CFE4
:061E000048E0BA2F06C005
:101E100040E1399A08B856E05A95F1F7B7FD18B87D
:101E20005EE05A95F1F70000000018B8399854E0C8
:101E30005A95F1F70000AA0FBB1F4A9551F7089574
:041E500048E007C09F
:101E600040E1399A08B856E05A95F1F700003998E0
:101E700018B858E05A95F1F70000AA0FBB1F319926
:101E8000A3955AE05A95F1F7000000004A9549F7EA
:021E90000895B3
:0A1EA00059E15A95F1F7000008958A
:0E1EAC0048E052E25A95F1F74A95D9F70895A9
:101EC000A0EE9EDFDC01A4DF0E947509E9DFC0DF20
:081ED0000E94097C01960895AF
:101EE000A0EC8EDFDC0194DF0E94067C89DF0E947B
:081EF0007509D6DF0196089583
:101F0000A0EE7EDFDB0184DF0E947509C9DFA0CF70
:101F2000AF93A0EC6DDFDB0173DFAF9169DF0E943F
:041F30007509B6CFAA
:101F4000A0EE5EDFDB0164DFB1DF8ADF60FFAB2F75
:021F50000895F2
:101F6000AF93A0EC4DDFDB0153DFAF91BA2F50DF11
:041F70009DDF089554
:101F8000A8EE3EDFDC0144DF91DF6ADF0E940A7CBD
:041F90000296089518
:101FA000A8EC2EDFDC0134DF0E94077C31DF7EDF0E
:041FB00002960895F8
:0E1FC000A8EE1EDFDB0124DF71DF4ADF08958B
:101FD0009D01A8EC15DFDB011BDFD90119DF66CFFE
:081FE600A4EE61E07FEFAACF39
:0A1FF000AF93A4EC61E07FEFB5CFE2
:0620000048E0BA2F06C003
:1020100040E1399A08B854E05A95F1F70000000001
:10202000B7FD18B85BE05A95F1F70000000018B84A
:10203000399853E05A95F1F7AA0FBB1F4A9549F713
:02204000089501
:0420500048E007C09D
:1020600040E1399A08B855E05A95F1F7399818B80F
:1020700056E05A95F1F70000AA0FBB1F3199A395BE
:0E20800058E05A95F1F700004A9559F7089577
:1020A00053E15A95F1F70000000008955FED5A954D
:0820B000F1F7000000000895A3
:1020C000A0EE9EDFDC01A4DF0E947509E9DFC0DF1E
:0820D0000E94097C01960895AD
:1020E000A0EC8EDFDC0194DF0E94067C89DF0E9479
:0820F0007509D6DF0196089581
:10210000A0EE7EDFDB0184DF0E947509C9DFA0CF6E
:10212000AF93A0EC6DDFDB0173DFAF9169DF0E943D
:042130007509B6CFA8
:10214000A0EE5EDFDB0164DFB1DF8ADF60FFAB2F73
:022150000895F0
:10216000AF93A0EC4DDFDB0153DFAF91BA2F50DF0F
:042170009DDF089552
:10218000A8EE3EDFDC0144DF91DF6ADF0E940A7CBB
:042190000296089516
:1021A000A8EC2EDFDC0134DF0E94077C31DF7EDF0C
:0421B00002960895F6
:0E21C000A8EE1EDFDB0124DF71DF4ADF089589
:1021D0009D01A8EC15DFDB011BDFD90119DF66CFFC
:0821E600A4EE61E07FEFAACF37
:0A21F000AF93A4EC61E07FEFB5CFE0
:0622000048E0BA2F06C001
:1022100040E1399A08B853E05A95F1F70000000000
:10222000B7FD18B859E05A95F1F70000000018B84A
:10223000399852E05A95F1F70000AA0FBB1F4A9552
:0422400041F70895C5
:0422500048E007C09B
:1022600040E1399A08B854E05A95F1F7399818B80E
:1022700055E05A95F1F7AA0FBB1F3199A39557E086
:0A2280005A95F1F74A9569F70895A1
:0822A00050E15A95F1F7089591
:0822AC005AEB5A95F1F7089571
:1022C000A0EE9EDFDC01A4DF0E947509E9DFC0DF1C
:0822D0000E94097C01960895AB
:1022E000A0EC8EDFDC0194DF0E94067C89DF0E9477
:0822F0007509D6DF019608957F
:10230000A0EE7EDFDB0184DF0E947509C9DFA0CF6C
:10232000AF93A0EC6DDFDB0173DFAF9169DF0E943B
:042330007509B6CFA6
:10234000A0EE5EDFDB0164DFB1DF8ADF60FFAB2F71
:022350000895EE
:10236000AF93A0EC4DDFDB0153DFAF91BA2F50DF0D
:042370009DDF089550
:10238000A8EE3EDFDC0144DF91DF6ADF0E940A7CB9
:042390000296089514
:1023A000A8EC2EDFDC0134DF0E94077C31DF7EDF0A
:0423B00002960895F4
:0E23C000A8EE1EDFDB0124DF71DF4ADF089587
:1023D0009D01A8EC15DFDB011BDFD90119DF66CFFA
:0823E600A4EE61E07FEFAACF35
:0A23F000AF93A4EC61E07FEFB5CFDE
:0624000048E0BA2F06C0FF
:1024100040E1399A08B853E05A95F1F7B7FD18B87A
:1024200058E05A95F1F7000018B8399851E05A95DC
:10243000F1F700000000AA0FBB1F4A9551F708955D
:0424500048E007C099
:1024600040E1399A08B853E05A95F1F700003998DD
:1024700018B854E05A95F1F7AA0FBB1F3199A395EC
:1024800055E05A95F1F7000000004A9551F708957C
:0A24A0005DE05A95F1F70000089581
:0824AC005FE95A95F1F708956C
:1024C000A0EE9EDFDC01A4DF0E947509E9DFC0DF1A
:0824D0000E94097C01960895A9
:1024E000A0EC8EDFDC0194DF0E94067C89DF0E9475
:0824F0007509D6DF019608957D
:10250000A0EE7EDFDB0184DF0E947509C9DFA0CF6A
:10252000AF93A0EC6DDFDB0173DFAF9169DF0E9439
:042530007509B6CFA4
:10254000A0EE5EDFDB0164DFB1DF8ADF60FFAB2F6F
:022550000895EC
:10256000AF93A0EC4DDFDB0153DFAF91BA2F50DF0B
:042570009DDF08954E
:10258000A8EE3EDFDC0144DF91DF6ADF0E940A7CB7
:042590000296089512
:1025A000A8EC2EDFDC0134DF0E94077C31DF7EDF08
:0425B00002960895F2
:0E25C000A8EE1EDFDB0124DF71DF4ADF089585
:1025D0009D01A8EC15DFDB011BDFD90119DF66CFF8
:0825E600A4EE61E07FEFAACF33
:0A25F000AF93A4EC61E07FEFB5CFDC
:0626000048E0BA2F06C0FD
:1026100040E1399A08B852E05A95F1F700000000FD
:10262000B7FD18B857E05A95F1F7000018B8399877
:1026300051E05A95F1F7AA0FBB1F4A9551F708953B
:0426500048E007C097
:1026600040E1399A08B853E05A95F1F7399818B80B
:1026700053E05A95F1F70000AA0FBB1F3199A395BB
:0C26800055E05A95F1F74A9561F708956E
:0A26A0005BE05A95F1F70000089581
:0C26AC005AE85A95F1F70000000008956C
:1026C000A0EE9EDFDC01A4DF0E947509E9DFC0DF18
:0826D0000E94097C01960895A7
:1026E000A0EC8EDFDC0194DF0E94067C89DF0E9473
:0826F0007509D6DF019608957B
:10270000A0EE7EDFDB0184DF0E947509C9DFA0CF68
:10272000AF93A0EC6DDFDB0173DFAF9169DF0E9437
:042730007509B6CFA2
:10274000A0EE5EDFDB0164DFB1DF8ADF60FFAB2F6D
:022750000895EA
:10276000AF93A0EC4DDFDB0153DFAF91BA2F50DF09
:042770009DDF08954C
:10278000A8EE3EDFDC0144DF91DF6ADF0E940A7CB5
:042790000296089510
:1027A000A8EC2EDFDC0134DF0E94077C31DF7EDF06
:0427B00002960895F0
:0E27C000A8EE1EDFDB0124DF71DF4ADF089583
:1027D0009D01A8EC15DFDB011BDFD90119DF66CFF6
:0827E600A4EE61E07FEFAACF31
:0A27F000AF93A4EC61E07FEFB5CFDA
:0628000048E0BA2F06C0FB
:1028100040E1399A08B852E05A95F1F70000B7FD47
:1028200018B856E05A95F1F7000018B8399800002A
:0C2830000000AA0FBB1F4A9561F7089535
:0428500048E007C095
:1028600040E1399A08B852E05A95F1F700000000AB
:10287000399818B852E05A95F1F700000000AA0FF5
:10288000BB1F3199A39554E05A95F1F700004A9582
:0428900041F708956F
:1028A00059E05A95F1F70000000008955BE75A954A
:0428B000F1F708959F
:1028C000A0EE9EDFDC01A4DF0E947509E9DFC0DF16
:0828D0000E94097C01960895A5
:1028E000A0EC8EDFDC0194DF0E94067C89DF0E9471
:0828F0007509D6DF0196089579
:10290000A0EE7EDFDB0184DF0E947509C9DFA0CF66
:10292000AF93A0EC6DDFDB0173DFAF9169DF0E9435
:042930007509B6CFA0
:10294000A0EE5EDFDB0164DFB1DF8ADF60FFAB2F6B
:022950000895E8
:10296000AF93A0EC4DDFDB0153DFAF91BA2F50DF07
:042970009DDF08954A
:10298000A8EE3EDFDC0144DF91DF6ADF0E940A7CB3
:04299000029608950E
:1029A000A8EC2EDFDC0134DF0E94077C31DF7EDF04
:0429B00002960895EE
:0E29C000A8EE1EDFDB0124DF71DF4ADF089581
:1029D0009D01A8EC15DFDB011BDFD90119DF66CFF4
:0829E600A4EE61E07FEFAACF2F
:0A29F000AF93A4EC61E07FEFB5CFD8
:062A000048E0BA2F06C0F9
:102A100040E1399A08B852E05A95F1F7B7FD18B875
:102A200055E05A95F1F70000000018B839980000F9
:0A2A3000AA0FBB1F4A9569F708952D
:042A500048E007C093
:102A600040E1399A08B852E05A95F1F700003998D8
:102A700018B852E05A95F1F70000AA0FBB1F319920
:102A8000A39553E05A95F1F7000000004A9549F7E5
:022A90000895A7
:0A2AA00058E05A95F1F70000089580
:0A2AAC005EE65A95F1F70000089568
:102AC000A0EE9EDFDC01A4DF0E947509E9DFC0DF14
:082AD0000E94097C01960895A3
:102AE000A0EC8EDFDC0194DF0E94067C89DF0E946F
:082AF0007509D6DF0196089577
:102B0000A0EE7EDFDB0184DF0E947509C9DFA0CF64
:102B2000AF93A0EC6DDFDB0173DFAF9169DF0E9433
:042B30007509B6CF9E
:102B4000A0EE5EDFDB0164DFB1DF8ADF60FFAB2F69
:022B50000895E6
:102B6000AF93A0EC4DDFDB0153DFAF91BA2F50DF05
:042B70009DDF089548
:102B8000A8EE3EDFDC0144DF91DF6ADF0E940A7CB1
:042B9000029608950C
:102BA000A8EC2EDFDC0134DF0E94077C31DF7EDF02
:042BB00002960895EC
:0E2BC000A8EE1EDFDB0124DF71DF4ADF08957F
:102BD0009D01A8EC15DFDB011BDFD90119DF66CFF2
:082BE600A4EE61E07FEFAACF2D
:0A2BF000AF93A4EC61E07FEFB5CFD6
:062C000048E0BA2F06C0F7
:102C100040E1399A08B851E05A95F1F700000000F8
:102C2000B7FD18B855E05A95F1F718B83998000073
:0A2C3000AA0FBB1F4A9569F708952B
:042C500048E007C091
:102C600040E1399A08B852E05A95F1F7399818B806
:102C700052E05A95F1F7AA0FBB1F3199A39553E083
:0C2C80005A95F1F700004A9561F708959D
:0A2CA00057E05A95F1F7000008957F
:082CAC0054E65A95F1F7089572
:102CC000A0EE9EDFDC01A4DF0E947509E9DFC0DF12
:082CD0000E94097C01960895A1
:102CE000A0EC8EDFDC0194DF0E94067C89DF0E946D
:082CF0007509D6DF0196089575
:102D0000A0EE7EDFDB0184DF0E947509C9DFA0CF62
:102D2000AF93A0EC6DDFDB0173DFAF9169DF0E9431
:042D30007509B6CF9C
:102D4000A0EE5EDFDB0164DFB1DF8ADF60FFAB2F67
:022D50000895E4
:102D6000AF93A0EC4DDFDB0153DFAF91BA2F50DF03
:042D70009DDF089546
:102D8000A8EE3EDFDC0144DF91DF6ADF0E940A7CAF
:042D9000029608950A
:102DA000A8EC2EDFDC0134DF0E94077C31DF7EDF00
:042DB00002960895EA
:0E2DC000A8EE1EDFDB0124DF71DF4ADF08957D
:102DD0009D01A8EC15DFDB011BDFD90119DF66CFF0
:082DE600A4EE61E07FEFAACF2B
:0A2DF000AF93A4EC61E07FEFB5CFD4
:062E000048E0BA2F06C0F5
:102E100040E1399A08B851E05A95F1F700000000F6
:102E2000B7FD18B854E05A95F1F70000000018B843
:0C2E30003998AA0FBB1F4A9561F708955E
:042E500048E007C08F
:102E600040E1399A08B852E05A95F1F7399818B804
:102E700051E05A95F1F700000000AA0FBB1F3199ED
:0E2E8000A39553E05A95F1F74A9559F7089536
:0A2EA00056E05A95F1F7000008957E
:0A2EAC005BE55A95F1F70000089568
:102EC000A0EE9EDFDC01A4DF0E947509E9DFC0DF10
:082ED0000E94097C019608959F
:102EE000A0EC8EDFDC0194DF0E94067C89DF0E946B
:082EF0007509D6DF0196089573
:102F0000A0EE7EDFDB0184DF0E947509C9DFA0CF60
:102F2000AF93A0EC6DDFDB0173DFAF9169DF0E942F
:042F30007509B6CF9A
:102F4000A0EE5EDFDB0164DFB1DF8ADF60FFAB2F65
:022F50000895E2
:102F6000AF93A0EC4DDFDB0153DFAF91BA2F50DF01
:042F70009DDF089544
:102F8000A8EE3EDFDC0144DF91DF6ADF0E940A7CAD
:042F90000296089508
:102FA000A8EC2EDFDC0134DF0E94077C31DF7EDFFE
:042FB00002960895E8
:0E2FC000A8EE1EDFDB0124DF71DF4ADF08957B
:102FD0009D01A8EC15DFDB011BDFD90119DF66CFEE
:082FE600A4EE61E07FEFAACF29
:0A2FF000AF93A4EC61E07FEFB5CFD2
:0630000048E0BA2F06C0F3
:1030100040E1399A08B851E05A95F1F70000B7FD40
:1030200018B854E05A95F1F7000018B83998AA0F6B
:08303000BB1F4A9571F70895DA
:0430500048E007C08D
:1030600040E1399A08B851E05A95F1F700000000A4
:10307000399818B851E05A95F1F70000AA0FBB1F14
:103080003199A39552E05A95F1F7000000004A9556
:0430900041F7089567
:1030A00055E05A95F1F700000000089554E55A954F
:0630B000F1F70000089595
:1030C000A0EE9EDFDC01A4DF0E947509E9DFC0DF0E
:0830D0000E94097C019608959D
:1030E000A0EC8EDFDC0194DF0E94067C89DF0E9469
:0830F0007509D6DF0196089571
:10310000A0EE7EDFDB0184DF0E947509C9DFA0CF5E
:10312000AF93A0EC6DDFDB0173DFAF9169DF0E942D
:043130007509B6CF98
:10314000A0EE5EDFDB0164DFB1DF8ADF60FFAB2F63
:023150000895E0
:10316000AF93A0EC4DDFDB0153DFAF91BA2F50DFFF
:043170009DDF089542
:10318000A8EE3EDFDC0144DF91DF6ADF0E940A7CAB
:043190000296089506
:1031A000A8EC2EDFDC0134DF0E94077C31DF7EDFFC
:0431B00002960895E6
:0E31C000A8EE1EDFDB0124DF71DF4ADF089579
:1031D0009D01A8EC15DFDB011BDFD90119DF66CFEC
:0831E600A4EE61E07FEFAACF27
:0A31F000AF93A4EC61E07FEFB5CFD0
:0632000048E0BA2F06C0F1
:1032100040E1399A08B851E05A95F1F70000B7FD3E
:1032200018B854E05A95F1F718B839980000000022
:0A323000AA0FBB1F4A9569F7089525
:0432500048E007C08B
:1032600040E1399A08B851E05A95F1F700000000A2
:10327000399818B851E05A95F1F70000AA0FBB1F12
:103280003199A39552E05A95F1F700004A9549F714
:0232900008959F
:0832A00055E05A95F1F708957D
:0832AC005EE45A95F1F7089564
:1032C000A0EE9EDFDC01A4DF0E947509E9DFC0DF0C
:0832D0000E94097C019608959B
:1032E000A0EC8EDFDC0194DF0E94067C89DF0E9467
:0832F0007509D6DF019608956F
:10330000A0EE7EDFDB0184DF0E947509C9DFA0CF5C
:10332000AF93A0EC6DDFDB0173DFAF9169DF0E942B
:043330007509B6CF96
:10334000A0EE5EDFDB0164DFB1DF8ADF60FFAB2F61
:023350000895DE
:10336000AF93A0EC4DDFDB0153DFAF91BA2F50DFFD
:043370009DDF089540
:10338000A8EE3EDFDC0144DF91DF6ADF0E940A7CA9
:043390000296089504
:1033A000A8EC2EDFDC0134DF0E94077C31DF7EDFFA
:0433B00002960895E4
:0E33C000A8EE1EDFDB0124DF71DF4ADF089577
:1033D0009D01A8EC15DFDB011BDFD90119DF66CFEA
:0833E600A4EE61E07FEFAACF25
:0A33F000AF93A4EC61E07FEFB5CFCE
:0634000048E0BA2F06C0EF
:1034100040E1399A08B851E05A95F1F7B7FD18B86C
:1034200053E05A95F1F70000000018B839980000F1
:0C3430000000AA0FBB1F4A9561F7089529
:0434500048E007C089
:1034600040E1399A08B851E05A95F1F700003998CF
:1034700018B851E05A95F1F7AA0FBB1F3199A395DF
:0E34800052E05A95F1F700004A9559F7089569
:1034A00054E05A95F1F700000000089558E45A9549
:0834B000F1F70000000008958F
:1034C000A0EE9EDFDC01A4DF0E947509E9DFC0DF0A
:0834D0000E94097C0196089599
:1034E000A0EC8EDFDC0194DF0E94067C89DF0E9465
:0834F0007509D6DF019608956D
:10350000A0EE7EDFDB0184DF0E947509C9DFA0CF5A
:10352000AF93A0EC6DDFDB0173DFAF9169DF0E9429
:043530007509B6CF94
:10354000A0EE5EDFDB0164DFB1DF8ADF60FFAB2F5F
:023550000895DC
:10356000AF93A0EC4DDFDB0153DFAF91BA2F50DFFB
:043570009DDF08953E
:10358000A8EE3EDFDC0144DF91DF6ADF0E940A7CA7
:043590000296089502
:1035A000A8EC2EDFDC0134DF0E94077C31DF7EDFF8
:0435B00002960895E2
:0E35C000A8EE1EDFDB0124DF71DF4ADF089575
:1035D0009D01A8EC15DFDB011BDFD90119DF66CFE8
:0835E600A4EE61E07FEFAACF23
:0A35F000AF93A4EC61E07FEFB5CFCC
:0636000048E0BA2F06C0ED
:1036100040E1399A08B851E05A95F1F7B7FD18B86A
:1036200053E05A95F1F7000018B839980000AA0F36
:08363000BB1F4A9571F70895D4
:0436500048E007C087
:1036600040E1399A08B851E05A95F1F700003998CD
:1036700018B851E05A95F1F7AA0FBB1F3199A395DD
:0C36800052E05A95F1F74A9561F7089561
:0836A00054E05A95F1F708957A
:0836AC0054E45A95F1F708956A
:1036C000A0EE9EDFDC01A4DF0E947509E9DFC0DF08
:0836D0000E94097C0196089597
:1036E000A0EC8EDFDC0194DF0E94067C89DF0E9463
:0836F0007509D6DF019608956B
:10370000A0EE7EDFDB0184DF0E947509C9DFA0CF58
:10372000AF93A0EC6DDFDB0173DFAF9169DF0E9427
:043730007509B6CF92
:10374000A0EE5EDFDB0164DFB1DF8ADF60FFAB2F5D
:023750000895DA
:10376000AF93A0EC4DDFDB0153DFAF91BA2F50DFF9
:043770009DDF08953C
:10378000A8EE3EDFDC0144DF91DF6ADF0E940A7CA5
:043790000296089500
:1037A000A8EC2EDFDC0134DF0E94077C31DF7EDFF6
:0437B00002960895E0
:0E37C000A8EE1EDFDB0124DF71DF4ADF089573
:1037D0009D01A8EC15DFDB011BDFD90119DF66CFE6
:0837E600A4EE61E07FEFAACF21
:1037F000AF93A4EC61E07FEFB5CF419A399AB8B1AD
:10380000BD7FB8B9F9E000000000E3E0EA95F1F708
:1038100000000000BD7F0894A79508F4B260B8B915
:10382000FA9599F7E4E0EA95F1F70895EE27FF2776
:103830006894319B04C03197E1F7E8940895E7E07C
:10384000EA95F1F7F8E0A6953199A068E3E0EA95EA
:10385000F1F700000000FA95B1F7319BFECF089513
:10386000419A399AB8B1BD7FB8B9F9E000000000BB
:103870000000EAE0EA95F1F7B8B1BD7F0894A7959A
:1038800008F4B260B8B9FA95A1F7EDE2EA95F1F75C
:1038900039980895419A399AB8B1BD7FB8B9F9E01D
:1038A000000000000000EAE0EA95F1F7B8B1BD7F42
:1038B0000894A79508F4B260B8B9FA95A1F7E6E0C4
:1038C000EA95F1F739980895EE27FF276894AA271B
:1038D000319B06C0AA95E1F73197C9F7E89408959E
:1038E000EFE0EA95F1F7F8E0A6953199A068EBE0F2
:1038F000EA95F1F70000FA95B9F7319BFECF0895EC
:10390000419A399AB8B1BD7FB8B9F9E0000000001A
:103910000000E7E1EA95F1F70000B8B1BD7F089437
:10392000A79508F4B260B8B9FA9599F7EAE5EA956F
:10393000F1F70895419A399AB8B1BD7FB8B9F9E065
:10394000000000000000E7E1EA95F1F70000B8B1DF
:10395000BD7F0894A79508F4B260B8B9FA9599F7B5
:10396000E0E1EA95F1F739980895EE27FF2768948A
:10397000319B04C03197E1F7E8940895E3E2EA95BA
:10398000F1F7F8E0A6953199A068E8E1EA95F1F73A
:1039900000000000FA95B1F7319BFECF0895419ADF
:1039A000399AB8B1BD7FB8B9F9E000000000000055
:1039B000E0EDEA95D6D5E9F7B8B1BD7F0894A795B3
:1039C00008F4B260B8B9FA9599F7E1EDEA95C9D56E
:1039D000E9F739980895419A399AB8B1BD7FB8B9D5
:1039E000F9E0000000000000E0EDEA95BAD5E9F743
:1039F000B8B1BD7F0894A79508F4B260B8B9FA953C
:103A000099F7E4E1EA95ADD5E9F70895EE27FF27A8
:103A10006894319B06C0A3D53197D9F7E8940895EF
:103A2000E0EEEA959AD5E9F7F8E0A6953199A06815
:103A3000E0EDEA9596D5E9F70000FA95B1F7E4E8EC
:103A4000EA9500000000000000000000C9F708959A
:103A5000EF93FF93AF93419A399AB8B1BD7FB8B94C
:103A6000F9E0000000000000ECEAEA95F1F7B8B1D7
:103A7000BD7F0894A79508F4B260B8B9FA95A1F78C
:103A8000ECEAEA95F1F7AF91FF91EF910895EF938A
:103A9000FF93AF93419A399AB8B1BD7FB8B9F9E0B5
:103AA000000000000000ECEAEA95F1F7B8B1BD7F34
:103AB0000894A79508F4B260B8B9FA95A1F7EAE0BE
:103AC000EA95F1F7AF91FF91EF910895EF93FF938E
:103AD000EE27FF2739986894AA27319B08C0AA953A
:103AE000E1F73197C9F7E894FF91EF910895E4EC7D
:103AF000EA950000E9F7F8E0A6953199A068ECEAAC
:103B0000EA95F1F7FA95C1F7E7E5EA95F1F7FF9144
:103B1000EF910895EF93FF93AF93419A399AB8B11B
:103B2000BD7FB8B9F9E0000000000000E7E3EA95C6
:103B3000F1F7B8B1BD7F0894A79508F4B260B8B9A1
:103B4000FA95A1F7E7E3EA95F1F7AF91FF91EF91CD
:103B500008953998EF93FF93EE27FF276894AA27DB
:103B6000319B08C0AA95E1F73197C9F7E894FF9116
:103B7000EF910895E6E4EA95F1F7F8E0A69531991A
:103B8000A068E8E3EA95F1F7FA95C1F7ECE1EA9568
:103B9000F1F7FF91EF910895419A399AB8B1BD7F3D
:103BA000B8B9F9E0000000000000E8E6EA95D9D4D1
:103BB000E9F7B8B1BD7F0894A79508F4B260B8B929
:103BC000FA9599F7E2E4EA95CCD4E9F70895419A99
:103BD000399AB8B1BD7FB8B9F9E000000000000023
:103BE000E8E6EA95BED4E9F7B8B1BD7F0894A79599
:103BF00008F4B260B8B9FA9599F7EAE0EA95B1D459
:103C0000E9F70895EE27FF276894319B0DC0000067
:103C10000AD009D008D007D0000000000000000042
:103C2000319799F7E8940895E8E7EA9596D4E9F78B
:103C3000F8E0A6953199A068E7E6EA9592D4E9F70D
:103C40000000FA95B1F7E2E4EA95000000000000F8
:103C500000000000C9F70895EE27FF276894319B04
:103C600005C07DD43197D9F7E8940895E0E6EA9548
:103C700074D4E9F7F8E0A6953199A068E3E5EA95F0
:103C800070D4E9F70000FA95B1F7E4E3EA95000093
:103C90000000000000000000C9F70895EE27FF278C
:103CA0006894319B05C05BD43197D9F7E8940895A7
:103CB000E0E3EA9552D4E9F7F8E0A6953199A068D7
:103CC000EAE2EA954ED4E9F70000FA95B1F7EAE1A5
:103CD000EA9500000000000000000000C9F7089508
:103CE000EE27F0E06894AA27319BFACD319BF8CDFE
:103CF000319BF6CD319BF4CDAA95B1F7319799F769
:103D0000E89408950E94057CC8010196019721F06E
:103D10000E94067C14D1FACF0E94057CC90101964D
:103D2000019729F024D32EF40E94097CF9CF0C943A
:103D30004F7C01E40C94507C0E94057CC8010196E4
:103D4000019721F00E94067C37D1FACF0E94057CB2
:103D5000C9010196019729F04BD32EF40E94097CEA
:103D6000F9CF0C944F7C01E40C94507C0E94057CAC
:103D7000C8010196019721F00E94067C60D1FACF1C
:103D80000E94057CC9010196019729F074D32EF495
:103D90000E94097CF9CF0C944F7C01E40C94507C78
:103DA0000E94057CC8010196019721F00E94067CC3
:103DB00044D0FACF0E94057CC9010196019729F0F1
:103DC00052D22EF40E94097CF9CF0C944F7C01E46E
:103DD0000C94507C429A3A9AB8B1BB7FB8B9F9E0DA
:103DE00000000000E3E0EA95F1F700000000BB7F6F
:103DF0000894A79508F4B460B8B9FA9599F7E4E087
:103E0000EA95F1F70895EE27FF276894329B04C0E6
:103E10003197E1F7E8940895E7E0EA95F1F7F8E0E3
:103E2000A6953299A068E3E0EA95F1F7000000005A
:103E3000FA95B1F7329BFECF0895429A3A9AB8B1FB
:103E4000BB7FB8B9F9E0000000000000EAE0EA95A5
:103E5000F1F7B8B1BB7F0894A79508F4B460B8B97E
:103E6000FA95A1F7EEE0EA95F1F73A980895EE2772
:103E7000FF276894329B04C03197E1F7E8940895D6
:103E8000EFE0EA95F1F7F8E0A6953299A068EBE04B
:103E9000EA95F1F70000FA95B9F7329BFECF089545
:103EA000429A3A9AB8B1BB7FB8B9F9E00000000075
:103EB0000000E7E1EA95F1F70000B8B1BB7F089494
:103EC000A79508F4B460B8B9FA9599F7EAE5EA95C8
:103ED000F1F70895429A3A9AB8B1BB7FB8B9F9E0C0
:103EE000000000000000E7E1EA95F1F70000B8B13A
:103EF000BB7F0894A79508F4B460B8B9FA9599F710
:103F0000E0E1EA95F1F73A980895EE27FF276894E3
:103F1000329B04C03197E1F7E8940895E3E2EA9513
:103F2000F1F7F8E0A6953299A068E8E1EA95F1F793
:103F300000000000FA95B1F7329BFECF0895429A37
:103F40003A9AB8B1BB7FB8B9F9E0000000000000B0
:103F5000E0EDEA9506D3E9F7B8B1BB7F0894A795E1
:103F600008F4B460B8B9FA9599F7E0E0EA95F1F78A
:103F70003A980895EE27FF276894329B06C0EFD247
:103F80003197D9F7E8940895E0EEEA95E6D2E9F79B
:103F9000F8E0A6953299A068E0EDEA95E2D2E9F75B
:103FA0000000FA95B1F7E4E8EA950000000000008F
:103FB00000000000C9F70895EF93FF93AF93429A72
:103FC0003A9AB8B1BB7FB8B9F9E000000000000030
:103FD000ECEAEA95F1F7B8B1BB7F0894A79508F42D
:103FE000B460B8B9FA95A1F7ECEAEA95F1F7AF91A8
:103FF000FF91EF910895EF93FF93EE27FF273A98F3
:104000006894AA27329B08C0AA95E1F73197C9F7AF
:10401000E894FF91EF910895E4ECEA950000E9F748
:10402000F8E0A6953299A068ECEAEA95F1F7FA95DE
:10403000C1F7E7E5EA95F1F7FF91EF910895EF9366
:10404000FF93AF93429A3A9AB8B1BB7FB8B9F9E0FF
:10405000000000000000E7E3EA95F1F7B8B1BB7F8C
:104060000894A79508F4B460B8B9FA95A1F7E7E306
:10407000EA95F1F7AF91FF91EF9108953A98EF9398
:10408000FF93EE27FF276894AA27329B08C0AA95C2
:10409000E1F73197C9F7E894FF91EF910895E6E4CD
:1040A000EA95F1F7F8E0A6953299A068E8E3EA9579
:1040B000F1F7FA95C1F7ECE1EA95F1F7FF91EF918D
:1040C0000895429A3A9AB8B1BB7FB8B9F9E00000B6
:1040D00000000000E8E6EA9544D2E9F7B8B1BB7FFA
:1040E0000894A79508F4B460B8B9FA9599F7E2E492
:1040F000EA9537D2E9F70895EE27FF276894329BB7
:1041000005C02DD23197D9F7E8940895E8E7EA95EC
:1041100024D2E9F7F8E0A6953299A068E7E6EA9597
:1041200020D2E9F70000FA95B1F7E2E4EA95000041
:104130000000000000000000C9F70895EE27F0E03D
:104140006894AA27329B9CCE329B9ACE329B98CE03
:10415000329B96CEAA95B1F7319799F7E8940895D6
:10416000429A3A9AB8B1BB7FB8B9F9E000000000B2
:104170000000E3E5EA95F5D1E9F7B8B1BB7F089413
:10418000A79508F4B460B8B9FA9599F7E4E3EA950D
:10419000E8D1E9F70895429A3A9AB8B1BB7FB8B925
:1041A000F9E0000000000000E9E2EA95DAD1E9F761
:1041B000B8B1BB7F0894A79508F4B460B8B9FA9574
:1041C00099F7EAE1EA95CDD1E9F70895439A3B9A48
:1041D000B8B1B77FB8B9F9E000000000E3E0EA95B4
:1041E000F1F700000000B77F0894A79508F4B860C5
:1041F000B8B9FA9599F7E4E0EA95F1F70895EE2752
:10420000FF276894339B04C03197E1F7E894089541
:10421000E7E0EA95F1F7F8E0A6953399A068E3E0C6
:10422000EA95F1F700000000FA95B1F7339BFECF55
:104230000895439A3B9AB8B1B77FB8B9F9E0000046
:1042400000000000EAE0EA95F1F7B8B1B77F089402
:10425000A79508F4B860B8B9FA95A1F7EEE0EA9529
:10426000F1F73B980895EE27FF276894339B04C02D
:104270003197E1F7E8940895EFE0EA95F1F7F8E077
:10428000A6953399A068EBE0EA95F1F70000FA955E
:10429000B9F7339BFECF0895439A3B9AB8B1B77FE5
:1042A000B8B9F9E0000000000000E7E1EA95F1F795
:1042B0000000B8B1B77F0894A79508F4B860B8B902
:1042C000FA9599F7EAE5EA95F1F70895439A3B9A4A
:1042D000B8B1B77FB8B9F9E0000000000000E7E12D
:1042E000EA95F1F70000B8B1B77F0894A79508F4F4
:1042F000B860B8B9FA9599F7E0E1EA95F1F73B981B
:104300000895EE27FF276894339B04C03197E1F7A7
:10431000E8940895E3E2EA95F1F7F8E0A695339979
:10432000A068E8E1EA95F1F700000000FA95B1F71E
:10433000339BFECF0895439A3B9AB8B1B77FB8B983
:10434000F9E0000000000000E0EDEA950AD1E9F78D
:10435000B8B1B77F0894A79508F4B860B8B9FA95D2
:1043600099F7E1EDEA95FDD0E9F73B980895EE273E
:10437000FF276894339B06C0F2D03197D9F7E894B1
:104380000895E0EEEA95E9D0E9F7F8E0A6953399CB
:10439000A068E0EDEA95E5D0E9F70000FA95B1F7FD
:1043A000E4E8EA9500000000000000000000C9F702
:1043B0000895EF93FF93AF93439A3B9AB8B1B77FB9
:1043C000B8B9F9E0000000000000ECEAEA95F1F766
:1043D000B8B1B77F0894A79508F4B860B8B9FA9552
:1043E000A1F7ECEAEA95F1F7AF91FF91EF9108950B
:1043F000EF93FF93EE27FF273B986894AA27339B00
:1044000008C0AA95E1F73197C9F7E894FF91EF91B9
:104410000895E4ECEA950000E9F7F8E0A6953399F1
:10442000A068ECEAEA95F1F7FA95C1F7E7E5EA95B5
:10443000F1F7FF91EF910895EF93FF93AF93439AB4
:104440003B9AB8B1B77FB8B9F9E0000000000000AE
:10445000E7E3EA95F1F7B8B1B77F0894A79508F4B8
:10446000B860B8B9FA95A1F7E7E3EA95F1F7AF912B
:10447000FF91EF9108953B98EF93FF93EE27FF276D
:104480006894AA27339B08C0AA95E1F73197C9F72A
:10449000E894FF91EF910895E6E4EA95F1F7F8E0EA
:1044A000A6953399A068E8E3EA95F1F7FA95C1F784
:1044B000ECE1EA95F1F7FF91EF910895439A3B9A69
:1044C000B8B1B77FB8B9F9E0000000000000E8E635
:1044D000EA9547D0E9F7B8B1B77F0894A79508F4F3
:1044E000B860B8B9FA9599F7E2E4EA953AD0E9F7F5
:1044F0000895EE27FF276894339B05C030D031978D
:10450000D9F7E8940895E8E7EA9527D0E9F7F8E0C5
:10451000A6953399A068E7E6EA9523D0E9F700006D
:10452000FA95B1F7E2E4EA9500000000000000000F
:104530000000C9F70895EE27F0E06894AA27339B9E
:104540009BCE339B99CE339B97CE339B95CEAA952A
:10455000B1F7319799F7E894089500000000000042
:1045600000000895412E522E632E702E0E94027C70
:10457000A1E170FEACE5A093B800A0E0A093B90063
:10458000A4E8A093BC000C944F7C2092BC000E9435
:10459000037C0C944F7CDDD0783089F4A22FAE7F61
:1045A000F0D0783161F4A52DA13021F0A92FE9D008
:1045B000783229F4A82FE5D0783209F408950F90C5
:1045C0000F9000E4C2D00C94507C02E4BED00C9456
:1045D000507CC8010E94057CDEDFBBD07031A9F79A
:1045E000A22FA160CED0703481F7439EC0019030DD
:1045F00051F4813041F4CED00E94097C783529F7FE
:10460000A4D00C944F7CC1D07035F9F60E94097C7F
:104610000197EDCF9AD00C944F7CC8010E94057C85
:10462000BADF642D0E94067CACD0783271F66A95B0
:10463000C9F78BD0E62DF0E00E94017C840D921D1D
:104640003A9571F70C944F7C01E40C94507C81D026
:10465000783089F4A5E495D070930101703459F451
:1046600099D070930201783531F4A09300010027AE
:104670006CD00C944F7C01E468D00C94507C69D0D1
:10468000A22F7FD0A0EA7DD0A0E87BD0A1E079D096
:104690005CD0E2E3F0E00E94017C0C944F7C0E942D
:1046A000057C01E4B0E030D0BCE02ED0B4E02CD0EA
:1046B000B5E02AD0B6E028D0B7E026D0B8E024D0C4
:1046C0000C944F7C01E445D07830E1F502E4A0E29F
:1046D00058D07831B9F5A0E054D0783299F5A22FAE
:1046E00050D0783279F5A32F4CD0783259F52DD0AF
:1046F000E7E3F0E025FDECED24FF02C0EE0FFF1F25
:104700000E94017C0C944F7C01E423D07830C1F4EA
:1047100002E4A0E236D0783199F4AB2F32D078326F
:1047200089F417D0A1E22DD030D00E94097C32D07C
:104730000E94097C0AD0E1E0F0E00E94017C08952B
:104740000F900F9002D00C94507C44E94093BC0031
:10475000089544EA4093BC004091BC0047FFFCCF61
:104760007091B900787F44E04093BC000895409375
:10477000BC004091BC0047FFFCCF7091B900787F2E
:104780000895A093BB0044E8F2CF44ECF0DFA09181
:10479000BB00089544E8EBDFA091BB00089528B862
:1047A000A7E0A7B90E94027CE8ECF0E00E94017C3F
:1047B000409A552744E609D040984AE006D008952B
:1047C00028B827B80E94037C0895419A43195209DA
:1047D0000000000000000000000041980000000000
:1047E00000000000000089F70895303029F42430DB
:1047F00018F401E40C94507CA0E00E943A7DA8E9F2
:10480000A093C10078940E94027CAFE328B8A7B9B6
:10481000303009F019C0243019F4A8B9A395FDCFA0
:10482000253021F4A8B90000A395FCCF263029F447
:10483000A8B900000000A395FBCF273029F4A8B940
:1048400000000000A395FBCF21FD03C020FF04C0A2
:104850000FC020FF1AC027C0C9019695879596956D
:1048600087950197A8B9A395FC013197F1F7FACF85
:10487000C90196958795969587950197A8B9A395AF
:10488000FC013197F1F70000F9CFC90196958795A2
:10489000969587950197A8B9A395FC013197F1F7F3
:1048A00000000000F8CFC9019695879596958795E9
:1048B0000197A8B9A395FC013197F1F7000000001A
:1048C0000000F7CF28B8E5E0F1E00E94017C27B8AE
:1048D0000E94037C0C944F7C302F0E9441092CE0F5
:1048E000120F11BDA5ED0E94120B0E944909E9D0DB
:1048F000A32F60E278E10E94FD0A65E278E10E9460
:10490000F70AA058A07B0A2F0C94507C0E94410902
:10491000D8D064E278E1AFEF0E94FD0A60E07CEF5E
:10492000A0E00E94FD0A66E278E1A5E00E94FD0A8F
:10493000CDD061E278E10E94F70AA0930001A37054
:10494000A23011F40C944F7C60E07CEFA0E00E9458
:10495000FD0A66E278E1A1E40E94FD0AB7D060E0BA
:104960007CEFA0E00E94FD0A66E278E1A5E00E94EB
:10497000FD0AACD061E278E10E94F70AA093010140
:10498000A370A23000E109F008E30C94507C0E946F
:10499000410997D064E278E1AFEF0E94FD0A60E040
:1049A0007CEFA0E00E94FD0A66E278E1A1E40E94AB
:1049B000FD0A8CD086D060E07CEFA0E00E94FD0A6A
:1049C00066E278E1A5E00E94FD0A0E9466250C944B
:1049D000507C0E944109C8010E94057C002771D0CB
:1049E00064E278E1AFEF0E94FD0AA0E90E94120B99
:1049F0000E94210BACE40E94120BDC0111970E9473
:104A0000150B0E94210BA0E50E94120B0E94067C50
:104A10000E94120B0E94210B66E278E1A5E20E943F
:104A2000FD0A54D0003099F62319320961F70C942D
:104A30004F7C0E944109C8010E94057C0E94FA0A2D
:104A400023193209D9F70C944F7C0E944109C801FF
:104A50000E94057CA0E90E94120B0E94210BACE48D
:104A60000E94120BDC0111970E94150B0E94210B72
:104A7000A0E70E94120B0E94210B0E94180B0E94BB
:104A8000097C23193209A1F70C944F7C4198399A7B
:104A9000E2E0F0E00E94017CE0E0F0E0419A0000FA
:104AA00000000000000039983199FECFE395319B5A
:104AB000FDCFE0930201F09303010E94CD090C9415
:104AC0004F7CA0E365E278E10C94FD0A1F910F9101
:104AD000A0E865E278E10E94FD0AE0E0F0E0EF93F3
:104AE000FF9365E278E10E94F70A0E941E0BFF9196
:104AF000EF91A7FD05C0319791F701E40C94507C2C
:104B0000F801002709940E94067C0E94120B0E9463
:104B1000210B0C944F7C0E94087C0E94150BF7CF50
:104B20000E94120B0E94210B0E94180B0C94097C0E
:104B30000E94120B0E94210B0E941B0B0C940A7CFA
:104B40000E94057C0C944109FBDFA32FDECFF8DF28
:104B5000A32F0E94120BA02FD8CFF2DFA32F0E9409
:104B6000120BD801DACFECDFA4EEDADF0C944F7C25
:104B7000E7DFA8E6D5DFA9E6D3DFACE6D9DFABE611
:104B8000D7DFAFE6D5DFA2EED3DFA4EEC9DF0C940A
:104B90004F7C28B8399A389A0E94027CE2E3FF27BA
:104BA0000E94017C409AE2E3FF270E94017C419A27
:104BB000ECE2F1E00E94017C689440E1AA270E94A7
:104BC000CF1CE6E1FF270E94017C4A95B9F7A0EBD4
:104BD0000E94CF1C0E94061D06E416F502E4A03BCD
:104BE000E1E0F0E00E94017CA5EB0E94CF1CE1E037
:104BF000F0E00E94017CA0E00E94CF1C0E94061DF4
:104C000001E476F40C944F7C28B8399A389AE2E3A0
:104C1000FF270E94017C0E94037C27B80C944F7CE4
:104C2000A09300010C94507CAF93AB2FAA95000089
:104C3000000000000000000000000000AA95B1F78D
:104C4000AF9108953327F8010E94057C0E94067CED
:104C50003A0F3197D9F7AAEF0E94301CB801A62F5E
:104C60000E94301CA72F0E94301CA32F0E94301CD2
:104C70000E94057C0E94067C0E94301C6319720908
:104C8000C9F700270C94507C0E94057CAAEF0E9473
:104C9000301CA02F0E94301CA12F0E94301CA32F7B
:104CA0000E94301C80E098E00E94067C0E94301C2C
:104CB0000197D1F700270C94507C0E94057CC80115
:104CC000F3CFBDD0A5EF0E94301CAFED0E94301C89
:104CD000AFEF0E94301CA0E00E94301CA7E00E94B1
:104CE000301C0E94057C47E00E94067C0E94301C1C
:104CF0004A95D1F7E0E0F1E00E94017C73EC60E5B9
:104D0000A2D00C94507C0E94057C0E94067C7A2FD5
:104D10000E94067C6A2FA72BA1F091D0A0E20E94EE
:104D2000301CA62F0E94301CA72F0E94301CA0ED23
:104D30000E94301CE0E0F2E00E94017C73EC60E530
:104D400082D0C03111F70C944F7CA32F0E94301CED
:104D5000A12F0E94301CA02F0E94301C0E94641CB6
:104D6000A09300010C944F7CC8010E94057C67D081
:104D7000A1E40E94301CA82F0E94301CA92F0E9481
:104D8000301C44270E94067C0E94301C4A95D1F7B3
:104D9000E5E0F0E00E94017C7EE460E254D0019600
:104DA0002A9529F70C944F7C4AD0A6E20E94301C29
:104DB000A0ED0E94301CEAE0F0E00E94017C73E16B
:104DC00068E841D00C944F7CC8010E94057CAFEF8D
:104DD0000E94301CA82F0E94301CA92F0E94301C5A
:104DE00030E00E94641C6EF40E94097C3A95C9F779
:104DF000E2E0FF270E94017C01962A9541F70C947E
:104E00004F7CC0932001D093210120932201A5E57E
:104E1000A093230100E40C94507C0E94057CABEF2E
:104E20000E94301C38E00E94641C5EF70E94097CDE
:104E30003A95C9F7AA270E94097C0C944F7C689484
:104E4000A0E50C94301C6894EAE0F0E00E94017C3C
:104E50002092200120922101209222012092230100
:104E6000A0E70E94301C0E94641C4A2F1EF50E947D
:104E7000641C5A2F26F547FD05C06319720921F7F6
:104E800005E419C040932001509321016093220151
:104E900070932301407321F0429508E4040F0BC086
:104EA0005C705C3029F0569556950CE4050F03C0F4
:104EB0000027089500E40F900F900C94507C00E5BB
:104EC0000F900F900C94507C432E0C944F7C0E94BA
:104ED000027C4198399A43983B9A389A4098E8EC7A
:104EE000FF270E94427EACEA48D1A3E546D1A0E06C
:104EF00044D1BA2FA0E041D1B33511F40C944F7CCA
:104F000001E40C94507C0E94057C00E0A0E335D1C4
:104F100033D1A02F32D130D10E94837D039503304D
:104F2000A9F7A0E52AD128D127D126D10E94837DD7
:104F3000A8E523D1A8E021D11FD11ED10E94837DF5
:104F4000A0E51BD1A8E019D117D116D10E94837D0D
:104F5000A8E513D111D110D10FD10E94837DA8E310
:104F60000CD10AD109D108D10E94837D0C944F7CC9
:104F7000ACEA03D1A0E801D1FFD013D10C944F7C4F
:104F8000ACEAFBD0A0E8F9D0F7D0F6D0E4E1F0E04D
:104F90000E94017C0C944F7C0E94057CC80166270E
:104FA000A0E4D4D0D2D0A62FD1D00E94067CCED0FF
:104FB000A8E4CCD0CAD0A62FC9D00E94067CC6D007
:104FC0006395631769F7ACE4C1D0A92FBFD0A82FB0
:104FD000BDD0E7D0830F921D2A9509F70C944F7C22
:104FE0000E94057CC8016627A0E4B0D0AED0A62FF1
:104FF000ADD00E94067CAAD0A8E4A8D0A6D0A62F47
:10500000A5D00E94067CA2D06395631769F7ACE433
:105010009DD0A92F9BD0A82F99D097D0E5E0F0E0A4
:105020000E94017C830F921D2A95E9F60C944F7C17
:10503000C8010E94057CA0E289D0A92F87D0A82FA3
:1050400085D083D00E94097CA8E280D0A92F7ED091
:10505000A82F7CD07AD00E94097C01962150304044
:1050600051F70C944F7C0E94057CF80160E0A1ECA4
:105070006DD06BD0A62F6AD00E94067C67D0639556
:105080006317A9F7A2EC62D0A12F60D0A02F5ED049
:1050900088D0030F121D2A9549F70C944F7C0E946B
:1050A000057CF80160E0A1EC51D04FD0A62F4ED086
:1050B0000E94067C4BD063956317A9F7A2EC46D0FB
:1050C000A12F44D0A02F42D040D0EAE0F0E00E94CF
:1050D000017C030F121D2A9529F70C944F7CC801FF
:1050E000F9010E94057CA0EA31D0A92F2FD0A82F6A
:1050F0002DD02BD00E94097C01963197A1F70C94FA
:105100004F7CACEA3AD0A0EA0BC0ACEA36D0A8EAB1
:1051100007C0ACEA32D0A4EA03C0ACEA2ED0A0EEBD
:105120002CD02AD0A02F30FD03C049D00C944F7C46
:1051300024D0EAE0F0E00E94017C0C944F7C28B877
:105140000E94037C27B80C944F7CAA2758E040FEAD
:1051500015C0A7FD439AA7FF4398419A44E04A959A
:10516000F1F7889432990894AA1F419844E04A952F
:10517000F1F75A9571F70895AA2758E0A7FD439AC9
:10518000A7FF4398419A48EC4A95F1F788943299E1
:105190000894AA1F419848EC4A95F1F75A9571F77F
:1051A0000895AA27D3DFA0E0AA95F1F7A0EFCEDFFC
:1051B000CCDFCBDFCBDFA0FDF6CF0895AA27DDDF64
:1051C000A0E0AA95F1F7A0EFD8DFD6DFD5DFD5DFD5
:1051D000A0FDF6CF0895512F822E9924A2E0AA2E89
:1051E00028B8A7E1A7B90E94027CE6E9F0E00E9496
:1051F000427E449A419A429A439AE1E0F0E00E944A
:10520000427E409AE5E0F0E00E94427E4098E1E074
:10521000F0E00E94427E409AE52FF0E00E94427E3C
:1052200044982CD4449A2AD43A95D1F73B9884E1F7
:105230003BD42EF48A95E1F701E40C94507CE2E330
:10524000F0E00E94017C22D4BEF3A5E5F2D3A0E0F9
:10525000F0D3A13C19F002E40C94507C0C944F7CE8
:1052600028B80E94037C27B80C944F7C00E40C946F
:10527000507C28B8A7E1A7B9E2E3F0E00E94427EA3
:10528000E2E3F0E00E94427E409A68940C944F7CE6
:10529000932C0C944F7C0E94057CEAEBF2E5A1E094
:1052A00053D333D33EF0EAEBF2E5A82D4DD382D3AE
:1052B0000C944F7C04E40C94507C01380E94057CD3
:1052C000A6D3A0E0B5D3A1E1B3D3A0E3B1D390E1DD
:1052D0000E94067CADD39A95D9F7A8D3A1D30E949A
:1052E000057C68D30C944F7C0E94057C90D3A0E091
:1052F0009FD3A1E19DD3AAE29BD3E9CF0E94057C75
:1053000086D3A0E095D3A1E193D3A8E291D3DFCFD8
:105310000E94057CEEE2F3E5A1E016D3F6D256F248
:10532000EEE2F3E5A82D10D345D30C944F7C012B6E
:105330000E94057CECE5F3E5AAE0A39FE00DF11DDA
:10534000A1E002D3E2D23EF0E4EDF3E5A82DFCD2D9
:1053500031D30C944F7C04E40C94507C0932007AD5
:10536000120003D09000093200B71B0003D0900058
:10537000093200F4240003D09000093201312D00DD
:1053800003D090000932016E360003D0900009323C
:105390000000000003D090000932007A120004C41B
:1053A000B400093200B71B0004C4B400093200F491
:1053B000240004C4B400093201312D0004C4B40037
:1053C0000932016E360004C4B40009320000000046
:1053D00004C4B40001320E94057CE0EFF3E5A1E0D3
:1053E000B3D293D216F00C944F7C04E40C94507C0E
:1053F00001000E94057CE6E1F4E5A1E0A5D285D29A
:105400003EF0E6E1F4E5A82D9FD2D4D20C944F7C77
:1054100004E40C94507C012C0E94057CEAE2F4E543
:10542000A1E092D2C7D20C944F7C01240E94057C4B
:10543000E0E5F4E5A1E088D268D23EF0E0E5F4E5ED
:10544000A82D82D2B7D20C944F7C04E40C94507CEB
:10545000013A009390101093911020939210309382
:1054600093100C944F7C00939410109395102093FC
:105470009610309397100C944F7C0E94057CC7D2F5
:10548000A0E0D6D2A9E0D4D2A0E1D2D2A0919310CC
:10549000CFD2A0919210CCD2A0919110C9D2A0915C
:1054A0009010C6D2A0919710C3D2A0919610C0D2EE
:1054B000A0919510BDD2A0919410BAD2B7D2B0D21B
:1054C00079D20C944F7CA3D2A0E0B2D2A5E0B0D2A6
:1054D000A2E1AED2A32FACD2A22FAAD2A12FA8D2E2
:1054E000A02FA6D2A3D29CD210D216F00C944F7C3F
:1054F00006E40C94507C8BD2A0E09AD2A2E098D221
:10550000A0E596D2A32F94D291D28AD2FED186F36F
:105510000C944F7C70E27BD2A0E08AD2A5E088D2C6
:10552000A2E186D2A32F84D2A22F82D2A12F80D231
:10553000A02F7ED20F937AD273D2E7D176F00F915B
:10554000A0E40A0F121D221D321DE1E0F0E00E94CE
:10555000017C7A9501F70C944F7C0F9106E40C9432
:10556000507C0E94057C53D2A0E062D2A9E060D2B8
:10557000A22F5ED2A09193105BD2A091921058D22C
:10558000A091911055D2A091901052D2A091971055
:105590004FD2A09196104CD2A091951049D2A091D3
:1055A000941046D243D23CD2B0D10C94507C0E948D
:1055B000057C2DD2A0E03CD2A9E03AD2AFE338D2AC
:1055C000A091931035D2A091921032D2A091911057
:1055D0002FD2A09190102CD2A091971029D2A091F7
:1055E000961026D2A091951023D2A091941020D28B
:1055F0001DD216D28AD10C94507CC801622E232F62
:1056000001960E94057C06D2A92F12D2A82F10D293
:10561000A62D0ED201970E94067C0AD20197D9F7D7
:1056200005D2A22F05D2E2E0F0E00E94017C0E94A8
:10563000057C6BD10C94507CC801622E232F0196FF
:105640000E94057CE7D1A0E0F3D1A5E0F1D1A62D21
:10565000EFD10197A0E0ECD1A0E0EAD1A92FE8D1E9
:10566000A82FE6D1E3D1A22FE3D1E1E0F0E00E9440
:10567000017C0E94057C49D10C94507C0E94057CE1
:10568000C6D1A0E0D5D1A3E6D3D1ADE2D1D182E697
:105690000E94067CCDD18A95D9F7C8D1C1D135D128
:1056A0000C94507C0E94057CB2D1A0E0C1D1A1E055
:1056B000BFD1AEE2BDD1BAD1B3D127D1E7D1AAD102
:1056C000A0E0B6D1A1E0B4D1AEE2B2D1AFD1A8D1C1
:1056D00071D10C944F7CC80102C080E094E0232F6C
:1056E00001960E94057C96D1A92FA2D1A82FA0D106
:1056F000AFE39ED101970E94067C9AD10197D9F71A
:10570000E1E0F0E00E94017C91D1A22F91D1E1E093
:10571000F0E00E94017C0E94057CF7D00C94507C44
:105720000E94057C74D1A0E083D1A9E081D1A5E1DC
:105730007FD1A09193107CD1A091921079D1A091AA
:10574000911076D1A091901073D1A091971070D143
:10575000A09196106DD1A09195106AD1A09194104E
:1057600067D164D15DD1D1D00C94507C0E94057C6E
:1057700051D1A0E05DD1A1E05BD1A5E159D156D1D5
:105780004FD1F9D0A53191F4E1E0F0E00E94017C25
:1057900041D1A0E04DD1A1E04BD1A5E149D146D105
:1057A0003FD1E9D0A53111F40C944F7C0C94507C7E
:1057B0000E94057C2CD1A0E03BD1A1E037FFA2E004
:1057C00037D1A7E235D1A32F37FF32D12FD128D13E
:1057D0009CD05CD11FD1A0E02BD1A1E029D1A7E2C0
:1057E00027D124D11DD1E6D00C944F7C0E94057C9A
:1057F0000ED1A0E01DD1A9E01BD1A8E119D188E00C
:105800000E94067C15D18A95D9F710D109D17DD097
:105810000E94057C3BD1FED0A0E00AD1A1E008D1D6
:10582000A8E106D103D1FCD003D0C4D00C944F7CA6
:1058300080E0EAE0F0E00E94017C36D116F48A951F
:10584000C1F7089584E6E4E6F0E00E94017C1ED1F1
:1058500016F48A95C1F70895DAD0A0E0E9D0A2E065
:10586000E7D0A0E2E5D0A32FAF61E2D0DFD0D8D05F
:105870004CD00C94507CCBD0A0E0DAD0A3E6D8D0AA
:10588000A32FD6D0A12FD4D080E6AFEFD1D08A9568
:10589000E1F7A22FCDD0CAD0C3D037D00C94507C22
:1058A0000E94057CB4D0A0E0C3D0A1E0C1D0A32F5A
:1058B000BFD0BCD0B5D029D0E9D0ACD0A0E0B8D012
:1058C000A1E0B6D0A32FB4D0B1D0AAD054D00C94BC
:1058D0004F7C0E94057C9BD0A0E0AAD0A1E237FDBE
:1058E000A2E1A6D0A6E2A4D0A32FAF7737FDA0D027
:1058F00090E237FD90E10E94067C9AD09A95D9F704
:1059000095D08ED002D00C944F7CE894002782E38F
:10591000CBD03EF48A95E1F703E40F900F900C94FE
:10592000507C73D072D071D0A23031F06ED0A7FD10
:1059300068946BD06AD0089568D0A7FD689465D04C
:105940000A2F63D062D00895E89484E19FD03EF49A
:105950008A95E1F703E40F900F900C94507C552446
:1059600068D053D08591A82F63D0A59161D08A9536
:10597000E1F75CD055C0E89488EC96D03EF48A9567
:10598000E1F703E40F900F900C94507C3ED03DD093
:105990009A2F3BD08A2F39D00A2F0197A82FA92BF5
:1059A00029F033D00E94097C0197F8CF2ED02DD05A
:1059B000A02F0895E89488EC77D03EF48A95E1F71B
:1059C00003E40F900F900C94507C1FD00E94097C30
:1059D0001CD00E94097C9A2F18D00E94097C8A2F23
:1059E00014D00E94097C0A2F0197A82FA92B29F017
:1059F0000CD00E94097C0197F8CF07D00E94097C47
:105A000004D00E94097CA02F0895AA2711C0A1E00C
:105A100055240FC0A82D55240CC0A2E0552409C060
:105A2000A3E007C0A7E105C055240895A52D01C036
:105A30005A1AB8E090FE0CC0A7FD429AA7FF429800
:105A4000A6B8AA0F3399A395A6B8BA95A9F7089551
:105A5000EF93E0E0EA95F1F7E0E8EA95F1F7EF91EE
:105A60004198A7FD429AA7FF4298AA0F07D0339901
:105A7000A395419A03D0BA9599F70895BF93B0E0E2
:105A8000BA9500000000E1F7BF910895FF93EF93EE
:105A9000EE27FF27E894339B04C013D03197D9F742
:105AA0006894EF91FF910895FF93EF93EE27FF27FE
:105AB000E894339904C005D03197D9F76894EF91F1
:105AC000FF910895A5ED0E94120B0E94210BA0E901
:105AD0000E94120B0E94210B0C944F7C0E944109E2
:105AE0000E94057CC901A5E40E94120BD8011297FF
:105AF0000E94150B0E94210BA2E40E94120B0E942F
:105B0000067CBA2F0E94067C0E94150B0E94210B76
:105B1000019791F70C944F7C0E944109A3E40E94E5
:105B2000120BD8010E94150B0E94210BA8E00E94C5
:105B3000120B0C944F7C0E944109A3E40E94120BAB
:105B4000D8010E94150B0E94210BA8E00E94120BA5
:105B5000002780E090E00E94240BA6FF0C94507C6C
:105B6000A0E0AA95F1F70197B1F703E00C94507CFF
:105B7000302F0E944109193108F017E02CE0120F74
:105B800011BDA5ED0E94120B0E944909A6ED0E94CD
:105B9000120B0E94210BA0E06CE370E00E94030B4B
:105BA0000E94210BA32F60E171E00E94030B0E9471
:105BB000210BA32F60E071E00E94030B0E94210BD8
:105BC00094D193D164E071E0AFEF0E94030B64E1E4
:105BD00071E0AFEF0E94030B0C94507C0E944109CE
:105BE000002765E071E0A0E30E94030B62E071E032
:105BF000A0E00E94030B65E071E0A2E00E94030BAD
:105C000062E071E0A0E10E94030B68E071E0AEEF9A
:105C1000BFEF0E940F0B6AE071E0AFEFBFEF0E9491
:105C20000F0B66E071E0A1E40E94030B59D10C94C4
:105C3000507C0E944109002765E171E0A0E30E94C9
:105C4000030B60E07CE0A0E0BCE00E940F0B66E18B
:105C500071E0A1E40E94030B61D10C94507C0E947E
:105C600041090027E0E0F2E00E94017C65E071E07C
:105C7000A0E30E94030B62E071E0A0E00E94030B2E
:105C800065E071E0A2E00E94030B62E071E0A0E138
:105C90000E94030B68E071E0AEEFBFEF0E940F0BB4
:105CA0006AE071E0AFEFBFEF0E940F0B66E071E0BA
:105CB000A1E40E94030B14D165E171E0A0E30E940E
:105CC000030B62E171E0A0E00E94030B65E171E06B
:105CD000A2E00E94030B62E171E0A0E10E94030BCD
:105CE00068E171E0A0E0BCE00E940F0B6AE171E0A6
:105CF000A0E0B0E00E940F0B66E171E0A1E40E9419
:105D0000030B0CD10E94B0090030A1F5A32F60E174
:105D100071E00E94030B0E94210BA32F60E071E051
:105D20000E94030B0E94210BE0D062E071E0A0E032
:105D30000E94030B60E370E0AFEF0E94030B64E08E
:105D400071E0AFEF0E94030B64E171E0AFEF0E94DE
:105D5000030B65E071E0A2E30E94030B6EE07FEFAE
:105D6000AEEFBFEF0E940F0B66E071E0A0E20E9471
:105D7000030BB6D00C94507C0E9441090E94057C14
:105D8000C901A12F60E370E00E94030BA4D00E9420
:105D90000C0B66E071E0A0E20E94030BA1D006FFAD
:105DA00005C000908110D01589F700270C94507C15
:105DB0000E944109AED00E94057C80E098E0A02FAF
:105DC00067E170E00E94030B0E94892F0E940C0B78
:105DD00066E171E0A0E20E94030BA0D006FF05C0BF
:105DE00000908110D01581F700270C94507C0E9400
:105DF000410971D00E94057CC901A02F60E370E0C9
:105E00000E94030BA12F67E170E00E94030B0E9428
:105E1000060B00908310D015D1F700270C94507C0E
:105E20000E944109C90157D00E94057CA02F60E360
:105E300070E00E94030BA5E40E94120BDC01129794
:105E40000E94150B0E94210BA2E60E94120B0E94D9
:105E50001E0B0E941E0B0E941B0B0E940A7C0090CE
:105E6000831091F700270C94507C0E94410933D095
:105E70000E94057C80E098E0A02F67E170E00E941E
:105E8000030B0E94060B00908310F1F6D1F7002758
:105E90000C94507C0E944109A02FAA0FAA9564E39C
:105EA00070E00E94030BA3E065E370E00E94030B27
:105EB000E2E3F0E00E94017CA0E869E370E00E9468
:105EC000030BE5E0F0E00E94017CA4E80E94270BB0
:105ED00000E00C94507CA2E365E071E00C94030BAD
:105EE000A0E865E071E00E94030B20E038EC0E941E
:105EF000210B65E071E00E94000BA6FD08C023198C
:105F00003209A9F702E0AF91AF910C94507C0A2FAF
:105F10000895A0E365E171E00C94030BA0E865E14E
:105F200071E00E94030B20E034E10E94210B65E147
:105F300071E00E94000BA6FD08C023193209A9F7E1
:105F400002E0AF91AF910C94507C0A2F0895302F4E
:105F50000E944109193108F017E02CE0120F11BD21
:105F6000A5ED0E94120B0E944909A6ED0E94120B9A
:105F70000E94210BA0E06CE370E00E94030B0E94E2
:105F8000210BA32F60E071E00E94030B0E94210B04
:105F9000AFEF68E071E00E94030B0E94210BAFEFAE
:105FA00069E071E00E94030B0E94210BCBD00C949E
:105FB000507C0E944109BCD000E018E0A0E0D7D09E
:105FC000BCD00C94507C0E944109B2D00FE719E07C
:105FD000A0E0CDD000E010E0A1E0C9D0AED00C949C
:105FE000507C0E944109A4D000E01FE0A0E0BFD097
:105FF00000E810E0A1E0BBD000E010E0A2E0B7D0E4
:106000009CD00C94507C0E94410992D00FE716E07E
:10601000A0E0ADD008E01FEFA1E0A9D00FEF1FEF87
:10602000A2E0A5D00FEF1FEFA3E0A1D00FEF1FEF6D
:10603000A4E09DD00EEF1FEFA5E099D07ED00C9488
:10604000507C0E944109002700270C94507C0E943C
:1060500041090E94057CC8016BD011E107C00E9474
:1060600041090E94057CC80163D016E01F93A0E09F
:10607000022F7DD08C01A1E07AD00E94077C8D0197
:10608000A2E075D00E94077C8D01A3E070D00E9431
:10609000077C8D01A4E06BD00E94077C8D01A5E0F8
:1060A00066D04BD008961F91D83001F70C94507CE5
:1060B0000E9441093DD00E94057CC901A02F65E1E5
:1060C00070E00E94030BA12F67E170E00E94030BB8
:1060D0000E94060BD830E1F700270C94507C0E94F8
:1060E0004109C90125D00E94057CA02F65E170E01F
:1060F0000E94030BA12F67E170E00E94030BA5E44F
:106100000E94120BDC0112970E94150B0E94210BBA
:10611000A2E60E94120B0E941E0B0E941E0B0E9400
:106120001B0B0E940A7CD83099F700270C94507CF6
:10613000A0E366E071E00C94030BA0E866E071E078
:106140000E94030BEE27F0E20E94210B66E071E053
:106150000E94000BAF3F11F0A7FD07C03197A1F7D8
:1061600005E3AF91AF910C94507C0A2F089562E043
:1061700071E00E94030BA12F6AE071E00E94030B03
:10618000A02F6BE071E00C94030B0E9441090F9368
:10619000A12F64E370E00E94030BAF9165E370E010
:1061A0000E94030BE2E3F0E00E94017CA0E869E3B7
:1061B00070E00E94030BE5E0F0E00E94017CA4E89F
:1061C0000E94270B0C944F7C419806D0409804D035
:1061D000419A02D0409A00D0089540FD419A40FF74
:1061E0004198FADF4098F8DF409AF6DF0895419829
:1061F000F8CF419AF6CF3998419840984427ECDF80
:1062000031994395419AE8DF409A399A0895419827
:10621000E3DF4098E1DFF099419ADEDF409AE7DF63
:10622000EADFF09808954198D7DF4098D5DFF099DC
:10623000419AD2DF409ADDDFDEDFF09A0895409880
:106240004198389A399A07D0419A05D0409A03D09C
:10625000409801D0409A50EA5A95F1F70895409835
:106260004198389A399A38983998F5CF10E1C1DFBA
:106270004EB3B3DFC0DFBBDFBCDFBDDFB8DFB9DFEC
:10628000BADF41E0131140E0A8DFAA0FBB1F441F93
:10629000A4DFB1DF4695EE1FFF1F1A9591F72DC0C1
:1062A000A8DF4EB39ADFA7DFA2DFA3DFA4DF9FDF63
:1062B000A0DFA1DF14E040E090DF8FDF9CDF1A95C4
:1062C000D1F710E1DECF95DF4EB387DF94DF91DFAA
:1062D00090DF91DF8CDF8DDF8EDF89DF8ADF8BDF60
:1062E00018E041E0131140E078DFA695441F75DF08
:1062F00082DF4695E7951A95A1F77BDF7ADF7BDF92
:1063000076DF4EB36ADF77DFA6CF16E072DF71DF8C
:1063100072DF1A95D9F76BDF6CDF6DDF6ADF69DF3B
:106320006ADF65DF66DF67DF64DF63DF64DF5FDF4F
:1063300060DF61DF5EDF5DDF5EDF5BDF5ADF5BDF7B
:1063400056DF57DF58DF0895A4E1BDDF24E6A0E063
:10635000B0E08CDF5CDF67DF2A95C9F7A1E4B3DF2B
:10636000AFEFBFE383DF53DFA3E1ADDFA9E0B4E22A
:106370007DDF59DF0895A1E4A6DFAFEFBFE376DF4D
:1063800046DFA3E1A0DFA1E0B4E270DFA4E89BDF79
:106390004ADF0895A3E197DFA1E0B5E167DFA4E15B
:1063A00092DF22E3A0E0B0E061DF2A95D9F72FDF8A
:1063B0003ADFA3E188DFA1E0BCE058DFA1E0B4E070
:1063C00055DFC5E024DF2FDFCA95E1F7A1E0B5E096
:1063D0004DDF1DDF28DFA4E176DFA0E0B0E046DF7F
:1063E000E8940895E894A4E16EDFAAEABAEA3EDFF1
:1063F000E53519F4F53509F468940895A3E163DFF0
:10640000A1E0B4E233DFA4E15EDF24E6A0E0B0E087
:106410002DDF2A95D9F7F1FF68940895A7E153DF9E
:10642000B0E0A0E023DF0E2F0895A7E84CDFB0E036
:10643000A0E036CF802F13DF0E94027CF09AECE3BD
:10644000F0E00E94017CFBDE06DF5FDF04DFAFEFE0
:106450003ADFE0930001E81709F4089501E50F9091
:106460000F901FC0C901E6DFE89402E5BBDFCEF064
:1064700003E5C4DFB6F068DFCADEA3E124DFA8E0ED
:10648000B4E2F4DEA3E81FDFA0E2B1E0EFDEA5E8AE
:106490001ADFA0E8BAE5EADEC6DEB9DE00270C9412
:1064A000507CDDDE0E94037C0C94507CB801C90155
:1064B0000E94057CACDEA3E106DFA9E0B4E2D6DEF3
:1064C000A3E801DFDE01A60FB71FD0DEA5E8FBDEE3
:1064D000AADE9DDEA0E0B0E0C9DEDF010E940B7CF9
:1064E000019771F7DBCFB801C90191DEA3E1EBDEC3
:1064F000A8E1B4E2BBDE0E94057CA3E8E4DEDE0195
:10650000A60FB71FB3DEA5E8DEDE0E94067CBB2720
:10651000ADDE89DE7CDE019781F7C0CFB801C9010D
:1065200076DEA3E1D0DEA8E0B4E2A0DE0E94057C26
:10653000A3E8C9DEDE01A60FB71F98DEA5E8C3DE1B
:106540000E94087C93DE6FDE62DE019789F7A6CF9A
:10655000B80111DFA3E1B7DEA1E0B4E387DEA1E477
:10656000B2DEA0E3B0E482DE52DE5DDEDB017EDE81
:106570004EDEA4E8A8DE57DE4ADEA3E1A4DEA1E0F9
:10658000B4E274DEA5E19FDE89CF920188E699E24C
:1065900071E000FD03C084EB94E173E1D5DE37DEEA
:1065A000A3E191DEA8E0B4E261DEA3E88CDEA8E21C
:1065B000B1E05CDEA5E887DEA6E0B5EA57DE33DEB3
:1065C00026DEA3E880DEAAE2B1E050DEA5E87BDEAD
:1065D000A0E4B5EA4BDE27DE04FF0CC018DEA3E81A
:1065E00072DEACE2B1E042DEA5E86DDEA0E4B5EA21
:1065F0003DDE19DE0CDEA3E866DEAEEFBFEF36DE71
:10660000A5E861DEAAEAB5E531DE0DDE00DEA3E134
:106610005ADEA9E0B4E22ADE28B12C7F322F3160A5
:10662000422F4260522F5360DC0138B928B938B983
:1066300058B948B958B9399848B958B9399A38B990
:1066400028B948B958B938B928B938B9399828B9E2
:1066500038B9399A119749F7A3E135DEA8E0B4E2D9
:1066600005DEA3E830DEA8E2B1E000DEA5E82BDE1F
:10667000A0E0B5EAFBDDD7DDCADDA3E824DEACE2AD
:10668000B1E0F4DDA5E81FDEA0E0B5EAEFDDCBDD8B
:106690007A9509F084CF6FDE01CFB801C90154DECD
:1066A0000E94057CB4DDA3E10EDEA8E0B4E2DEDDED
:1066B000A3E809DEA8E2B1E0D9DDA5E804DEA0E4A4
:1066C000B5EAD4DDB0DDA3DDA3E8FDDDAAE2B1E0EB
:1066D000CDDDA5E8F8DDA0E4B5EAC8DDA4DD97DDF1
:1066E000A3E8F1DDACE2B1E0C1DDA5E8ECDDA0E0BE
:1066F000B5EABCDD98DD8BDDA3E1E5DDA8E0B4E221
:10670000B5DDA3E8E0DDDB01AC0FBD1FAFDDA5E823
:10671000DADD0E94087CAADD86DD79DDA3E1D3DD28
:10672000A9E0B4E2A3DD28B12C7F322F3160422FE3
:106730004260522F5360A3E238B928B938B958B92A
:1067400048B958B9399848B958B9399A38B928B9AF
:1067500048B958B938B928B938B9399828B938B9C1
:10676000399AAA9549F7019749F6A3E1ACDDA8E06B
:10677000B4E27CDDA3E8A7DDA8E2B1E077DDA5E81F
:10678000A2DDA0E0B5EA72DD4EDD41DDA3E89BDDD0
:10679000ACE2B1E06BDDA5E896DDA0E0B5EA66DD30
:1067A00042DDE9DD7BCE46DE1DDEA1E68CDDA1E12A
:1067B000B0E05CDDE07FAAE5B5EA58DDAEE1BEE120
:1067C00055DD38983998EFE0F0E00E94017C37DD24
:1067D00042DD9BDD40DDA1E676DDC0E1A1E0B0E079
:1067E00045DDE1E0FF270E94017CAFEFBFEF3EDD1A
:1067F000CA95B9F7CFDDA4E166DDA0E0B0E036DDF3
:1068000006DDA3E160DDA0E0B5E030DDA3E85BDDFF
:10681000ACE5B1E045DD07DDA5E855DDA0E8BAE56A
:1068200025DDF5DCA3E14FDDA1E0B5E01FDDFBDCFC
:10683000EEDCF9DC00270C94507CB801C9010E9401
:10684000057CA4E140DDA0E0B0E010DDE0DCA3E1E8
:106850003ADDA1E0B5E00ADDA3E835DDDE01A60FF3
:10686000B71F1EDDE0DCA5E82EDDDDDCD0DCA0E01E
:10687000B0E0FCDCDF010E940B7CD5DCC8DCD3DCA3
:106880000197F9F6D7CFB801C9010E94057CA4E1B0
:106890001ADDA0E0B0E0EADCBADCA3E114DDA0E19F
:1068A000B5E0E4DCA3E80FDDDE01A60FB71FF8DCDE
:1068B000BADCA5E808DD0E94067CBB27D7DCA7DC94
:1068C000A3E101DDA1E0B5E0D1DCADDCA0DCABDC17
:1068D0000197E9F6AFCFB801C9010E94057CA4E198
:1068E000F2DCA0E0B0E0C2DC92DCA3E1ECDCA0E0F2
:1068F000B5E0BCDCA3E8E7DCDE01A60FB71FD0DC07
:1069000092DCA5E8E0DC0E94087CB0DC80DCA3E13E
:10691000DADCA1E0B5E0AADC86DC79DC84DC019776
:10692000F1F688CFA4E1CFDCA0E0B0E09FDC6FDC23
:10693000A3E1C9DCA1E0B5E099DCA3E8C4DCDC019B
:10694000AFDC71DCA5E8BFDC6EDC61DCA0E0B0E0B0
:106950008DDCBF0168DC5BDC66DC0895A4E1B3DCA0
